{
	"contracts/ShareToken.sol": {
		"ShareToken": {
			"abi": [
				{
					"inputs": [],
					"stateMutability": "nonpayable",
					"type": "constructor"
				},
				{
					"anonymous": false,
					"inputs": [
						{
							"indexed": true,
							"internalType": "address",
							"name": "from",
							"type": "address"
						},
						{
							"indexed": true,
							"internalType": "address",
							"name": "to",
							"type": "address"
						},
						{
							"indexed": false,
							"internalType": "uint256",
							"name": "value",
							"type": "uint256"
						}
					],
					"name": "Transfer",
					"type": "event"
				},
				{
					"inputs": [],
					"name": "airdropMint",
					"outputs": [
						{
							"internalType": "uint256",
							"name": "",
							"type": "uint256"
						}
					],
					"stateMutability": "view",
					"type": "function"
				},
				{
					"inputs": [
						{
							"internalType": "address",
							"name": "",
							"type": "address"
						}
					],
					"name": "balanceOf",
					"outputs": [
						{
							"internalType": "uint256",
							"name": "",
							"type": "uint256"
						}
					],
					"stateMutability": "view",
					"type": "function"
				},
				{
					"inputs": [
						{
							"internalType": "address",
							"name": "borrower_address",
							"type": "address"
						},
						{
							"internalType": "address",
							"name": "contributor_address",
							"type": "address"
						},
						{
							"internalType": "uint256",
							"name": "depositAmount",
							"type": "uint256"
						}
					],
					"name": "borrowerNotPickedUpReturnDeposit",
					"outputs": [],
					"stateMutability": "nonpayable",
					"type": "function"
				},
				{
					"inputs": [
						{
							"internalType": "address",
							"name": "borrower_address",
							"type": "address"
						},
						{
							"internalType": "uint256",
							"name": "depositAmount",
							"type": "uint256"
						}
					],
					"name": "cancelOrderReturnDeposit",
					"outputs": [],
					"stateMutability": "nonpayable",
					"type": "function"
				},
				{
					"inputs": [],
					"name": "decimals",
					"outputs": [
						{
							"internalType": "uint8",
							"name": "",
							"type": "uint8"
						}
					],
					"stateMutability": "view",
					"type": "function"
				},
				{
					"inputs": [
						{
							"internalType": "address",
							"name": "_address",
							"type": "address"
						}
					],
					"name": "getBalance",
					"outputs": [
						{
							"internalType": "uint256",
							"name": "",
							"type": "uint256"
						}
					],
					"stateMutability": "view",
					"type": "function"
				},
				{
					"inputs": [],
					"name": "getContractAddress",
					"outputs": [
						{
							"internalType": "address",
							"name": "",
							"type": "address"
						}
					],
					"stateMutability": "view",
					"type": "function"
				},
				{
					"inputs": [],
					"name": "initialMint",
					"outputs": [
						{
							"internalType": "uint256",
							"name": "",
							"type": "uint256"
						}
					],
					"stateMutability": "view",
					"type": "function"
				},
				{
					"inputs": [],
					"name": "name",
					"outputs": [
						{
							"internalType": "string",
							"name": "",
							"type": "string"
						}
					],
					"stateMutability": "view",
					"type": "function"
				},
				{
					"inputs": [],
					"name": "nextUnlock",
					"outputs": [
						{
							"internalType": "uint256",
							"name": "day",
							"type": "uint256"
						},
						{
							"internalType": "uint256",
							"name": "hour",
							"type": "uint256"
						}
					],
					"stateMutability": "view",
					"type": "function"
				},
				{
					"inputs": [],
					"name": "owner",
					"outputs": [
						{
							"internalType": "address",
							"name": "",
							"type": "address"
						}
					],
					"stateMutability": "view",
					"type": "function"
				},
				{
					"inputs": [
						{
							"internalType": "uint256",
							"name": "amount",
							"type": "uint256"
						}
					],
					"name": "payDeposit",
					"outputs": [
						{
							"internalType": "bool",
							"name": "success",
							"type": "bool"
						}
					],
					"stateMutability": "nonpayable",
					"type": "function"
				},
				{
					"inputs": [],
					"name": "projectWallet",
					"outputs": [
						{
							"internalType": "address",
							"name": "",
							"type": "address"
						}
					],
					"stateMutability": "view",
					"type": "function"
				},
				{
					"inputs": [],
					"name": "remainingUnlockedTokens",
					"outputs": [
						{
							"internalType": "uint256",
							"name": "",
							"type": "uint256"
						}
					],
					"stateMutability": "view",
					"type": "function"
				},
				{
					"inputs": [
						{
							"internalType": "address",
							"name": "borrower_address",
							"type": "address"
						},
						{
							"internalType": "address",
							"name": "contributor_address",
							"type": "address"
						},
						{
							"internalType": "uint256",
							"name": "depositAmount",
							"type": "uint256"
						},
						{
							"internalType": "uint256",
							"name": "damagePercentage",
							"type": "uint256"
						},
						{
							"internalType": "uint256",
							"name": "airdropAmount",
							"type": "uint256"
						}
					],
					"name": "returnDepositAndAirdrop",
					"outputs": [],
					"stateMutability": "nonpayable",
					"type": "function"
				},
				{
					"inputs": [],
					"name": "symbol",
					"outputs": [
						{
							"internalType": "string",
							"name": "",
							"type": "string"
						}
					],
					"stateMutability": "view",
					"type": "function"
				},
				{
					"inputs": [],
					"name": "teamAllocation",
					"outputs": [
						{
							"internalType": "uint256",
							"name": "",
							"type": "uint256"
						}
					],
					"stateMutability": "view",
					"type": "function"
				},
				{
					"inputs": [],
					"name": "totalSupply",
					"outputs": [
						{
							"internalType": "uint256",
							"name": "",
							"type": "uint256"
						}
					],
					"stateMutability": "view",
					"type": "function"
				},
				{
					"inputs": [
						{
							"internalType": "address",
							"name": "_to",
							"type": "address"
						},
						{
							"internalType": "uint256",
							"name": "_value",
							"type": "uint256"
						}
					],
					"name": "transfer",
					"outputs": [
						{
							"internalType": "bool",
							"name": "success",
							"type": "bool"
						}
					],
					"stateMutability": "nonpayable",
					"type": "function"
				},
				{
					"inputs": [],
					"name": "unlockStart",
					"outputs": [
						{
							"internalType": "uint256",
							"name": "",
							"type": "uint256"
						}
					],
					"stateMutability": "view",
					"type": "function"
				},
				{
					"inputs": [],
					"name": "unlockTokens",
					"outputs": [],
					"stateMutability": "nonpayable",
					"type": "function"
				},
				{
					"inputs": [],
					"name": "unlockedTokens",
					"outputs": [
						{
							"internalType": "uint256",
							"name": "",
							"type": "uint256"
						}
					],
					"stateMutability": "view",
					"type": "function"
				}
			],
			"devdoc": {
				"kind": "dev",
				"methods": {},
				"version": 1
			},
			"evm": {
				"assembly": "    /* \"contracts/ShareToken.sol\":58:8722  contract ShareToken {... */\n  mstore(0x40, 0x80)\n    /* \"contracts/ShareToken.sol\":84:117  string public name = \"ShareToken\" */\n  mload(0x40)\n  dup1\n  0x40\n  add\n  0x40\n  mstore\n  dup1\n  0x0a\n  dup2\n  mstore\n  0x20\n  add\n  0x5368617265546f6b656e00000000000000000000000000000000000000000000\n  dup2\n  mstore\n  pop\n  0x00\n  swap1\n  dup2\n  tag_1\n  swap2\n  swap1\n  tag_2\n  jump\t// in\ntag_1:\n  pop\n    /* \"contracts/ShareToken.sol\":123:151  string public symbol = \"STE\" */\n  mload(0x40)\n  dup1\n  0x40\n  add\n  0x40\n  mstore\n  dup1\n  0x03\n  dup2\n  mstore\n  0x20\n  add\n  0x5354450000000000000000000000000000000000000000000000000000000000\n  dup2\n  mstore\n  pop\n  0x01\n  swap1\n  dup2\n  tag_3\n  swap2\n  swap1\n  tag_2\n  jump\t// in\ntag_3:\n  pop\n    /* \"contracts/ShareToken.sol\":181:183  18 */\n  0x12\n    /* \"contracts/ShareToken.sol\":157:183  uint8 public decimals = 18 */\n  0x02\n  exp(0x0100, 0x00)\n  dup2\n  sload\n  dup2\n  0xff\n  mul\n  not\n  and\n  swap1\n  dup4\n  0xff\n  and\n  mul\n  or\n  swap1\n  sstore\n  pop\n    /* \"contracts/ShareToken.sol\":241:249  decimals */\n  0x02\n  0x00\n  swap1\n  sload\n  swap1\n  0x0100\n  exp\n  swap1\n  div\n  0xff\n  and\n    /* \"contracts/ShareToken.sol\":233:250  uint256(decimals) */\n  0xff\n  and\n    /* \"contracts/ShareToken.sol\":229:231  10 */\n  0x0a\n    /* \"contracts/ShareToken.sol\":229:250  10**uint256(decimals) */\n  tag_4\n  swap2\n  swap1\n  tag_5\n  jump\t// in\ntag_4:\n    /* \"contracts/ShareToken.sol\":218:226  10000000 */\n  0x989680\n    /* \"contracts/ShareToken.sol\":218:250  10000000 * 10**uint256(decimals) */\n  tag_6\n  swap2\n  swap1\n  tag_7\n  jump\t// in\ntag_6:\n    /* \"contracts/ShareToken.sol\":189:250  uint256 public totalSupply = 10000000 * 10**uint256(decimals) */\n  0x03\n  sstore\n    /* \"contracts/ShareToken.sol\":332:342  msg.sender */\n  caller\n    /* \"contracts/ShareToken.sol\":301:342  address public projectWallet = msg.sender */\n  0x05\n  exp(0x0100, 0x00)\n  dup2\n  sload\n  dup2\n  0xffffffffffffffffffffffffffffffffffffffff\n  mul\n  not\n  and\n  swap1\n  dup4\n  0xffffffffffffffffffffffffffffffffffffffff\n  and\n  mul\n  or\n  swap1\n  sstore\n  pop\n    /* \"contracts/ShareToken.sol\":453:456  100 */\n  0x64\n    /* \"contracts/ShareToken.sol\":447:449  30 */\n  0x1e\n    /* \"contracts/ShareToken.sol\":433:444  totalSupply */\n  sload(0x03)\n    /* \"contracts/ShareToken.sol\":433:449  totalSupply * 30 */\n  tag_8\n  swap2\n  swap1\n  tag_7\n  jump\t// in\ntag_8:\n    /* \"contracts/ShareToken.sol\":432:456  (totalSupply * 30) / 100 */\n  tag_9\n  swap2\n  swap1\n  tag_10\n  jump\t// in\ntag_9:\n    /* \"contracts/ShareToken.sol\":400:456  uint256 public teamAllocation = (totalSupply * 30) / 100 */\n  0x07\n  sstore\n    /* \"contracts/ShareToken.sol\":512:515  100 */\n  0x64\n    /* \"contracts/ShareToken.sol\":506:508  20 */\n  0x14\n    /* \"contracts/ShareToken.sol\":492:503  totalSupply */\n  sload(0x03)\n    /* \"contracts/ShareToken.sol\":492:508  totalSupply * 20 */\n  tag_11\n  swap2\n  swap1\n  tag_7\n  jump\t// in\ntag_11:\n    /* \"contracts/ShareToken.sol\":491:515  (totalSupply * 20) / 100 */\n  tag_12\n  swap2\n  swap1\n  tag_10\n  jump\t// in\ntag_12:\n    /* \"contracts/ShareToken.sol\":462:515  uint256 public initialMint = (totalSupply * 20) / 100 */\n  0x08\n  sstore\n    /* \"contracts/ShareToken.sol\":571:574  100 */\n  0x64\n    /* \"contracts/ShareToken.sol\":565:567  50 */\n  0x32\n    /* \"contracts/ShareToken.sol\":551:562  totalSupply */\n  sload(0x03)\n    /* \"contracts/ShareToken.sol\":551:567  totalSupply * 50 */\n  tag_13\n  swap2\n  swap1\n  tag_7\n  jump\t// in\ntag_13:\n    /* \"contracts/ShareToken.sol\":550:574  (totalSupply * 50) / 100 */\n  tag_14\n  swap2\n  swap1\n  tag_10\n  jump\t// in\ntag_14:\n    /* \"contracts/ShareToken.sol\":521:574  uint256 public airdropMint = (totalSupply * 50) / 100 */\n  0x09\n  sstore\n    /* \"contracts/ShareToken.sol\":645:646  0 */\n  0x00\n    /* \"contracts/ShareToken.sol\":613:646  uint256 public unlockedTokens = 0 */\n  0x0b\n  sstore\n    /* \"contracts/ShareToken.sol\":758:982  constructor() {... */\n  callvalue\n  dup1\n  iszero\n  tag_15\n  jumpi\n  0x00\n  dup1\n  revert\ntag_15:\n  pop\n    /* \"contracts/ShareToken.sol\":790:800  msg.sender */\n  caller\n    /* \"contracts/ShareToken.sol\":782:787  owner */\n  0x0c\n  0x00\n    /* \"contracts/ShareToken.sol\":782:800  owner = msg.sender */\n  0x0100\n  exp\n  dup2\n  sload\n  dup2\n  0xffffffffffffffffffffffffffffffffffffffff\n  mul\n  not\n  and\n  swap1\n  dup4\n  0xffffffffffffffffffffffffffffffffffffffff\n  and\n  mul\n  or\n  swap1\n  sstore\n  pop\n    /* \"contracts/ShareToken.sol\":837:848  initialMint */\n  sload(0x08)\n    /* \"contracts/ShareToken.sol\":810:819  balanceOf */\n  0x06\n    /* \"contracts/ShareToken.sol\":810:834  balanceOf[projectWallet] */\n  0x00\n    /* \"contracts/ShareToken.sol\":820:833  projectWallet */\n  0x05\n  0x00\n  swap1\n  sload\n  swap1\n  0x0100\n  exp\n  swap1\n  div\n  0xffffffffffffffffffffffffffffffffffffffff\n  and\n    /* \"contracts/ShareToken.sol\":810:834  balanceOf[projectWallet] */\n  0xffffffffffffffffffffffffffffffffffffffff\n  and\n  0xffffffffffffffffffffffffffffffffffffffff\n  and\n  dup2\n  mstore\n  0x20\n  add\n  swap1\n  dup2\n  mstore\n  0x20\n  add\n  0x00\n  keccak256\n    /* \"contracts/ShareToken.sol\":810:848  balanceOf[projectWallet] = initialMint */\n  dup2\n  swap1\n  sstore\n  pop\n    /* \"contracts/ShareToken.sol\":885:886  0 */\n  0x00\n    /* \"contracts/ShareToken.sol\":858:867  balanceOf */\n  0x06\n    /* \"contracts/ShareToken.sol\":858:882  balanceOf[address(this)] */\n  0x00\n    /* \"contracts/ShareToken.sol\":876:880  this */\n  address\n    /* \"contracts/ShareToken.sol\":858:882  balanceOf[address(this)] */\n  0xffffffffffffffffffffffffffffffffffffffff\n  and\n  0xffffffffffffffffffffffffffffffffffffffff\n  and\n  dup2\n  mstore\n  0x20\n  add\n  swap1\n  dup2\n  mstore\n  0x20\n  add\n  0x00\n  keccak256\n    /* \"contracts/ShareToken.sol\":858:886  balanceOf[address(this)] = 0 */\n  dup2\n  swap1\n  sstore\n  pop\n    /* \"contracts/ShareToken.sol\":910:925  block.timestamp */\n  timestamp\n    /* \"contracts/ShareToken.sol\":896:907  unlockStart */\n  0x0a\n    /* \"contracts/ShareToken.sol\":896:925  unlockStart = block.timestamp */\n  dup2\n  swap1\n  sstore\n  pop\n    /* \"contracts/ShareToken.sol\":961:975  teamAllocation */\n  sload(0x07)\n    /* \"contracts/ShareToken.sol\":935:958  remainingUnlockedTokens */\n  0x04\n    /* \"contracts/ShareToken.sol\":935:975  remainingUnlockedTokens = teamAllocation */\n  dup2\n  swap1\n  sstore\n  pop\n    /* \"contracts/ShareToken.sol\":58:8722  contract ShareToken {... */\n  jump(tag_18)\n    /* \"#utility.yul\":7:106   */\ntag_19:\n    /* \"#utility.yul\":59:65   */\n  0x00\n    /* \"#utility.yul\":93:98   */\n  dup2\n    /* \"#utility.yul\":87:99   */\n  mload\n    /* \"#utility.yul\":77:99   */\n  swap1\n  pop\n    /* \"#utility.yul\":7:106   */\n  swap2\n  swap1\n  pop\n  jump\t// out\n    /* \"#utility.yul\":112:292   */\ntag_20:\n    /* \"#utility.yul\":160:237   */\n  0x4e487b7100000000000000000000000000000000000000000000000000000000\n    /* \"#utility.yul\":157:158   */\n  0x00\n    /* \"#utility.yul\":150:238   */\n  mstore\n    /* \"#utility.yul\":257:261   */\n  0x41\n    /* \"#utility.yul\":254:255   */\n  0x04\n    /* \"#utility.yul\":247:262   */\n  mstore\n    /* \"#utility.yul\":281:285   */\n  0x24\n    /* \"#utility.yul\":278:279   */\n  0x00\n    /* \"#utility.yul\":271:286   */\n  revert\n    /* \"#utility.yul\":298:478   */\ntag_21:\n    /* \"#utility.yul\":346:423   */\n  0x4e487b7100000000000000000000000000000000000000000000000000000000\n    /* \"#utility.yul\":343:344   */\n  0x00\n    /* \"#utility.yul\":336:424   */\n  mstore\n    /* \"#utility.yul\":443:447   */\n  0x22\n    /* \"#utility.yul\":440:441   */\n  0x04\n    /* \"#utility.yul\":433:448   */\n  mstore\n    /* \"#utility.yul\":467:471   */\n  0x24\n    /* \"#utility.yul\":464:465   */\n  0x00\n    /* \"#utility.yul\":457:472   */\n  revert\n    /* \"#utility.yul\":484:804   */\ntag_22:\n    /* \"#utility.yul\":528:534   */\n  0x00\n    /* \"#utility.yul\":565:566   */\n  0x02\n    /* \"#utility.yul\":559:563   */\n  dup3\n    /* \"#utility.yul\":555:567   */\n  div\n    /* \"#utility.yul\":545:567   */\n  swap1\n  pop\n    /* \"#utility.yul\":612:613   */\n  0x01\n    /* \"#utility.yul\":606:610   */\n  dup3\n    /* \"#utility.yul\":602:614   */\n  and\n    /* \"#utility.yul\":633:651   */\n  dup1\n    /* \"#utility.yul\":623:704   */\n  tag_49\n  jumpi\n    /* \"#utility.yul\":689:693   */\n  0x7f\n    /* \"#utility.yul\":681:687   */\n  dup3\n    /* \"#utility.yul\":677:694   */\n  and\n    /* \"#utility.yul\":667:694   */\n  swap2\n  pop\n    /* \"#utility.yul\":623:704   */\ntag_49:\n    /* \"#utility.yul\":751:753   */\n  0x20\n    /* \"#utility.yul\":743:749   */\n  dup3\n    /* \"#utility.yul\":740:754   */\n  lt\n    /* \"#utility.yul\":720:738   */\n  dup2\n    /* \"#utility.yul\":717:755   */\n  sub\n    /* \"#utility.yul\":714:798   */\n  tag_50\n  jumpi\n    /* \"#utility.yul\":770:788   */\n  tag_51\n  tag_21\n  jump\t// in\ntag_51:\n    /* \"#utility.yul\":714:798   */\ntag_50:\n    /* \"#utility.yul\":535:804   */\n  pop\n    /* \"#utility.yul\":484:804   */\n  swap2\n  swap1\n  pop\n  jump\t// out\n    /* \"#utility.yul\":810:951   */\ntag_23:\n    /* \"#utility.yul\":859:863   */\n  0x00\n    /* \"#utility.yul\":882:885   */\n  dup2\n    /* \"#utility.yul\":874:885   */\n  swap1\n  pop\n    /* \"#utility.yul\":905:908   */\n  dup2\n    /* \"#utility.yul\":902:903   */\n  0x00\n    /* \"#utility.yul\":895:909   */\n  mstore\n    /* \"#utility.yul\":939:943   */\n  0x20\n    /* \"#utility.yul\":936:937   */\n  0x00\n    /* \"#utility.yul\":926:944   */\n  keccak256\n    /* \"#utility.yul\":918:944   */\n  swap1\n  pop\n    /* \"#utility.yul\":810:951   */\n  swap2\n  swap1\n  pop\n  jump\t// out\n    /* \"#utility.yul\":957:1050   */\ntag_24:\n    /* \"#utility.yul\":994:1000   */\n  0x00\n    /* \"#utility.yul\":1041:1043   */\n  0x20\n    /* \"#utility.yul\":1036:1038   */\n  0x1f\n    /* \"#utility.yul\":1029:1034   */\n  dup4\n    /* \"#utility.yul\":1025:1039   */\n  add\n    /* \"#utility.yul\":1021:1044   */\n  div\n    /* \"#utility.yul\":1011:1044   */\n  swap1\n  pop\n    /* \"#utility.yul\":957:1050   */\n  swap2\n  swap1\n  pop\n  jump\t// out\n    /* \"#utility.yul\":1056:1163   */\ntag_25:\n    /* \"#utility.yul\":1100:1108   */\n  0x00\n    /* \"#utility.yul\":1150:1155   */\n  dup3\n    /* \"#utility.yul\":1144:1148   */\n  dup3\n    /* \"#utility.yul\":1140:1156   */\n  shl\n    /* \"#utility.yul\":1119:1156   */\n  swap1\n  pop\n    /* \"#utility.yul\":1056:1163   */\n  swap3\n  swap2\n  pop\n  pop\n  jump\t// out\n    /* \"#utility.yul\":1169:1562   */\ntag_26:\n    /* \"#utility.yul\":1238:1244   */\n  0x00\n    /* \"#utility.yul\":1288:1289   */\n  0x08\n    /* \"#utility.yul\":1276:1286   */\n  dup4\n    /* \"#utility.yul\":1272:1290   */\n  mul\n    /* \"#utility.yul\":1311:1408   */\n  tag_56\n    /* \"#utility.yul\":1341:1407   */\n  0xffffffffffffffffffffffffffffffffffffffffffffffffffffffffffffffff\n    /* \"#utility.yul\":1330:1339   */\n  dup3\n    /* \"#utility.yul\":1311:1408   */\n  tag_25\n  jump\t// in\ntag_56:\n    /* \"#utility.yul\":1429:1468   */\n  tag_57\n    /* \"#utility.yul\":1459:1467   */\n  dup7\n    /* \"#utility.yul\":1448:1457   */\n  dup4\n    /* \"#utility.yul\":1429:1468   */\n  tag_25\n  jump\t// in\ntag_57:\n    /* \"#utility.yul\":1417:1468   */\n  swap6\n  pop\n    /* \"#utility.yul\":1501:1505   */\n  dup1\n    /* \"#utility.yul\":1497:1506   */\n  not\n    /* \"#utility.yul\":1490:1495   */\n  dup5\n    /* \"#utility.yul\":1486:1507   */\n  and\n    /* \"#utility.yul\":1477:1507   */\n  swap4\n  pop\n    /* \"#utility.yul\":1550:1554   */\n  dup1\n    /* \"#utility.yul\":1540:1548   */\n  dup7\n    /* \"#utility.yul\":1536:1555   */\n  and\n    /* \"#utility.yul\":1529:1534   */\n  dup5\n    /* \"#utility.yul\":1526:1556   */\n  or\n    /* \"#utility.yul\":1516:1556   */\n  swap3\n  pop\n    /* \"#utility.yul\":1245:1562   */\n  pop\n  pop\n    /* \"#utility.yul\":1169:1562   */\n  swap4\n  swap3\n  pop\n  pop\n  pop\n  jump\t// out\n    /* \"#utility.yul\":1568:1645   */\ntag_27:\n    /* \"#utility.yul\":1605:1612   */\n  0x00\n    /* \"#utility.yul\":1634:1639   */\n  dup2\n    /* \"#utility.yul\":1623:1639   */\n  swap1\n  pop\n    /* \"#utility.yul\":1568:1645   */\n  swap2\n  swap1\n  pop\n  jump\t// out\n    /* \"#utility.yul\":1651:1711   */\ntag_28:\n    /* \"#utility.yul\":1679:1682   */\n  0x00\n    /* \"#utility.yul\":1700:1705   */\n  dup2\n    /* \"#utility.yul\":1693:1705   */\n  swap1\n  pop\n    /* \"#utility.yul\":1651:1711   */\n  swap2\n  swap1\n  pop\n  jump\t// out\n    /* \"#utility.yul\":1717:1859   */\ntag_29:\n    /* \"#utility.yul\":1767:1776   */\n  0x00\n    /* \"#utility.yul\":1800:1853   */\n  tag_61\n    /* \"#utility.yul\":1818:1852   */\n  tag_62\n    /* \"#utility.yul\":1827:1851   */\n  tag_63\n    /* \"#utility.yul\":1845:1850   */\n  dup5\n    /* \"#utility.yul\":1827:1851   */\n  tag_27\n  jump\t// in\ntag_63:\n    /* \"#utility.yul\":1818:1852   */\n  tag_28\n  jump\t// in\ntag_62:\n    /* \"#utility.yul\":1800:1853   */\n  tag_27\n  jump\t// in\ntag_61:\n    /* \"#utility.yul\":1787:1853   */\n  swap1\n  pop\n    /* \"#utility.yul\":1717:1859   */\n  swap2\n  swap1\n  pop\n  jump\t// out\n    /* \"#utility.yul\":1865:1940   */\ntag_30:\n    /* \"#utility.yul\":1908:1911   */\n  0x00\n    /* \"#utility.yul\":1929:1934   */\n  dup2\n    /* \"#utility.yul\":1922:1934   */\n  swap1\n  pop\n    /* \"#utility.yul\":1865:1940   */\n  swap2\n  swap1\n  pop\n  jump\t// out\n    /* \"#utility.yul\":1946:2215   */\ntag_31:\n    /* \"#utility.yul\":2056:2095   */\n  tag_66\n    /* \"#utility.yul\":2087:2094   */\n  dup4\n    /* \"#utility.yul\":2056:2095   */\n  tag_29\n  jump\t// in\ntag_66:\n    /* \"#utility.yul\":2117:2208   */\n  tag_67\n    /* \"#utility.yul\":2166:2207   */\n  tag_68\n    /* \"#utility.yul\":2190:2206   */\n  dup3\n    /* \"#utility.yul\":2166:2207   */\n  tag_30\n  jump\t// in\ntag_68:\n    /* \"#utility.yul\":2158:2164   */\n  dup5\n    /* \"#utility.yul\":2151:2155   */\n  dup5\n    /* \"#utility.yul\":2145:2156   */\n  sload\n    /* \"#utility.yul\":2117:2208   */\n  tag_26\n  jump\t// in\ntag_67:\n    /* \"#utility.yul\":2111:2115   */\n  dup3\n    /* \"#utility.yul\":2104:2209   */\n  sstore\n    /* \"#utility.yul\":2022:2215   */\n  pop\n    /* \"#utility.yul\":1946:2215   */\n  pop\n  pop\n  pop\n  jump\t// out\n    /* \"#utility.yul\":2221:2294   */\ntag_32:\n    /* \"#utility.yul\":2266:2269   */\n  0x00\n    /* \"#utility.yul\":2221:2294   */\n  swap1\n  jump\t// out\n    /* \"#utility.yul\":2300:2489   */\ntag_33:\n    /* \"#utility.yul\":2377:2409   */\n  tag_71\n  tag_32\n  jump\t// in\ntag_71:\n    /* \"#utility.yul\":2418:2483   */\n  tag_72\n    /* \"#utility.yul\":2476:2482   */\n  dup2\n    /* \"#utility.yul\":2468:2474   */\n  dup5\n    /* \"#utility.yul\":2462:2466   */\n  dup5\n    /* \"#utility.yul\":2418:2483   */\n  tag_31\n  jump\t// in\ntag_72:\n    /* \"#utility.yul\":2353:2489   */\n  pop\n    /* \"#utility.yul\":2300:2489   */\n  pop\n  pop\n  jump\t// out\n    /* \"#utility.yul\":2495:2681   */\ntag_34:\n    /* \"#utility.yul\":2555:2675   */\ntag_74:\n    /* \"#utility.yul\":2572:2575   */\n  dup2\n    /* \"#utility.yul\":2565:2570   */\n  dup2\n    /* \"#utility.yul\":2562:2576   */\n  lt\n    /* \"#utility.yul\":2555:2675   */\n  iszero\n  tag_76\n  jumpi\n    /* \"#utility.yul\":2626:2665   */\n  tag_77\n    /* \"#utility.yul\":2663:2664   */\n  0x00\n    /* \"#utility.yul\":2656:2661   */\n  dup3\n    /* \"#utility.yul\":2626:2665   */\n  tag_33\n  jump\t// in\ntag_77:\n    /* \"#utility.yul\":2599:2600   */\n  0x01\n    /* \"#utility.yul\":2592:2597   */\n  dup2\n    /* \"#utility.yul\":2588:2601   */\n  add\n    /* \"#utility.yul\":2579:2601   */\n  swap1\n  pop\n    /* \"#utility.yul\":2555:2675   */\n  jump(tag_74)\ntag_76:\n    /* \"#utility.yul\":2495:2681   */\n  pop\n  pop\n  jump\t// out\n    /* \"#utility.yul\":2687:3230   */\ntag_35:\n    /* \"#utility.yul\":2788:2790   */\n  0x1f\n    /* \"#utility.yul\":2783:2786   */\n  dup3\n    /* \"#utility.yul\":2780:2791   */\n  gt\n    /* \"#utility.yul\":2777:3223   */\n  iszero\n  tag_79\n  jumpi\n    /* \"#utility.yul\":2822:2860   */\n  tag_80\n    /* \"#utility.yul\":2854:2859   */\n  dup2\n    /* \"#utility.yul\":2822:2860   */\n  tag_23\n  jump\t// in\ntag_80:\n    /* \"#utility.yul\":2906:2935   */\n  tag_81\n    /* \"#utility.yul\":2924:2934   */\n  dup5\n    /* \"#utility.yul\":2906:2935   */\n  tag_24\n  jump\t// in\ntag_81:\n    /* \"#utility.yul\":2896:2904   */\n  dup2\n    /* \"#utility.yul\":2892:2936   */\n  add\n    /* \"#utility.yul\":3089:3091   */\n  0x20\n    /* \"#utility.yul\":3077:3087   */\n  dup6\n    /* \"#utility.yul\":3074:3092   */\n  lt\n    /* \"#utility.yul\":3071:3120   */\n  iszero\n  tag_82\n  jumpi\n    /* \"#utility.yul\":3110:3118   */\n  dup2\n    /* \"#utility.yul\":3095:3118   */\n  swap1\n  pop\n    /* \"#utility.yul\":3071:3120   */\ntag_82:\n    /* \"#utility.yul\":3133:3213   */\n  tag_83\n    /* \"#utility.yul\":3189:3211   */\n  tag_84\n    /* \"#utility.yul\":3207:3210   */\n  dup6\n    /* \"#utility.yul\":3189:3211   */\n  tag_24\n  jump\t// in\ntag_84:\n    /* \"#utility.yul\":3179:3187   */\n  dup4\n    /* \"#utility.yul\":3175:3212   */\n  add\n    /* \"#utility.yul\":3162:3173   */\n  dup3\n    /* \"#utility.yul\":3133:3213   */\n  tag_34\n  jump\t// in\ntag_83:\n    /* \"#utility.yul\":2792:3223   */\n  pop\n  pop\n    /* \"#utility.yul\":2777:3223   */\ntag_79:\n    /* \"#utility.yul\":2687:3230   */\n  pop\n  pop\n  pop\n  jump\t// out\n    /* \"#utility.yul\":3236:3353   */\ntag_36:\n    /* \"#utility.yul\":3290:3298   */\n  0x00\n    /* \"#utility.yul\":3340:3345   */\n  dup3\n    /* \"#utility.yul\":3334:3338   */\n  dup3\n    /* \"#utility.yul\":3330:3346   */\n  shr\n    /* \"#utility.yul\":3309:3346   */\n  swap1\n  pop\n    /* \"#utility.yul\":3236:3353   */\n  swap3\n  swap2\n  pop\n  pop\n  jump\t// out\n    /* \"#utility.yul\":3359:3528   */\ntag_37:\n    /* \"#utility.yul\":3403:3409   */\n  0x00\n    /* \"#utility.yul\":3436:3487   */\n  tag_87\n    /* \"#utility.yul\":3484:3485   */\n  0x00\n    /* \"#utility.yul\":3480:3486   */\n  not\n    /* \"#utility.yul\":3472:3477   */\n  dup5\n    /* \"#utility.yul\":3469:3470   */\n  0x08\n    /* \"#utility.yul\":3465:3478   */\n  mul\n    /* \"#utility.yul\":3436:3487   */\n  tag_36\n  jump\t// in\ntag_87:\n    /* \"#utility.yul\":3432:3488   */\n  not\n    /* \"#utility.yul\":3517:3521   */\n  dup1\n    /* \"#utility.yul\":3511:3515   */\n  dup4\n    /* \"#utility.yul\":3507:3522   */\n  and\n    /* \"#utility.yul\":3497:3522   */\n  swap2\n  pop\n    /* \"#utility.yul\":3410:3528   */\n  pop\n    /* \"#utility.yul\":3359:3528   */\n  swap3\n  swap2\n  pop\n  pop\n  jump\t// out\n    /* \"#utility.yul\":3533:3828   */\ntag_38:\n    /* \"#utility.yul\":3609:3613   */\n  0x00\n    /* \"#utility.yul\":3755:3784   */\n  tag_89\n    /* \"#utility.yul\":3780:3783   */\n  dup4\n    /* \"#utility.yul\":3774:3778   */\n  dup4\n    /* \"#utility.yul\":3755:3784   */\n  tag_37\n  jump\t// in\ntag_89:\n    /* \"#utility.yul\":3747:3784   */\n  swap2\n  pop\n    /* \"#utility.yul\":3817:3820   */\n  dup3\n    /* \"#utility.yul\":3814:3815   */\n  0x02\n    /* \"#utility.yul\":3810:3821   */\n  mul\n    /* \"#utility.yul\":3804:3808   */\n  dup3\n    /* \"#utility.yul\":3801:3822   */\n  or\n    /* \"#utility.yul\":3793:3822   */\n  swap1\n  pop\n    /* \"#utility.yul\":3533:3828   */\n  swap3\n  swap2\n  pop\n  pop\n  jump\t// out\n    /* \"#utility.yul\":3833:5228   */\ntag_2:\n    /* \"#utility.yul\":3950:3987   */\n  tag_91\n    /* \"#utility.yul\":3983:3986   */\n  dup3\n    /* \"#utility.yul\":3950:3987   */\n  tag_19\n  jump\t// in\ntag_91:\n    /* \"#utility.yul\":4052:4070   */\n  0xffffffffffffffff\n    /* \"#utility.yul\":4044:4050   */\n  dup2\n    /* \"#utility.yul\":4041:4071   */\n  gt\n    /* \"#utility.yul\":4038:4094   */\n  iszero\n  tag_92\n  jumpi\n    /* \"#utility.yul\":4074:4092   */\n  tag_93\n  tag_20\n  jump\t// in\ntag_93:\n    /* \"#utility.yul\":4038:4094   */\ntag_92:\n    /* \"#utility.yul\":4118:4156   */\n  tag_94\n    /* \"#utility.yul\":4150:4154   */\n  dup3\n    /* \"#utility.yul\":4144:4155   */\n  sload\n    /* \"#utility.yul\":4118:4156   */\n  tag_22\n  jump\t// in\ntag_94:\n    /* \"#utility.yul\":4203:4270   */\n  tag_95\n    /* \"#utility.yul\":4263:4269   */\n  dup3\n    /* \"#utility.yul\":4255:4261   */\n  dup3\n    /* \"#utility.yul\":4249:4253   */\n  dup6\n    /* \"#utility.yul\":4203:4270   */\n  tag_35\n  jump\t// in\ntag_95:\n    /* \"#utility.yul\":4297:4298   */\n  0x00\n    /* \"#utility.yul\":4321:4325   */\n  0x20\n    /* \"#utility.yul\":4308:4325   */\n  swap1\n  pop\n    /* \"#utility.yul\":4353:4355   */\n  0x1f\n    /* \"#utility.yul\":4345:4351   */\n  dup4\n    /* \"#utility.yul\":4342:4356   */\n  gt\n    /* \"#utility.yul\":4370:4371   */\n  0x01\n    /* \"#utility.yul\":4365:4983   */\n  dup2\n  eq\n  tag_97\n  jumpi\n    /* \"#utility.yul\":5027:5028   */\n  0x00\n    /* \"#utility.yul\":5044:5050   */\n  dup5\n    /* \"#utility.yul\":5041:5118   */\n  iszero\n  tag_98\n  jumpi\n    /* \"#utility.yul\":5093:5102   */\n  dup3\n    /* \"#utility.yul\":5088:5091   */\n  dup8\n    /* \"#utility.yul\":5084:5103   */\n  add\n    /* \"#utility.yul\":5078:5104   */\n  mload\n    /* \"#utility.yul\":5069:5104   */\n  swap1\n  pop\n    /* \"#utility.yul\":5041:5118   */\ntag_98:\n    /* \"#utility.yul\":5144:5211   */\n  tag_99\n    /* \"#utility.yul\":5204:5210   */\n  dup6\n    /* \"#utility.yul\":5197:5202   */\n  dup3\n    /* \"#utility.yul\":5144:5211   */\n  tag_38\n  jump\t// in\ntag_99:\n    /* \"#utility.yul\":5138:5142   */\n  dup7\n    /* \"#utility.yul\":5131:5212   */\n  sstore\n    /* \"#utility.yul\":5000:5222   */\n  pop\n    /* \"#utility.yul\":4335:5222   */\n  jump(tag_96)\n    /* \"#utility.yul\":4365:4983   */\ntag_97:\n    /* \"#utility.yul\":4417:4421   */\n  0x1f\n    /* \"#utility.yul\":4413:4422   */\n  not\n    /* \"#utility.yul\":4405:4411   */\n  dup5\n    /* \"#utility.yul\":4401:4423   */\n  and\n    /* \"#utility.yul\":4451:4488   */\n  tag_100\n    /* \"#utility.yul\":4483:4487   */\n  dup7\n    /* \"#utility.yul\":4451:4488   */\n  tag_23\n  jump\t// in\ntag_100:\n    /* \"#utility.yul\":4510:4511   */\n  0x00\n    /* \"#utility.yul\":4524:4732   */\ntag_101:\n    /* \"#utility.yul\":4538:4545   */\n  dup3\n    /* \"#utility.yul\":4535:4536   */\n  dup2\n    /* \"#utility.yul\":4532:4546   */\n  lt\n    /* \"#utility.yul\":4524:4732   */\n  iszero\n  tag_103\n  jumpi\n    /* \"#utility.yul\":4617:4626   */\n  dup5\n    /* \"#utility.yul\":4612:4615   */\n  dup10\n    /* \"#utility.yul\":4608:4627   */\n  add\n    /* \"#utility.yul\":4602:4628   */\n  mload\n    /* \"#utility.yul\":4594:4600   */\n  dup3\n    /* \"#utility.yul\":4587:4629   */\n  sstore\n    /* \"#utility.yul\":4668:4669   */\n  0x01\n    /* \"#utility.yul\":4660:4666   */\n  dup3\n    /* \"#utility.yul\":4656:4670   */\n  add\n    /* \"#utility.yul\":4646:4670   */\n  swap2\n  pop\n    /* \"#utility.yul\":4715:4717   */\n  0x20\n    /* \"#utility.yul\":4704:4713   */\n  dup6\n    /* \"#utility.yul\":4700:4718   */\n  add\n    /* \"#utility.yul\":4687:4718   */\n  swap5\n  pop\n    /* \"#utility.yul\":4561:4565   */\n  0x20\n    /* \"#utility.yul\":4558:4559   */\n  dup2\n    /* \"#utility.yul\":4554:4566   */\n  add\n    /* \"#utility.yul\":4549:4566   */\n  swap1\n  pop\n    /* \"#utility.yul\":4524:4732   */\n  jump(tag_101)\ntag_103:\n    /* \"#utility.yul\":4760:4766   */\n  dup7\n    /* \"#utility.yul\":4751:4758   */\n  dup4\n    /* \"#utility.yul\":4748:4767   */\n  lt\n    /* \"#utility.yul\":4745:4924   */\n  iszero\n  tag_104\n  jumpi\n    /* \"#utility.yul\":4818:4827   */\n  dup5\n    /* \"#utility.yul\":4813:4816   */\n  dup10\n    /* \"#utility.yul\":4809:4828   */\n  add\n    /* \"#utility.yul\":4803:4829   */\n  mload\n    /* \"#utility.yul\":4861:4909   */\n  tag_105\n    /* \"#utility.yul\":4903:4907   */\n  0x1f\n    /* \"#utility.yul\":4895:4901   */\n  dup10\n    /* \"#utility.yul\":4891:4908   */\n  and\n    /* \"#utility.yul\":4880:4889   */\n  dup3\n    /* \"#utility.yul\":4861:4909   */\n  tag_37\n  jump\t// in\ntag_105:\n    /* \"#utility.yul\":4853:4859   */\n  dup4\n    /* \"#utility.yul\":4846:4910   */\n  sstore\n    /* \"#utility.yul\":4768:4924   */\n  pop\n    /* \"#utility.yul\":4745:4924   */\ntag_104:\n    /* \"#utility.yul\":4970:4971   */\n  0x01\n    /* \"#utility.yul\":4966:4967   */\n  0x02\n    /* \"#utility.yul\":4958:4964   */\n  dup9\n    /* \"#utility.yul\":4954:4968   */\n  mul\n    /* \"#utility.yul\":4950:4972   */\n  add\n    /* \"#utility.yul\":4944:4948   */\n  dup9\n    /* \"#utility.yul\":4937:4973   */\n  sstore\n    /* \"#utility.yul\":4372:4983   */\n  pop\n  pop\n  pop\n    /* \"#utility.yul\":4335:5222   */\ntag_96:\n  pop\n    /* \"#utility.yul\":3925:5228   */\n  pop\n  pop\n  pop\n    /* \"#utility.yul\":3833:5228   */\n  pop\n  pop\n  jump\t// out\n    /* \"#utility.yul\":5234:5414   */\ntag_39:\n    /* \"#utility.yul\":5282:5359   */\n  0x4e487b7100000000000000000000000000000000000000000000000000000000\n    /* \"#utility.yul\":5279:5280   */\n  0x00\n    /* \"#utility.yul\":5272:5360   */\n  mstore\n    /* \"#utility.yul\":5379:5383   */\n  0x11\n    /* \"#utility.yul\":5376:5377   */\n  0x04\n    /* \"#utility.yul\":5369:5384   */\n  mstore\n    /* \"#utility.yul\":5403:5407   */\n  0x24\n    /* \"#utility.yul\":5400:5401   */\n  0x00\n    /* \"#utility.yul\":5393:5408   */\n  revert\n    /* \"#utility.yul\":5420:5522   */\ntag_40:\n    /* \"#utility.yul\":5462:5470   */\n  0x00\n    /* \"#utility.yul\":5509:5514   */\n  dup2\n    /* \"#utility.yul\":5506:5507   */\n  0x01\n    /* \"#utility.yul\":5502:5515   */\n  shr\n    /* \"#utility.yul\":5481:5515   */\n  swap1\n  pop\n    /* \"#utility.yul\":5420:5522   */\n  swap2\n  swap1\n  pop\n  jump\t// out\n    /* \"#utility.yul\":5528:6376   */\ntag_41:\n    /* \"#utility.yul\":5589:5594   */\n  0x00\n    /* \"#utility.yul\":5596:5600   */\n  dup1\n    /* \"#utility.yul\":5620:5626   */\n  dup3\n    /* \"#utility.yul\":5611:5626   */\n  swap2\n  pop\n    /* \"#utility.yul\":5644:5649   */\n  dup4\n    /* \"#utility.yul\":5635:5649   */\n  swap1\n  pop\n    /* \"#utility.yul\":5658:6370   */\ntag_109:\n    /* \"#utility.yul\":5679:5680   */\n  0x01\n    /* \"#utility.yul\":5669:5677   */\n  dup6\n    /* \"#utility.yul\":5666:5681   */\n  gt\n    /* \"#utility.yul\":5658:6370   */\n  iszero\n  tag_111\n  jumpi\n    /* \"#utility.yul\":5774:5778   */\n  dup1\n    /* \"#utility.yul\":5769:5772   */\n  dup7\n    /* \"#utility.yul\":5765:5779   */\n  div\n    /* \"#utility.yul\":5759:5763   */\n  dup2\n    /* \"#utility.yul\":5756:5780   */\n  gt\n    /* \"#utility.yul\":5753:5803   */\n  iszero\n  tag_112\n  jumpi\n    /* \"#utility.yul\":5783:5801   */\n  tag_113\n  tag_39\n  jump\t// in\ntag_113:\n    /* \"#utility.yul\":5753:5803   */\ntag_112:\n    /* \"#utility.yul\":5833:5834   */\n  0x01\n    /* \"#utility.yul\":5823:5831   */\n  dup6\n    /* \"#utility.yul\":5819:5835   */\n  and\n    /* \"#utility.yul\":5816:6267   */\n  iszero\n  tag_114\n  jumpi\n    /* \"#utility.yul\":6248:6252   */\n  dup1\n    /* \"#utility.yul\":6241:6246   */\n  dup3\n    /* \"#utility.yul\":6237:6253   */\n  mul\n    /* \"#utility.yul\":6228:6253   */\n  swap2\n  pop\n    /* \"#utility.yul\":5816:6267   */\ntag_114:\n    /* \"#utility.yul\":6298:6302   */\n  dup1\n    /* \"#utility.yul\":6292:6296   */\n  dup2\n    /* \"#utility.yul\":6288:6303   */\n  mul\n    /* \"#utility.yul\":6280:6303   */\n  swap1\n  pop\n    /* \"#utility.yul\":6328:6360   */\n  tag_115\n    /* \"#utility.yul\":6351:6359   */\n  dup6\n    /* \"#utility.yul\":6328:6360   */\n  tag_40\n  jump\t// in\ntag_115:\n    /* \"#utility.yul\":6316:6360   */\n  swap5\n  pop\n    /* \"#utility.yul\":5658:6370   */\n  jump(tag_109)\ntag_111:\n    /* \"#utility.yul\":5528:6376   */\n  swap5\n  pop\n  swap5\n  swap3\n  pop\n  pop\n  pop\n  jump\t// out\n    /* \"#utility.yul\":6382:7455   */\ntag_42:\n    /* \"#utility.yul\":6436:6441   */\n  0x00\n    /* \"#utility.yul\":6627:6635   */\n  dup3\n    /* \"#utility.yul\":6617:6657   */\n  tag_117\n  jumpi\n    /* \"#utility.yul\":6648:6649   */\n  0x01\n    /* \"#utility.yul\":6639:6649   */\n  swap1\n  pop\n    /* \"#utility.yul\":6650:6655   */\n  jump(tag_116)\n    /* \"#utility.yul\":6617:6657   */\ntag_117:\n    /* \"#utility.yul\":6676:6680   */\n  dup2\n    /* \"#utility.yul\":6666:6702   */\n  tag_118\n  jumpi\n    /* \"#utility.yul\":6693:6694   */\n  0x00\n    /* \"#utility.yul\":6684:6694   */\n  swap1\n  pop\n    /* \"#utility.yul\":6695:6700   */\n  jump(tag_116)\n    /* \"#utility.yul\":6666:6702   */\ntag_118:\n    /* \"#utility.yul\":6762:6766   */\n  dup2\n    /* \"#utility.yul\":6810:6811   */\n  0x01\n    /* \"#utility.yul\":6805:6832   */\n  dup2\n  eq\n  tag_120\n  jumpi\n    /* \"#utility.yul\":6846:6847   */\n  0x02\n    /* \"#utility.yul\":6841:7032   */\n  dup2\n  eq\n  tag_121\n  jumpi\n    /* \"#utility.yul\":6755:7032   */\n  jump(tag_119)\n    /* \"#utility.yul\":6805:6832   */\ntag_120:\n    /* \"#utility.yul\":6823:6824   */\n  0x01\n    /* \"#utility.yul\":6814:6824   */\n  swap2\n  pop\n    /* \"#utility.yul\":6825:6830   */\n  pop\n  jump(tag_116)\n    /* \"#utility.yul\":6841:7032   */\ntag_121:\n    /* \"#utility.yul\":6886:6889   */\n  0xff\n    /* \"#utility.yul\":6876:6884   */\n  dup5\n    /* \"#utility.yul\":6873:6890   */\n  gt\n    /* \"#utility.yul\":6870:6913   */\n  iszero\n  tag_122\n  jumpi\n    /* \"#utility.yul\":6893:6911   */\n  tag_123\n  tag_39\n  jump\t// in\ntag_123:\n    /* \"#utility.yul\":6870:6913   */\ntag_122:\n    /* \"#utility.yul\":6942:6950   */\n  dup4\n    /* \"#utility.yul\":6939:6940   */\n  0x02\n    /* \"#utility.yul\":6935:6951   */\n  exp\n    /* \"#utility.yul\":6926:6951   */\n  swap2\n  pop\n    /* \"#utility.yul\":6977:6980   */\n  dup5\n    /* \"#utility.yul\":6970:6975   */\n  dup3\n    /* \"#utility.yul\":6967:6981   */\n  gt\n    /* \"#utility.yul\":6964:7004   */\n  iszero\n  tag_124\n  jumpi\n    /* \"#utility.yul\":6984:7002   */\n  tag_125\n  tag_39\n  jump\t// in\ntag_125:\n    /* \"#utility.yul\":6964:7004   */\ntag_124:\n    /* \"#utility.yul\":7017:7022   */\n  pop\n  jump(tag_116)\n    /* \"#utility.yul\":6755:7032   */\ntag_119:\n  pop\n    /* \"#utility.yul\":7141:7143   */\n  0x20\n    /* \"#utility.yul\":7131:7139   */\n  dup4\n    /* \"#utility.yul\":7128:7144   */\n  lt\n    /* \"#utility.yul\":7122:7125   */\n  0x0133\n    /* \"#utility.yul\":7116:7120   */\n  dup4\n    /* \"#utility.yul\":7113:7126   */\n  lt\n    /* \"#utility.yul\":7109:7145   */\n  and\n    /* \"#utility.yul\":7091:7093   */\n  0x4e\n    /* \"#utility.yul\":7081:7089   */\n  dup5\n    /* \"#utility.yul\":7078:7094   */\n  lt\n    /* \"#utility.yul\":7073:7075   */\n  0x0b\n    /* \"#utility.yul\":7067:7071   */\n  dup5\n    /* \"#utility.yul\":7064:7076   */\n  lt\n    /* \"#utility.yul\":7060:7095   */\n  and\n    /* \"#utility.yul\":7044:7155   */\n  or\n    /* \"#utility.yul\":7041:7287   */\n  iszero\n  tag_126\n  jumpi\n    /* \"#utility.yul\":7197:7205   */\n  dup3\n    /* \"#utility.yul\":7191:7195   */\n  dup3\n    /* \"#utility.yul\":7187:7206   */\n  exp\n    /* \"#utility.yul\":7178:7206   */\n  swap1\n  pop\n    /* \"#utility.yul\":7232:7235   */\n  dup4\n    /* \"#utility.yul\":7225:7230   */\n  dup2\n    /* \"#utility.yul\":7222:7236   */\n  gt\n    /* \"#utility.yul\":7219:7259   */\n  iszero\n  tag_127\n  jumpi\n    /* \"#utility.yul\":7239:7257   */\n  tag_128\n  tag_39\n  jump\t// in\ntag_128:\n    /* \"#utility.yul\":7219:7259   */\ntag_127:\n    /* \"#utility.yul\":7272:7277   */\n  jump(tag_116)\n    /* \"#utility.yul\":7041:7287   */\ntag_126:\n    /* \"#utility.yul\":7312:7354   */\n  tag_129\n    /* \"#utility.yul\":7350:7353   */\n  dup5\n    /* \"#utility.yul\":7340:7348   */\n  dup5\n    /* \"#utility.yul\":7334:7338   */\n  dup5\n    /* \"#utility.yul\":7331:7332   */\n  0x01\n    /* \"#utility.yul\":7312:7354   */\n  tag_41\n  jump\t// in\ntag_129:\n    /* \"#utility.yul\":7297:7354   */\n  swap3\n  pop\n  swap1\n  pop\n    /* \"#utility.yul\":7386:7390   */\n  dup2\n    /* \"#utility.yul\":7381:7384   */\n  dup5\n    /* \"#utility.yul\":7377:7391   */\n  div\n    /* \"#utility.yul\":7370:7375   */\n  dup2\n    /* \"#utility.yul\":7367:7392   */\n  gt\n    /* \"#utility.yul\":7364:7415   */\n  iszero\n  tag_130\n  jumpi\n    /* \"#utility.yul\":7395:7413   */\n  tag_131\n  tag_39\n  jump\t// in\ntag_131:\n    /* \"#utility.yul\":7364:7415   */\ntag_130:\n    /* \"#utility.yul\":7444:7448   */\n  dup2\n    /* \"#utility.yul\":7437:7442   */\n  dup2\n    /* \"#utility.yul\":7433:7449   */\n  mul\n    /* \"#utility.yul\":7424:7449   */\n  swap1\n  pop\n    /* \"#utility.yul\":6382:7455   */\ntag_116:\n  swap4\n  swap3\n  pop\n  pop\n  pop\n  jump\t// out\n    /* \"#utility.yul\":7461:7746   */\ntag_5:\n    /* \"#utility.yul\":7521:7526   */\n  0x00\n    /* \"#utility.yul\":7545:7568   */\n  tag_133\n    /* \"#utility.yul\":7563:7567   */\n  dup3\n    /* \"#utility.yul\":7545:7568   */\n  tag_27\n  jump\t// in\ntag_133:\n    /* \"#utility.yul\":7537:7568   */\n  swap2\n  pop\n    /* \"#utility.yul\":7589:7616   */\n  tag_134\n    /* \"#utility.yul\":7607:7615   */\n  dup4\n    /* \"#utility.yul\":7589:7616   */\n  tag_27\n  jump\t// in\ntag_134:\n    /* \"#utility.yul\":7577:7616   */\n  swap3\n  pop\n    /* \"#utility.yul\":7635:7739   */\n  tag_135\n    /* \"#utility.yul\":7672:7738   */\n  0xffffffffffffffffffffffffffffffffffffffffffffffffffffffffffffffff\n    /* \"#utility.yul\":7662:7670   */\n  dup5\n    /* \"#utility.yul\":7656:7660   */\n  dup5\n    /* \"#utility.yul\":7635:7739   */\n  tag_42\n  jump\t// in\ntag_135:\n    /* \"#utility.yul\":7626:7739   */\n  swap1\n  pop\n    /* \"#utility.yul\":7461:7746   */\n  swap3\n  swap2\n  pop\n  pop\n  jump\t// out\n    /* \"#utility.yul\":7752:8162   */\ntag_7:\n    /* \"#utility.yul\":7792:7799   */\n  0x00\n    /* \"#utility.yul\":7815:7835   */\n  tag_137\n    /* \"#utility.yul\":7833:7834   */\n  dup3\n    /* \"#utility.yul\":7815:7835   */\n  tag_27\n  jump\t// in\ntag_137:\n    /* \"#utility.yul\":7810:7835   */\n  swap2\n  pop\n    /* \"#utility.yul\":7849:7869   */\n  tag_138\n    /* \"#utility.yul\":7867:7868   */\n  dup4\n    /* \"#utility.yul\":7849:7869   */\n  tag_27\n  jump\t// in\ntag_138:\n    /* \"#utility.yul\":7844:7869   */\n  swap3\n  pop\n    /* \"#utility.yul\":7904:7905   */\n  dup3\n    /* \"#utility.yul\":7901:7902   */\n  dup3\n    /* \"#utility.yul\":7897:7906   */\n  mul\n    /* \"#utility.yul\":7926:7956   */\n  tag_139\n    /* \"#utility.yul\":7944:7955   */\n  dup2\n    /* \"#utility.yul\":7926:7956   */\n  tag_27\n  jump\t// in\ntag_139:\n    /* \"#utility.yul\":7915:7956   */\n  swap2\n  pop\n    /* \"#utility.yul\":8105:8106   */\n  dup3\n    /* \"#utility.yul\":8096:8103   */\n  dup3\n    /* \"#utility.yul\":8092:8107   */\n  div\n    /* \"#utility.yul\":8089:8090   */\n  dup5\n    /* \"#utility.yul\":8086:8108   */\n  eq\n    /* \"#utility.yul\":8066:8067   */\n  dup4\n    /* \"#utility.yul\":8059:8068   */\n  iszero\n    /* \"#utility.yul\":8039:8122   */\n  or\n    /* \"#utility.yul\":8016:8155   */\n  tag_140\n  jumpi\n    /* \"#utility.yul\":8135:8153   */\n  tag_141\n  tag_39\n  jump\t// in\ntag_141:\n    /* \"#utility.yul\":8016:8155   */\ntag_140:\n    /* \"#utility.yul\":7800:8162   */\n  pop\n    /* \"#utility.yul\":7752:8162   */\n  swap3\n  swap2\n  pop\n  pop\n  jump\t// out\n    /* \"#utility.yul\":8168:8348   */\ntag_43:\n    /* \"#utility.yul\":8216:8293   */\n  0x4e487b7100000000000000000000000000000000000000000000000000000000\n    /* \"#utility.yul\":8213:8214   */\n  0x00\n    /* \"#utility.yul\":8206:8294   */\n  mstore\n    /* \"#utility.yul\":8313:8317   */\n  0x12\n    /* \"#utility.yul\":8310:8311   */\n  0x04\n    /* \"#utility.yul\":8303:8318   */\n  mstore\n    /* \"#utility.yul\":8337:8341   */\n  0x24\n    /* \"#utility.yul\":8334:8335   */\n  0x00\n    /* \"#utility.yul\":8327:8342   */\n  revert\n    /* \"#utility.yul\":8354:8539   */\ntag_10:\n    /* \"#utility.yul\":8394:8395   */\n  0x00\n    /* \"#utility.yul\":8411:8431   */\n  tag_144\n    /* \"#utility.yul\":8429:8430   */\n  dup3\n    /* \"#utility.yul\":8411:8431   */\n  tag_27\n  jump\t// in\ntag_144:\n    /* \"#utility.yul\":8406:8431   */\n  swap2\n  pop\n    /* \"#utility.yul\":8445:8465   */\n  tag_145\n    /* \"#utility.yul\":8463:8464   */\n  dup4\n    /* \"#utility.yul\":8445:8465   */\n  tag_27\n  jump\t// in\ntag_145:\n    /* \"#utility.yul\":8440:8465   */\n  swap3\n  pop\n    /* \"#utility.yul\":8484:8485   */\n  dup3\n    /* \"#utility.yul\":8474:8509   */\n  tag_146\n  jumpi\n    /* \"#utility.yul\":8489:8507   */\n  tag_147\n  tag_43\n  jump\t// in\ntag_147:\n    /* \"#utility.yul\":8474:8509   */\ntag_146:\n    /* \"#utility.yul\":8531:8532   */\n  dup3\n    /* \"#utility.yul\":8528:8529   */\n  dup3\n    /* \"#utility.yul\":8524:8533   */\n  div\n    /* \"#utility.yul\":8519:8533   */\n  swap1\n  pop\n    /* \"#utility.yul\":8354:8539   */\n  swap3\n  swap2\n  pop\n  pop\n  jump\t// out\n    /* \"contracts/ShareToken.sol\":58:8722  contract ShareToken {... */\ntag_18:\n  dataSize(sub_0)\n  dup1\n  dataOffset(sub_0)\n  0x00\n  codecopy\n  0x00\n  return\nstop\n\nsub_0: assembly {\n        /* \"contracts/ShareToken.sol\":58:8722  contract ShareToken {... */\n      mstore(0x40, 0x80)\n      callvalue\n      dup1\n      iszero\n      tag_1\n      jumpi\n      0x00\n      dup1\n      revert\n    tag_1:\n      pop\n      jumpi(tag_2, lt(calldatasize, 0x04))\n      shr(0xe0, calldataload(0x00))\n      dup1\n      0x95d89b41\n      gt\n      tag_25\n      jumpi\n      dup1\n      0xbeb08ab9\n      gt\n      tag_26\n      jumpi\n      dup1\n      0xbeb08ab9\n      eq\n      tag_19\n      jumpi\n      dup1\n      0xe02767e9\n      eq\n      tag_20\n      jumpi\n      dup1\n      0xe8187956\n      eq\n      tag_21\n      jumpi\n      dup1\n      0xf8b2cb4f\n      eq\n      tag_22\n      jumpi\n      dup1\n      0xf968f493\n      eq\n      tag_23\n      jumpi\n      dup1\n      0xfe1cce9c\n      eq\n      tag_24\n      jumpi\n      jump(tag_2)\n    tag_26:\n      dup1\n      0x95d89b41\n      eq\n      tag_14\n      jumpi\n      dup1\n      0x9fc5ce2a\n      eq\n      tag_15\n      jumpi\n      dup1\n      0xa9059cbb\n      eq\n      tag_16\n      jumpi\n      dup1\n      0xabc88bda\n      eq\n      tag_17\n      jumpi\n      dup1\n      0xbb0c5c47\n      eq\n      tag_18\n      jumpi\n      jump(tag_2)\n    tag_25:\n      dup1\n      0x313ce567\n      gt\n      tag_27\n      jumpi\n      dup1\n      0x313ce567\n      eq\n      tag_8\n      jumpi\n      dup1\n      0x32a2c5d0\n      eq\n      tag_9\n      jumpi\n      dup1\n      0x507cc0ba\n      eq\n      tag_10\n      jumpi\n      dup1\n      0x6816521a\n      eq\n      tag_11\n      jumpi\n      dup1\n      0x70a08231\n      eq\n      tag_12\n      jumpi\n      dup1\n      0x8da5cb5b\n      eq\n      tag_13\n      jumpi\n      jump(tag_2)\n    tag_27:\n      dup1\n      0xf6ace7\n      eq\n      tag_3\n      jumpi\n      dup1\n      0x02cb1244\n      eq\n      tag_4\n      jumpi\n      dup1\n      0x06fdde03\n      eq\n      tag_5\n      jumpi\n      dup1\n      0x18160ddd\n      eq\n      tag_6\n      jumpi\n      dup1\n      0x28cd3f18\n      eq\n      tag_7\n      jumpi\n    tag_2:\n      0x00\n      dup1\n      revert\n        /* \"contracts/ShareToken.sol\":4855:6897  function returnDepositAndAirdrop(... */\n    tag_3:\n      tag_28\n      0x04\n      dup1\n      calldatasize\n      sub\n      dup2\n      add\n      swap1\n      tag_29\n      swap2\n      swap1\n      tag_30\n      jump\t// in\n    tag_29:\n      tag_31\n      jump\t// in\n    tag_28:\n      stop\n        /* \"contracts/ShareToken.sol\":3434:4218  function nextUnlock() external view returns (uint256 day, uint256 hour) {... */\n    tag_4:\n      tag_32\n      tag_33\n      jump\t// in\n    tag_32:\n      mload(0x40)\n      tag_34\n      swap3\n      swap2\n      swap1\n      tag_35\n      jump\t// in\n    tag_34:\n      mload(0x40)\n      dup1\n      swap2\n      sub\n      swap1\n      return\n        /* \"contracts/ShareToken.sol\":84:117  string public name = \"ShareToken\" */\n    tag_5:\n      tag_36\n      tag_37\n      jump\t// in\n    tag_36:\n      mload(0x40)\n      tag_38\n      swap2\n      swap1\n      tag_39\n      jump\t// in\n    tag_38:\n      mload(0x40)\n      dup1\n      swap2\n      sub\n      swap1\n      return\n        /* \"contracts/ShareToken.sol\":189:250  uint256 public totalSupply = 10000000 * 10**uint256(decimals) */\n    tag_6:\n      tag_40\n      tag_41\n      jump\t// in\n    tag_40:\n      mload(0x40)\n      tag_42\n      swap2\n      swap1\n      tag_43\n      jump\t// in\n    tag_42:\n      mload(0x40)\n      dup1\n      swap2\n      sub\n      swap1\n      return\n        /* \"contracts/ShareToken.sol\":4380:4772  function payDeposit(uint256 amount) public returns (bool success) {... */\n    tag_7:\n      tag_44\n      0x04\n      dup1\n      calldatasize\n      sub\n      dup2\n      add\n      swap1\n      tag_45\n      swap2\n      swap1\n      tag_46\n      jump\t// in\n    tag_45:\n      tag_47\n      jump\t// in\n    tag_44:\n      mload(0x40)\n      tag_48\n      swap2\n      swap1\n      tag_49\n      jump\t// in\n    tag_48:\n      mload(0x40)\n      dup1\n      swap2\n      sub\n      swap1\n      return\n        /* \"contracts/ShareToken.sol\":157:183  uint8 public decimals = 18 */\n    tag_8:\n      tag_50\n      tag_51\n      jump\t// in\n    tag_50:\n      mload(0x40)\n      tag_52\n      swap2\n      swap1\n      tag_53\n      jump\t// in\n    tag_52:\n      mload(0x40)\n      dup1\n      swap2\n      sub\n      swap1\n      return\n        /* \"contracts/ShareToken.sol\":1151:1248  function getContractAddress() public view returns (address) {... */\n    tag_9:\n      tag_54\n      tag_55\n      jump\t// in\n    tag_54:\n      mload(0x40)\n      tag_56\n      swap2\n      swap1\n      tag_57\n      jump\t// in\n    tag_56:\n      mload(0x40)\n      dup1\n      swap2\n      sub\n      swap1\n      return\n        /* \"contracts/ShareToken.sol\":6988:7984  function borrowerNotPickedUpReturnDeposit(... */\n    tag_10:\n      tag_58\n      0x04\n      dup1\n      calldatasize\n      sub\n      dup2\n      add\n      swap1\n      tag_59\n      swap2\n      swap1\n      tag_60\n      jump\t// in\n    tag_59:\n      tag_61\n      jump\t// in\n    tag_58:\n      stop\n        /* \"contracts/ShareToken.sol\":400:456  uint256 public teamAllocation = (totalSupply * 30) / 100 */\n    tag_11:\n      tag_62\n      tag_63\n      jump\t// in\n    tag_62:\n      mload(0x40)\n      tag_64\n      swap2\n      swap1\n      tag_43\n      jump\t// in\n    tag_64:\n      mload(0x40)\n      dup1\n      swap2\n      sub\n      swap1\n      return\n        /* \"contracts/ShareToken.sol\":349:393  mapping(address => uint256) public balanceOf */\n    tag_12:\n      tag_65\n      0x04\n      dup1\n      calldatasize\n      sub\n      dup2\n      add\n      swap1\n      tag_66\n      swap2\n      swap1\n      tag_67\n      jump\t// in\n    tag_66:\n      tag_68\n      jump\t// in\n    tag_65:\n      mload(0x40)\n      tag_69\n      swap2\n      swap1\n      tag_43\n      jump\t// in\n    tag_69:\n      mload(0x40)\n      dup1\n      swap2\n      sub\n      swap1\n      return\n        /* \"contracts/ShareToken.sol\":653:673  address public owner */\n    tag_13:\n      tag_70\n      tag_71\n      jump\t// in\n    tag_70:\n      mload(0x40)\n      tag_72\n      swap2\n      swap1\n      tag_57\n      jump\t// in\n    tag_72:\n      mload(0x40)\n      dup1\n      swap2\n      sub\n      swap1\n      return\n        /* \"contracts/ShareToken.sol\":123:151  string public symbol = \"STE\" */\n    tag_14:\n      tag_73\n      tag_74\n      jump\t// in\n    tag_73:\n      mload(0x40)\n      tag_75\n      swap2\n      swap1\n      tag_39\n      jump\t// in\n    tag_75:\n      mload(0x40)\n      dup1\n      swap2\n      sub\n      swap1\n      return\n        /* \"contracts/ShareToken.sol\":462:515  uint256 public initialMint = (totalSupply * 20) / 100 */\n    tag_15:\n      tag_76\n      tag_77\n      jump\t// in\n    tag_76:\n      mload(0x40)\n      tag_78\n      swap2\n      swap1\n      tag_43\n      jump\t// in\n    tag_78:\n      mload(0x40)\n      dup1\n      swap2\n      sub\n      swap1\n      return\n        /* \"contracts/ShareToken.sol\":1397:1774  function transfer(address _to, uint256 _value)... */\n    tag_16:\n      tag_79\n      0x04\n      dup1\n      calldatasize\n      sub\n      dup2\n      add\n      swap1\n      tag_80\n      swap2\n      swap1\n      tag_81\n      jump\t// in\n    tag_80:\n      tag_82\n      jump\t// in\n    tag_79:\n      mload(0x40)\n      tag_83\n      swap2\n      swap1\n      tag_49\n      jump\t// in\n    tag_83:\n      mload(0x40)\n      dup1\n      swap2\n      sub\n      swap1\n      return\n        /* \"contracts/ShareToken.sol\":613:646  uint256 public unlockedTokens = 0 */\n    tag_17:\n      tag_84\n      tag_85\n      jump\t// in\n    tag_84:\n      mload(0x40)\n      tag_86\n      swap2\n      swap1\n      tag_43\n      jump\t// in\n    tag_86:\n      mload(0x40)\n      dup1\n      swap2\n      sub\n      swap1\n      return\n        /* \"contracts/ShareToken.sol\":256:294  uint256 public remainingUnlockedTokens */\n    tag_18:\n      tag_87\n      tag_88\n      jump\t// in\n    tag_87:\n      mload(0x40)\n      tag_89\n      swap2\n      swap1\n      tag_43\n      jump\t// in\n    tag_89:\n      mload(0x40)\n      dup1\n      swap2\n      sub\n      swap1\n      return\n        /* \"contracts/ShareToken.sol\":301:342  address public projectWallet = msg.sender */\n    tag_19:\n      tag_90\n      tag_91\n      jump\t// in\n    tag_90:\n      mload(0x40)\n      tag_92\n      swap2\n      swap1\n      tag_57\n      jump\t// in\n    tag_92:\n      mload(0x40)\n      dup1\n      swap2\n      sub\n      swap1\n      return\n        /* \"contracts/ShareToken.sol\":521:574  uint256 public airdropMint = (totalSupply * 50) / 100 */\n    tag_20:\n      tag_93\n      tag_94\n      jump\t// in\n    tag_93:\n      mload(0x40)\n      tag_95\n      swap2\n      swap1\n      tag_43\n      jump\t// in\n    tag_95:\n      mload(0x40)\n      dup1\n      swap2\n      sub\n      swap1\n      return\n        /* \"contracts/ShareToken.sol\":8064:8714  function cancelOrderReturnDeposit(... */\n    tag_21:\n      tag_96\n      0x04\n      dup1\n      calldatasize\n      sub\n      dup2\n      add\n      swap1\n      tag_97\n      swap2\n      swap1\n      tag_81\n      jump\t// in\n    tag_97:\n      tag_98\n      jump\t// in\n    tag_96:\n      stop\n        /* \"contracts/ShareToken.sol\":1254:1391  function getBalance(address _address) public view returns (uint256) {... */\n    tag_22:\n      tag_99\n      0x04\n      dup1\n      calldatasize\n      sub\n      dup2\n      add\n      swap1\n      tag_100\n      swap2\n      swap1\n      tag_67\n      jump\t// in\n    tag_100:\n      tag_101\n      jump\t// in\n    tag_99:\n      mload(0x40)\n      tag_102\n      swap2\n      swap1\n      tag_43\n      jump\t// in\n    tag_102:\n      mload(0x40)\n      dup1\n      swap2\n      sub\n      swap1\n      return\n        /* \"contracts/ShareToken.sol\":1929:3428  function unlockTokens() external onlyOwner {... */\n    tag_23:\n      tag_103\n      tag_104\n      jump\t// in\n    tag_103:\n      stop\n        /* \"contracts/ShareToken.sol\":581:607  uint256 public unlockStart */\n    tag_24:\n      tag_105\n      tag_106\n      jump\t// in\n    tag_105:\n      mload(0x40)\n      tag_107\n      swap2\n      swap1\n      tag_43\n      jump\t// in\n    tag_107:\n      mload(0x40)\n      dup1\n      swap2\n      sub\n      swap1\n      return\n        /* \"contracts/ShareToken.sol\":4855:6897  function returnDepositAndAirdrop(... */\n    tag_31:\n        /* \"contracts/ShareToken.sol\":1054:1059  owner */\n      0x0c\n      0x00\n      swap1\n      sload\n      swap1\n      0x0100\n      exp\n      swap1\n      div\n      0xffffffffffffffffffffffffffffffffffffffff\n      and\n        /* \"contracts/ShareToken.sol\":1040:1059  msg.sender == owner */\n      0xffffffffffffffffffffffffffffffffffffffff\n      and\n        /* \"contracts/ShareToken.sol\":1040:1050  msg.sender */\n      caller\n        /* \"contracts/ShareToken.sol\":1040:1059  msg.sender == owner */\n      0xffffffffffffffffffffffffffffffffffffffff\n      and\n      eq\n        /* \"contracts/ShareToken.sol\":1019:1127  require(... */\n      tag_109\n      jumpi\n      mload(0x40)\n      0x08c379a000000000000000000000000000000000000000000000000000000000\n      dup2\n      mstore\n      0x04\n      add\n      tag_110\n      swap1\n      tag_111\n      jump\t// in\n    tag_110:\n      mload(0x40)\n      dup1\n      swap2\n      sub\n      swap1\n      revert\n    tag_109:\n        /* \"contracts/ShareToken.sol\":5137:5138  0 */\n      0x00\n        /* \"contracts/ShareToken.sol\":5109:5139  borrower_address != address(0) */\n      0xffffffffffffffffffffffffffffffffffffffff\n      and\n        /* \"contracts/ShareToken.sol\":5109:5125  borrower_address */\n      dup6\n        /* \"contracts/ShareToken.sol\":5109:5139  borrower_address != address(0) */\n      0xffffffffffffffffffffffffffffffffffffffff\n      and\n      eq\n      iszero\n        /* \"contracts/ShareToken.sol\":5109:5176  borrower_address != address(0) && contributor_address != address(0) */\n      dup1\n      iszero\n      tag_113\n      jumpi\n      pop\n        /* \"contracts/ShareToken.sol\":5174:5175  0 */\n      0x00\n        /* \"contracts/ShareToken.sol\":5143:5176  contributor_address != address(0) */\n      0xffffffffffffffffffffffffffffffffffffffff\n      and\n        /* \"contracts/ShareToken.sol\":5143:5162  contributor_address */\n      dup5\n        /* \"contracts/ShareToken.sol\":5143:5176  contributor_address != address(0) */\n      0xffffffffffffffffffffffffffffffffffffffff\n      and\n      eq\n      iszero\n        /* \"contracts/ShareToken.sol\":5109:5176  borrower_address != address(0) && contributor_address != address(0) */\n    tag_113:\n        /* \"contracts/ShareToken.sol\":5088:5217  require(... */\n      tag_114\n      jumpi\n      mload(0x40)\n      0x08c379a000000000000000000000000000000000000000000000000000000000\n      dup2\n      mstore\n      0x04\n      add\n      tag_115\n      swap1\n      tag_116\n      jump\t// in\n    tag_115:\n      mload(0x40)\n      dup1\n      swap2\n      sub\n      swap1\n      revert\n    tag_114:\n        /* \"contracts/ShareToken.sol\":5268:5269  0 */\n      0x00\n        /* \"contracts/ShareToken.sol\":5248:5264  damagePercentage */\n      dup3\n        /* \"contracts/ShareToken.sol\":5248:5269  damagePercentage >= 0 */\n      lt\n      iszero\n        /* \"contracts/ShareToken.sol\":5248:5296  damagePercentage >= 0 && damagePercentage <= 100 */\n      dup1\n      iszero\n      tag_117\n      jumpi\n      pop\n        /* \"contracts/ShareToken.sol\":5293:5296  100 */\n      0x64\n        /* \"contracts/ShareToken.sol\":5273:5289  damagePercentage */\n      dup3\n        /* \"contracts/ShareToken.sol\":5273:5296  damagePercentage <= 100 */\n      gt\n      iszero\n        /* \"contracts/ShareToken.sol\":5248:5296  damagePercentage >= 0 && damagePercentage <= 100 */\n    tag_117:\n        /* \"contracts/ShareToken.sol\":5227:5349  require(... */\n      tag_118\n      jumpi\n      mload(0x40)\n      0x08c379a000000000000000000000000000000000000000000000000000000000\n      dup2\n      mstore\n      0x04\n      add\n      tag_119\n      swap1\n      tag_120\n      jump\t// in\n    tag_119:\n      mload(0x40)\n      dup1\n      swap2\n      sub\n      swap1\n      revert\n    tag_118:\n        /* \"contracts/ShareToken.sol\":5408:5421  depositAmount */\n      dup3\n        /* \"contracts/ShareToken.sol\":5380:5389  balanceOf */\n      0x06\n        /* \"contracts/ShareToken.sol\":5380:5404  balanceOf[projectWallet] */\n      0x00\n        /* \"contracts/ShareToken.sol\":5390:5403  projectWallet */\n      0x05\n      0x00\n      swap1\n      sload\n      swap1\n      0x0100\n      exp\n      swap1\n      div\n      0xffffffffffffffffffffffffffffffffffffffff\n      and\n        /* \"contracts/ShareToken.sol\":5380:5404  balanceOf[projectWallet] */\n      0xffffffffffffffffffffffffffffffffffffffff\n      and\n      0xffffffffffffffffffffffffffffffffffffffff\n      and\n      dup2\n      mstore\n      0x20\n      add\n      swap1\n      dup2\n      mstore\n      0x20\n      add\n      0x00\n      keccak256\n      sload\n        /* \"contracts/ShareToken.sol\":5380:5421  balanceOf[projectWallet] >= depositAmount */\n      lt\n      iszero\n        /* \"contracts/ShareToken.sol\":5359:5485  require(... */\n      tag_121\n      jumpi\n      mload(0x40)\n      0x08c379a000000000000000000000000000000000000000000000000000000000\n      dup2\n      mstore\n      0x04\n      add\n      tag_122\n      swap1\n      tag_123\n      jump\t// in\n    tag_122:\n      mload(0x40)\n      dup1\n      swap2\n      sub\n      swap1\n      revert\n    tag_121:\n        /* \"contracts/ShareToken.sol\":5532:5533  0 */\n      0x00\n        /* \"contracts/ShareToken.sol\":5516:5529  airdropAmount */\n      dup2\n        /* \"contracts/ShareToken.sol\":5516:5533  airdropAmount > 0 */\n      gt\n        /* \"contracts/ShareToken.sol\":5495:5561  require(... */\n      tag_124\n      jumpi\n      mload(0x40)\n      0x08c379a000000000000000000000000000000000000000000000000000000000\n      dup2\n      mstore\n      0x04\n      add\n      tag_125\n      swap1\n      tag_126\n      jump\t// in\n    tag_125:\n      mload(0x40)\n      dup1\n      swap2\n      sub\n      swap1\n      revert\n    tag_124:\n        /* \"contracts/ShareToken.sol\":5572:5598  uint256 depositAmountInWei */\n      0x00\n        /* \"contracts/ShareToken.sol\":5629:5637  decimals */\n      0x02\n      0x00\n      swap1\n      sload\n      swap1\n      0x0100\n      exp\n      swap1\n      div\n      0xff\n      and\n        /* \"contracts/ShareToken.sol\":5621:5638  uint256(decimals) */\n      0xff\n      and\n        /* \"contracts/ShareToken.sol\":5617:5619  10 */\n      0x0a\n        /* \"contracts/ShareToken.sol\":5617:5638  10**uint256(decimals) */\n      tag_127\n      swap2\n      swap1\n      tag_128\n      jump\t// in\n    tag_127:\n        /* \"contracts/ShareToken.sol\":5601:5614  depositAmount */\n      dup5\n        /* \"contracts/ShareToken.sol\":5601:5638  depositAmount * 10**uint256(decimals) */\n      tag_129\n      swap2\n      swap1\n      tag_130\n      jump\t// in\n    tag_129:\n        /* \"contracts/ShareToken.sol\":5572:5638  uint256 depositAmountInWei = depositAmount * 10**uint256(decimals) */\n      swap1\n      pop\n        /* \"contracts/ShareToken.sol\":5648:5673  uint256 contributorAmount */\n      0x00\n        /* \"contracts/ShareToken.sol\":5718:5721  100 */\n      0x64\n        /* \"contracts/ShareToken.sol\":5698:5714  damagePercentage */\n      dup5\n        /* \"contracts/ShareToken.sol\":5677:5695  depositAmountInWei */\n      dup4\n        /* \"contracts/ShareToken.sol\":5677:5714  depositAmountInWei * damagePercentage */\n      tag_131\n      swap2\n      swap1\n      tag_130\n      jump\t// in\n    tag_131:\n        /* \"contracts/ShareToken.sol\":5676:5721  (depositAmountInWei * damagePercentage) / 100 */\n      tag_132\n      swap2\n      swap1\n      tag_133\n      jump\t// in\n    tag_132:\n        /* \"contracts/ShareToken.sol\":5648:5721  uint256 contributorAmount = (depositAmountInWei * damagePercentage) / 100 */\n      swap1\n      pop\n        /* \"contracts/ShareToken.sol\":5731:5753  uint256 borrowerAmount */\n      0x00\n        /* \"contracts/ShareToken.sol\":5777:5794  contributorAmount */\n      dup2\n        /* \"contracts/ShareToken.sol\":5756:5774  depositAmountInWei */\n      dup4\n        /* \"contracts/ShareToken.sol\":5756:5794  depositAmountInWei - contributorAmount */\n      tag_134\n      swap2\n      swap1\n      tag_135\n      jump\t// in\n    tag_134:\n        /* \"contracts/ShareToken.sol\":5731:5794  uint256 borrowerAmount = depositAmountInWei - contributorAmount */\n      swap1\n      pop\n        /* \"contracts/ShareToken.sol\":5805:5831  uint256 airdropAmountInWei */\n      0x00\n        /* \"contracts/ShareToken.sol\":5862:5870  decimals */\n      0x02\n      0x00\n      swap1\n      sload\n      swap1\n      0x0100\n      exp\n      swap1\n      div\n      0xff\n      and\n        /* \"contracts/ShareToken.sol\":5854:5871  uint256(decimals) */\n      0xff\n      and\n        /* \"contracts/ShareToken.sol\":5850:5852  10 */\n      0x0a\n        /* \"contracts/ShareToken.sol\":5850:5871  10**uint256(decimals) */\n      tag_136\n      swap2\n      swap1\n      tag_128\n      jump\t// in\n    tag_136:\n        /* \"contracts/ShareToken.sol\":5834:5847  airdropAmount */\n      dup6\n        /* \"contracts/ShareToken.sol\":5834:5871  airdropAmount * 10**uint256(decimals) */\n      tag_137\n      swap2\n      swap1\n      tag_130\n      jump\t// in\n    tag_137:\n        /* \"contracts/ShareToken.sol\":5805:5871  uint256 airdropAmountInWei = airdropAmount * 10**uint256(decimals) */\n      swap1\n      pop\n        /* \"contracts/ShareToken.sol\":5910:5928  depositAmountInWei */\n      dup4\n        /* \"contracts/ShareToken.sol\":5882:5891  balanceOf */\n      0x06\n        /* \"contracts/ShareToken.sol\":5882:5906  balanceOf[projectWallet] */\n      0x00\n        /* \"contracts/ShareToken.sol\":5892:5905  projectWallet */\n      0x05\n      0x00\n      swap1\n      sload\n      swap1\n      0x0100\n      exp\n      swap1\n      div\n      0xffffffffffffffffffffffffffffffffffffffff\n      and\n        /* \"contracts/ShareToken.sol\":5882:5906  balanceOf[projectWallet] */\n      0xffffffffffffffffffffffffffffffffffffffff\n      and\n      0xffffffffffffffffffffffffffffffffffffffff\n      and\n      dup2\n      mstore\n      0x20\n      add\n      swap1\n      dup2\n      mstore\n      0x20\n      add\n      0x00\n      keccak256\n      0x00\n        /* \"contracts/ShareToken.sol\":5882:5928  balanceOf[projectWallet] -= depositAmountInWei */\n      dup3\n      dup3\n      sload\n      tag_138\n      swap2\n      swap1\n      tag_135\n      jump\t// in\n    tag_138:\n      swap3\n      pop\n      pop\n      dup2\n      swap1\n      sstore\n      pop\n        /* \"contracts/ShareToken.sol\":5972:5989  contributorAmount */\n      dup3\n        /* \"contracts/ShareToken.sol\":5938:5947  balanceOf */\n      0x06\n        /* \"contracts/ShareToken.sol\":5938:5968  balanceOf[contributor_address] */\n      0x00\n        /* \"contracts/ShareToken.sol\":5948:5967  contributor_address */\n      dup11\n        /* \"contracts/ShareToken.sol\":5938:5968  balanceOf[contributor_address] */\n      0xffffffffffffffffffffffffffffffffffffffff\n      and\n      0xffffffffffffffffffffffffffffffffffffffff\n      and\n      dup2\n      mstore\n      0x20\n      add\n      swap1\n      dup2\n      mstore\n      0x20\n      add\n      0x00\n      keccak256\n      0x00\n        /* \"contracts/ShareToken.sol\":5938:5989  balanceOf[contributor_address] += contributorAmount */\n      dup3\n      dup3\n      sload\n      tag_139\n      swap2\n      swap1\n      tag_140\n      jump\t// in\n    tag_139:\n      swap3\n      pop\n      pop\n      dup2\n      swap1\n      sstore\n      pop\n        /* \"contracts/ShareToken.sol\":6030:6044  borrowerAmount */\n      dup2\n        /* \"contracts/ShareToken.sol\":5999:6008  balanceOf */\n      0x06\n        /* \"contracts/ShareToken.sol\":5999:6026  balanceOf[borrower_address] */\n      0x00\n        /* \"contracts/ShareToken.sol\":6009:6025  borrower_address */\n      dup12\n        /* \"contracts/ShareToken.sol\":5999:6026  balanceOf[borrower_address] */\n      0xffffffffffffffffffffffffffffffffffffffff\n      and\n      0xffffffffffffffffffffffffffffffffffffffff\n      and\n      dup2\n      mstore\n      0x20\n      add\n      swap1\n      dup2\n      mstore\n      0x20\n      add\n      0x00\n      keccak256\n      0x00\n        /* \"contracts/ShareToken.sol\":5999:6044  balanceOf[borrower_address] += borrowerAmount */\n      dup3\n      dup3\n      sload\n      tag_141\n      swap2\n      swap1\n      tag_140\n      jump\t// in\n    tag_141:\n      swap3\n      pop\n      pop\n      dup2\n      swap1\n      sstore\n      pop\n        /* \"contracts/ShareToken.sol\":6084:6103  contributor_address */\n      dup8\n        /* \"contracts/ShareToken.sol\":6060:6123  Transfer(projectWallet, contributor_address, contributorAmount) */\n      0xffffffffffffffffffffffffffffffffffffffff\n      and\n        /* \"contracts/ShareToken.sol\":6069:6082  projectWallet */\n      0x05\n      0x00\n      swap1\n      sload\n      swap1\n      0x0100\n      exp\n      swap1\n      div\n      0xffffffffffffffffffffffffffffffffffffffff\n      and\n        /* \"contracts/ShareToken.sol\":6060:6123  Transfer(projectWallet, contributor_address, contributorAmount) */\n      0xffffffffffffffffffffffffffffffffffffffff\n      and\n      0xddf252ad1be2c89b69c2b068fc378daa952ba7f163c4a11628f55a4df523b3ef\n        /* \"contracts/ShareToken.sol\":6105:6122  contributorAmount */\n      dup6\n        /* \"contracts/ShareToken.sol\":6060:6123  Transfer(projectWallet, contributor_address, contributorAmount) */\n      mload(0x40)\n      tag_142\n      swap2\n      swap1\n      tag_43\n      jump\t// in\n    tag_142:\n      mload(0x40)\n      dup1\n      swap2\n      sub\n      swap1\n      log3\n        /* \"contracts/ShareToken.sol\":6162:6178  borrower_address */\n      dup9\n        /* \"contracts/ShareToken.sol\":6138:6195  Transfer(projectWallet, borrower_address, borrowerAmount) */\n      0xffffffffffffffffffffffffffffffffffffffff\n      and\n        /* \"contracts/ShareToken.sol\":6147:6160  projectWallet */\n      0x05\n      0x00\n      swap1\n      sload\n      swap1\n      0x0100\n      exp\n      swap1\n      div\n      0xffffffffffffffffffffffffffffffffffffffff\n      and\n        /* \"contracts/ShareToken.sol\":6138:6195  Transfer(projectWallet, borrower_address, borrowerAmount) */\n      0xffffffffffffffffffffffffffffffffffffffff\n      and\n      0xddf252ad1be2c89b69c2b068fc378daa952ba7f163c4a11628f55a4df523b3ef\n        /* \"contracts/ShareToken.sol\":6180:6194  borrowerAmount */\n      dup5\n        /* \"contracts/ShareToken.sol\":6138:6195  Transfer(projectWallet, borrower_address, borrowerAmount) */\n      mload(0x40)\n      tag_143\n      swap2\n      swap1\n      tag_43\n      jump\t// in\n    tag_143:\n      mload(0x40)\n      dup1\n      swap2\n      sub\n      swap1\n      log3\n        /* \"contracts/ShareToken.sol\":6288:6299  airdropMint */\n      sload(0x09)\n        /* \"contracts/ShareToken.sol\":6266:6284  airdropAmountInWei */\n      dup2\n        /* \"contracts/ShareToken.sol\":6266:6299  airdropAmountInWei <= airdropMint */\n      gt\n        /* \"contracts/ShareToken.sol\":6262:6891  if (airdropAmountInWei <= airdropMint) {... */\n      tag_144\n      jumpi\n        /* \"contracts/ShareToken.sol\":6330:6348  airdropAmountInWei */\n      dup1\n        /* \"contracts/ShareToken.sol\":6315:6326  airdropMint */\n      0x09\n      0x00\n        /* \"contracts/ShareToken.sol\":6315:6348  airdropMint -= airdropAmountInWei */\n      dup3\n      dup3\n      sload\n      tag_145\n      swap2\n      swap1\n      tag_135\n      jump\t// in\n    tag_145:\n      swap3\n      pop\n      pop\n      dup2\n      swap1\n      sstore\n      pop\n        /* \"contracts/ShareToken.sol\":6396:6414  airdropAmountInWei */\n      dup1\n        /* \"contracts/ShareToken.sol\":6362:6371  balanceOf */\n      0x06\n        /* \"contracts/ShareToken.sol\":6362:6392  balanceOf[contributor_address] */\n      0x00\n        /* \"contracts/ShareToken.sol\":6372:6391  contributor_address */\n      dup11\n        /* \"contracts/ShareToken.sol\":6362:6392  balanceOf[contributor_address] */\n      0xffffffffffffffffffffffffffffffffffffffff\n      and\n      0xffffffffffffffffffffffffffffffffffffffff\n      and\n      dup2\n      mstore\n      0x20\n      add\n      swap1\n      dup2\n      mstore\n      0x20\n      add\n      0x00\n      keccak256\n      0x00\n        /* \"contracts/ShareToken.sol\":6362:6414  balanceOf[contributor_address] += airdropAmountInWei */\n      dup3\n      dup3\n      sload\n      tag_146\n      swap2\n      swap1\n      tag_140\n      jump\t// in\n    tag_146:\n      swap3\n      pop\n      pop\n      dup2\n      swap1\n      sstore\n      pop\n        /* \"contracts/ShareToken.sol\":6457:6476  contributor_address */\n      dup8\n        /* \"contracts/ShareToken.sol\":6433:6497  Transfer(address(this), contributor_address, airdropAmountInWei) */\n      0xffffffffffffffffffffffffffffffffffffffff\n      and\n        /* \"contracts/ShareToken.sol\":6450:6454  this */\n      address\n        /* \"contracts/ShareToken.sol\":6433:6497  Transfer(address(this), contributor_address, airdropAmountInWei) */\n      0xffffffffffffffffffffffffffffffffffffffff\n      and\n      0xddf252ad1be2c89b69c2b068fc378daa952ba7f163c4a11628f55a4df523b3ef\n        /* \"contracts/ShareToken.sol\":6478:6496  airdropAmountInWei */\n      dup4\n        /* \"contracts/ShareToken.sol\":6433:6497  Transfer(address(this), contributor_address, airdropAmountInWei) */\n      mload(0x40)\n      tag_147\n      swap2\n      swap1\n      tag_43\n      jump\t// in\n    tag_147:\n      mload(0x40)\n      dup1\n      swap2\n      sub\n      swap1\n      log3\n        /* \"contracts/ShareToken.sol\":6262:6891  if (airdropAmountInWei <= airdropMint) {... */\n      jump(tag_148)\n    tag_144:\n        /* \"contracts/ShareToken.sol\":6581:6599  airdropAmountInWei */\n      dup1\n        /* \"contracts/ShareToken.sol\":6553:6562  balanceOf */\n      0x06\n        /* \"contracts/ShareToken.sol\":6553:6577  balanceOf[projectWallet] */\n      0x00\n        /* \"contracts/ShareToken.sol\":6563:6576  projectWallet */\n      0x05\n      0x00\n      swap1\n      sload\n      swap1\n      0x0100\n      exp\n      swap1\n      div\n      0xffffffffffffffffffffffffffffffffffffffff\n      and\n        /* \"contracts/ShareToken.sol\":6553:6577  balanceOf[projectWallet] */\n      0xffffffffffffffffffffffffffffffffffffffff\n      and\n      0xffffffffffffffffffffffffffffffffffffffff\n      and\n      dup2\n      mstore\n      0x20\n      add\n      swap1\n      dup2\n      mstore\n      0x20\n      add\n      0x00\n      keccak256\n      sload\n        /* \"contracts/ShareToken.sol\":6553:6599  balanceOf[projectWallet] >= airdropAmountInWei */\n      lt\n      iszero\n        /* \"contracts/ShareToken.sol\":6528:6671  require(... */\n      tag_149\n      jumpi\n      mload(0x40)\n      0x08c379a000000000000000000000000000000000000000000000000000000000\n      dup2\n      mstore\n      0x04\n      add\n      tag_150\n      swap1\n      tag_123\n      jump\t// in\n    tag_150:\n      mload(0x40)\n      dup1\n      swap2\n      sub\n      swap1\n      revert\n    tag_149:\n        /* \"contracts/ShareToken.sol\":6713:6731  airdropAmountInWei */\n      dup1\n        /* \"contracts/ShareToken.sol\":6685:6694  balanceOf */\n      0x06\n        /* \"contracts/ShareToken.sol\":6685:6709  balanceOf[projectWallet] */\n      0x00\n        /* \"contracts/ShareToken.sol\":6695:6708  projectWallet */\n      0x05\n      0x00\n      swap1\n      sload\n      swap1\n      0x0100\n      exp\n      swap1\n      div\n      0xffffffffffffffffffffffffffffffffffffffff\n      and\n        /* \"contracts/ShareToken.sol\":6685:6709  balanceOf[projectWallet] */\n      0xffffffffffffffffffffffffffffffffffffffff\n      and\n      0xffffffffffffffffffffffffffffffffffffffff\n      and\n      dup2\n      mstore\n      0x20\n      add\n      swap1\n      dup2\n      mstore\n      0x20\n      add\n      0x00\n      keccak256\n      0x00\n        /* \"contracts/ShareToken.sol\":6685:6731  balanceOf[projectWallet] -= airdropAmountInWei */\n      dup3\n      dup3\n      sload\n      tag_151\n      swap2\n      swap1\n      tag_135\n      jump\t// in\n    tag_151:\n      swap3\n      pop\n      pop\n      dup2\n      swap1\n      sstore\n      pop\n        /* \"contracts/ShareToken.sol\":6779:6797  airdropAmountInWei */\n      dup1\n        /* \"contracts/ShareToken.sol\":6745:6754  balanceOf */\n      0x06\n        /* \"contracts/ShareToken.sol\":6745:6775  balanceOf[contributor_address] */\n      0x00\n        /* \"contracts/ShareToken.sol\":6755:6774  contributor_address */\n      dup11\n        /* \"contracts/ShareToken.sol\":6745:6775  balanceOf[contributor_address] */\n      0xffffffffffffffffffffffffffffffffffffffff\n      and\n      0xffffffffffffffffffffffffffffffffffffffff\n      and\n      dup2\n      mstore\n      0x20\n      add\n      swap1\n      dup2\n      mstore\n      0x20\n      add\n      0x00\n      keccak256\n      0x00\n        /* \"contracts/ShareToken.sol\":6745:6797  balanceOf[contributor_address] += airdropAmountInWei */\n      dup3\n      dup3\n      sload\n      tag_152\n      swap2\n      swap1\n      tag_140\n      jump\t// in\n    tag_152:\n      swap3\n      pop\n      pop\n      dup2\n      swap1\n      sstore\n      pop\n        /* \"contracts/ShareToken.sol\":6840:6859  contributor_address */\n      dup8\n        /* \"contracts/ShareToken.sol\":6816:6880  Transfer(projectWallet, contributor_address, airdropAmountInWei) */\n      0xffffffffffffffffffffffffffffffffffffffff\n      and\n        /* \"contracts/ShareToken.sol\":6825:6838  projectWallet */\n      0x05\n      0x00\n      swap1\n      sload\n      swap1\n      0x0100\n      exp\n      swap1\n      div\n      0xffffffffffffffffffffffffffffffffffffffff\n      and\n        /* \"contracts/ShareToken.sol\":6816:6880  Transfer(projectWallet, contributor_address, airdropAmountInWei) */\n      0xffffffffffffffffffffffffffffffffffffffff\n      and\n      0xddf252ad1be2c89b69c2b068fc378daa952ba7f163c4a11628f55a4df523b3ef\n        /* \"contracts/ShareToken.sol\":6861:6879  airdropAmountInWei */\n      dup4\n        /* \"contracts/ShareToken.sol\":6816:6880  Transfer(projectWallet, contributor_address, airdropAmountInWei) */\n      mload(0x40)\n      tag_153\n      swap2\n      swap1\n      tag_43\n      jump\t// in\n    tag_153:\n      mload(0x40)\n      dup1\n      swap2\n      sub\n      swap1\n      log3\n        /* \"contracts/ShareToken.sol\":6262:6891  if (airdropAmountInWei <= airdropMint) {... */\n    tag_148:\n        /* \"contracts/ShareToken.sol\":5078:6897  {... */\n      pop\n      pop\n      pop\n      pop\n        /* \"contracts/ShareToken.sol\":4855:6897  function returnDepositAndAirdrop(... */\n      pop\n      pop\n      pop\n      pop\n      pop\n      jump\t// out\n        /* \"contracts/ShareToken.sol\":3434:4218  function nextUnlock() external view returns (uint256 day, uint256 hour) {... */\n    tag_33:\n        /* \"contracts/ShareToken.sol\":3479:3490  uint256 day */\n      0x00\n        /* \"contracts/ShareToken.sol\":3492:3504  uint256 hour */\n      dup1\n        /* \"contracts/ShareToken.sol\":3543:3554  unlockStart */\n      sload(0x0a)\n        /* \"contracts/ShareToken.sol\":3524:3539  block.timestamp */\n      timestamp\n        /* \"contracts/ShareToken.sol\":3524:3554  block.timestamp >= unlockStart */\n      lt\n      iszero\n        /* \"contracts/ShareToken.sol\":3516:3582  require(block.timestamp >= unlockStart, \"Tokens are still locked\") */\n      tag_155\n      jumpi\n      mload(0x40)\n      0x08c379a000000000000000000000000000000000000000000000000000000000\n      dup2\n      mstore\n      0x04\n      add\n      tag_156\n      swap1\n      tag_157\n      jump\t// in\n    tag_156:\n      mload(0x40)\n      dup1\n      swap2\n      sub\n      swap1\n      revert\n    tag_155:\n        /* \"contracts/ShareToken.sol\":3593:3612  uint256 currentTime */\n      0x00\n        /* \"contracts/ShareToken.sol\":3615:3630  block.timestamp */\n      timestamp\n        /* \"contracts/ShareToken.sol\":3593:3630  uint256 currentTime = block.timestamp */\n      swap1\n      pop\n        /* \"contracts/ShareToken.sol\":3640:3658  uint256 timePassed */\n      0x00\n        /* \"contracts/ShareToken.sol\":3675:3686  unlockStart */\n      sload(0x0a)\n        /* \"contracts/ShareToken.sol\":3661:3672  currentTime */\n      dup3\n        /* \"contracts/ShareToken.sol\":3661:3686  currentTime - unlockStart */\n      tag_158\n      swap2\n      swap1\n      tag_135\n      jump\t// in\n    tag_158:\n        /* \"contracts/ShareToken.sol\":3640:3686  uint256 timePassed = currentTime - unlockStart */\n      swap1\n      pop\n        /* \"contracts/ShareToken.sol\":3735:3758  uint256 intervalsPassed */\n      0x00\n        /* \"contracts/ShareToken.sol\":3775:3787  365 days / 2 */\n      0xf099c0\n        /* \"contracts/ShareToken.sol\":3761:3771  timePassed */\n      dup3\n        /* \"contracts/ShareToken.sol\":3761:3788  timePassed / (365 days / 2) */\n      tag_159\n      swap2\n      swap1\n      tag_133\n      jump\t// in\n    tag_159:\n        /* \"contracts/ShareToken.sol\":3735:3788  uint256 intervalsPassed = timePassed / (365 days / 2) */\n      swap1\n      pop\n        /* \"contracts/ShareToken.sol\":3843:3845  10 */\n      0x0a\n        /* \"contracts/ShareToken.sol\":3824:3839  intervalsPassed */\n      dup2\n        /* \"contracts/ShareToken.sol\":3824:3845  intervalsPassed >= 10 */\n      lt\n        /* \"contracts/ShareToken.sol\":3820:4212  if (intervalsPassed >= 10) {... */\n      tag_160\n      jumpi\n        /* \"contracts/ShareToken.sol\":3869:3870  0 */\n      0x00\n        /* \"contracts/ShareToken.sol\":3872:3873  0 */\n      dup1\n        /* \"contracts/ShareToken.sol\":3861:3874  return (0, 0) */\n      swap5\n      pop\n      swap5\n      pop\n      pop\n      pop\n      pop\n      jump(tag_154)\n        /* \"contracts/ShareToken.sol\":3820:4212  if (intervalsPassed >= 10) {... */\n    tag_160:\n        /* \"contracts/ShareToken.sol\":3959:3982  uint256 timeUntilUnlock */\n      0x00\n        /* \"contracts/ShareToken.sol\":4058:4068  timePassed */\n      dup3\n        /* \"contracts/ShareToken.sol\":4026:4038  365 days / 2 */\n      0xf099c0\n        /* \"contracts/ShareToken.sol\":4004:4005  1 */\n      0x01\n        /* \"contracts/ShareToken.sol\":3986:4001  intervalsPassed */\n      dup5\n        /* \"contracts/ShareToken.sol\":3986:4005  intervalsPassed + 1 */\n      tag_162\n      swap2\n      swap1\n      tag_140\n      jump\t// in\n    tag_162:\n        /* \"contracts/ShareToken.sol\":3985:4039  (intervalsPassed + 1) *... */\n      tag_163\n      swap2\n      swap1\n      tag_130\n      jump\t// in\n    tag_163:\n        /* \"contracts/ShareToken.sol\":3985:4068  (intervalsPassed + 1) *... */\n      tag_164\n      swap2\n      swap1\n      tag_135\n      jump\t// in\n    tag_164:\n        /* \"contracts/ShareToken.sol\":3959:4068  uint256 timeUntilUnlock = (intervalsPassed + 1) *... */\n      swap1\n      pop\n        /* \"contracts/ShareToken.sol\":4106:4112  1 days */\n      0x015180\n        /* \"contracts/ShareToken.sol\":4088:4103  timeUntilUnlock */\n      dup2\n        /* \"contracts/ShareToken.sol\":4088:4112  timeUntilUnlock / 1 days */\n      tag_165\n      swap2\n      swap1\n      tag_133\n      jump\t// in\n    tag_165:\n        /* \"contracts/ShareToken.sol\":4082:4112  day = timeUntilUnlock / 1 days */\n      swap6\n      pop\n        /* \"contracts/ShareToken.sol\":4162:4169  1 hours */\n      0x0e10\n        /* \"contracts/ShareToken.sol\":4152:4158  1 days */\n      0x015180\n        /* \"contracts/ShareToken.sol\":4134:4149  timeUntilUnlock */\n      dup3\n        /* \"contracts/ShareToken.sol\":4134:4158  timeUntilUnlock % 1 days */\n      tag_166\n      swap2\n      swap1\n      tag_167\n      jump\t// in\n    tag_166:\n        /* \"contracts/ShareToken.sol\":4133:4169  (timeUntilUnlock % 1 days) / 1 hours */\n      tag_168\n      swap2\n      swap1\n      tag_133\n      jump\t// in\n    tag_168:\n        /* \"contracts/ShareToken.sol\":4126:4169  hour = (timeUntilUnlock % 1 days) / 1 hours */\n      swap5\n      pop\n        /* \"contracts/ShareToken.sol\":4183:4201  return (day, hour) */\n      pop\n      pop\n      pop\n      pop\n        /* \"contracts/ShareToken.sol\":3434:4218  function nextUnlock() external view returns (uint256 day, uint256 hour) {... */\n    tag_154:\n      swap1\n      swap2\n      jump\t// out\n        /* \"contracts/ShareToken.sol\":84:117  string public name = \"ShareToken\" */\n    tag_37:\n      0x00\n      dup1\n      sload\n      tag_169\n      swap1\n      tag_170\n      jump\t// in\n    tag_169:\n      dup1\n      0x1f\n      add\n      0x20\n      dup1\n      swap2\n      div\n      mul\n      0x20\n      add\n      mload(0x40)\n      swap1\n      dup2\n      add\n      0x40\n      mstore\n      dup1\n      swap3\n      swap2\n      swap1\n      dup2\n      dup2\n      mstore\n      0x20\n      add\n      dup3\n      dup1\n      sload\n      tag_171\n      swap1\n      tag_170\n      jump\t// in\n    tag_171:\n      dup1\n      iszero\n      tag_172\n      jumpi\n      dup1\n      0x1f\n      lt\n      tag_173\n      jumpi\n      0x0100\n      dup1\n      dup4\n      sload\n      div\n      mul\n      dup4\n      mstore\n      swap2\n      0x20\n      add\n      swap2\n      jump(tag_172)\n    tag_173:\n      dup3\n      add\n      swap2\n      swap1\n      0x00\n      mstore\n      keccak256(0x00, 0x20)\n      swap1\n    tag_174:\n      dup2\n      sload\n      dup2\n      mstore\n      swap1\n      0x01\n      add\n      swap1\n      0x20\n      add\n      dup1\n      dup4\n      gt\n      tag_174\n      jumpi\n      dup3\n      swap1\n      sub\n      0x1f\n      and\n      dup3\n      add\n      swap2\n    tag_172:\n      pop\n      pop\n      pop\n      pop\n      pop\n      dup2\n      jump\t// out\n        /* \"contracts/ShareToken.sol\":189:250  uint256 public totalSupply = 10000000 * 10**uint256(decimals) */\n    tag_41:\n      sload(0x03)\n      dup2\n      jump\t// out\n        /* \"contracts/ShareToken.sol\":4380:4772  function payDeposit(uint256 amount) public returns (bool success) {... */\n    tag_47:\n        /* \"contracts/ShareToken.sol\":4432:4444  bool success */\n      0x00\n        /* \"contracts/ShareToken.sol\":4489:4495  amount */\n      dup2\n        /* \"contracts/ShareToken.sol\":4464:4473  balanceOf */\n      0x06\n        /* \"contracts/ShareToken.sol\":4464:4485  balanceOf[msg.sender] */\n      0x00\n        /* \"contracts/ShareToken.sol\":4474:4484  msg.sender */\n      caller\n        /* \"contracts/ShareToken.sol\":4464:4485  balanceOf[msg.sender] */\n      0xffffffffffffffffffffffffffffffffffffffff\n      and\n      0xffffffffffffffffffffffffffffffffffffffff\n      and\n      dup2\n      mstore\n      0x20\n      add\n      swap1\n      dup2\n      mstore\n      0x20\n      add\n      0x00\n      keccak256\n      sload\n        /* \"contracts/ShareToken.sol\":4464:4495  balanceOf[msg.sender] >= amount */\n      lt\n      iszero\n        /* \"contracts/ShareToken.sol\":4456:4520  require(balanceOf[msg.sender] >= amount, \"Insufficient balance\") */\n      tag_176\n      jumpi\n      mload(0x40)\n      0x08c379a000000000000000000000000000000000000000000000000000000000\n      dup2\n      mstore\n      0x04\n      add\n      tag_177\n      swap1\n      tag_178\n      jump\t// in\n    tag_177:\n      mload(0x40)\n      dup1\n      swap2\n      sub\n      swap1\n      revert\n    tag_176:\n        /* \"contracts/ShareToken.sol\":4531:4550  uint256 amountInWei */\n      0x00\n        /* \"contracts/ShareToken.sol\":4574:4582  decimals */\n      0x02\n      0x00\n      swap1\n      sload\n      swap1\n      0x0100\n      exp\n      swap1\n      div\n      0xff\n      and\n        /* \"contracts/ShareToken.sol\":4566:4583  uint256(decimals) */\n      0xff\n      and\n        /* \"contracts/ShareToken.sol\":4562:4564  10 */\n      0x0a\n        /* \"contracts/ShareToken.sol\":4562:4583  10**uint256(decimals) */\n      tag_179\n      swap2\n      swap1\n      tag_128\n      jump\t// in\n    tag_179:\n        /* \"contracts/ShareToken.sol\":4553:4559  amount */\n      dup4\n        /* \"contracts/ShareToken.sol\":4553:4583  amount * 10**uint256(decimals) */\n      tag_180\n      swap2\n      swap1\n      tag_130\n      jump\t// in\n    tag_180:\n        /* \"contracts/ShareToken.sol\":4531:4583  uint256 amountInWei = amount * 10**uint256(decimals) */\n      swap1\n      pop\n        /* \"contracts/ShareToken.sol\":4619:4630  amountInWei */\n      dup1\n        /* \"contracts/ShareToken.sol\":4594:4603  balanceOf */\n      0x06\n        /* \"contracts/ShareToken.sol\":4594:4615  balanceOf[msg.sender] */\n      0x00\n        /* \"contracts/ShareToken.sol\":4604:4614  msg.sender */\n      caller\n        /* \"contracts/ShareToken.sol\":4594:4615  balanceOf[msg.sender] */\n      0xffffffffffffffffffffffffffffffffffffffff\n      and\n      0xffffffffffffffffffffffffffffffffffffffff\n      and\n      dup2\n      mstore\n      0x20\n      add\n      swap1\n      dup2\n      mstore\n      0x20\n      add\n      0x00\n      keccak256\n      0x00\n        /* \"contracts/ShareToken.sol\":4594:4630  balanceOf[msg.sender] -= amountInWei */\n      dup3\n      dup3\n      sload\n      tag_181\n      swap2\n      swap1\n      tag_135\n      jump\t// in\n    tag_181:\n      swap3\n      pop\n      pop\n      dup2\n      swap1\n      sstore\n      pop\n        /* \"contracts/ShareToken.sol\":4668:4679  amountInWei */\n      dup1\n        /* \"contracts/ShareToken.sol\":4640:4649  balanceOf */\n      0x06\n        /* \"contracts/ShareToken.sol\":4640:4664  balanceOf[projectWallet] */\n      0x00\n        /* \"contracts/ShareToken.sol\":4650:4663  projectWallet */\n      0x05\n      0x00\n      swap1\n      sload\n      swap1\n      0x0100\n      exp\n      swap1\n      div\n      0xffffffffffffffffffffffffffffffffffffffff\n      and\n        /* \"contracts/ShareToken.sol\":4640:4664  balanceOf[projectWallet] */\n      0xffffffffffffffffffffffffffffffffffffffff\n      and\n      0xffffffffffffffffffffffffffffffffffffffff\n      and\n      dup2\n      mstore\n      0x20\n      add\n      swap1\n      dup2\n      mstore\n      0x20\n      add\n      0x00\n      keccak256\n      0x00\n        /* \"contracts/ShareToken.sol\":4640:4679  balanceOf[projectWallet] += amountInWei */\n      dup3\n      dup3\n      sload\n      tag_182\n      swap2\n      swap1\n      tag_140\n      jump\t// in\n    tag_182:\n      swap3\n      pop\n      pop\n      dup2\n      swap1\n      sstore\n      pop\n        /* \"contracts/ShareToken.sol\":4716:4729  projectWallet */\n      0x05\n      0x00\n      swap1\n      sload\n      swap1\n      0x0100\n      exp\n      swap1\n      div\n      0xffffffffffffffffffffffffffffffffffffffff\n      and\n        /* \"contracts/ShareToken.sol\":4695:4743  Transfer(msg.sender, projectWallet, amountInWei) */\n      0xffffffffffffffffffffffffffffffffffffffff\n      and\n        /* \"contracts/ShareToken.sol\":4704:4714  msg.sender */\n      caller\n        /* \"contracts/ShareToken.sol\":4695:4743  Transfer(msg.sender, projectWallet, amountInWei) */\n      0xffffffffffffffffffffffffffffffffffffffff\n      and\n      0xddf252ad1be2c89b69c2b068fc378daa952ba7f163c4a11628f55a4df523b3ef\n        /* \"contracts/ShareToken.sol\":4731:4742  amountInWei */\n      dup4\n        /* \"contracts/ShareToken.sol\":4695:4743  Transfer(msg.sender, projectWallet, amountInWei) */\n      mload(0x40)\n      tag_183\n      swap2\n      swap1\n      tag_43\n      jump\t// in\n    tag_183:\n      mload(0x40)\n      dup1\n      swap2\n      sub\n      swap1\n      log3\n        /* \"contracts/ShareToken.sol\":4761:4765  true */\n      0x01\n        /* \"contracts/ShareToken.sol\":4754:4765  return true */\n      swap2\n      pop\n      pop\n        /* \"contracts/ShareToken.sol\":4380:4772  function payDeposit(uint256 amount) public returns (bool success) {... */\n      swap2\n      swap1\n      pop\n      jump\t// out\n        /* \"contracts/ShareToken.sol\":157:183  uint8 public decimals = 18 */\n    tag_51:\n      0x02\n      0x00\n      swap1\n      sload\n      swap1\n      0x0100\n      exp\n      swap1\n      div\n      0xff\n      and\n      dup2\n      jump\t// out\n        /* \"contracts/ShareToken.sol\":1151:1248  function getContractAddress() public view returns (address) {... */\n    tag_55:\n        /* \"contracts/ShareToken.sol\":1202:1209  address */\n      0x00\n        /* \"contracts/ShareToken.sol\":1236:1240  this */\n      address\n        /* \"contracts/ShareToken.sol\":1221:1241  return address(this) */\n      swap1\n      pop\n        /* \"contracts/ShareToken.sol\":1151:1248  function getContractAddress() public view returns (address) {... */\n      swap1\n      jump\t// out\n        /* \"contracts/ShareToken.sol\":6988:7984  function borrowerNotPickedUpReturnDeposit(... */\n    tag_61:\n        /* \"contracts/ShareToken.sol\":1054:1059  owner */\n      0x0c\n      0x00\n      swap1\n      sload\n      swap1\n      0x0100\n      exp\n      swap1\n      div\n      0xffffffffffffffffffffffffffffffffffffffff\n      and\n        /* \"contracts/ShareToken.sol\":1040:1059  msg.sender == owner */\n      0xffffffffffffffffffffffffffffffffffffffff\n      and\n        /* \"contracts/ShareToken.sol\":1040:1050  msg.sender */\n      caller\n        /* \"contracts/ShareToken.sol\":1040:1059  msg.sender == owner */\n      0xffffffffffffffffffffffffffffffffffffffff\n      and\n      eq\n        /* \"contracts/ShareToken.sol\":1019:1127  require(... */\n      tag_186\n      jumpi\n      mload(0x40)\n      0x08c379a000000000000000000000000000000000000000000000000000000000\n      dup2\n      mstore\n      0x04\n      add\n      tag_187\n      swap1\n      tag_111\n      jump\t// in\n    tag_187:\n      mload(0x40)\n      dup1\n      swap2\n      sub\n      swap1\n      revert\n    tag_186:\n        /* \"contracts/ShareToken.sol\":7214:7215  0 */\n      0x00\n        /* \"contracts/ShareToken.sol\":7186:7216  borrower_address != address(0) */\n      0xffffffffffffffffffffffffffffffffffffffff\n      and\n        /* \"contracts/ShareToken.sol\":7186:7202  borrower_address */\n      dup4\n        /* \"contracts/ShareToken.sol\":7186:7216  borrower_address != address(0) */\n      0xffffffffffffffffffffffffffffffffffffffff\n      and\n      eq\n      iszero\n        /* \"contracts/ShareToken.sol\":7186:7253  borrower_address != address(0) && contributor_address != address(0) */\n      dup1\n      iszero\n      tag_189\n      jumpi\n      pop\n        /* \"contracts/ShareToken.sol\":7251:7252  0 */\n      0x00\n        /* \"contracts/ShareToken.sol\":7220:7253  contributor_address != address(0) */\n      0xffffffffffffffffffffffffffffffffffffffff\n      and\n        /* \"contracts/ShareToken.sol\":7220:7239  contributor_address */\n      dup3\n        /* \"contracts/ShareToken.sol\":7220:7253  contributor_address != address(0) */\n      0xffffffffffffffffffffffffffffffffffffffff\n      and\n      eq\n      iszero\n        /* \"contracts/ShareToken.sol\":7186:7253  borrower_address != address(0) && contributor_address != address(0) */\n    tag_189:\n        /* \"contracts/ShareToken.sol\":7165:7294  require(... */\n      tag_190\n      jumpi\n      mload(0x40)\n      0x08c379a000000000000000000000000000000000000000000000000000000000\n      dup2\n      mstore\n      0x04\n      add\n      tag_191\n      swap1\n      tag_116\n      jump\t// in\n    tag_191:\n      mload(0x40)\n      dup1\n      swap2\n      sub\n      swap1\n      revert\n    tag_190:\n        /* \"contracts/ShareToken.sol\":7353:7366  depositAmount */\n      dup1\n        /* \"contracts/ShareToken.sol\":7325:7334  balanceOf */\n      0x06\n        /* \"contracts/ShareToken.sol\":7325:7349  balanceOf[projectWallet] */\n      0x00\n        /* \"contracts/ShareToken.sol\":7335:7348  projectWallet */\n      0x05\n      0x00\n      swap1\n      sload\n      swap1\n      0x0100\n      exp\n      swap1\n      div\n      0xffffffffffffffffffffffffffffffffffffffff\n      and\n        /* \"contracts/ShareToken.sol\":7325:7349  balanceOf[projectWallet] */\n      0xffffffffffffffffffffffffffffffffffffffff\n      and\n      0xffffffffffffffffffffffffffffffffffffffff\n      and\n      dup2\n      mstore\n      0x20\n      add\n      swap1\n      dup2\n      mstore\n      0x20\n      add\n      0x00\n      keccak256\n      sload\n        /* \"contracts/ShareToken.sol\":7325:7366  balanceOf[projectWallet] >= depositAmount */\n      lt\n      iszero\n        /* \"contracts/ShareToken.sol\":7304:7430  require(... */\n      tag_192\n      jumpi\n      mload(0x40)\n      0x08c379a000000000000000000000000000000000000000000000000000000000\n      dup2\n      mstore\n      0x04\n      add\n      tag_193\n      swap1\n      tag_123\n      jump\t// in\n    tag_193:\n      mload(0x40)\n      dup1\n      swap2\n      sub\n      swap1\n      revert\n    tag_192:\n        /* \"contracts/ShareToken.sol\":7441:7468  uint256 depositAamountInWei */\n      0x00\n        /* \"contracts/ShareToken.sol\":7499:7507  decimals */\n      0x02\n      0x00\n      swap1\n      sload\n      swap1\n      0x0100\n      exp\n      swap1\n      div\n      0xff\n      and\n        /* \"contracts/ShareToken.sol\":7491:7508  uint256(decimals) */\n      0xff\n      and\n        /* \"contracts/ShareToken.sol\":7487:7489  10 */\n      0x0a\n        /* \"contracts/ShareToken.sol\":7487:7508  10**uint256(decimals) */\n      tag_194\n      swap2\n      swap1\n      tag_128\n      jump\t// in\n    tag_194:\n        /* \"contracts/ShareToken.sol\":7471:7484  depositAmount */\n      dup3\n        /* \"contracts/ShareToken.sol\":7471:7508  depositAmount * 10**uint256(decimals) */\n      tag_195\n      swap2\n      swap1\n      tag_130\n      jump\t// in\n    tag_195:\n        /* \"contracts/ShareToken.sol\":7441:7508  uint256 depositAamountInWei = depositAmount * 10**uint256(decimals) */\n      swap1\n      pop\n        /* \"contracts/ShareToken.sol\":7518:7543  uint256 contributorAmount */\n      0x00\n        /* \"contracts/ShareToken.sol\":7575:7578  100 */\n      0x64\n        /* \"contracts/ShareToken.sol\":7569:7571  30 */\n      0x1e\n        /* \"contracts/ShareToken.sol\":7547:7566  depositAamountInWei */\n      dup4\n        /* \"contracts/ShareToken.sol\":7547:7571  depositAamountInWei * 30 */\n      tag_196\n      swap2\n      swap1\n      tag_130\n      jump\t// in\n    tag_196:\n        /* \"contracts/ShareToken.sol\":7546:7578  (depositAamountInWei * 30) / 100 */\n      tag_197\n      swap2\n      swap1\n      tag_133\n      jump\t// in\n    tag_197:\n        /* \"contracts/ShareToken.sol\":7518:7578  uint256 contributorAmount = (depositAamountInWei * 30) / 100 */\n      swap1\n      pop\n        /* \"contracts/ShareToken.sol\":7588:7610  uint256 borrowerAmount */\n      0x00\n        /* \"contracts/ShareToken.sol\":7635:7652  contributorAmount */\n      dup2\n        /* \"contracts/ShareToken.sol\":7613:7632  depositAamountInWei */\n      dup4\n        /* \"contracts/ShareToken.sol\":7613:7652  depositAamountInWei - contributorAmount */\n      tag_198\n      swap2\n      swap1\n      tag_135\n      jump\t// in\n    tag_198:\n        /* \"contracts/ShareToken.sol\":7588:7652  uint256 borrowerAmount = depositAamountInWei - contributorAmount */\n      swap1\n      pop\n        /* \"contracts/ShareToken.sol\":7691:7710  depositAamountInWei */\n      dup3\n        /* \"contracts/ShareToken.sol\":7663:7672  balanceOf */\n      0x06\n        /* \"contracts/ShareToken.sol\":7663:7687  balanceOf[projectWallet] */\n      0x00\n        /* \"contracts/ShareToken.sol\":7673:7686  projectWallet */\n      0x05\n      0x00\n      swap1\n      sload\n      swap1\n      0x0100\n      exp\n      swap1\n      div\n      0xffffffffffffffffffffffffffffffffffffffff\n      and\n        /* \"contracts/ShareToken.sol\":7663:7687  balanceOf[projectWallet] */\n      0xffffffffffffffffffffffffffffffffffffffff\n      and\n      0xffffffffffffffffffffffffffffffffffffffff\n      and\n      dup2\n      mstore\n      0x20\n      add\n      swap1\n      dup2\n      mstore\n      0x20\n      add\n      0x00\n      keccak256\n      0x00\n        /* \"contracts/ShareToken.sol\":7663:7710  balanceOf[projectWallet] -= depositAamountInWei */\n      dup3\n      dup3\n      sload\n      tag_199\n      swap2\n      swap1\n      tag_135\n      jump\t// in\n    tag_199:\n      swap3\n      pop\n      pop\n      dup2\n      swap1\n      sstore\n      pop\n        /* \"contracts/ShareToken.sol\":7754:7771  contributorAmount */\n      dup2\n        /* \"contracts/ShareToken.sol\":7720:7729  balanceOf */\n      0x06\n        /* \"contracts/ShareToken.sol\":7720:7750  balanceOf[contributor_address] */\n      0x00\n        /* \"contracts/ShareToken.sol\":7730:7749  contributor_address */\n      dup8\n        /* \"contracts/ShareToken.sol\":7720:7750  balanceOf[contributor_address] */\n      0xffffffffffffffffffffffffffffffffffffffff\n      and\n      0xffffffffffffffffffffffffffffffffffffffff\n      and\n      dup2\n      mstore\n      0x20\n      add\n      swap1\n      dup2\n      mstore\n      0x20\n      add\n      0x00\n      keccak256\n      0x00\n        /* \"contracts/ShareToken.sol\":7720:7771  balanceOf[contributor_address] += contributorAmount */\n      dup3\n      dup3\n      sload\n      tag_200\n      swap2\n      swap1\n      tag_140\n      jump\t// in\n    tag_200:\n      swap3\n      pop\n      pop\n      dup2\n      swap1\n      sstore\n      pop\n        /* \"contracts/ShareToken.sol\":7812:7826  borrowerAmount */\n      dup1\n        /* \"contracts/ShareToken.sol\":7781:7790  balanceOf */\n      0x06\n        /* \"contracts/ShareToken.sol\":7781:7808  balanceOf[borrower_address] */\n      0x00\n        /* \"contracts/ShareToken.sol\":7791:7807  borrower_address */\n      dup9\n        /* \"contracts/ShareToken.sol\":7781:7808  balanceOf[borrower_address] */\n      0xffffffffffffffffffffffffffffffffffffffff\n      and\n      0xffffffffffffffffffffffffffffffffffffffff\n      and\n      dup2\n      mstore\n      0x20\n      add\n      swap1\n      dup2\n      mstore\n      0x20\n      add\n      0x00\n      keccak256\n      0x00\n        /* \"contracts/ShareToken.sol\":7781:7826  balanceOf[borrower_address] += borrowerAmount */\n      dup3\n      dup3\n      sload\n      tag_201\n      swap2\n      swap1\n      tag_140\n      jump\t// in\n    tag_201:\n      swap3\n      pop\n      pop\n      dup2\n      swap1\n      sstore\n      pop\n        /* \"contracts/ShareToken.sol\":7866:7885  contributor_address */\n      dup5\n        /* \"contracts/ShareToken.sol\":7842:7905  Transfer(projectWallet, contributor_address, contributorAmount) */\n      0xffffffffffffffffffffffffffffffffffffffff\n      and\n        /* \"contracts/ShareToken.sol\":7851:7864  projectWallet */\n      0x05\n      0x00\n      swap1\n      sload\n      swap1\n      0x0100\n      exp\n      swap1\n      div\n      0xffffffffffffffffffffffffffffffffffffffff\n      and\n        /* \"contracts/ShareToken.sol\":7842:7905  Transfer(projectWallet, contributor_address, contributorAmount) */\n      0xffffffffffffffffffffffffffffffffffffffff\n      and\n      0xddf252ad1be2c89b69c2b068fc378daa952ba7f163c4a11628f55a4df523b3ef\n        /* \"contracts/ShareToken.sol\":7887:7904  contributorAmount */\n      dup5\n        /* \"contracts/ShareToken.sol\":7842:7905  Transfer(projectWallet, contributor_address, contributorAmount) */\n      mload(0x40)\n      tag_202\n      swap2\n      swap1\n      tag_43\n      jump\t// in\n    tag_202:\n      mload(0x40)\n      dup1\n      swap2\n      sub\n      swap1\n      log3\n        /* \"contracts/ShareToken.sol\":7944:7960  borrower_address */\n      dup6\n        /* \"contracts/ShareToken.sol\":7920:7977  Transfer(projectWallet, borrower_address, borrowerAmount) */\n      0xffffffffffffffffffffffffffffffffffffffff\n      and\n        /* \"contracts/ShareToken.sol\":7929:7942  projectWallet */\n      0x05\n      0x00\n      swap1\n      sload\n      swap1\n      0x0100\n      exp\n      swap1\n      div\n      0xffffffffffffffffffffffffffffffffffffffff\n      and\n        /* \"contracts/ShareToken.sol\":7920:7977  Transfer(projectWallet, borrower_address, borrowerAmount) */\n      0xffffffffffffffffffffffffffffffffffffffff\n      and\n      0xddf252ad1be2c89b69c2b068fc378daa952ba7f163c4a11628f55a4df523b3ef\n        /* \"contracts/ShareToken.sol\":7962:7976  borrowerAmount */\n      dup4\n        /* \"contracts/ShareToken.sol\":7920:7977  Transfer(projectWallet, borrower_address, borrowerAmount) */\n      mload(0x40)\n      tag_203\n      swap2\n      swap1\n      tag_43\n      jump\t// in\n    tag_203:\n      mload(0x40)\n      dup1\n      swap2\n      sub\n      swap1\n      log3\n        /* \"contracts/ShareToken.sol\":7155:7984  {... */\n      pop\n      pop\n      pop\n        /* \"contracts/ShareToken.sol\":6988:7984  function borrowerNotPickedUpReturnDeposit(... */\n      pop\n      pop\n      pop\n      jump\t// out\n        /* \"contracts/ShareToken.sol\":400:456  uint256 public teamAllocation = (totalSupply * 30) / 100 */\n    tag_63:\n      sload(0x07)\n      dup2\n      jump\t// out\n        /* \"contracts/ShareToken.sol\":349:393  mapping(address => uint256) public balanceOf */\n    tag_68:\n      mstore(0x20, 0x06)\n      dup1\n      0x00\n      mstore\n      keccak256(0x00, 0x40)\n      0x00\n      swap2\n      pop\n      swap1\n      pop\n      sload\n      dup2\n      jump\t// out\n        /* \"contracts/ShareToken.sol\":653:673  address public owner */\n    tag_71:\n      0x0c\n      0x00\n      swap1\n      sload\n      swap1\n      0x0100\n      exp\n      swap1\n      div\n      0xffffffffffffffffffffffffffffffffffffffff\n      and\n      dup2\n      jump\t// out\n        /* \"contracts/ShareToken.sol\":123:151  string public symbol = \"STE\" */\n    tag_74:\n      0x01\n      dup1\n      sload\n      tag_204\n      swap1\n      tag_170\n      jump\t// in\n    tag_204:\n      dup1\n      0x1f\n      add\n      0x20\n      dup1\n      swap2\n      div\n      mul\n      0x20\n      add\n      mload(0x40)\n      swap1\n      dup2\n      add\n      0x40\n      mstore\n      dup1\n      swap3\n      swap2\n      swap1\n      dup2\n      dup2\n      mstore\n      0x20\n      add\n      dup3\n      dup1\n      sload\n      tag_205\n      swap1\n      tag_170\n      jump\t// in\n    tag_205:\n      dup1\n      iszero\n      tag_206\n      jumpi\n      dup1\n      0x1f\n      lt\n      tag_207\n      jumpi\n      0x0100\n      dup1\n      dup4\n      sload\n      div\n      mul\n      dup4\n      mstore\n      swap2\n      0x20\n      add\n      swap2\n      jump(tag_206)\n    tag_207:\n      dup3\n      add\n      swap2\n      swap1\n      0x00\n      mstore\n      keccak256(0x00, 0x20)\n      swap1\n    tag_208:\n      dup2\n      sload\n      dup2\n      mstore\n      swap1\n      0x01\n      add\n      swap1\n      0x20\n      add\n      dup1\n      dup4\n      gt\n      tag_208\n      jumpi\n      dup3\n      swap1\n      sub\n      0x1f\n      and\n      dup3\n      add\n      swap2\n    tag_206:\n      pop\n      pop\n      pop\n      pop\n      pop\n      dup2\n      jump\t// out\n        /* \"contracts/ShareToken.sol\":462:515  uint256 public initialMint = (totalSupply * 20) / 100 */\n    tag_77:\n      sload(0x08)\n      dup2\n      jump\t// out\n        /* \"contracts/ShareToken.sol\":1397:1774  function transfer(address _to, uint256 _value)... */\n    tag_82:\n        /* \"contracts/ShareToken.sol\":1476:1488  bool success */\n      0x00\n        /* \"contracts/ShareToken.sol\":1527:1528  0 */\n      dup1\n        /* \"contracts/ShareToken.sol\":1512:1529  _to != address(0) */\n      0xffffffffffffffffffffffffffffffffffffffff\n      and\n        /* \"contracts/ShareToken.sol\":1512:1515  _to */\n      dup4\n        /* \"contracts/ShareToken.sol\":1512:1529  _to != address(0) */\n      0xffffffffffffffffffffffffffffffffffffffff\n      and\n      sub\n        /* \"contracts/ShareToken.sol\":1504:1549  require(_to != address(0), \"Invalid address\") */\n      tag_210\n      jumpi\n      mload(0x40)\n      0x08c379a000000000000000000000000000000000000000000000000000000000\n      dup2\n      mstore\n      0x04\n      add\n      tag_211\n      swap1\n      tag_116\n      jump\t// in\n    tag_211:\n      mload(0x40)\n      dup1\n      swap2\n      sub\n      swap1\n      revert\n    tag_210:\n        /* \"contracts/ShareToken.sol\":1592:1598  _value */\n      dup2\n        /* \"contracts/ShareToken.sol\":1567:1576  balanceOf */\n      0x06\n        /* \"contracts/ShareToken.sol\":1567:1588  balanceOf[msg.sender] */\n      0x00\n        /* \"contracts/ShareToken.sol\":1577:1587  msg.sender */\n      caller\n        /* \"contracts/ShareToken.sol\":1567:1588  balanceOf[msg.sender] */\n      0xffffffffffffffffffffffffffffffffffffffff\n      and\n      0xffffffffffffffffffffffffffffffffffffffff\n      and\n      dup2\n      mstore\n      0x20\n      add\n      swap1\n      dup2\n      mstore\n      0x20\n      add\n      0x00\n      keccak256\n      sload\n        /* \"contracts/ShareToken.sol\":1567:1598  balanceOf[msg.sender] >= _value */\n      lt\n      iszero\n        /* \"contracts/ShareToken.sol\":1559:1623  require(balanceOf[msg.sender] >= _value, \"Insufficient balance\") */\n      tag_212\n      jumpi\n      mload(0x40)\n      0x08c379a000000000000000000000000000000000000000000000000000000000\n      dup2\n      mstore\n      0x04\n      add\n      tag_213\n      swap1\n      tag_178\n      jump\t// in\n    tag_213:\n      mload(0x40)\n      dup1\n      swap2\n      sub\n      swap1\n      revert\n    tag_212:\n        /* \"contracts/ShareToken.sol\":1658:1664  _value */\n      dup2\n        /* \"contracts/ShareToken.sol\":1633:1642  balanceOf */\n      0x06\n        /* \"contracts/ShareToken.sol\":1633:1654  balanceOf[msg.sender] */\n      0x00\n        /* \"contracts/ShareToken.sol\":1643:1653  msg.sender */\n      caller\n        /* \"contracts/ShareToken.sol\":1633:1654  balanceOf[msg.sender] */\n      0xffffffffffffffffffffffffffffffffffffffff\n      and\n      0xffffffffffffffffffffffffffffffffffffffff\n      and\n      dup2\n      mstore\n      0x20\n      add\n      swap1\n      dup2\n      mstore\n      0x20\n      add\n      0x00\n      keccak256\n      0x00\n        /* \"contracts/ShareToken.sol\":1633:1664  balanceOf[msg.sender] -= _value */\n      dup3\n      dup3\n      sload\n      tag_214\n      swap2\n      swap1\n      tag_135\n      jump\t// in\n    tag_214:\n      swap3\n      pop\n      pop\n      dup2\n      swap1\n      sstore\n      pop\n        /* \"contracts/ShareToken.sol\":1692:1698  _value */\n      dup2\n        /* \"contracts/ShareToken.sol\":1674:1683  balanceOf */\n      0x06\n        /* \"contracts/ShareToken.sol\":1674:1688  balanceOf[_to] */\n      0x00\n        /* \"contracts/ShareToken.sol\":1684:1687  _to */\n      dup6\n        /* \"contracts/ShareToken.sol\":1674:1688  balanceOf[_to] */\n      0xffffffffffffffffffffffffffffffffffffffff\n      and\n      0xffffffffffffffffffffffffffffffffffffffff\n      and\n      dup2\n      mstore\n      0x20\n      add\n      swap1\n      dup2\n      mstore\n      0x20\n      add\n      0x00\n      keccak256\n      0x00\n        /* \"contracts/ShareToken.sol\":1674:1698  balanceOf[_to] += _value */\n      dup3\n      dup3\n      sload\n      tag_215\n      swap2\n      swap1\n      tag_140\n      jump\t// in\n    tag_215:\n      swap3\n      pop\n      pop\n      dup2\n      swap1\n      sstore\n      pop\n        /* \"contracts/ShareToken.sol\":1734:1737  _to */\n      dup3\n        /* \"contracts/ShareToken.sol\":1713:1746  Transfer(msg.sender, _to, _value) */\n      0xffffffffffffffffffffffffffffffffffffffff\n      and\n        /* \"contracts/ShareToken.sol\":1722:1732  msg.sender */\n      caller\n        /* \"contracts/ShareToken.sol\":1713:1746  Transfer(msg.sender, _to, _value) */\n      0xffffffffffffffffffffffffffffffffffffffff\n      and\n      0xddf252ad1be2c89b69c2b068fc378daa952ba7f163c4a11628f55a4df523b3ef\n        /* \"contracts/ShareToken.sol\":1739:1745  _value */\n      dup5\n        /* \"contracts/ShareToken.sol\":1713:1746  Transfer(msg.sender, _to, _value) */\n      mload(0x40)\n      tag_216\n      swap2\n      swap1\n      tag_43\n      jump\t// in\n    tag_216:\n      mload(0x40)\n      dup1\n      swap2\n      sub\n      swap1\n      log3\n        /* \"contracts/ShareToken.sol\":1763:1767  true */\n      0x01\n        /* \"contracts/ShareToken.sol\":1756:1767  return true */\n      swap1\n      pop\n        /* \"contracts/ShareToken.sol\":1397:1774  function transfer(address _to, uint256 _value)... */\n      swap3\n      swap2\n      pop\n      pop\n      jump\t// out\n        /* \"contracts/ShareToken.sol\":613:646  uint256 public unlockedTokens = 0 */\n    tag_85:\n      sload(0x0b)\n      dup2\n      jump\t// out\n        /* \"contracts/ShareToken.sol\":256:294  uint256 public remainingUnlockedTokens */\n    tag_88:\n      sload(0x04)\n      dup2\n      jump\t// out\n        /* \"contracts/ShareToken.sol\":301:342  address public projectWallet = msg.sender */\n    tag_91:\n      0x05\n      0x00\n      swap1\n      sload\n      swap1\n      0x0100\n      exp\n      swap1\n      div\n      0xffffffffffffffffffffffffffffffffffffffff\n      and\n      dup2\n      jump\t// out\n        /* \"contracts/ShareToken.sol\":521:574  uint256 public airdropMint = (totalSupply * 50) / 100 */\n    tag_94:\n      sload(0x09)\n      dup2\n      jump\t// out\n        /* \"contracts/ShareToken.sol\":8064:8714  function cancelOrderReturnDeposit(... */\n    tag_98:\n        /* \"contracts/ShareToken.sol\":1054:1059  owner */\n      0x0c\n      0x00\n      swap1\n      sload\n      swap1\n      0x0100\n      exp\n      swap1\n      div\n      0xffffffffffffffffffffffffffffffffffffffff\n      and\n        /* \"contracts/ShareToken.sol\":1040:1059  msg.sender == owner */\n      0xffffffffffffffffffffffffffffffffffffffff\n      and\n        /* \"contracts/ShareToken.sol\":1040:1050  msg.sender */\n      caller\n        /* \"contracts/ShareToken.sol\":1040:1059  msg.sender == owner */\n      0xffffffffffffffffffffffffffffffffffffffff\n      and\n      eq\n        /* \"contracts/ShareToken.sol\":1019:1127  require(... */\n      tag_218\n      jumpi\n      mload(0x40)\n      0x08c379a000000000000000000000000000000000000000000000000000000000\n      dup2\n      mstore\n      0x04\n      add\n      tag_219\n      swap1\n      tag_111\n      jump\t// in\n    tag_219:\n      mload(0x40)\n      dup1\n      swap2\n      sub\n      swap1\n      revert\n    tag_218:\n        /* \"contracts/ShareToken.sol\":8245:8246  0 */\n      0x00\n        /* \"contracts/ShareToken.sol\":8217:8247  borrower_address != address(0) */\n      0xffffffffffffffffffffffffffffffffffffffff\n      and\n        /* \"contracts/ShareToken.sol\":8217:8233  borrower_address */\n      dup3\n        /* \"contracts/ShareToken.sol\":8217:8247  borrower_address != address(0) */\n      0xffffffffffffffffffffffffffffffffffffffff\n      and\n      sub\n        /* \"contracts/ShareToken.sol\":8196:8289  require(... */\n      tag_221\n      jumpi\n      mload(0x40)\n      0x08c379a000000000000000000000000000000000000000000000000000000000\n      dup2\n      mstore\n      0x04\n      add\n      tag_222\n      swap1\n      tag_116\n      jump\t// in\n    tag_222:\n      mload(0x40)\n      dup1\n      swap2\n      sub\n      swap1\n      revert\n    tag_221:\n        /* \"contracts/ShareToken.sol\":8348:8361  depositAmount */\n      dup1\n        /* \"contracts/ShareToken.sol\":8320:8329  balanceOf */\n      0x06\n        /* \"contracts/ShareToken.sol\":8320:8344  balanceOf[projectWallet] */\n      0x00\n        /* \"contracts/ShareToken.sol\":8330:8343  projectWallet */\n      0x05\n      0x00\n      swap1\n      sload\n      swap1\n      0x0100\n      exp\n      swap1\n      div\n      0xffffffffffffffffffffffffffffffffffffffff\n      and\n        /* \"contracts/ShareToken.sol\":8320:8344  balanceOf[projectWallet] */\n      0xffffffffffffffffffffffffffffffffffffffff\n      and\n      0xffffffffffffffffffffffffffffffffffffffff\n      and\n      dup2\n      mstore\n      0x20\n      add\n      swap1\n      dup2\n      mstore\n      0x20\n      add\n      0x00\n      keccak256\n      sload\n        /* \"contracts/ShareToken.sol\":8320:8361  balanceOf[projectWallet] >= depositAmount */\n      lt\n      iszero\n        /* \"contracts/ShareToken.sol\":8299:8425  require(... */\n      tag_223\n      jumpi\n      mload(0x40)\n      0x08c379a000000000000000000000000000000000000000000000000000000000\n      dup2\n      mstore\n      0x04\n      add\n      tag_224\n      swap1\n      tag_123\n      jump\t// in\n    tag_224:\n      mload(0x40)\n      dup1\n      swap2\n      sub\n      swap1\n      revert\n    tag_223:\n        /* \"contracts/ShareToken.sol\":8436:8463  uint256 depositAamountInWei */\n      0x00\n        /* \"contracts/ShareToken.sol\":8494:8502  decimals */\n      0x02\n      0x00\n      swap1\n      sload\n      swap1\n      0x0100\n      exp\n      swap1\n      div\n      0xff\n      and\n        /* \"contracts/ShareToken.sol\":8486:8503  uint256(decimals) */\n      0xff\n      and\n        /* \"contracts/ShareToken.sol\":8482:8484  10 */\n      0x0a\n        /* \"contracts/ShareToken.sol\":8482:8503  10**uint256(decimals) */\n      tag_225\n      swap2\n      swap1\n      tag_128\n      jump\t// in\n    tag_225:\n        /* \"contracts/ShareToken.sol\":8466:8479  depositAmount */\n      dup3\n        /* \"contracts/ShareToken.sol\":8466:8503  depositAmount * 10**uint256(decimals) */\n      tag_226\n      swap2\n      swap1\n      tag_130\n      jump\t// in\n    tag_226:\n        /* \"contracts/ShareToken.sol\":8436:8503  uint256 depositAamountInWei = depositAmount * 10**uint256(decimals) */\n      swap1\n      pop\n        /* \"contracts/ShareToken.sol\":8550:8569  depositAamountInWei */\n      dup1\n        /* \"contracts/ShareToken.sol\":8522:8531  balanceOf */\n      0x06\n        /* \"contracts/ShareToken.sol\":8522:8546  balanceOf[projectWallet] */\n      0x00\n        /* \"contracts/ShareToken.sol\":8532:8545  projectWallet */\n      0x05\n      0x00\n      swap1\n      sload\n      swap1\n      0x0100\n      exp\n      swap1\n      div\n      0xffffffffffffffffffffffffffffffffffffffff\n      and\n        /* \"contracts/ShareToken.sol\":8522:8546  balanceOf[projectWallet] */\n      0xffffffffffffffffffffffffffffffffffffffff\n      and\n      0xffffffffffffffffffffffffffffffffffffffff\n      and\n      dup2\n      mstore\n      0x20\n      add\n      swap1\n      dup2\n      mstore\n      0x20\n      add\n      0x00\n      keccak256\n      0x00\n        /* \"contracts/ShareToken.sol\":8522:8569  balanceOf[projectWallet] -= depositAamountInWei */\n      dup3\n      dup3\n      sload\n      tag_227\n      swap2\n      swap1\n      tag_135\n      jump\t// in\n    tag_227:\n      swap3\n      pop\n      pop\n      dup2\n      swap1\n      sstore\n      pop\n        /* \"contracts/ShareToken.sol\":8610:8629  depositAamountInWei */\n      dup1\n        /* \"contracts/ShareToken.sol\":8579:8588  balanceOf */\n      0x06\n        /* \"contracts/ShareToken.sol\":8579:8606  balanceOf[borrower_address] */\n      0x00\n        /* \"contracts/ShareToken.sol\":8589:8605  borrower_address */\n      dup6\n        /* \"contracts/ShareToken.sol\":8579:8606  balanceOf[borrower_address] */\n      0xffffffffffffffffffffffffffffffffffffffff\n      and\n      0xffffffffffffffffffffffffffffffffffffffff\n      and\n      dup2\n      mstore\n      0x20\n      add\n      swap1\n      dup2\n      mstore\n      0x20\n      add\n      0x00\n      keccak256\n      0x00\n        /* \"contracts/ShareToken.sol\":8579:8629  balanceOf[borrower_address] += depositAamountInWei */\n      dup3\n      dup3\n      sload\n      tag_228\n      swap2\n      swap1\n      tag_140\n      jump\t// in\n    tag_228:\n      swap3\n      pop\n      pop\n      dup2\n      swap1\n      sstore\n      pop\n        /* \"contracts/ShareToken.sol\":8669:8685  borrower_address */\n      dup3\n        /* \"contracts/ShareToken.sol\":8645:8707  Transfer(projectWallet, borrower_address, depositAamountInWei) */\n      0xffffffffffffffffffffffffffffffffffffffff\n      and\n        /* \"contracts/ShareToken.sol\":8654:8667  projectWallet */\n      0x05\n      0x00\n      swap1\n      sload\n      swap1\n      0x0100\n      exp\n      swap1\n      div\n      0xffffffffffffffffffffffffffffffffffffffff\n      and\n        /* \"contracts/ShareToken.sol\":8645:8707  Transfer(projectWallet, borrower_address, depositAamountInWei) */\n      0xffffffffffffffffffffffffffffffffffffffff\n      and\n      0xddf252ad1be2c89b69c2b068fc378daa952ba7f163c4a11628f55a4df523b3ef\n        /* \"contracts/ShareToken.sol\":8687:8706  depositAamountInWei */\n      dup4\n        /* \"contracts/ShareToken.sol\":8645:8707  Transfer(projectWallet, borrower_address, depositAamountInWei) */\n      mload(0x40)\n      tag_229\n      swap2\n      swap1\n      tag_43\n      jump\t// in\n    tag_229:\n      mload(0x40)\n      dup1\n      swap2\n      sub\n      swap1\n      log3\n        /* \"contracts/ShareToken.sol\":8186:8714  {... */\n      pop\n        /* \"contracts/ShareToken.sol\":8064:8714  function cancelOrderReturnDeposit(... */\n      pop\n      pop\n      jump\t// out\n        /* \"contracts/ShareToken.sol\":1254:1391  function getBalance(address _address) public view returns (uint256) {... */\n    tag_101:\n        /* \"contracts/ShareToken.sol\":1313:1320  uint256 */\n      0x00\n        /* \"contracts/ShareToken.sol\":1374:1382  decimals */\n      0x02\n      0x00\n      swap1\n      sload\n      swap1\n      0x0100\n      exp\n      swap1\n      div\n      0xff\n      and\n        /* \"contracts/ShareToken.sol\":1366:1383  uint256(decimals) */\n      0xff\n      and\n        /* \"contracts/ShareToken.sol\":1362:1364  10 */\n      0x0a\n        /* \"contracts/ShareToken.sol\":1362:1383  10**uint256(decimals) */\n      tag_231\n      swap2\n      swap1\n      tag_128\n      jump\t// in\n    tag_231:\n        /* \"contracts/ShareToken.sol\":1339:1348  balanceOf */\n      0x06\n        /* \"contracts/ShareToken.sol\":1339:1358  balanceOf[_address] */\n      0x00\n        /* \"contracts/ShareToken.sol\":1349:1357  _address */\n      dup5\n        /* \"contracts/ShareToken.sol\":1339:1358  balanceOf[_address] */\n      0xffffffffffffffffffffffffffffffffffffffff\n      and\n      0xffffffffffffffffffffffffffffffffffffffff\n      and\n      dup2\n      mstore\n      0x20\n      add\n      swap1\n      dup2\n      mstore\n      0x20\n      add\n      0x00\n      keccak256\n      sload\n        /* \"contracts/ShareToken.sol\":1339:1384  balanceOf[_address] / (10**uint256(decimals)) */\n      tag_232\n      swap2\n      swap1\n      tag_133\n      jump\t// in\n    tag_232:\n        /* \"contracts/ShareToken.sol\":1332:1384  return balanceOf[_address] / (10**uint256(decimals)) */\n      swap1\n      pop\n        /* \"contracts/ShareToken.sol\":1254:1391  function getBalance(address _address) public view returns (uint256) {... */\n      swap2\n      swap1\n      pop\n      jump\t// out\n        /* \"contracts/ShareToken.sol\":1929:3428  function unlockTokens() external onlyOwner {... */\n    tag_104:\n        /* \"contracts/ShareToken.sol\":1054:1059  owner */\n      0x0c\n      0x00\n      swap1\n      sload\n      swap1\n      0x0100\n      exp\n      swap1\n      div\n      0xffffffffffffffffffffffffffffffffffffffff\n      and\n        /* \"contracts/ShareToken.sol\":1040:1059  msg.sender == owner */\n      0xffffffffffffffffffffffffffffffffffffffff\n      and\n        /* \"contracts/ShareToken.sol\":1040:1050  msg.sender */\n      caller\n        /* \"contracts/ShareToken.sol\":1040:1059  msg.sender == owner */\n      0xffffffffffffffffffffffffffffffffffffffff\n      and\n      eq\n        /* \"contracts/ShareToken.sol\":1019:1127  require(... */\n      tag_234\n      jumpi\n      mload(0x40)\n      0x08c379a000000000000000000000000000000000000000000000000000000000\n      dup2\n      mstore\n      0x04\n      add\n      tag_235\n      swap1\n      tag_111\n      jump\t// in\n    tag_235:\n      mload(0x40)\n      dup1\n      swap2\n      sub\n      swap1\n      revert\n    tag_234:\n        /* \"contracts/ShareToken.sol\":2009:2020  unlockStart */\n      sload(0x0a)\n        /* \"contracts/ShareToken.sol\":1990:2005  block.timestamp */\n      timestamp\n        /* \"contracts/ShareToken.sol\":1990:2020  block.timestamp >= unlockStart */\n      lt\n      iszero\n        /* \"contracts/ShareToken.sol\":1982:2048  require(block.timestamp >= unlockStart, \"Tokens are still locked\") */\n      tag_237\n      jumpi\n      mload(0x40)\n      0x08c379a000000000000000000000000000000000000000000000000000000000\n      dup2\n      mstore\n      0x04\n      add\n      tag_238\n      swap1\n      tag_157\n      jump\t// in\n    tag_238:\n      mload(0x40)\n      dup1\n      swap2\n      sub\n      swap1\n      revert\n    tag_237:\n        /* \"contracts/ShareToken.sol\":2083:2097  teamAllocation */\n      sload(0x07)\n        /* \"contracts/ShareToken.sol\":2066:2080  unlockedTokens */\n      sload(0x0b)\n        /* \"contracts/ShareToken.sol\":2066:2097  unlockedTokens < teamAllocation */\n      lt\n        /* \"contracts/ShareToken.sol\":2058:2121  require(unlockedTokens < teamAllocation, \"All tokens unlocked\") */\n      tag_239\n      jumpi\n      mload(0x40)\n      0x08c379a000000000000000000000000000000000000000000000000000000000\n      dup2\n      mstore\n      0x04\n      add\n      tag_240\n      swap1\n      tag_241\n      jump\t// in\n    tag_240:\n      mload(0x40)\n      dup1\n      swap2\n      sub\n      swap1\n      revert\n    tag_239:\n        /* \"contracts/ShareToken.sol\":2132:2151  uint256 currentTime */\n      0x00\n        /* \"contracts/ShareToken.sol\":2154:2169  block.timestamp */\n      timestamp\n        /* \"contracts/ShareToken.sol\":2132:2169  uint256 currentTime = block.timestamp */\n      swap1\n      pop\n        /* \"contracts/ShareToken.sol\":2179:2197  uint256 timePassed */\n      0x00\n        /* \"contracts/ShareToken.sol\":2214:2225  unlockStart */\n      sload(0x0a)\n        /* \"contracts/ShareToken.sol\":2200:2211  currentTime */\n      dup3\n        /* \"contracts/ShareToken.sol\":2200:2225  currentTime - unlockStart */\n      tag_242\n      swap2\n      swap1\n      tag_135\n      jump\t// in\n    tag_242:\n        /* \"contracts/ShareToken.sol\":2179:2225  uint256 timePassed = currentTime - unlockStart */\n      swap1\n      pop\n        /* \"contracts/ShareToken.sol\":2235:2258  uint256 intervalsPassed */\n      0x00\n        /* \"contracts/ShareToken.sol\":2275:2287  365 days / 2 */\n      0xf099c0\n        /* \"contracts/ShareToken.sol\":2261:2271  timePassed */\n      dup3\n        /* \"contracts/ShareToken.sol\":2261:2288  timePassed / (365 days / 2) */\n      tag_243\n      swap2\n      swap1\n      tag_133\n      jump\t// in\n    tag_243:\n        /* \"contracts/ShareToken.sol\":2235:2288  uint256 intervalsPassed = timePassed / (365 days / 2) */\n      swap1\n      pop\n        /* \"contracts/ShareToken.sol\":2299:2329  uint256[] memory unlockAmounts */\n      0x00\n        /* \"contracts/ShareToken.sol\":2346:2348  10 */\n      0x0a\n        /* \"contracts/ShareToken.sol\":2332:2349  new uint256[](10) */\n      0xffffffffffffffff\n      dup2\n      gt\n      iszero\n      tag_244\n      jumpi\n      tag_245\n      tag_246\n      jump\t// in\n    tag_245:\n    tag_244:\n      mload(0x40)\n      swap1\n      dup1\n      dup3\n      mstore\n      dup1\n      0x20\n      mul\n      0x20\n      add\n      dup3\n      add\n      0x40\n      mstore\n      dup1\n      iszero\n      tag_247\n      jumpi\n      dup2\n      0x20\n      add\n      0x20\n      dup3\n      mul\n      dup1\n      calldatasize\n      dup4\n      calldatacopy\n      dup1\n      dup3\n      add\n      swap2\n      pop\n      pop\n      swap1\n      pop\n    tag_247:\n      pop\n        /* \"contracts/ShareToken.sol\":2299:2349  uint256[] memory unlockAmounts = new uint256[](10) */\n      swap1\n      pop\n        /* \"contracts/ShareToken.sol\":2395:2403  decimals */\n      0x02\n      0x00\n      swap1\n      sload\n      swap1\n      0x0100\n      exp\n      swap1\n      div\n      0xff\n      and\n        /* \"contracts/ShareToken.sol\":2387:2404  uint256(decimals) */\n      0xff\n      and\n        /* \"contracts/ShareToken.sol\":2383:2385  10 */\n      0x0a\n        /* \"contracts/ShareToken.sol\":2383:2404  10**uint256(decimals) */\n      tag_248\n      swap2\n      swap1\n      tag_128\n      jump\t// in\n    tag_248:\n        /* \"contracts/ShareToken.sol\":2378:2379  0 */\n      0x00\n        /* \"contracts/ShareToken.sol\":2378:2405  0 * (10**uint256(decimals)) */\n      tag_249\n      swap2\n      swap1\n      tag_130\n      jump\t// in\n    tag_249:\n        /* \"contracts/ShareToken.sol\":2359:2372  unlockAmounts */\n      dup2\n        /* \"contracts/ShareToken.sol\":2373:2374  0 */\n      0x00\n        /* \"contracts/ShareToken.sol\":2359:2375  unlockAmounts[0] */\n      dup2\n      mload\n      dup2\n      lt\n      tag_250\n      jumpi\n      tag_251\n      tag_252\n      jump\t// in\n    tag_251:\n    tag_250:\n      0x20\n      mul\n      0x20\n      add\n      add\n        /* \"contracts/ShareToken.sol\":2359:2405  unlockAmounts[0] = 0 * (10**uint256(decimals)) */\n      dup2\n      dup2\n      mstore\n      pop\n      pop\n        /* \"contracts/ShareToken.sol\":2455:2463  decimals */\n      0x02\n      0x00\n      swap1\n      sload\n      swap1\n      0x0100\n      exp\n      swap1\n      div\n      0xff\n      and\n        /* \"contracts/ShareToken.sol\":2447:2464  uint256(decimals) */\n      0xff\n      and\n        /* \"contracts/ShareToken.sol\":2443:2445  10 */\n      0x0a\n        /* \"contracts/ShareToken.sol\":2443:2464  10**uint256(decimals) */\n      tag_253\n      swap2\n      swap1\n      tag_128\n      jump\t// in\n    tag_253:\n        /* \"contracts/ShareToken.sol\":2434:2439  93706 */\n      0x016e0a\n        /* \"contracts/ShareToken.sol\":2434:2465  93706 * (10**uint256(decimals)) */\n      tag_254\n      swap2\n      swap1\n      tag_130\n      jump\t// in\n    tag_254:\n        /* \"contracts/ShareToken.sol\":2415:2428  unlockAmounts */\n      dup2\n        /* \"contracts/ShareToken.sol\":2429:2430  1 */\n      0x01\n        /* \"contracts/ShareToken.sol\":2415:2431  unlockAmounts[1] */\n      dup2\n      mload\n      dup2\n      lt\n      tag_255\n      jumpi\n      tag_256\n      tag_252\n      jump\t// in\n    tag_256:\n    tag_255:\n      0x20\n      mul\n      0x20\n      add\n      add\n        /* \"contracts/ShareToken.sol\":2415:2465  unlockAmounts[1] = 93706 * (10**uint256(decimals)) */\n      dup2\n      dup2\n      mstore\n      pop\n      pop\n        /* \"contracts/ShareToken.sol\":2516:2524  decimals */\n      0x02\n      0x00\n      swap1\n      sload\n      swap1\n      0x0100\n      exp\n      swap1\n      div\n      0xff\n      and\n        /* \"contracts/ShareToken.sol\":2508:2525  uint256(decimals) */\n      0xff\n      and\n        /* \"contracts/ShareToken.sol\":2504:2506  10 */\n      0x0a\n        /* \"contracts/ShareToken.sol\":2504:2525  10**uint256(decimals) */\n      tag_257\n      swap2\n      swap1\n      tag_128\n      jump\t// in\n    tag_257:\n        /* \"contracts/ShareToken.sol\":2494:2500  121818 */\n      0x01dbda\n        /* \"contracts/ShareToken.sol\":2494:2526  121818 * (10**uint256(decimals)) */\n      tag_258\n      swap2\n      swap1\n      tag_130\n      jump\t// in\n    tag_258:\n        /* \"contracts/ShareToken.sol\":2475:2488  unlockAmounts */\n      dup2\n        /* \"contracts/ShareToken.sol\":2489:2490  2 */\n      0x02\n        /* \"contracts/ShareToken.sol\":2475:2491  unlockAmounts[2] */\n      dup2\n      mload\n      dup2\n      lt\n      tag_259\n      jumpi\n      tag_260\n      tag_252\n      jump\t// in\n    tag_260:\n    tag_259:\n      0x20\n      mul\n      0x20\n      add\n      add\n        /* \"contracts/ShareToken.sol\":2475:2526  unlockAmounts[2] = 121818 * (10**uint256(decimals)) */\n      dup2\n      dup2\n      mstore\n      pop\n      pop\n        /* \"contracts/ShareToken.sol\":2577:2585  decimals */\n      0x02\n      0x00\n      swap1\n      sload\n      swap1\n      0x0100\n      exp\n      swap1\n      div\n      0xff\n      and\n        /* \"contracts/ShareToken.sol\":2569:2586  uint256(decimals) */\n      0xff\n      and\n        /* \"contracts/ShareToken.sol\":2565:2567  10 */\n      0x0a\n        /* \"contracts/ShareToken.sol\":2565:2586  10**uint256(decimals) */\n      tag_261\n      swap2\n      swap1\n      tag_128\n      jump\t// in\n    tag_261:\n        /* \"contracts/ShareToken.sol\":2555:2561  158363 */\n      0x026a9b\n        /* \"contracts/ShareToken.sol\":2555:2587  158363 * (10**uint256(decimals)) */\n      tag_262\n      swap2\n      swap1\n      tag_130\n      jump\t// in\n    tag_262:\n        /* \"contracts/ShareToken.sol\":2536:2549  unlockAmounts */\n      dup2\n        /* \"contracts/ShareToken.sol\":2550:2551  3 */\n      0x03\n        /* \"contracts/ShareToken.sol\":2536:2552  unlockAmounts[3] */\n      dup2\n      mload\n      dup2\n      lt\n      tag_263\n      jumpi\n      tag_264\n      tag_252\n      jump\t// in\n    tag_264:\n    tag_263:\n      0x20\n      mul\n      0x20\n      add\n      add\n        /* \"contracts/ShareToken.sol\":2536:2587  unlockAmounts[3] = 158363 * (10**uint256(decimals)) */\n      dup2\n      dup2\n      mstore\n      pop\n      pop\n        /* \"contracts/ShareToken.sol\":2638:2646  decimals */\n      0x02\n      0x00\n      swap1\n      sload\n      swap1\n      0x0100\n      exp\n      swap1\n      div\n      0xff\n      and\n        /* \"contracts/ShareToken.sol\":2630:2647  uint256(decimals) */\n      0xff\n      and\n        /* \"contracts/ShareToken.sol\":2626:2628  10 */\n      0x0a\n        /* \"contracts/ShareToken.sol\":2626:2647  10**uint256(decimals) */\n      tag_265\n      swap2\n      swap1\n      tag_128\n      jump\t// in\n    tag_265:\n        /* \"contracts/ShareToken.sol\":2616:2622  205872 */\n      0x032430\n        /* \"contracts/ShareToken.sol\":2616:2648  205872 * (10**uint256(decimals)) */\n      tag_266\n      swap2\n      swap1\n      tag_130\n      jump\t// in\n    tag_266:\n        /* \"contracts/ShareToken.sol\":2597:2610  unlockAmounts */\n      dup2\n        /* \"contracts/ShareToken.sol\":2611:2612  4 */\n      0x04\n        /* \"contracts/ShareToken.sol\":2597:2613  unlockAmounts[4] */\n      dup2\n      mload\n      dup2\n      lt\n      tag_267\n      jumpi\n      tag_268\n      tag_252\n      jump\t// in\n    tag_268:\n    tag_267:\n      0x20\n      mul\n      0x20\n      add\n      add\n        /* \"contracts/ShareToken.sol\":2597:2648  unlockAmounts[4] = 205872 * (10**uint256(decimals)) */\n      dup2\n      dup2\n      mstore\n      pop\n      pop\n        /* \"contracts/ShareToken.sol\":2699:2707  decimals */\n      0x02\n      0x00\n      swap1\n      sload\n      swap1\n      0x0100\n      exp\n      swap1\n      div\n      0xff\n      and\n        /* \"contracts/ShareToken.sol\":2691:2708  uint256(decimals) */\n      0xff\n      and\n        /* \"contracts/ShareToken.sol\":2687:2689  10 */\n      0x0a\n        /* \"contracts/ShareToken.sol\":2687:2708  10**uint256(decimals) */\n      tag_269\n      swap2\n      swap1\n      tag_128\n      jump\t// in\n    tag_269:\n        /* \"contracts/ShareToken.sol\":2677:2683  267634 */\n      0x041572\n        /* \"contracts/ShareToken.sol\":2677:2709  267634 * (10**uint256(decimals)) */\n      tag_270\n      swap2\n      swap1\n      tag_130\n      jump\t// in\n    tag_270:\n        /* \"contracts/ShareToken.sol\":2658:2671  unlockAmounts */\n      dup2\n        /* \"contracts/ShareToken.sol\":2672:2673  5 */\n      0x05\n        /* \"contracts/ShareToken.sol\":2658:2674  unlockAmounts[5] */\n      dup2\n      mload\n      dup2\n      lt\n      tag_271\n      jumpi\n      tag_272\n      tag_252\n      jump\t// in\n    tag_272:\n    tag_271:\n      0x20\n      mul\n      0x20\n      add\n      add\n        /* \"contracts/ShareToken.sol\":2658:2709  unlockAmounts[5] = 267634 * (10**uint256(decimals)) */\n      dup2\n      dup2\n      mstore\n      pop\n      pop\n        /* \"contracts/ShareToken.sol\":2760:2768  decimals */\n      0x02\n      0x00\n      swap1\n      sload\n      swap1\n      0x0100\n      exp\n      swap1\n      div\n      0xff\n      and\n        /* \"contracts/ShareToken.sol\":2752:2769  uint256(decimals) */\n      0xff\n      and\n        /* \"contracts/ShareToken.sol\":2748:2750  10 */\n      0x0a\n        /* \"contracts/ShareToken.sol\":2748:2769  10**uint256(decimals) */\n      tag_273\n      swap2\n      swap1\n      tag_128\n      jump\t// in\n    tag_273:\n        /* \"contracts/ShareToken.sol\":2738:2744  347924 */\n      0x054f14\n        /* \"contracts/ShareToken.sol\":2738:2770  347924 * (10**uint256(decimals)) */\n      tag_274\n      swap2\n      swap1\n      tag_130\n      jump\t// in\n    tag_274:\n        /* \"contracts/ShareToken.sol\":2719:2732  unlockAmounts */\n      dup2\n        /* \"contracts/ShareToken.sol\":2733:2734  6 */\n      0x06\n        /* \"contracts/ShareToken.sol\":2719:2735  unlockAmounts[6] */\n      dup2\n      mload\n      dup2\n      lt\n      tag_275\n      jumpi\n      tag_276\n      tag_252\n      jump\t// in\n    tag_276:\n    tag_275:\n      0x20\n      mul\n      0x20\n      add\n      add\n        /* \"contracts/ShareToken.sol\":2719:2770  unlockAmounts[6] = 347924 * (10**uint256(decimals)) */\n      dup2\n      dup2\n      mstore\n      pop\n      pop\n        /* \"contracts/ShareToken.sol\":2821:2829  decimals */\n      0x02\n      0x00\n      swap1\n      sload\n      swap1\n      0x0100\n      exp\n      swap1\n      div\n      0xff\n      and\n        /* \"contracts/ShareToken.sol\":2813:2830  uint256(decimals) */\n      0xff\n      and\n        /* \"contracts/ShareToken.sol\":2809:2811  10 */\n      0x0a\n        /* \"contracts/ShareToken.sol\":2809:2830  10**uint256(decimals) */\n      tag_277\n      swap2\n      swap1\n      tag_128\n      jump\t// in\n    tag_277:\n        /* \"contracts/ShareToken.sol\":2799:2805  452301 */\n      0x06e6cd\n        /* \"contracts/ShareToken.sol\":2799:2831  452301 * (10**uint256(decimals)) */\n      tag_278\n      swap2\n      swap1\n      tag_130\n      jump\t// in\n    tag_278:\n        /* \"contracts/ShareToken.sol\":2780:2793  unlockAmounts */\n      dup2\n        /* \"contracts/ShareToken.sol\":2794:2795  7 */\n      0x07\n        /* \"contracts/ShareToken.sol\":2780:2796  unlockAmounts[7] */\n      dup2\n      mload\n      dup2\n      lt\n      tag_279\n      jumpi\n      tag_280\n      tag_252\n      jump\t// in\n    tag_280:\n    tag_279:\n      0x20\n      mul\n      0x20\n      add\n      add\n        /* \"contracts/ShareToken.sol\":2780:2831  unlockAmounts[7] = 452301 * (10**uint256(decimals)) */\n      dup2\n      dup2\n      mstore\n      pop\n      pop\n        /* \"contracts/ShareToken.sol\":2882:2890  decimals */\n      0x02\n      0x00\n      swap1\n      sload\n      swap1\n      0x0100\n      exp\n      swap1\n      div\n      0xff\n      and\n        /* \"contracts/ShareToken.sol\":2874:2891  uint256(decimals) */\n      0xff\n      and\n        /* \"contracts/ShareToken.sol\":2870:2872  10 */\n      0x0a\n        /* \"contracts/ShareToken.sol\":2870:2891  10**uint256(decimals) */\n      tag_281\n      swap2\n      swap1\n      tag_128\n      jump\t// in\n    tag_281:\n        /* \"contracts/ShareToken.sol\":2860:2866  587992 */\n      0x08f8d8\n        /* \"contracts/ShareToken.sol\":2860:2892  587992 * (10**uint256(decimals)) */\n      tag_282\n      swap2\n      swap1\n      tag_130\n      jump\t// in\n    tag_282:\n        /* \"contracts/ShareToken.sol\":2841:2854  unlockAmounts */\n      dup2\n        /* \"contracts/ShareToken.sol\":2855:2856  8 */\n      0x08\n        /* \"contracts/ShareToken.sol\":2841:2857  unlockAmounts[8] */\n      dup2\n      mload\n      dup2\n      lt\n      tag_283\n      jumpi\n      tag_284\n      tag_252\n      jump\t// in\n    tag_284:\n    tag_283:\n      0x20\n      mul\n      0x20\n      add\n      add\n        /* \"contracts/ShareToken.sol\":2841:2892  unlockAmounts[8] = 587992 * (10**uint256(decimals)) */\n      dup2\n      dup2\n      mstore\n      pop\n      pop\n        /* \"contracts/ShareToken.sol\":2943:2951  decimals */\n      0x02\n      0x00\n      swap1\n      sload\n      swap1\n      0x0100\n      exp\n      swap1\n      div\n      0xff\n      and\n        /* \"contracts/ShareToken.sol\":2935:2952  uint256(decimals) */\n      0xff\n      and\n        /* \"contracts/ShareToken.sol\":2931:2933  10 */\n      0x0a\n        /* \"contracts/ShareToken.sol\":2931:2952  10**uint256(decimals) */\n      tag_285\n      swap2\n      swap1\n      tag_128\n      jump\t// in\n    tag_285:\n        /* \"contracts/ShareToken.sol\":2921:2927  764390 */\n      0x0ba9e6\n        /* \"contracts/ShareToken.sol\":2921:2953  764390 * (10**uint256(decimals)) */\n      tag_286\n      swap2\n      swap1\n      tag_130\n      jump\t// in\n    tag_286:\n        /* \"contracts/ShareToken.sol\":2902:2915  unlockAmounts */\n      dup2\n        /* \"contracts/ShareToken.sol\":2916:2917  9 */\n      0x09\n        /* \"contracts/ShareToken.sol\":2902:2918  unlockAmounts[9] */\n      dup2\n      mload\n      dup2\n      lt\n      tag_287\n      jumpi\n      tag_288\n      tag_252\n      jump\t// in\n    tag_288:\n    tag_287:\n      0x20\n      mul\n      0x20\n      add\n      add\n        /* \"contracts/ShareToken.sol\":2902:2953  unlockAmounts[9] = 764390 * (10**uint256(decimals)) */\n      dup2\n      dup2\n      mstore\n      pop\n      pop\n        /* \"contracts/ShareToken.sol\":2986:3000  unlockedTokens */\n      sload(0x0b)\n        /* \"contracts/ShareToken.sol\":2968:2983  intervalsPassed */\n      dup3\n        /* \"contracts/ShareToken.sol\":2968:3000  intervalsPassed > unlockedTokens */\n      gt\n        /* \"contracts/ShareToken.sol\":2964:3422  if (intervalsPassed > unlockedTokens) {... */\n      iszero\n      tag_289\n      jumpi\n        /* \"contracts/ShareToken.sol\":3016:3038  uint256 tokensToUnlock */\n      0x00\n        /* \"contracts/ShareToken.sol\":3061:3070  uint256 i */\n      dup1\n        /* \"contracts/ShareToken.sol\":3073:3087  unlockedTokens */\n      sload(0x0b)\n        /* \"contracts/ShareToken.sol\":3061:3087  uint256 i = unlockedTokens */\n      swap1\n      pop\n        /* \"contracts/ShareToken.sol\":3056:3182  for (uint256 i = unlockedTokens; i < intervalsPassed; i++) {... */\n    tag_290:\n        /* \"contracts/ShareToken.sol\":3093:3108  intervalsPassed */\n      dup4\n        /* \"contracts/ShareToken.sol\":3089:3090  i */\n      dup2\n        /* \"contracts/ShareToken.sol\":3089:3108  i < intervalsPassed */\n      lt\n        /* \"contracts/ShareToken.sol\":3056:3182  for (uint256 i = unlockedTokens; i < intervalsPassed; i++) {... */\n      iszero\n      tag_291\n      jumpi\n        /* \"contracts/ShareToken.sol\":3151:3164  unlockAmounts */\n      dup3\n        /* \"contracts/ShareToken.sol\":3165:3166  i */\n      dup2\n        /* \"contracts/ShareToken.sol\":3151:3167  unlockAmounts[i] */\n      dup2\n      mload\n      dup2\n      lt\n      tag_293\n      jumpi\n      tag_294\n      tag_252\n      jump\t// in\n    tag_294:\n    tag_293:\n      0x20\n      mul\n      0x20\n      add\n      add\n      mload\n        /* \"contracts/ShareToken.sol\":3133:3167  tokensToUnlock += unlockAmounts[i] */\n      dup3\n      tag_295\n      swap2\n      swap1\n      tag_140\n      jump\t// in\n    tag_295:\n      swap2\n      pop\n        /* \"contracts/ShareToken.sol\":3110:3113  i++ */\n      dup1\n      dup1\n      0x01\n      add\n      swap2\n      pop\n      pop\n        /* \"contracts/ShareToken.sol\":3056:3182  for (uint256 i = unlockedTokens; i < intervalsPassed; i++) {... */\n      jump(tag_290)\n    tag_291:\n      pop\n        /* \"contracts/ShareToken.sol\":3212:3227  intervalsPassed */\n      dup3\n        /* \"contracts/ShareToken.sol\":3195:3209  unlockedTokens */\n      0x0b\n        /* \"contracts/ShareToken.sol\":3195:3227  unlockedTokens = intervalsPassed */\n      dup2\n      swap1\n      sstore\n      pop\n        /* \"contracts/ShareToken.sol\":3269:3283  tokensToUnlock */\n      dup1\n        /* \"contracts/ShareToken.sol\":3241:3250  balanceOf */\n      0x06\n        /* \"contracts/ShareToken.sol\":3241:3265  balanceOf[projectWallet] */\n      0x00\n        /* \"contracts/ShareToken.sol\":3251:3264  projectWallet */\n      0x05\n      0x00\n      swap1\n      sload\n      swap1\n      0x0100\n      exp\n      swap1\n      div\n      0xffffffffffffffffffffffffffffffffffffffff\n      and\n        /* \"contracts/ShareToken.sol\":3241:3265  balanceOf[projectWallet] */\n      0xffffffffffffffffffffffffffffffffffffffff\n      and\n      0xffffffffffffffffffffffffffffffffffffffff\n      and\n      dup2\n      mstore\n      0x20\n      add\n      swap1\n      dup2\n      mstore\n      0x20\n      add\n      0x00\n      keccak256\n      0x00\n        /* \"contracts/ShareToken.sol\":3241:3283  balanceOf[projectWallet] += tokensToUnlock */\n      dup3\n      dup3\n      sload\n      tag_296\n      swap2\n      swap1\n      tag_140\n      jump\t// in\n    tag_296:\n      swap3\n      pop\n      pop\n      dup2\n      swap1\n      sstore\n      pop\n        /* \"contracts/ShareToken.sol\":3324:3338  tokensToUnlock */\n      dup1\n        /* \"contracts/ShareToken.sol\":3297:3320  remainingUnlockedTokens */\n      0x04\n      0x00\n        /* \"contracts/ShareToken.sol\":3297:3338  remainingUnlockedTokens -= tokensToUnlock */\n      dup3\n      dup3\n      sload\n      tag_297\n      swap2\n      swap1\n      tag_135\n      jump\t// in\n    tag_297:\n      swap3\n      pop\n      pop\n      dup2\n      swap1\n      sstore\n      pop\n        /* \"contracts/ShareToken.sol\":3381:3394  projectWallet */\n      0x05\n      0x00\n      swap1\n      sload\n      swap1\n      0x0100\n      exp\n      swap1\n      div\n      0xffffffffffffffffffffffffffffffffffffffff\n      and\n        /* \"contracts/ShareToken.sol\":3357:3411  Transfer(address(this), projectWallet, tokensToUnlock) */\n      0xffffffffffffffffffffffffffffffffffffffff\n      and\n        /* \"contracts/ShareToken.sol\":3374:3378  this */\n      address\n        /* \"contracts/ShareToken.sol\":3357:3411  Transfer(address(this), projectWallet, tokensToUnlock) */\n      0xffffffffffffffffffffffffffffffffffffffff\n      and\n      0xddf252ad1be2c89b69c2b068fc378daa952ba7f163c4a11628f55a4df523b3ef\n        /* \"contracts/ShareToken.sol\":3396:3410  tokensToUnlock */\n      dup4\n        /* \"contracts/ShareToken.sol\":3357:3411  Transfer(address(this), projectWallet, tokensToUnlock) */\n      mload(0x40)\n      tag_298\n      swap2\n      swap1\n      tag_43\n      jump\t// in\n    tag_298:\n      mload(0x40)\n      dup1\n      swap2\n      sub\n      swap1\n      log3\n        /* \"contracts/ShareToken.sol\":3002:3422  {... */\n      pop\n        /* \"contracts/ShareToken.sol\":2964:3422  if (intervalsPassed > unlockedTokens) {... */\n    tag_289:\n        /* \"contracts/ShareToken.sol\":1972:3428  {... */\n      pop\n      pop\n      pop\n      pop\n        /* \"contracts/ShareToken.sol\":1929:3428  function unlockTokens() external onlyOwner {... */\n      jump\t// out\n        /* \"contracts/ShareToken.sol\":581:607  uint256 public unlockStart */\n    tag_106:\n      sload(0x0a)\n      dup2\n      jump\t// out\n        /* \"#utility.yul\":88:205   */\n    tag_300:\n        /* \"#utility.yul\":197:198   */\n      0x00\n        /* \"#utility.yul\":194:195   */\n      dup1\n        /* \"#utility.yul\":187:199   */\n      revert\n        /* \"#utility.yul\":334:460   */\n    tag_302:\n        /* \"#utility.yul\":371:378   */\n      0x00\n        /* \"#utility.yul\":411:453   */\n      0xffffffffffffffffffffffffffffffffffffffff\n        /* \"#utility.yul\":404:409   */\n      dup3\n        /* \"#utility.yul\":400:454   */\n      and\n        /* \"#utility.yul\":389:454   */\n      swap1\n      pop\n        /* \"#utility.yul\":334:460   */\n      swap2\n      swap1\n      pop\n      jump\t// out\n        /* \"#utility.yul\":466:562   */\n    tag_303:\n        /* \"#utility.yul\":503:510   */\n      0x00\n        /* \"#utility.yul\":532:556   */\n      tag_348\n        /* \"#utility.yul\":550:555   */\n      dup3\n        /* \"#utility.yul\":532:556   */\n      tag_302\n      jump\t// in\n    tag_348:\n        /* \"#utility.yul\":521:556   */\n      swap1\n      pop\n        /* \"#utility.yul\":466:562   */\n      swap2\n      swap1\n      pop\n      jump\t// out\n        /* \"#utility.yul\":568:690   */\n    tag_304:\n        /* \"#utility.yul\":641:665   */\n      tag_350\n        /* \"#utility.yul\":659:664   */\n      dup2\n        /* \"#utility.yul\":641:665   */\n      tag_303\n      jump\t// in\n    tag_350:\n        /* \"#utility.yul\":634:639   */\n      dup2\n        /* \"#utility.yul\":631:666   */\n      eq\n        /* \"#utility.yul\":621:684   */\n      tag_351\n      jumpi\n        /* \"#utility.yul\":680:681   */\n      0x00\n        /* \"#utility.yul\":677:678   */\n      dup1\n        /* \"#utility.yul\":670:682   */\n      revert\n        /* \"#utility.yul\":621:684   */\n    tag_351:\n        /* \"#utility.yul\":568:690   */\n      pop\n      jump\t// out\n        /* \"#utility.yul\":696:835   */\n    tag_305:\n        /* \"#utility.yul\":742:747   */\n      0x00\n        /* \"#utility.yul\":780:786   */\n      dup2\n        /* \"#utility.yul\":767:787   */\n      calldataload\n        /* \"#utility.yul\":758:787   */\n      swap1\n      pop\n        /* \"#utility.yul\":796:829   */\n      tag_353\n        /* \"#utility.yul\":823:828   */\n      dup2\n        /* \"#utility.yul\":796:829   */\n      tag_304\n      jump\t// in\n    tag_353:\n        /* \"#utility.yul\":696:835   */\n      swap3\n      swap2\n      pop\n      pop\n      jump\t// out\n        /* \"#utility.yul\":841:918   */\n    tag_306:\n        /* \"#utility.yul\":878:885   */\n      0x00\n        /* \"#utility.yul\":907:912   */\n      dup2\n        /* \"#utility.yul\":896:912   */\n      swap1\n      pop\n        /* \"#utility.yul\":841:918   */\n      swap2\n      swap1\n      pop\n      jump\t// out\n        /* \"#utility.yul\":924:1046   */\n    tag_307:\n        /* \"#utility.yul\":997:1021   */\n      tag_356\n        /* \"#utility.yul\":1015:1020   */\n      dup2\n        /* \"#utility.yul\":997:1021   */\n      tag_306\n      jump\t// in\n    tag_356:\n        /* \"#utility.yul\":990:995   */\n      dup2\n        /* \"#utility.yul\":987:1022   */\n      eq\n        /* \"#utility.yul\":977:1040   */\n      tag_357\n      jumpi\n        /* \"#utility.yul\":1036:1037   */\n      0x00\n        /* \"#utility.yul\":1033:1034   */\n      dup1\n        /* \"#utility.yul\":1026:1038   */\n      revert\n        /* \"#utility.yul\":977:1040   */\n    tag_357:\n        /* \"#utility.yul\":924:1046   */\n      pop\n      jump\t// out\n        /* \"#utility.yul\":1052:1191   */\n    tag_308:\n        /* \"#utility.yul\":1098:1103   */\n      0x00\n        /* \"#utility.yul\":1136:1142   */\n      dup2\n        /* \"#utility.yul\":1123:1143   */\n      calldataload\n        /* \"#utility.yul\":1114:1143   */\n      swap1\n      pop\n        /* \"#utility.yul\":1152:1185   */\n      tag_359\n        /* \"#utility.yul\":1179:1184   */\n      dup2\n        /* \"#utility.yul\":1152:1185   */\n      tag_307\n      jump\t// in\n    tag_359:\n        /* \"#utility.yul\":1052:1191   */\n      swap3\n      swap2\n      pop\n      pop\n      jump\t// out\n        /* \"#utility.yul\":1197:2108   */\n    tag_30:\n        /* \"#utility.yul\":1292:1298   */\n      0x00\n        /* \"#utility.yul\":1300:1306   */\n      dup1\n        /* \"#utility.yul\":1308:1314   */\n      0x00\n        /* \"#utility.yul\":1316:1322   */\n      dup1\n        /* \"#utility.yul\":1324:1330   */\n      0x00\n        /* \"#utility.yul\":1373:1376   */\n      0xa0\n        /* \"#utility.yul\":1361:1370   */\n      dup7\n        /* \"#utility.yul\":1352:1359   */\n      dup9\n        /* \"#utility.yul\":1348:1371   */\n      sub\n        /* \"#utility.yul\":1344:1377   */\n      slt\n        /* \"#utility.yul\":1341:1461   */\n      iszero\n      tag_361\n      jumpi\n        /* \"#utility.yul\":1380:1459   */\n      tag_362\n      tag_300\n      jump\t// in\n    tag_362:\n        /* \"#utility.yul\":1341:1461   */\n    tag_361:\n        /* \"#utility.yul\":1500:1501   */\n      0x00\n        /* \"#utility.yul\":1525:1578   */\n      tag_363\n        /* \"#utility.yul\":1570:1577   */\n      dup9\n        /* \"#utility.yul\":1561:1567   */\n      dup3\n        /* \"#utility.yul\":1550:1559   */\n      dup10\n        /* \"#utility.yul\":1546:1568   */\n      add\n        /* \"#utility.yul\":1525:1578   */\n      tag_305\n      jump\t// in\n    tag_363:\n        /* \"#utility.yul\":1515:1578   */\n      swap6\n      pop\n        /* \"#utility.yul\":1471:1588   */\n      pop\n        /* \"#utility.yul\":1627:1629   */\n      0x20\n        /* \"#utility.yul\":1653:1706   */\n      tag_364\n        /* \"#utility.yul\":1698:1705   */\n      dup9\n        /* \"#utility.yul\":1689:1695   */\n      dup3\n        /* \"#utility.yul\":1678:1687   */\n      dup10\n        /* \"#utility.yul\":1674:1696   */\n      add\n        /* \"#utility.yul\":1653:1706   */\n      tag_305\n      jump\t// in\n    tag_364:\n        /* \"#utility.yul\":1643:1706   */\n      swap5\n      pop\n        /* \"#utility.yul\":1598:1716   */\n      pop\n        /* \"#utility.yul\":1755:1757   */\n      0x40\n        /* \"#utility.yul\":1781:1834   */\n      tag_365\n        /* \"#utility.yul\":1826:1833   */\n      dup9\n        /* \"#utility.yul\":1817:1823   */\n      dup3\n        /* \"#utility.yul\":1806:1815   */\n      dup10\n        /* \"#utility.yul\":1802:1824   */\n      add\n        /* \"#utility.yul\":1781:1834   */\n      tag_308\n      jump\t// in\n    tag_365:\n        /* \"#utility.yul\":1771:1834   */\n      swap4\n      pop\n        /* \"#utility.yul\":1726:1844   */\n      pop\n        /* \"#utility.yul\":1883:1885   */\n      0x60\n        /* \"#utility.yul\":1909:1962   */\n      tag_366\n        /* \"#utility.yul\":1954:1961   */\n      dup9\n        /* \"#utility.yul\":1945:1951   */\n      dup3\n        /* \"#utility.yul\":1934:1943   */\n      dup10\n        /* \"#utility.yul\":1930:1952   */\n      add\n        /* \"#utility.yul\":1909:1962   */\n      tag_308\n      jump\t// in\n    tag_366:\n        /* \"#utility.yul\":1899:1962   */\n      swap3\n      pop\n        /* \"#utility.yul\":1854:1972   */\n      pop\n        /* \"#utility.yul\":2011:2014   */\n      0x80\n        /* \"#utility.yul\":2038:2091   */\n      tag_367\n        /* \"#utility.yul\":2083:2090   */\n      dup9\n        /* \"#utility.yul\":2074:2080   */\n      dup3\n        /* \"#utility.yul\":2063:2072   */\n      dup10\n        /* \"#utility.yul\":2059:2081   */\n      add\n        /* \"#utility.yul\":2038:2091   */\n      tag_308\n      jump\t// in\n    tag_367:\n        /* \"#utility.yul\":2028:2091   */\n      swap2\n      pop\n        /* \"#utility.yul\":1982:2101   */\n      pop\n        /* \"#utility.yul\":1197:2108   */\n      swap3\n      swap6\n      pop\n      swap3\n      swap6\n      swap1\n      swap4\n      pop\n      jump\t// out\n        /* \"#utility.yul\":2114:2232   */\n    tag_309:\n        /* \"#utility.yul\":2201:2225   */\n      tag_369\n        /* \"#utility.yul\":2219:2224   */\n      dup2\n        /* \"#utility.yul\":2201:2225   */\n      tag_306\n      jump\t// in\n    tag_369:\n        /* \"#utility.yul\":2196:2199   */\n      dup3\n        /* \"#utility.yul\":2189:2226   */\n      mstore\n        /* \"#utility.yul\":2114:2232   */\n      pop\n      pop\n      jump\t// out\n        /* \"#utility.yul\":2238:2570   */\n    tag_35:\n        /* \"#utility.yul\":2359:2363   */\n      0x00\n        /* \"#utility.yul\":2397:2399   */\n      0x40\n        /* \"#utility.yul\":2386:2395   */\n      dup3\n        /* \"#utility.yul\":2382:2400   */\n      add\n        /* \"#utility.yul\":2374:2400   */\n      swap1\n      pop\n        /* \"#utility.yul\":2410:2481   */\n      tag_371\n        /* \"#utility.yul\":2478:2479   */\n      0x00\n        /* \"#utility.yul\":2467:2476   */\n      dup4\n        /* \"#utility.yul\":2463:2480   */\n      add\n        /* \"#utility.yul\":2454:2460   */\n      dup6\n        /* \"#utility.yul\":2410:2481   */\n      tag_309\n      jump\t// in\n    tag_371:\n        /* \"#utility.yul\":2491:2563   */\n      tag_372\n        /* \"#utility.yul\":2559:2561   */\n      0x20\n        /* \"#utility.yul\":2548:2557   */\n      dup4\n        /* \"#utility.yul\":2544:2562   */\n      add\n        /* \"#utility.yul\":2535:2541   */\n      dup5\n        /* \"#utility.yul\":2491:2563   */\n      tag_309\n      jump\t// in\n    tag_372:\n        /* \"#utility.yul\":2238:2570   */\n      swap4\n      swap3\n      pop\n      pop\n      pop\n      jump\t// out\n        /* \"#utility.yul\":2576:2675   */\n    tag_310:\n        /* \"#utility.yul\":2628:2634   */\n      0x00\n        /* \"#utility.yul\":2662:2667   */\n      dup2\n        /* \"#utility.yul\":2656:2668   */\n      mload\n        /* \"#utility.yul\":2646:2668   */\n      swap1\n      pop\n        /* \"#utility.yul\":2576:2675   */\n      swap2\n      swap1\n      pop\n      jump\t// out\n        /* \"#utility.yul\":2681:2850   */\n    tag_311:\n        /* \"#utility.yul\":2765:2776   */\n      0x00\n        /* \"#utility.yul\":2799:2805   */\n      dup3\n        /* \"#utility.yul\":2794:2797   */\n      dup3\n        /* \"#utility.yul\":2787:2806   */\n      mstore\n        /* \"#utility.yul\":2839:2843   */\n      0x20\n        /* \"#utility.yul\":2834:2837   */\n      dup3\n        /* \"#utility.yul\":2830:2844   */\n      add\n        /* \"#utility.yul\":2815:2844   */\n      swap1\n      pop\n        /* \"#utility.yul\":2681:2850   */\n      swap3\n      swap2\n      pop\n      pop\n      jump\t// out\n        /* \"#utility.yul\":2856:3102   */\n    tag_312:\n        /* \"#utility.yul\":2937:2938   */\n      0x00\n        /* \"#utility.yul\":2947:3060   */\n    tag_376:\n        /* \"#utility.yul\":2961:2967   */\n      dup4\n        /* \"#utility.yul\":2958:2959   */\n      dup2\n        /* \"#utility.yul\":2955:2968   */\n      lt\n        /* \"#utility.yul\":2947:3060   */\n      iszero\n      tag_378\n      jumpi\n        /* \"#utility.yul\":3046:3047   */\n      dup1\n        /* \"#utility.yul\":3041:3044   */\n      dup3\n        /* \"#utility.yul\":3037:3048   */\n      add\n        /* \"#utility.yul\":3031:3049   */\n      mload\n        /* \"#utility.yul\":3027:3028   */\n      dup2\n        /* \"#utility.yul\":3022:3025   */\n      dup5\n        /* \"#utility.yul\":3018:3029   */\n      add\n        /* \"#utility.yul\":3011:3050   */\n      mstore\n        /* \"#utility.yul\":2983:2985   */\n      0x20\n        /* \"#utility.yul\":2980:2981   */\n      dup2\n        /* \"#utility.yul\":2976:2986   */\n      add\n        /* \"#utility.yul\":2971:2986   */\n      swap1\n      pop\n        /* \"#utility.yul\":2947:3060   */\n      jump(tag_376)\n    tag_378:\n        /* \"#utility.yul\":3094:3095   */\n      0x00\n        /* \"#utility.yul\":3085:3091   */\n      dup5\n        /* \"#utility.yul\":3080:3083   */\n      dup5\n        /* \"#utility.yul\":3076:3092   */\n      add\n        /* \"#utility.yul\":3069:3096   */\n      mstore\n        /* \"#utility.yul\":2918:3102   */\n      pop\n        /* \"#utility.yul\":2856:3102   */\n      pop\n      pop\n      pop\n      jump\t// out\n        /* \"#utility.yul\":3108:3210   */\n    tag_313:\n        /* \"#utility.yul\":3149:3155   */\n      0x00\n        /* \"#utility.yul\":3200:3202   */\n      0x1f\n        /* \"#utility.yul\":3196:3203   */\n      not\n        /* \"#utility.yul\":3191:3193   */\n      0x1f\n        /* \"#utility.yul\":3184:3189   */\n      dup4\n        /* \"#utility.yul\":3180:3194   */\n      add\n        /* \"#utility.yul\":3176:3204   */\n      and\n        /* \"#utility.yul\":3166:3204   */\n      swap1\n      pop\n        /* \"#utility.yul\":3108:3210   */\n      swap2\n      swap1\n      pop\n      jump\t// out\n        /* \"#utility.yul\":3216:3593   */\n    tag_314:\n        /* \"#utility.yul\":3304:3307   */\n      0x00\n        /* \"#utility.yul\":3332:3371   */\n      tag_381\n        /* \"#utility.yul\":3365:3370   */\n      dup3\n        /* \"#utility.yul\":3332:3371   */\n      tag_310\n      jump\t// in\n    tag_381:\n        /* \"#utility.yul\":3387:3458   */\n      tag_382\n        /* \"#utility.yul\":3451:3457   */\n      dup2\n        /* \"#utility.yul\":3446:3449   */\n      dup6\n        /* \"#utility.yul\":3387:3458   */\n      tag_311\n      jump\t// in\n    tag_382:\n        /* \"#utility.yul\":3380:3458   */\n      swap4\n      pop\n        /* \"#utility.yul\":3467:3532   */\n      tag_383\n        /* \"#utility.yul\":3525:3531   */\n      dup2\n        /* \"#utility.yul\":3520:3523   */\n      dup6\n        /* \"#utility.yul\":3513:3517   */\n      0x20\n        /* \"#utility.yul\":3506:3511   */\n      dup7\n        /* \"#utility.yul\":3502:3518   */\n      add\n        /* \"#utility.yul\":3467:3532   */\n      tag_312\n      jump\t// in\n    tag_383:\n        /* \"#utility.yul\":3557:3586   */\n      tag_384\n        /* \"#utility.yul\":3579:3585   */\n      dup2\n        /* \"#utility.yul\":3557:3586   */\n      tag_313\n      jump\t// in\n    tag_384:\n        /* \"#utility.yul\":3552:3555   */\n      dup5\n        /* \"#utility.yul\":3548:3587   */\n      add\n        /* \"#utility.yul\":3541:3587   */\n      swap2\n      pop\n        /* \"#utility.yul\":3308:3593   */\n      pop\n        /* \"#utility.yul\":3216:3593   */\n      swap3\n      swap2\n      pop\n      pop\n      jump\t// out\n        /* \"#utility.yul\":3599:3912   */\n    tag_39:\n        /* \"#utility.yul\":3712:3716   */\n      0x00\n        /* \"#utility.yul\":3750:3752   */\n      0x20\n        /* \"#utility.yul\":3739:3748   */\n      dup3\n        /* \"#utility.yul\":3735:3753   */\n      add\n        /* \"#utility.yul\":3727:3753   */\n      swap1\n      pop\n        /* \"#utility.yul\":3799:3808   */\n      dup2\n        /* \"#utility.yul\":3793:3797   */\n      dup2\n        /* \"#utility.yul\":3789:3809   */\n      sub\n        /* \"#utility.yul\":3785:3786   */\n      0x00\n        /* \"#utility.yul\":3774:3783   */\n      dup4\n        /* \"#utility.yul\":3770:3787   */\n      add\n        /* \"#utility.yul\":3763:3810   */\n      mstore\n        /* \"#utility.yul\":3827:3905   */\n      tag_386\n        /* \"#utility.yul\":3900:3904   */\n      dup2\n        /* \"#utility.yul\":3891:3897   */\n      dup5\n        /* \"#utility.yul\":3827:3905   */\n      tag_314\n      jump\t// in\n    tag_386:\n        /* \"#utility.yul\":3819:3905   */\n      swap1\n      pop\n        /* \"#utility.yul\":3599:3912   */\n      swap3\n      swap2\n      pop\n      pop\n      jump\t// out\n        /* \"#utility.yul\":3918:4140   */\n    tag_43:\n        /* \"#utility.yul\":4011:4015   */\n      0x00\n        /* \"#utility.yul\":4049:4051   */\n      0x20\n        /* \"#utility.yul\":4038:4047   */\n      dup3\n        /* \"#utility.yul\":4034:4052   */\n      add\n        /* \"#utility.yul\":4026:4052   */\n      swap1\n      pop\n        /* \"#utility.yul\":4062:4133   */\n      tag_388\n        /* \"#utility.yul\":4130:4131   */\n      0x00\n        /* \"#utility.yul\":4119:4128   */\n      dup4\n        /* \"#utility.yul\":4115:4132   */\n      add\n        /* \"#utility.yul\":4106:4112   */\n      dup5\n        /* \"#utility.yul\":4062:4133   */\n      tag_309\n      jump\t// in\n    tag_388:\n        /* \"#utility.yul\":3918:4140   */\n      swap3\n      swap2\n      pop\n      pop\n      jump\t// out\n        /* \"#utility.yul\":4146:4475   */\n    tag_46:\n        /* \"#utility.yul\":4205:4211   */\n      0x00\n        /* \"#utility.yul\":4254:4256   */\n      0x20\n        /* \"#utility.yul\":4242:4251   */\n      dup3\n        /* \"#utility.yul\":4233:4240   */\n      dup5\n        /* \"#utility.yul\":4229:4252   */\n      sub\n        /* \"#utility.yul\":4225:4257   */\n      slt\n        /* \"#utility.yul\":4222:4341   */\n      iszero\n      tag_390\n      jumpi\n        /* \"#utility.yul\":4260:4339   */\n      tag_391\n      tag_300\n      jump\t// in\n    tag_391:\n        /* \"#utility.yul\":4222:4341   */\n    tag_390:\n        /* \"#utility.yul\":4380:4381   */\n      0x00\n        /* \"#utility.yul\":4405:4458   */\n      tag_392\n        /* \"#utility.yul\":4450:4457   */\n      dup5\n        /* \"#utility.yul\":4441:4447   */\n      dup3\n        /* \"#utility.yul\":4430:4439   */\n      dup6\n        /* \"#utility.yul\":4426:4448   */\n      add\n        /* \"#utility.yul\":4405:4458   */\n      tag_308\n      jump\t// in\n    tag_392:\n        /* \"#utility.yul\":4395:4458   */\n      swap2\n      pop\n        /* \"#utility.yul\":4351:4468   */\n      pop\n        /* \"#utility.yul\":4146:4475   */\n      swap3\n      swap2\n      pop\n      pop\n      jump\t// out\n        /* \"#utility.yul\":4481:4571   */\n    tag_315:\n        /* \"#utility.yul\":4515:4522   */\n      0x00\n        /* \"#utility.yul\":4558:4563   */\n      dup2\n        /* \"#utility.yul\":4551:4564   */\n      iszero\n        /* \"#utility.yul\":4544:4565   */\n      iszero\n        /* \"#utility.yul\":4533:4565   */\n      swap1\n      pop\n        /* \"#utility.yul\":4481:4571   */\n      swap2\n      swap1\n      pop\n      jump\t// out\n        /* \"#utility.yul\":4577:4686   */\n    tag_316:\n        /* \"#utility.yul\":4658:4679   */\n      tag_395\n        /* \"#utility.yul\":4673:4678   */\n      dup2\n        /* \"#utility.yul\":4658:4679   */\n      tag_315\n      jump\t// in\n    tag_395:\n        /* \"#utility.yul\":4653:4656   */\n      dup3\n        /* \"#utility.yul\":4646:4680   */\n      mstore\n        /* \"#utility.yul\":4577:4686   */\n      pop\n      pop\n      jump\t// out\n        /* \"#utility.yul\":4692:4902   */\n    tag_49:\n        /* \"#utility.yul\":4779:4783   */\n      0x00\n        /* \"#utility.yul\":4817:4819   */\n      0x20\n        /* \"#utility.yul\":4806:4815   */\n      dup3\n        /* \"#utility.yul\":4802:4820   */\n      add\n        /* \"#utility.yul\":4794:4820   */\n      swap1\n      pop\n        /* \"#utility.yul\":4830:4895   */\n      tag_397\n        /* \"#utility.yul\":4892:4893   */\n      0x00\n        /* \"#utility.yul\":4881:4890   */\n      dup4\n        /* \"#utility.yul\":4877:4894   */\n      add\n        /* \"#utility.yul\":4868:4874   */\n      dup5\n        /* \"#utility.yul\":4830:4895   */\n      tag_316\n      jump\t// in\n    tag_397:\n        /* \"#utility.yul\":4692:4902   */\n      swap3\n      swap2\n      pop\n      pop\n      jump\t// out\n        /* \"#utility.yul\":4908:4994   */\n    tag_317:\n        /* \"#utility.yul\":4943:4950   */\n      0x00\n        /* \"#utility.yul\":4983:4987   */\n      0xff\n        /* \"#utility.yul\":4976:4981   */\n      dup3\n        /* \"#utility.yul\":4972:4988   */\n      and\n        /* \"#utility.yul\":4961:4988   */\n      swap1\n      pop\n        /* \"#utility.yul\":4908:4994   */\n      swap2\n      swap1\n      pop\n      jump\t// out\n        /* \"#utility.yul\":5000:5112   */\n    tag_318:\n        /* \"#utility.yul\":5083:5105   */\n      tag_400\n        /* \"#utility.yul\":5099:5104   */\n      dup2\n        /* \"#utility.yul\":5083:5105   */\n      tag_317\n      jump\t// in\n    tag_400:\n        /* \"#utility.yul\":5078:5081   */\n      dup3\n        /* \"#utility.yul\":5071:5106   */\n      mstore\n        /* \"#utility.yul\":5000:5112   */\n      pop\n      pop\n      jump\t// out\n        /* \"#utility.yul\":5118:5332   */\n    tag_53:\n        /* \"#utility.yul\":5207:5211   */\n      0x00\n        /* \"#utility.yul\":5245:5247   */\n      0x20\n        /* \"#utility.yul\":5234:5243   */\n      dup3\n        /* \"#utility.yul\":5230:5248   */\n      add\n        /* \"#utility.yul\":5222:5248   */\n      swap1\n      pop\n        /* \"#utility.yul\":5258:5325   */\n      tag_402\n        /* \"#utility.yul\":5322:5323   */\n      0x00\n        /* \"#utility.yul\":5311:5320   */\n      dup4\n        /* \"#utility.yul\":5307:5324   */\n      add\n        /* \"#utility.yul\":5298:5304   */\n      dup5\n        /* \"#utility.yul\":5258:5325   */\n      tag_318\n      jump\t// in\n    tag_402:\n        /* \"#utility.yul\":5118:5332   */\n      swap3\n      swap2\n      pop\n      pop\n      jump\t// out\n        /* \"#utility.yul\":5338:5456   */\n    tag_319:\n        /* \"#utility.yul\":5425:5449   */\n      tag_404\n        /* \"#utility.yul\":5443:5448   */\n      dup2\n        /* \"#utility.yul\":5425:5449   */\n      tag_303\n      jump\t// in\n    tag_404:\n        /* \"#utility.yul\":5420:5423   */\n      dup3\n        /* \"#utility.yul\":5413:5450   */\n      mstore\n        /* \"#utility.yul\":5338:5456   */\n      pop\n      pop\n      jump\t// out\n        /* \"#utility.yul\":5462:5684   */\n    tag_57:\n        /* \"#utility.yul\":5555:5559   */\n      0x00\n        /* \"#utility.yul\":5593:5595   */\n      0x20\n        /* \"#utility.yul\":5582:5591   */\n      dup3\n        /* \"#utility.yul\":5578:5596   */\n      add\n        /* \"#utility.yul\":5570:5596   */\n      swap1\n      pop\n        /* \"#utility.yul\":5606:5677   */\n      tag_406\n        /* \"#utility.yul\":5674:5675   */\n      0x00\n        /* \"#utility.yul\":5663:5672   */\n      dup4\n        /* \"#utility.yul\":5659:5676   */\n      add\n        /* \"#utility.yul\":5650:5656   */\n      dup5\n        /* \"#utility.yul\":5606:5677   */\n      tag_319\n      jump\t// in\n    tag_406:\n        /* \"#utility.yul\":5462:5684   */\n      swap3\n      swap2\n      pop\n      pop\n      jump\t// out\n        /* \"#utility.yul\":5690:6309   */\n    tag_60:\n        /* \"#utility.yul\":5767:5773   */\n      0x00\n        /* \"#utility.yul\":5775:5781   */\n      dup1\n        /* \"#utility.yul\":5783:5789   */\n      0x00\n        /* \"#utility.yul\":5832:5834   */\n      0x60\n        /* \"#utility.yul\":5820:5829   */\n      dup5\n        /* \"#utility.yul\":5811:5818   */\n      dup7\n        /* \"#utility.yul\":5807:5830   */\n      sub\n        /* \"#utility.yul\":5803:5835   */\n      slt\n        /* \"#utility.yul\":5800:5919   */\n      iszero\n      tag_408\n      jumpi\n        /* \"#utility.yul\":5838:5917   */\n      tag_409\n      tag_300\n      jump\t// in\n    tag_409:\n        /* \"#utility.yul\":5800:5919   */\n    tag_408:\n        /* \"#utility.yul\":5958:5959   */\n      0x00\n        /* \"#utility.yul\":5983:6036   */\n      tag_410\n        /* \"#utility.yul\":6028:6035   */\n      dup7\n        /* \"#utility.yul\":6019:6025   */\n      dup3\n        /* \"#utility.yul\":6008:6017   */\n      dup8\n        /* \"#utility.yul\":6004:6026   */\n      add\n        /* \"#utility.yul\":5983:6036   */\n      tag_305\n      jump\t// in\n    tag_410:\n        /* \"#utility.yul\":5973:6036   */\n      swap4\n      pop\n        /* \"#utility.yul\":5929:6046   */\n      pop\n        /* \"#utility.yul\":6085:6087   */\n      0x20\n        /* \"#utility.yul\":6111:6164   */\n      tag_411\n        /* \"#utility.yul\":6156:6163   */\n      dup7\n        /* \"#utility.yul\":6147:6153   */\n      dup3\n        /* \"#utility.yul\":6136:6145   */\n      dup8\n        /* \"#utility.yul\":6132:6154   */\n      add\n        /* \"#utility.yul\":6111:6164   */\n      tag_305\n      jump\t// in\n    tag_411:\n        /* \"#utility.yul\":6101:6164   */\n      swap3\n      pop\n        /* \"#utility.yul\":6056:6174   */\n      pop\n        /* \"#utility.yul\":6213:6215   */\n      0x40\n        /* \"#utility.yul\":6239:6292   */\n      tag_412\n        /* \"#utility.yul\":6284:6291   */\n      dup7\n        /* \"#utility.yul\":6275:6281   */\n      dup3\n        /* \"#utility.yul\":6264:6273   */\n      dup8\n        /* \"#utility.yul\":6260:6282   */\n      add\n        /* \"#utility.yul\":6239:6292   */\n      tag_308\n      jump\t// in\n    tag_412:\n        /* \"#utility.yul\":6229:6292   */\n      swap2\n      pop\n        /* \"#utility.yul\":6184:6302   */\n      pop\n        /* \"#utility.yul\":5690:6309   */\n      swap3\n      pop\n      swap3\n      pop\n      swap3\n      jump\t// out\n        /* \"#utility.yul\":6315:6644   */\n    tag_67:\n        /* \"#utility.yul\":6374:6380   */\n      0x00\n        /* \"#utility.yul\":6423:6425   */\n      0x20\n        /* \"#utility.yul\":6411:6420   */\n      dup3\n        /* \"#utility.yul\":6402:6409   */\n      dup5\n        /* \"#utility.yul\":6398:6421   */\n      sub\n        /* \"#utility.yul\":6394:6426   */\n      slt\n        /* \"#utility.yul\":6391:6510   */\n      iszero\n      tag_414\n      jumpi\n        /* \"#utility.yul\":6429:6508   */\n      tag_415\n      tag_300\n      jump\t// in\n    tag_415:\n        /* \"#utility.yul\":6391:6510   */\n    tag_414:\n        /* \"#utility.yul\":6549:6550   */\n      0x00\n        /* \"#utility.yul\":6574:6627   */\n      tag_416\n        /* \"#utility.yul\":6619:6626   */\n      dup5\n        /* \"#utility.yul\":6610:6616   */\n      dup3\n        /* \"#utility.yul\":6599:6608   */\n      dup6\n        /* \"#utility.yul\":6595:6617   */\n      add\n        /* \"#utility.yul\":6574:6627   */\n      tag_305\n      jump\t// in\n    tag_416:\n        /* \"#utility.yul\":6564:6627   */\n      swap2\n      pop\n        /* \"#utility.yul\":6520:6637   */\n      pop\n        /* \"#utility.yul\":6315:6644   */\n      swap3\n      swap2\n      pop\n      pop\n      jump\t// out\n        /* \"#utility.yul\":6650:7124   */\n    tag_81:\n        /* \"#utility.yul\":6718:6724   */\n      0x00\n        /* \"#utility.yul\":6726:6732   */\n      dup1\n        /* \"#utility.yul\":6775:6777   */\n      0x40\n        /* \"#utility.yul\":6763:6772   */\n      dup4\n        /* \"#utility.yul\":6754:6761   */\n      dup6\n        /* \"#utility.yul\":6750:6773   */\n      sub\n        /* \"#utility.yul\":6746:6778   */\n      slt\n        /* \"#utility.yul\":6743:6862   */\n      iszero\n      tag_418\n      jumpi\n        /* \"#utility.yul\":6781:6860   */\n      tag_419\n      tag_300\n      jump\t// in\n    tag_419:\n        /* \"#utility.yul\":6743:6862   */\n    tag_418:\n        /* \"#utility.yul\":6901:6902   */\n      0x00\n        /* \"#utility.yul\":6926:6979   */\n      tag_420\n        /* \"#utility.yul\":6971:6978   */\n      dup6\n        /* \"#utility.yul\":6962:6968   */\n      dup3\n        /* \"#utility.yul\":6951:6960   */\n      dup7\n        /* \"#utility.yul\":6947:6969   */\n      add\n        /* \"#utility.yul\":6926:6979   */\n      tag_305\n      jump\t// in\n    tag_420:\n        /* \"#utility.yul\":6916:6979   */\n      swap3\n      pop\n        /* \"#utility.yul\":6872:6989   */\n      pop\n        /* \"#utility.yul\":7028:7030   */\n      0x20\n        /* \"#utility.yul\":7054:7107   */\n      tag_421\n        /* \"#utility.yul\":7099:7106   */\n      dup6\n        /* \"#utility.yul\":7090:7096   */\n      dup3\n        /* \"#utility.yul\":7079:7088   */\n      dup7\n        /* \"#utility.yul\":7075:7097   */\n      add\n        /* \"#utility.yul\":7054:7107   */\n      tag_308\n      jump\t// in\n    tag_421:\n        /* \"#utility.yul\":7044:7107   */\n      swap2\n      pop\n        /* \"#utility.yul\":6999:7117   */\n      pop\n        /* \"#utility.yul\":6650:7124   */\n      swap3\n      pop\n      swap3\n      swap1\n      pop\n      jump\t// out\n        /* \"#utility.yul\":7130:7359   */\n    tag_320:\n        /* \"#utility.yul\":7270:7304   */\n      0x4f6e6c7920636f6e7472616374206f776e65722063616e2063616c6c20746869\n        /* \"#utility.yul\":7266:7267   */\n      0x00\n        /* \"#utility.yul\":7258:7264   */\n      dup3\n        /* \"#utility.yul\":7254:7268   */\n      add\n        /* \"#utility.yul\":7247:7305   */\n      mstore\n        /* \"#utility.yul\":7339:7351   */\n      0x732066756e6374696f6e00000000000000000000000000000000000000000000\n        /* \"#utility.yul\":7334:7336   */\n      0x20\n        /* \"#utility.yul\":7326:7332   */\n      dup3\n        /* \"#utility.yul\":7322:7337   */\n      add\n        /* \"#utility.yul\":7315:7352   */\n      mstore\n        /* \"#utility.yul\":7130:7359   */\n      pop\n      jump\t// out\n        /* \"#utility.yul\":7365:7731   */\n    tag_321:\n        /* \"#utility.yul\":7507:7510   */\n      0x00\n        /* \"#utility.yul\":7528:7595   */\n      tag_424\n        /* \"#utility.yul\":7592:7594   */\n      0x2a\n        /* \"#utility.yul\":7587:7590   */\n      dup4\n        /* \"#utility.yul\":7528:7595   */\n      tag_311\n      jump\t// in\n    tag_424:\n        /* \"#utility.yul\":7521:7595   */\n      swap2\n      pop\n        /* \"#utility.yul\":7604:7697   */\n      tag_425\n        /* \"#utility.yul\":7693:7696   */\n      dup3\n        /* \"#utility.yul\":7604:7697   */\n      tag_320\n      jump\t// in\n    tag_425:\n        /* \"#utility.yul\":7722:7724   */\n      0x40\n        /* \"#utility.yul\":7717:7720   */\n      dup3\n        /* \"#utility.yul\":7713:7725   */\n      add\n        /* \"#utility.yul\":7706:7725   */\n      swap1\n      pop\n        /* \"#utility.yul\":7365:7731   */\n      swap2\n      swap1\n      pop\n      jump\t// out\n        /* \"#utility.yul\":7737:8156   */\n    tag_111:\n        /* \"#utility.yul\":7903:7907   */\n      0x00\n        /* \"#utility.yul\":7941:7943   */\n      0x20\n        /* \"#utility.yul\":7930:7939   */\n      dup3\n        /* \"#utility.yul\":7926:7944   */\n      add\n        /* \"#utility.yul\":7918:7944   */\n      swap1\n      pop\n        /* \"#utility.yul\":7990:7999   */\n      dup2\n        /* \"#utility.yul\":7984:7988   */\n      dup2\n        /* \"#utility.yul\":7980:8000   */\n      sub\n        /* \"#utility.yul\":7976:7977   */\n      0x00\n        /* \"#utility.yul\":7965:7974   */\n      dup4\n        /* \"#utility.yul\":7961:7978   */\n      add\n        /* \"#utility.yul\":7954:8001   */\n      mstore\n        /* \"#utility.yul\":8018:8149   */\n      tag_427\n        /* \"#utility.yul\":8144:8148   */\n      dup2\n        /* \"#utility.yul\":8018:8149   */\n      tag_321\n      jump\t// in\n    tag_427:\n        /* \"#utility.yul\":8010:8149   */\n      swap1\n      pop\n        /* \"#utility.yul\":7737:8156   */\n      swap2\n      swap1\n      pop\n      jump\t// out\n        /* \"#utility.yul\":8162:8327   */\n    tag_322:\n        /* \"#utility.yul\":8302:8319   */\n      0x496e76616c696420616464726573730000000000000000000000000000000000\n        /* \"#utility.yul\":8298:8299   */\n      0x00\n        /* \"#utility.yul\":8290:8296   */\n      dup3\n        /* \"#utility.yul\":8286:8300   */\n      add\n        /* \"#utility.yul\":8279:8320   */\n      mstore\n        /* \"#utility.yul\":8162:8327   */\n      pop\n      jump\t// out\n        /* \"#utility.yul\":8333:8699   */\n    tag_323:\n        /* \"#utility.yul\":8475:8478   */\n      0x00\n        /* \"#utility.yul\":8496:8563   */\n      tag_430\n        /* \"#utility.yul\":8560:8562   */\n      0x0f\n        /* \"#utility.yul\":8555:8558   */\n      dup4\n        /* \"#utility.yul\":8496:8563   */\n      tag_311\n      jump\t// in\n    tag_430:\n        /* \"#utility.yul\":8489:8563   */\n      swap2\n      pop\n        /* \"#utility.yul\":8572:8665   */\n      tag_431\n        /* \"#utility.yul\":8661:8664   */\n      dup3\n        /* \"#utility.yul\":8572:8665   */\n      tag_322\n      jump\t// in\n    tag_431:\n        /* \"#utility.yul\":8690:8692   */\n      0x20\n        /* \"#utility.yul\":8685:8688   */\n      dup3\n        /* \"#utility.yul\":8681:8693   */\n      add\n        /* \"#utility.yul\":8674:8693   */\n      swap1\n      pop\n        /* \"#utility.yul\":8333:8699   */\n      swap2\n      swap1\n      pop\n      jump\t// out\n        /* \"#utility.yul\":8705:9124   */\n    tag_116:\n        /* \"#utility.yul\":8871:8875   */\n      0x00\n        /* \"#utility.yul\":8909:8911   */\n      0x20\n        /* \"#utility.yul\":8898:8907   */\n      dup3\n        /* \"#utility.yul\":8894:8912   */\n      add\n        /* \"#utility.yul\":8886:8912   */\n      swap1\n      pop\n        /* \"#utility.yul\":8958:8967   */\n      dup2\n        /* \"#utility.yul\":8952:8956   */\n      dup2\n        /* \"#utility.yul\":8948:8968   */\n      sub\n        /* \"#utility.yul\":8944:8945   */\n      0x00\n        /* \"#utility.yul\":8933:8942   */\n      dup4\n        /* \"#utility.yul\":8929:8946   */\n      add\n        /* \"#utility.yul\":8922:8969   */\n      mstore\n        /* \"#utility.yul\":8986:9117   */\n      tag_433\n        /* \"#utility.yul\":9112:9116   */\n      dup2\n        /* \"#utility.yul\":8986:9117   */\n      tag_323\n      jump\t// in\n    tag_433:\n        /* \"#utility.yul\":8978:9117   */\n      swap1\n      pop\n        /* \"#utility.yul\":8705:9124   */\n      swap2\n      swap1\n      pop\n      jump\t// out\n        /* \"#utility.yul\":9130:9307   */\n    tag_324:\n        /* \"#utility.yul\":9270:9299   */\n      0x496e76616c6964206672616374696f6e2070657263656e746167650000000000\n        /* \"#utility.yul\":9266:9267   */\n      0x00\n        /* \"#utility.yul\":9258:9264   */\n      dup3\n        /* \"#utility.yul\":9254:9268   */\n      add\n        /* \"#utility.yul\":9247:9300   */\n      mstore\n        /* \"#utility.yul\":9130:9307   */\n      pop\n      jump\t// out\n        /* \"#utility.yul\":9313:9679   */\n    tag_325:\n        /* \"#utility.yul\":9455:9458   */\n      0x00\n        /* \"#utility.yul\":9476:9543   */\n      tag_436\n        /* \"#utility.yul\":9540:9542   */\n      0x1b\n        /* \"#utility.yul\":9535:9538   */\n      dup4\n        /* \"#utility.yul\":9476:9543   */\n      tag_311\n      jump\t// in\n    tag_436:\n        /* \"#utility.yul\":9469:9543   */\n      swap2\n      pop\n        /* \"#utility.yul\":9552:9645   */\n      tag_437\n        /* \"#utility.yul\":9641:9644   */\n      dup3\n        /* \"#utility.yul\":9552:9645   */\n      tag_324\n      jump\t// in\n    tag_437:\n        /* \"#utility.yul\":9670:9672   */\n      0x20\n        /* \"#utility.yul\":9665:9668   */\n      dup3\n        /* \"#utility.yul\":9661:9673   */\n      add\n        /* \"#utility.yul\":9654:9673   */\n      swap1\n      pop\n        /* \"#utility.yul\":9313:9679   */\n      swap2\n      swap1\n      pop\n      jump\t// out\n        /* \"#utility.yul\":9685:10104   */\n    tag_120:\n        /* \"#utility.yul\":9851:9855   */\n      0x00\n        /* \"#utility.yul\":9889:9891   */\n      0x20\n        /* \"#utility.yul\":9878:9887   */\n      dup3\n        /* \"#utility.yul\":9874:9892   */\n      add\n        /* \"#utility.yul\":9866:9892   */\n      swap1\n      pop\n        /* \"#utility.yul\":9938:9947   */\n      dup2\n        /* \"#utility.yul\":9932:9936   */\n      dup2\n        /* \"#utility.yul\":9928:9948   */\n      sub\n        /* \"#utility.yul\":9924:9925   */\n      0x00\n        /* \"#utility.yul\":9913:9922   */\n      dup4\n        /* \"#utility.yul\":9909:9926   */\n      add\n        /* \"#utility.yul\":9902:9949   */\n      mstore\n        /* \"#utility.yul\":9966:10097   */\n      tag_439\n        /* \"#utility.yul\":10092:10096   */\n      dup2\n        /* \"#utility.yul\":9966:10097   */\n      tag_325\n      jump\t// in\n    tag_439:\n        /* \"#utility.yul\":9958:10097   */\n      swap1\n      pop\n        /* \"#utility.yul\":9685:10104   */\n      swap2\n      swap1\n      pop\n      jump\t// out\n        /* \"#utility.yul\":10110:10335   */\n    tag_326:\n        /* \"#utility.yul\":10250:10284   */\n      0x496e73756666696369656e742062616c616e636520696e2070726f6a65637420\n        /* \"#utility.yul\":10246:10247   */\n      0x00\n        /* \"#utility.yul\":10238:10244   */\n      dup3\n        /* \"#utility.yul\":10234:10248   */\n      add\n        /* \"#utility.yul\":10227:10285   */\n      mstore\n        /* \"#utility.yul\":10319:10327   */\n      0x77616c6c65740000000000000000000000000000000000000000000000000000\n        /* \"#utility.yul\":10314:10316   */\n      0x20\n        /* \"#utility.yul\":10306:10312   */\n      dup3\n        /* \"#utility.yul\":10302:10317   */\n      add\n        /* \"#utility.yul\":10295:10328   */\n      mstore\n        /* \"#utility.yul\":10110:10335   */\n      pop\n      jump\t// out\n        /* \"#utility.yul\":10341:10707   */\n    tag_327:\n        /* \"#utility.yul\":10483:10486   */\n      0x00\n        /* \"#utility.yul\":10504:10571   */\n      tag_442\n        /* \"#utility.yul\":10568:10570   */\n      0x26\n        /* \"#utility.yul\":10563:10566   */\n      dup4\n        /* \"#utility.yul\":10504:10571   */\n      tag_311\n      jump\t// in\n    tag_442:\n        /* \"#utility.yul\":10497:10571   */\n      swap2\n      pop\n        /* \"#utility.yul\":10580:10673   */\n      tag_443\n        /* \"#utility.yul\":10669:10672   */\n      dup3\n        /* \"#utility.yul\":10580:10673   */\n      tag_326\n      jump\t// in\n    tag_443:\n        /* \"#utility.yul\":10698:10700   */\n      0x40\n        /* \"#utility.yul\":10693:10696   */\n      dup3\n        /* \"#utility.yul\":10689:10701   */\n      add\n        /* \"#utility.yul\":10682:10701   */\n      swap1\n      pop\n        /* \"#utility.yul\":10341:10707   */\n      swap2\n      swap1\n      pop\n      jump\t// out\n        /* \"#utility.yul\":10713:11132   */\n    tag_123:\n        /* \"#utility.yul\":10879:10883   */\n      0x00\n        /* \"#utility.yul\":10917:10919   */\n      0x20\n        /* \"#utility.yul\":10906:10915   */\n      dup3\n        /* \"#utility.yul\":10902:10920   */\n      add\n        /* \"#utility.yul\":10894:10920   */\n      swap1\n      pop\n        /* \"#utility.yul\":10966:10975   */\n      dup2\n        /* \"#utility.yul\":10960:10964   */\n      dup2\n        /* \"#utility.yul\":10956:10976   */\n      sub\n        /* \"#utility.yul\":10952:10953   */\n      0x00\n        /* \"#utility.yul\":10941:10950   */\n      dup4\n        /* \"#utility.yul\":10937:10954   */\n      add\n        /* \"#utility.yul\":10930:10977   */\n      mstore\n        /* \"#utility.yul\":10994:11125   */\n      tag_445\n        /* \"#utility.yul\":11120:11124   */\n      dup2\n        /* \"#utility.yul\":10994:11125   */\n      tag_327\n      jump\t// in\n    tag_445:\n        /* \"#utility.yul\":10986:11125   */\n      swap1\n      pop\n        /* \"#utility.yul\":10713:11132   */\n      swap2\n      swap1\n      pop\n      jump\t// out\n        /* \"#utility.yul\":11138:11302   */\n    tag_328:\n        /* \"#utility.yul\":11278:11294   */\n      0x496e76616c696420616d6f756e74000000000000000000000000000000000000\n        /* \"#utility.yul\":11274:11275   */\n      0x00\n        /* \"#utility.yul\":11266:11272   */\n      dup3\n        /* \"#utility.yul\":11262:11276   */\n      add\n        /* \"#utility.yul\":11255:11295   */\n      mstore\n        /* \"#utility.yul\":11138:11302   */\n      pop\n      jump\t// out\n        /* \"#utility.yul\":11308:11674   */\n    tag_329:\n        /* \"#utility.yul\":11450:11453   */\n      0x00\n        /* \"#utility.yul\":11471:11538   */\n      tag_448\n        /* \"#utility.yul\":11535:11537   */\n      0x0e\n        /* \"#utility.yul\":11530:11533   */\n      dup4\n        /* \"#utility.yul\":11471:11538   */\n      tag_311\n      jump\t// in\n    tag_448:\n        /* \"#utility.yul\":11464:11538   */\n      swap2\n      pop\n        /* \"#utility.yul\":11547:11640   */\n      tag_449\n        /* \"#utility.yul\":11636:11639   */\n      dup3\n        /* \"#utility.yul\":11547:11640   */\n      tag_328\n      jump\t// in\n    tag_449:\n        /* \"#utility.yul\":11665:11667   */\n      0x20\n        /* \"#utility.yul\":11660:11663   */\n      dup3\n        /* \"#utility.yul\":11656:11668   */\n      add\n        /* \"#utility.yul\":11649:11668   */\n      swap1\n      pop\n        /* \"#utility.yul\":11308:11674   */\n      swap2\n      swap1\n      pop\n      jump\t// out\n        /* \"#utility.yul\":11680:12099   */\n    tag_126:\n        /* \"#utility.yul\":11846:11850   */\n      0x00\n        /* \"#utility.yul\":11884:11886   */\n      0x20\n        /* \"#utility.yul\":11873:11882   */\n      dup3\n        /* \"#utility.yul\":11869:11887   */\n      add\n        /* \"#utility.yul\":11861:11887   */\n      swap1\n      pop\n        /* \"#utility.yul\":11933:11942   */\n      dup2\n        /* \"#utility.yul\":11927:11931   */\n      dup2\n        /* \"#utility.yul\":11923:11943   */\n      sub\n        /* \"#utility.yul\":11919:11920   */\n      0x00\n        /* \"#utility.yul\":11908:11917   */\n      dup4\n        /* \"#utility.yul\":11904:11921   */\n      add\n        /* \"#utility.yul\":11897:11944   */\n      mstore\n        /* \"#utility.yul\":11961:12092   */\n      tag_451\n        /* \"#utility.yul\":12087:12091   */\n      dup2\n        /* \"#utility.yul\":11961:12092   */\n      tag_329\n      jump\t// in\n    tag_451:\n        /* \"#utility.yul\":11953:12092   */\n      swap1\n      pop\n        /* \"#utility.yul\":11680:12099   */\n      swap2\n      swap1\n      pop\n      jump\t// out\n        /* \"#utility.yul\":12105:12285   */\n    tag_330:\n        /* \"#utility.yul\":12153:12230   */\n      0x4e487b7100000000000000000000000000000000000000000000000000000000\n        /* \"#utility.yul\":12150:12151   */\n      0x00\n        /* \"#utility.yul\":12143:12231   */\n      mstore\n        /* \"#utility.yul\":12250:12254   */\n      0x11\n        /* \"#utility.yul\":12247:12248   */\n      0x04\n        /* \"#utility.yul\":12240:12255   */\n      mstore\n        /* \"#utility.yul\":12274:12278   */\n      0x24\n        /* \"#utility.yul\":12271:12272   */\n      0x00\n        /* \"#utility.yul\":12264:12279   */\n      revert\n        /* \"#utility.yul\":12291:12393   */\n    tag_331:\n        /* \"#utility.yul\":12333:12341   */\n      0x00\n        /* \"#utility.yul\":12380:12385   */\n      dup2\n        /* \"#utility.yul\":12377:12378   */\n      0x01\n        /* \"#utility.yul\":12373:12386   */\n      shr\n        /* \"#utility.yul\":12352:12386   */\n      swap1\n      pop\n        /* \"#utility.yul\":12291:12393   */\n      swap2\n      swap1\n      pop\n      jump\t// out\n        /* \"#utility.yul\":12399:13247   */\n    tag_332:\n        /* \"#utility.yul\":12460:12465   */\n      0x00\n        /* \"#utility.yul\":12467:12471   */\n      dup1\n        /* \"#utility.yul\":12491:12497   */\n      dup3\n        /* \"#utility.yul\":12482:12497   */\n      swap2\n      pop\n        /* \"#utility.yul\":12515:12520   */\n      dup4\n        /* \"#utility.yul\":12506:12520   */\n      swap1\n      pop\n        /* \"#utility.yul\":12529:13241   */\n    tag_455:\n        /* \"#utility.yul\":12550:12551   */\n      0x01\n        /* \"#utility.yul\":12540:12548   */\n      dup6\n        /* \"#utility.yul\":12537:12552   */\n      gt\n        /* \"#utility.yul\":12529:13241   */\n      iszero\n      tag_457\n      jumpi\n        /* \"#utility.yul\":12645:12649   */\n      dup1\n        /* \"#utility.yul\":12640:12643   */\n      dup7\n        /* \"#utility.yul\":12636:12650   */\n      div\n        /* \"#utility.yul\":12630:12634   */\n      dup2\n        /* \"#utility.yul\":12627:12651   */\n      gt\n        /* \"#utility.yul\":12624:12674   */\n      iszero\n      tag_458\n      jumpi\n        /* \"#utility.yul\":12654:12672   */\n      tag_459\n      tag_330\n      jump\t// in\n    tag_459:\n        /* \"#utility.yul\":12624:12674   */\n    tag_458:\n        /* \"#utility.yul\":12704:12705   */\n      0x01\n        /* \"#utility.yul\":12694:12702   */\n      dup6\n        /* \"#utility.yul\":12690:12706   */\n      and\n        /* \"#utility.yul\":12687:13138   */\n      iszero\n      tag_460\n      jumpi\n        /* \"#utility.yul\":13119:13123   */\n      dup1\n        /* \"#utility.yul\":13112:13117   */\n      dup3\n        /* \"#utility.yul\":13108:13124   */\n      mul\n        /* \"#utility.yul\":13099:13124   */\n      swap2\n      pop\n        /* \"#utility.yul\":12687:13138   */\n    tag_460:\n        /* \"#utility.yul\":13169:13173   */\n      dup1\n        /* \"#utility.yul\":13163:13167   */\n      dup2\n        /* \"#utility.yul\":13159:13174   */\n      mul\n        /* \"#utility.yul\":13151:13174   */\n      swap1\n      pop\n        /* \"#utility.yul\":13199:13231   */\n      tag_461\n        /* \"#utility.yul\":13222:13230   */\n      dup6\n        /* \"#utility.yul\":13199:13231   */\n      tag_331\n      jump\t// in\n    tag_461:\n        /* \"#utility.yul\":13187:13231   */\n      swap5\n      pop\n        /* \"#utility.yul\":12529:13241   */\n      jump(tag_455)\n    tag_457:\n        /* \"#utility.yul\":12399:13247   */\n      swap5\n      pop\n      swap5\n      swap3\n      pop\n      pop\n      pop\n      jump\t// out\n        /* \"#utility.yul\":13253:14326   */\n    tag_333:\n        /* \"#utility.yul\":13307:13312   */\n      0x00\n        /* \"#utility.yul\":13498:13506   */\n      dup3\n        /* \"#utility.yul\":13488:13528   */\n      tag_463\n      jumpi\n        /* \"#utility.yul\":13519:13520   */\n      0x01\n        /* \"#utility.yul\":13510:13520   */\n      swap1\n      pop\n        /* \"#utility.yul\":13521:13526   */\n      jump(tag_462)\n        /* \"#utility.yul\":13488:13528   */\n    tag_463:\n        /* \"#utility.yul\":13547:13551   */\n      dup2\n        /* \"#utility.yul\":13537:13573   */\n      tag_464\n      jumpi\n        /* \"#utility.yul\":13564:13565   */\n      0x00\n        /* \"#utility.yul\":13555:13565   */\n      swap1\n      pop\n        /* \"#utility.yul\":13566:13571   */\n      jump(tag_462)\n        /* \"#utility.yul\":13537:13573   */\n    tag_464:\n        /* \"#utility.yul\":13633:13637   */\n      dup2\n        /* \"#utility.yul\":13681:13682   */\n      0x01\n        /* \"#utility.yul\":13676:13703   */\n      dup2\n      eq\n      tag_466\n      jumpi\n        /* \"#utility.yul\":13717:13718   */\n      0x02\n        /* \"#utility.yul\":13712:13903   */\n      dup2\n      eq\n      tag_467\n      jumpi\n        /* \"#utility.yul\":13626:13903   */\n      jump(tag_465)\n        /* \"#utility.yul\":13676:13703   */\n    tag_466:\n        /* \"#utility.yul\":13694:13695   */\n      0x01\n        /* \"#utility.yul\":13685:13695   */\n      swap2\n      pop\n        /* \"#utility.yul\":13696:13701   */\n      pop\n      jump(tag_462)\n        /* \"#utility.yul\":13712:13903   */\n    tag_467:\n        /* \"#utility.yul\":13757:13760   */\n      0xff\n        /* \"#utility.yul\":13747:13755   */\n      dup5\n        /* \"#utility.yul\":13744:13761   */\n      gt\n        /* \"#utility.yul\":13741:13784   */\n      iszero\n      tag_468\n      jumpi\n        /* \"#utility.yul\":13764:13782   */\n      tag_469\n      tag_330\n      jump\t// in\n    tag_469:\n        /* \"#utility.yul\":13741:13784   */\n    tag_468:\n        /* \"#utility.yul\":13813:13821   */\n      dup4\n        /* \"#utility.yul\":13810:13811   */\n      0x02\n        /* \"#utility.yul\":13806:13822   */\n      exp\n        /* \"#utility.yul\":13797:13822   */\n      swap2\n      pop\n        /* \"#utility.yul\":13848:13851   */\n      dup5\n        /* \"#utility.yul\":13841:13846   */\n      dup3\n        /* \"#utility.yul\":13838:13852   */\n      gt\n        /* \"#utility.yul\":13835:13875   */\n      iszero\n      tag_470\n      jumpi\n        /* \"#utility.yul\":13855:13873   */\n      tag_471\n      tag_330\n      jump\t// in\n    tag_471:\n        /* \"#utility.yul\":13835:13875   */\n    tag_470:\n        /* \"#utility.yul\":13888:13893   */\n      pop\n      jump(tag_462)\n        /* \"#utility.yul\":13626:13903   */\n    tag_465:\n      pop\n        /* \"#utility.yul\":14012:14014   */\n      0x20\n        /* \"#utility.yul\":14002:14010   */\n      dup4\n        /* \"#utility.yul\":13999:14015   */\n      lt\n        /* \"#utility.yul\":13993:13996   */\n      0x0133\n        /* \"#utility.yul\":13987:13991   */\n      dup4\n        /* \"#utility.yul\":13984:13997   */\n      lt\n        /* \"#utility.yul\":13980:14016   */\n      and\n        /* \"#utility.yul\":13962:13964   */\n      0x4e\n        /* \"#utility.yul\":13952:13960   */\n      dup5\n        /* \"#utility.yul\":13949:13965   */\n      lt\n        /* \"#utility.yul\":13944:13946   */\n      0x0b\n        /* \"#utility.yul\":13938:13942   */\n      dup5\n        /* \"#utility.yul\":13935:13947   */\n      lt\n        /* \"#utility.yul\":13931:13966   */\n      and\n        /* \"#utility.yul\":13915:14026   */\n      or\n        /* \"#utility.yul\":13912:14158   */\n      iszero\n      tag_472\n      jumpi\n        /* \"#utility.yul\":14068:14076   */\n      dup3\n        /* \"#utility.yul\":14062:14066   */\n      dup3\n        /* \"#utility.yul\":14058:14077   */\n      exp\n        /* \"#utility.yul\":14049:14077   */\n      swap1\n      pop\n        /* \"#utility.yul\":14103:14106   */\n      dup4\n        /* \"#utility.yul\":14096:14101   */\n      dup2\n        /* \"#utility.yul\":14093:14107   */\n      gt\n        /* \"#utility.yul\":14090:14130   */\n      iszero\n      tag_473\n      jumpi\n        /* \"#utility.yul\":14110:14128   */\n      tag_474\n      tag_330\n      jump\t// in\n    tag_474:\n        /* \"#utility.yul\":14090:14130   */\n    tag_473:\n        /* \"#utility.yul\":14143:14148   */\n      jump(tag_462)\n        /* \"#utility.yul\":13912:14158   */\n    tag_472:\n        /* \"#utility.yul\":14183:14225   */\n      tag_475\n        /* \"#utility.yul\":14221:14224   */\n      dup5\n        /* \"#utility.yul\":14211:14219   */\n      dup5\n        /* \"#utility.yul\":14205:14209   */\n      dup5\n        /* \"#utility.yul\":14202:14203   */\n      0x01\n        /* \"#utility.yul\":14183:14225   */\n      tag_332\n      jump\t// in\n    tag_475:\n        /* \"#utility.yul\":14168:14225   */\n      swap3\n      pop\n      swap1\n      pop\n        /* \"#utility.yul\":14257:14261   */\n      dup2\n        /* \"#utility.yul\":14252:14255   */\n      dup5\n        /* \"#utility.yul\":14248:14262   */\n      div\n        /* \"#utility.yul\":14241:14246   */\n      dup2\n        /* \"#utility.yul\":14238:14263   */\n      gt\n        /* \"#utility.yul\":14235:14286   */\n      iszero\n      tag_476\n      jumpi\n        /* \"#utility.yul\":14266:14284   */\n      tag_477\n      tag_330\n      jump\t// in\n    tag_477:\n        /* \"#utility.yul\":14235:14286   */\n    tag_476:\n        /* \"#utility.yul\":14315:14319   */\n      dup2\n        /* \"#utility.yul\":14308:14313   */\n      dup2\n        /* \"#utility.yul\":14304:14320   */\n      mul\n        /* \"#utility.yul\":14295:14320   */\n      swap1\n      pop\n        /* \"#utility.yul\":13253:14326   */\n    tag_462:\n      swap4\n      swap3\n      pop\n      pop\n      pop\n      jump\t// out\n        /* \"#utility.yul\":14332:14617   */\n    tag_128:\n        /* \"#utility.yul\":14392:14397   */\n      0x00\n        /* \"#utility.yul\":14416:14439   */\n      tag_479\n        /* \"#utility.yul\":14434:14438   */\n      dup3\n        /* \"#utility.yul\":14416:14439   */\n      tag_306\n      jump\t// in\n    tag_479:\n        /* \"#utility.yul\":14408:14439   */\n      swap2\n      pop\n        /* \"#utility.yul\":14460:14487   */\n      tag_480\n        /* \"#utility.yul\":14478:14486   */\n      dup4\n        /* \"#utility.yul\":14460:14487   */\n      tag_306\n      jump\t// in\n    tag_480:\n        /* \"#utility.yul\":14448:14487   */\n      swap3\n      pop\n        /* \"#utility.yul\":14506:14610   */\n      tag_481\n        /* \"#utility.yul\":14543:14609   */\n      0xffffffffffffffffffffffffffffffffffffffffffffffffffffffffffffffff\n        /* \"#utility.yul\":14533:14541   */\n      dup5\n        /* \"#utility.yul\":14527:14531   */\n      dup5\n        /* \"#utility.yul\":14506:14610   */\n      tag_333\n      jump\t// in\n    tag_481:\n        /* \"#utility.yul\":14497:14610   */\n      swap1\n      pop\n        /* \"#utility.yul\":14332:14617   */\n      swap3\n      swap2\n      pop\n      pop\n      jump\t// out\n        /* \"#utility.yul\":14623:15033   */\n    tag_130:\n        /* \"#utility.yul\":14663:14670   */\n      0x00\n        /* \"#utility.yul\":14686:14706   */\n      tag_483\n        /* \"#utility.yul\":14704:14705   */\n      dup3\n        /* \"#utility.yul\":14686:14706   */\n      tag_306\n      jump\t// in\n    tag_483:\n        /* \"#utility.yul\":14681:14706   */\n      swap2\n      pop\n        /* \"#utility.yul\":14720:14740   */\n      tag_484\n        /* \"#utility.yul\":14738:14739   */\n      dup4\n        /* \"#utility.yul\":14720:14740   */\n      tag_306\n      jump\t// in\n    tag_484:\n        /* \"#utility.yul\":14715:14740   */\n      swap3\n      pop\n        /* \"#utility.yul\":14775:14776   */\n      dup3\n        /* \"#utility.yul\":14772:14773   */\n      dup3\n        /* \"#utility.yul\":14768:14777   */\n      mul\n        /* \"#utility.yul\":14797:14827   */\n      tag_485\n        /* \"#utility.yul\":14815:14826   */\n      dup2\n        /* \"#utility.yul\":14797:14827   */\n      tag_306\n      jump\t// in\n    tag_485:\n        /* \"#utility.yul\":14786:14827   */\n      swap2\n      pop\n        /* \"#utility.yul\":14976:14977   */\n      dup3\n        /* \"#utility.yul\":14967:14974   */\n      dup3\n        /* \"#utility.yul\":14963:14978   */\n      div\n        /* \"#utility.yul\":14960:14961   */\n      dup5\n        /* \"#utility.yul\":14957:14979   */\n      eq\n        /* \"#utility.yul\":14937:14938   */\n      dup4\n        /* \"#utility.yul\":14930:14939   */\n      iszero\n        /* \"#utility.yul\":14910:14993   */\n      or\n        /* \"#utility.yul\":14887:15026   */\n      tag_486\n      jumpi\n        /* \"#utility.yul\":15006:15024   */\n      tag_487\n      tag_330\n      jump\t// in\n    tag_487:\n        /* \"#utility.yul\":14887:15026   */\n    tag_486:\n        /* \"#utility.yul\":14671:15033   */\n      pop\n        /* \"#utility.yul\":14623:15033   */\n      swap3\n      swap2\n      pop\n      pop\n      jump\t// out\n        /* \"#utility.yul\":15039:15219   */\n    tag_334:\n        /* \"#utility.yul\":15087:15164   */\n      0x4e487b7100000000000000000000000000000000000000000000000000000000\n        /* \"#utility.yul\":15084:15085   */\n      0x00\n        /* \"#utility.yul\":15077:15165   */\n      mstore\n        /* \"#utility.yul\":15184:15188   */\n      0x12\n        /* \"#utility.yul\":15181:15182   */\n      0x04\n        /* \"#utility.yul\":15174:15189   */\n      mstore\n        /* \"#utility.yul\":15208:15212   */\n      0x24\n        /* \"#utility.yul\":15205:15206   */\n      0x00\n        /* \"#utility.yul\":15198:15213   */\n      revert\n        /* \"#utility.yul\":15225:15410   */\n    tag_133:\n        /* \"#utility.yul\":15265:15266   */\n      0x00\n        /* \"#utility.yul\":15282:15302   */\n      tag_490\n        /* \"#utility.yul\":15300:15301   */\n      dup3\n        /* \"#utility.yul\":15282:15302   */\n      tag_306\n      jump\t// in\n    tag_490:\n        /* \"#utility.yul\":15277:15302   */\n      swap2\n      pop\n        /* \"#utility.yul\":15316:15336   */\n      tag_491\n        /* \"#utility.yul\":15334:15335   */\n      dup4\n        /* \"#utility.yul\":15316:15336   */\n      tag_306\n      jump\t// in\n    tag_491:\n        /* \"#utility.yul\":15311:15336   */\n      swap3\n      pop\n        /* \"#utility.yul\":15355:15356   */\n      dup3\n        /* \"#utility.yul\":15345:15380   */\n      tag_492\n      jumpi\n        /* \"#utility.yul\":15360:15378   */\n      tag_493\n      tag_334\n      jump\t// in\n    tag_493:\n        /* \"#utility.yul\":15345:15380   */\n    tag_492:\n        /* \"#utility.yul\":15402:15403   */\n      dup3\n        /* \"#utility.yul\":15399:15400   */\n      dup3\n        /* \"#utility.yul\":15395:15404   */\n      div\n        /* \"#utility.yul\":15390:15404   */\n      swap1\n      pop\n        /* \"#utility.yul\":15225:15410   */\n      swap3\n      swap2\n      pop\n      pop\n      jump\t// out\n        /* \"#utility.yul\":15416:15610   */\n    tag_135:\n        /* \"#utility.yul\":15456:15460   */\n      0x00\n        /* \"#utility.yul\":15476:15496   */\n      tag_495\n        /* \"#utility.yul\":15494:15495   */\n      dup3\n        /* \"#utility.yul\":15476:15496   */\n      tag_306\n      jump\t// in\n    tag_495:\n        /* \"#utility.yul\":15471:15496   */\n      swap2\n      pop\n        /* \"#utility.yul\":15510:15530   */\n      tag_496\n        /* \"#utility.yul\":15528:15529   */\n      dup4\n        /* \"#utility.yul\":15510:15530   */\n      tag_306\n      jump\t// in\n    tag_496:\n        /* \"#utility.yul\":15505:15530   */\n      swap3\n      pop\n        /* \"#utility.yul\":15554:15555   */\n      dup3\n        /* \"#utility.yul\":15551:15552   */\n      dup3\n        /* \"#utility.yul\":15547:15556   */\n      sub\n        /* \"#utility.yul\":15539:15556   */\n      swap1\n      pop\n        /* \"#utility.yul\":15578:15579   */\n      dup2\n        /* \"#utility.yul\":15572:15576   */\n      dup2\n        /* \"#utility.yul\":15569:15580   */\n      gt\n        /* \"#utility.yul\":15566:15603   */\n      iszero\n      tag_497\n      jumpi\n        /* \"#utility.yul\":15583:15601   */\n      tag_498\n      tag_330\n      jump\t// in\n    tag_498:\n        /* \"#utility.yul\":15566:15603   */\n    tag_497:\n        /* \"#utility.yul\":15416:15610   */\n      swap3\n      swap2\n      pop\n      pop\n      jump\t// out\n        /* \"#utility.yul\":15616:15807   */\n    tag_140:\n        /* \"#utility.yul\":15656:15659   */\n      0x00\n        /* \"#utility.yul\":15675:15695   */\n      tag_500\n        /* \"#utility.yul\":15693:15694   */\n      dup3\n        /* \"#utility.yul\":15675:15695   */\n      tag_306\n      jump\t// in\n    tag_500:\n        /* \"#utility.yul\":15670:15695   */\n      swap2\n      pop\n        /* \"#utility.yul\":15709:15729   */\n      tag_501\n        /* \"#utility.yul\":15727:15728   */\n      dup4\n        /* \"#utility.yul\":15709:15729   */\n      tag_306\n      jump\t// in\n    tag_501:\n        /* \"#utility.yul\":15704:15729   */\n      swap3\n      pop\n        /* \"#utility.yul\":15752:15753   */\n      dup3\n        /* \"#utility.yul\":15749:15750   */\n      dup3\n        /* \"#utility.yul\":15745:15754   */\n      add\n        /* \"#utility.yul\":15738:15754   */\n      swap1\n      pop\n        /* \"#utility.yul\":15773:15776   */\n      dup1\n        /* \"#utility.yul\":15770:15771   */\n      dup3\n        /* \"#utility.yul\":15767:15777   */\n      gt\n        /* \"#utility.yul\":15764:15800   */\n      iszero\n      tag_502\n      jumpi\n        /* \"#utility.yul\":15780:15798   */\n      tag_503\n      tag_330\n      jump\t// in\n    tag_503:\n        /* \"#utility.yul\":15764:15800   */\n    tag_502:\n        /* \"#utility.yul\":15616:15807   */\n      swap3\n      swap2\n      pop\n      pop\n      jump\t// out\n        /* \"#utility.yul\":15813:15986   */\n    tag_335:\n        /* \"#utility.yul\":15953:15978   */\n      0x546f6b656e7320617265207374696c6c206c6f636b6564000000000000000000\n        /* \"#utility.yul\":15949:15950   */\n      0x00\n        /* \"#utility.yul\":15941:15947   */\n      dup3\n        /* \"#utility.yul\":15937:15951   */\n      add\n        /* \"#utility.yul\":15930:15979   */\n      mstore\n        /* \"#utility.yul\":15813:15986   */\n      pop\n      jump\t// out\n        /* \"#utility.yul\":15992:16358   */\n    tag_336:\n        /* \"#utility.yul\":16134:16137   */\n      0x00\n        /* \"#utility.yul\":16155:16222   */\n      tag_506\n        /* \"#utility.yul\":16219:16221   */\n      0x17\n        /* \"#utility.yul\":16214:16217   */\n      dup4\n        /* \"#utility.yul\":16155:16222   */\n      tag_311\n      jump\t// in\n    tag_506:\n        /* \"#utility.yul\":16148:16222   */\n      swap2\n      pop\n        /* \"#utility.yul\":16231:16324   */\n      tag_507\n        /* \"#utility.yul\":16320:16323   */\n      dup3\n        /* \"#utility.yul\":16231:16324   */\n      tag_335\n      jump\t// in\n    tag_507:\n        /* \"#utility.yul\":16349:16351   */\n      0x20\n        /* \"#utility.yul\":16344:16347   */\n      dup3\n        /* \"#utility.yul\":16340:16352   */\n      add\n        /* \"#utility.yul\":16333:16352   */\n      swap1\n      pop\n        /* \"#utility.yul\":15992:16358   */\n      swap2\n      swap1\n      pop\n      jump\t// out\n        /* \"#utility.yul\":16364:16783   */\n    tag_157:\n        /* \"#utility.yul\":16530:16534   */\n      0x00\n        /* \"#utility.yul\":16568:16570   */\n      0x20\n        /* \"#utility.yul\":16557:16566   */\n      dup3\n        /* \"#utility.yul\":16553:16571   */\n      add\n        /* \"#utility.yul\":16545:16571   */\n      swap1\n      pop\n        /* \"#utility.yul\":16617:16626   */\n      dup2\n        /* \"#utility.yul\":16611:16615   */\n      dup2\n        /* \"#utility.yul\":16607:16627   */\n      sub\n        /* \"#utility.yul\":16603:16604   */\n      0x00\n        /* \"#utility.yul\":16592:16601   */\n      dup4\n        /* \"#utility.yul\":16588:16605   */\n      add\n        /* \"#utility.yul\":16581:16628   */\n      mstore\n        /* \"#utility.yul\":16645:16776   */\n      tag_509\n        /* \"#utility.yul\":16771:16775   */\n      dup2\n        /* \"#utility.yul\":16645:16776   */\n      tag_336\n      jump\t// in\n    tag_509:\n        /* \"#utility.yul\":16637:16776   */\n      swap1\n      pop\n        /* \"#utility.yul\":16364:16783   */\n      swap2\n      swap1\n      pop\n      jump\t// out\n        /* \"#utility.yul\":16789:16965   */\n    tag_167:\n        /* \"#utility.yul\":16821:16822   */\n      0x00\n        /* \"#utility.yul\":16838:16858   */\n      tag_511\n        /* \"#utility.yul\":16856:16857   */\n      dup3\n        /* \"#utility.yul\":16838:16858   */\n      tag_306\n      jump\t// in\n    tag_511:\n        /* \"#utility.yul\":16833:16858   */\n      swap2\n      pop\n        /* \"#utility.yul\":16872:16892   */\n      tag_512\n        /* \"#utility.yul\":16890:16891   */\n      dup4\n        /* \"#utility.yul\":16872:16892   */\n      tag_306\n      jump\t// in\n    tag_512:\n        /* \"#utility.yul\":16867:16892   */\n      swap3\n      pop\n        /* \"#utility.yul\":16911:16912   */\n      dup3\n        /* \"#utility.yul\":16901:16936   */\n      tag_513\n      jumpi\n        /* \"#utility.yul\":16916:16934   */\n      tag_514\n      tag_334\n      jump\t// in\n    tag_514:\n        /* \"#utility.yul\":16901:16936   */\n    tag_513:\n        /* \"#utility.yul\":16957:16958   */\n      dup3\n        /* \"#utility.yul\":16954:16955   */\n      dup3\n        /* \"#utility.yul\":16950:16959   */\n      mod\n        /* \"#utility.yul\":16945:16959   */\n      swap1\n      pop\n        /* \"#utility.yul\":16789:16965   */\n      swap3\n      swap2\n      pop\n      pop\n      jump\t// out\n        /* \"#utility.yul\":16971:17151   */\n    tag_337:\n        /* \"#utility.yul\":17019:17096   */\n      0x4e487b7100000000000000000000000000000000000000000000000000000000\n        /* \"#utility.yul\":17016:17017   */\n      0x00\n        /* \"#utility.yul\":17009:17097   */\n      mstore\n        /* \"#utility.yul\":17116:17120   */\n      0x22\n        /* \"#utility.yul\":17113:17114   */\n      0x04\n        /* \"#utility.yul\":17106:17121   */\n      mstore\n        /* \"#utility.yul\":17140:17144   */\n      0x24\n        /* \"#utility.yul\":17137:17138   */\n      0x00\n        /* \"#utility.yul\":17130:17145   */\n      revert\n        /* \"#utility.yul\":17157:17477   */\n    tag_170:\n        /* \"#utility.yul\":17201:17207   */\n      0x00\n        /* \"#utility.yul\":17238:17239   */\n      0x02\n        /* \"#utility.yul\":17232:17236   */\n      dup3\n        /* \"#utility.yul\":17228:17240   */\n      div\n        /* \"#utility.yul\":17218:17240   */\n      swap1\n      pop\n        /* \"#utility.yul\":17285:17286   */\n      0x01\n        /* \"#utility.yul\":17279:17283   */\n      dup3\n        /* \"#utility.yul\":17275:17287   */\n      and\n        /* \"#utility.yul\":17306:17324   */\n      dup1\n        /* \"#utility.yul\":17296:17377   */\n      tag_517\n      jumpi\n        /* \"#utility.yul\":17362:17366   */\n      0x7f\n        /* \"#utility.yul\":17354:17360   */\n      dup3\n        /* \"#utility.yul\":17350:17367   */\n      and\n        /* \"#utility.yul\":17340:17367   */\n      swap2\n      pop\n        /* \"#utility.yul\":17296:17377   */\n    tag_517:\n        /* \"#utility.yul\":17424:17426   */\n      0x20\n        /* \"#utility.yul\":17416:17422   */\n      dup3\n        /* \"#utility.yul\":17413:17427   */\n      lt\n        /* \"#utility.yul\":17393:17411   */\n      dup2\n        /* \"#utility.yul\":17390:17428   */\n      sub\n        /* \"#utility.yul\":17387:17471   */\n      tag_518\n      jumpi\n        /* \"#utility.yul\":17443:17461   */\n      tag_519\n      tag_337\n      jump\t// in\n    tag_519:\n        /* \"#utility.yul\":17387:17471   */\n    tag_518:\n        /* \"#utility.yul\":17208:17477   */\n      pop\n        /* \"#utility.yul\":17157:17477   */\n      swap2\n      swap1\n      pop\n      jump\t// out\n        /* \"#utility.yul\":17483:17653   */\n    tag_338:\n        /* \"#utility.yul\":17623:17645   */\n      0x496e73756666696369656e742062616c616e6365000000000000000000000000\n        /* \"#utility.yul\":17619:17620   */\n      0x00\n        /* \"#utility.yul\":17611:17617   */\n      dup3\n        /* \"#utility.yul\":17607:17621   */\n      add\n        /* \"#utility.yul\":17600:17646   */\n      mstore\n        /* \"#utility.yul\":17483:17653   */\n      pop\n      jump\t// out\n        /* \"#utility.yul\":17659:18025   */\n    tag_339:\n        /* \"#utility.yul\":17801:17804   */\n      0x00\n        /* \"#utility.yul\":17822:17889   */\n      tag_522\n        /* \"#utility.yul\":17886:17888   */\n      0x14\n        /* \"#utility.yul\":17881:17884   */\n      dup4\n        /* \"#utility.yul\":17822:17889   */\n      tag_311\n      jump\t// in\n    tag_522:\n        /* \"#utility.yul\":17815:17889   */\n      swap2\n      pop\n        /* \"#utility.yul\":17898:17991   */\n      tag_523\n        /* \"#utility.yul\":17987:17990   */\n      dup3\n        /* \"#utility.yul\":17898:17991   */\n      tag_338\n      jump\t// in\n    tag_523:\n        /* \"#utility.yul\":18016:18018   */\n      0x20\n        /* \"#utility.yul\":18011:18014   */\n      dup3\n        /* \"#utility.yul\":18007:18019   */\n      add\n        /* \"#utility.yul\":18000:18019   */\n      swap1\n      pop\n        /* \"#utility.yul\":17659:18025   */\n      swap2\n      swap1\n      pop\n      jump\t// out\n        /* \"#utility.yul\":18031:18450   */\n    tag_178:\n        /* \"#utility.yul\":18197:18201   */\n      0x00\n        /* \"#utility.yul\":18235:18237   */\n      0x20\n        /* \"#utility.yul\":18224:18233   */\n      dup3\n        /* \"#utility.yul\":18220:18238   */\n      add\n        /* \"#utility.yul\":18212:18238   */\n      swap1\n      pop\n        /* \"#utility.yul\":18284:18293   */\n      dup2\n        /* \"#utility.yul\":18278:18282   */\n      dup2\n        /* \"#utility.yul\":18274:18294   */\n      sub\n        /* \"#utility.yul\":18270:18271   */\n      0x00\n        /* \"#utility.yul\":18259:18268   */\n      dup4\n        /* \"#utility.yul\":18255:18272   */\n      add\n        /* \"#utility.yul\":18248:18295   */\n      mstore\n        /* \"#utility.yul\":18312:18443   */\n      tag_525\n        /* \"#utility.yul\":18438:18442   */\n      dup2\n        /* \"#utility.yul\":18312:18443   */\n      tag_339\n      jump\t// in\n    tag_525:\n        /* \"#utility.yul\":18304:18443   */\n      swap1\n      pop\n        /* \"#utility.yul\":18031:18450   */\n      swap2\n      swap1\n      pop\n      jump\t// out\n        /* \"#utility.yul\":18456:18625   */\n    tag_340:\n        /* \"#utility.yul\":18596:18617   */\n      0x416c6c20746f6b656e7320756e6c6f636b656400000000000000000000000000\n        /* \"#utility.yul\":18592:18593   */\n      0x00\n        /* \"#utility.yul\":18584:18590   */\n      dup3\n        /* \"#utility.yul\":18580:18594   */\n      add\n        /* \"#utility.yul\":18573:18618   */\n      mstore\n        /* \"#utility.yul\":18456:18625   */\n      pop\n      jump\t// out\n        /* \"#utility.yul\":18631:18997   */\n    tag_341:\n        /* \"#utility.yul\":18773:18776   */\n      0x00\n        /* \"#utility.yul\":18794:18861   */\n      tag_528\n        /* \"#utility.yul\":18858:18860   */\n      0x13\n        /* \"#utility.yul\":18853:18856   */\n      dup4\n        /* \"#utility.yul\":18794:18861   */\n      tag_311\n      jump\t// in\n    tag_528:\n        /* \"#utility.yul\":18787:18861   */\n      swap2\n      pop\n        /* \"#utility.yul\":18870:18963   */\n      tag_529\n        /* \"#utility.yul\":18959:18962   */\n      dup3\n        /* \"#utility.yul\":18870:18963   */\n      tag_340\n      jump\t// in\n    tag_529:\n        /* \"#utility.yul\":18988:18990   */\n      0x20\n        /* \"#utility.yul\":18983:18986   */\n      dup3\n        /* \"#utility.yul\":18979:18991   */\n      add\n        /* \"#utility.yul\":18972:18991   */\n      swap1\n      pop\n        /* \"#utility.yul\":18631:18997   */\n      swap2\n      swap1\n      pop\n      jump\t// out\n        /* \"#utility.yul\":19003:19422   */\n    tag_241:\n        /* \"#utility.yul\":19169:19173   */\n      0x00\n        /* \"#utility.yul\":19207:19209   */\n      0x20\n        /* \"#utility.yul\":19196:19205   */\n      dup3\n        /* \"#utility.yul\":19192:19210   */\n      add\n        /* \"#utility.yul\":19184:19210   */\n      swap1\n      pop\n        /* \"#utility.yul\":19256:19265   */\n      dup2\n        /* \"#utility.yul\":19250:19254   */\n      dup2\n        /* \"#utility.yul\":19246:19266   */\n      sub\n        /* \"#utility.yul\":19242:19243   */\n      0x00\n        /* \"#utility.yul\":19231:19240   */\n      dup4\n        /* \"#utility.yul\":19227:19244   */\n      add\n        /* \"#utility.yul\":19220:19267   */\n      mstore\n        /* \"#utility.yul\":19284:19415   */\n      tag_531\n        /* \"#utility.yul\":19410:19414   */\n      dup2\n        /* \"#utility.yul\":19284:19415   */\n      tag_341\n      jump\t// in\n    tag_531:\n        /* \"#utility.yul\":19276:19415   */\n      swap1\n      pop\n        /* \"#utility.yul\":19003:19422   */\n      swap2\n      swap1\n      pop\n      jump\t// out\n        /* \"#utility.yul\":19428:19608   */\n    tag_246:\n        /* \"#utility.yul\":19476:19553   */\n      0x4e487b7100000000000000000000000000000000000000000000000000000000\n        /* \"#utility.yul\":19473:19474   */\n      0x00\n        /* \"#utility.yul\":19466:19554   */\n      mstore\n        /* \"#utility.yul\":19573:19577   */\n      0x41\n        /* \"#utility.yul\":19570:19571   */\n      0x04\n        /* \"#utility.yul\":19563:19578   */\n      mstore\n        /* \"#utility.yul\":19597:19601   */\n      0x24\n        /* \"#utility.yul\":19594:19595   */\n      0x00\n        /* \"#utility.yul\":19587:19602   */\n      revert\n        /* \"#utility.yul\":19614:19794   */\n    tag_252:\n        /* \"#utility.yul\":19662:19739   */\n      0x4e487b7100000000000000000000000000000000000000000000000000000000\n        /* \"#utility.yul\":19659:19660   */\n      0x00\n        /* \"#utility.yul\":19652:19740   */\n      mstore\n        /* \"#utility.yul\":19759:19763   */\n      0x32\n        /* \"#utility.yul\":19756:19757   */\n      0x04\n        /* \"#utility.yul\":19749:19764   */\n      mstore\n        /* \"#utility.yul\":19783:19787   */\n      0x24\n        /* \"#utility.yul\":19780:19781   */\n      0x00\n        /* \"#utility.yul\":19773:19788   */\n      revert\n\n    auxdata: 0xa2646970667358221220b3df2451f98882f889d47e00fb13559baf201d45e884aac078296af761588eef64736f6c63430008180033\n}\n",
				"bytecode": {
					"linkReferences": {},
					"object": "60806040526040518060400160405280600a81526020017f5368617265546f6b656e000000000000000000000000000000000000000000008152505f9081620000499190620004f7565b506040518060400160405280600381526020017f535445000000000000000000000000000000000000000000000000000000000081525060019081620000909190620004f7565b50601260025f6101000a81548160ff021916908360ff16021790555060025f9054906101000a900460ff1660ff16600a620000cc919062000758565b62989680620000dc9190620007a8565b6003553360055f6101000a81548173ffffffffffffffffffffffffffffffffffffffff021916908373ffffffffffffffffffffffffffffffffffffffff1602179055506064601e600354620001329190620007a8565b6200013e91906200081f565b60075560646014600354620001549190620007a8565b6200016091906200081f565b60085560646032600354620001769190620007a8565b6200018291906200081f565b6009555f600b5534801562000195575f80fd5b5033600c5f6101000a81548173ffffffffffffffffffffffffffffffffffffffff021916908373ffffffffffffffffffffffffffffffffffffffff16021790555060085460065f60055f9054906101000a900473ffffffffffffffffffffffffffffffffffffffff1673ffffffffffffffffffffffffffffffffffffffff1673ffffffffffffffffffffffffffffffffffffffff1681526020019081526020015f20819055505f60065f3073ffffffffffffffffffffffffffffffffffffffff1673ffffffffffffffffffffffffffffffffffffffff1681526020019081526020015f208190555042600a8190555060075460048190555062000856565b5f81519050919050565b7f4e487b71000000000000000000000000000000000000000000000000000000005f52604160045260245ffd5b7f4e487b71000000000000000000000000000000000000000000000000000000005f52602260045260245ffd5b5f60028204905060018216806200030f57607f821691505b602082108103620003255762000324620002ca565b5b50919050565b5f819050815f5260205f209050919050565b5f6020601f8301049050919050565b5f82821b905092915050565b5f60088302620003897fffffffffffffffffffffffffffffffffffffffffffffffffffffffffffffffff826200034c565b6200039586836200034c565b95508019841693508086168417925050509392505050565b5f819050919050565b5f819050919050565b5f620003df620003d9620003d384620003ad565b620003b6565b620003ad565b9050919050565b5f819050919050565b620003fa83620003bf565b620004126200040982620003e6565b84845462000358565b825550505050565b5f90565b620004286200041a565b62000435818484620003ef565b505050565b5b818110156200045c57620004505f826200041e565b6001810190506200043b565b5050565b601f821115620004ab5762000475816200032b565b62000480846200033d565b8101602085101562000490578190505b620004a86200049f856200033d565b8301826200043a565b50505b505050565b5f82821c905092915050565b5f620004cd5f1984600802620004b0565b1980831691505092915050565b5f620004e78383620004bc565b9150826002028217905092915050565b620005028262000293565b67ffffffffffffffff8111156200051e576200051d6200029d565b5b6200052a8254620002f7565b6200053782828562000460565b5f60209050601f8311600181146200056d575f841562000558578287015190505b620005648582620004da565b865550620005d3565b601f1984166200057d866200032b565b5f5b82811015620005a6578489015182556001820191506020850194506020810190506200057f565b86831015620005c65784890151620005c2601f891682620004bc565b8355505b6001600288020188555050505b505050505050565b7f4e487b71000000000000000000000000000000000000000000000000000000005f52601160045260245ffd5b5f8160011c9050919050565b5f808291508390505b600185111562000665578086048111156200063d576200063c620005db565b5b60018516156200064d5780820291505b80810290506200065d8562000608565b94506200061d565b94509492505050565b5f826200067f576001905062000751565b816200068e575f905062000751565b8160018114620006a75760028114620006b257620006e8565b600191505062000751565b60ff841115620006c757620006c6620005db565b5b8360020a915084821115620006e157620006e0620005db565b5b5062000751565b5060208310610133831016604e8410600b8410161715620007225782820a9050838111156200071c576200071b620005db565b5b62000751565b62000731848484600162000614565b925090508184048111156200074b576200074a620005db565b5b81810290505b9392505050565b5f6200076482620003ad565b91506200077183620003ad565b9250620007a07fffffffffffffffffffffffffffffffffffffffffffffffffffffffffffffffff84846200066e565b905092915050565b5f620007b482620003ad565b9150620007c183620003ad565b9250828202620007d181620003ad565b91508282048414831517620007eb57620007ea620005db565b5b5092915050565b7f4e487b71000000000000000000000000000000000000000000000000000000005f52601260045260245ffd5b5f6200082b82620003ad565b91506200083883620003ad565b9250826200084b576200084a620007f2565b5b828204905092915050565b612b3580620008645f395ff3fe608060405234801561000f575f80fd5b506004361061013f575f3560e01c806395d89b41116100b6578063beb08ab91161007a578063beb08ab914610356578063e02767e914610374578063e818795614610392578063f8b2cb4f146103ae578063f968f493146103de578063fe1cce9c146103e85761013f565b806395d89b41146102ae5780639fc5ce2a146102cc578063a9059cbb146102ea578063abc88bda1461031a578063bb0c5c47146103385761013f565b8063313ce56711610108578063313ce567146101ea57806332a2c5d014610208578063507cc0ba146102265780636816521a1461024257806370a08231146102605780638da5cb5b146102905761013f565b8062f6ace71461014357806302cb12441461015f57806306fdde031461017e57806318160ddd1461019c57806328cd3f18146101ba575b5f80fd5b61015d600480360381019061015891906120ff565b610406565b005b610167610bef565b604051610175929190612185565b60405180910390f35b610186610cd4565b6040516101939190612236565b60405180910390f35b6101a4610d5f565b6040516101b19190612256565b60405180910390f35b6101d460048036038101906101cf919061226f565b610d65565b6040516101e191906122b4565b60405180910390f35b6101f2610f69565b6040516101ff91906122e8565b60405180910390f35b610210610f7b565b60405161021d9190612310565b60405180910390f35b610240600480360381019061023b9190612329565b610f82565b005b61024a6113de565b6040516102579190612256565b60405180910390f35b61027a60048036038101906102759190612379565b6113e4565b6040516102879190612256565b60405180910390f35b6102986113f9565b6040516102a59190612310565b60405180910390f35b6102b661141e565b6040516102c39190612236565b60405180910390f35b6102d46114aa565b6040516102e19190612256565b60405180910390f35b61030460048036038101906102ff91906123a4565b6114b0565b60405161031191906122b4565b60405180910390f35b6103226116b4565b60405161032f9190612256565b60405180910390f35b6103406116ba565b60405161034d9190612256565b60405180910390f35b61035e6116c0565b60405161036b9190612310565b60405180910390f35b61037c6116e5565b6040516103899190612256565b60405180910390f35b6103ac60048036038101906103a791906123a4565b6116eb565b005b6103c860048036038101906103c39190612379565b611a07565b6040516103d59190612256565b60405180910390f35b6103e6611a75565b005b6103f0612068565b6040516103fd9190612256565b60405180910390f35b600c5f9054906101000a900473ffffffffffffffffffffffffffffffffffffffff1673ffffffffffffffffffffffffffffffffffffffff163373ffffffffffffffffffffffffffffffffffffffff1614610495576040517f08c379a000000000000000000000000000000000000000000000000000000000815260040161048c90612452565b60405180910390fd5b5f73ffffffffffffffffffffffffffffffffffffffff168573ffffffffffffffffffffffffffffffffffffffff16141580156104fd57505f73ffffffffffffffffffffffffffffffffffffffff168473ffffffffffffffffffffffffffffffffffffffff1614155b61053c576040517f08c379a0000000000000000000000000000000000000000000000000000000008152600401610533906124ba565b60405180910390fd5b5f821015801561054d575060648211155b61058c576040517f08c379a000000000000000000000000000000000000000000000000000000000815260040161058390612522565b60405180910390fd5b8260065f60055f9054906101000a900473ffffffffffffffffffffffffffffffffffffffff1673ffffffffffffffffffffffffffffffffffffffff1673ffffffffffffffffffffffffffffffffffffffff1681526020019081526020015f2054101561062d576040517f08c379a0000000000000000000000000000000000000000000000000000000008152600401610624906125b0565b60405180910390fd5b5f811161066f576040517f08c379a000000000000000000000000000000000000000000000000000000000815260040161066690612618565b60405180910390fd5b5f60025f9054906101000a900460ff1660ff16600a61068e9190612792565b8461069991906127dc565b90505f606484836106aa91906127dc565b6106b4919061284a565b90505f81836106c3919061287a565b90505f60025f9054906101000a900460ff1660ff16600a6106e49190612792565b856106ef91906127dc565b90508360065f60055f9054906101000a900473ffffffffffffffffffffffffffffffffffffffff1673ffffffffffffffffffffffffffffffffffffffff1673ffffffffffffffffffffffffffffffffffffffff1681526020019081526020015f205f82825461075e919061287a565b925050819055508260065f8a73ffffffffffffffffffffffffffffffffffffffff1673ffffffffffffffffffffffffffffffffffffffff1681526020019081526020015f205f8282546107b191906128ad565b925050819055508160065f8b73ffffffffffffffffffffffffffffffffffffffff1673ffffffffffffffffffffffffffffffffffffffff1681526020019081526020015f205f82825461080491906128ad565b925050819055508773ffffffffffffffffffffffffffffffffffffffff1660055f9054906101000a900473ffffffffffffffffffffffffffffffffffffffff1673ffffffffffffffffffffffffffffffffffffffff167fddf252ad1be2c89b69c2b068fc378daa952ba7f163c4a11628f55a4df523b3ef856040516108899190612256565b60405180910390a38873ffffffffffffffffffffffffffffffffffffffff1660055f9054906101000a900473ffffffffffffffffffffffffffffffffffffffff1673ffffffffffffffffffffffffffffffffffffffff167fddf252ad1be2c89b69c2b068fc378daa952ba7f163c4a11628f55a4df523b3ef8460405161090f9190612256565b60405180910390a360095481116109f5578060095f828254610931919061287a565b925050819055508060065f8a73ffffffffffffffffffffffffffffffffffffffff1673ffffffffffffffffffffffffffffffffffffffff1681526020019081526020015f205f82825461098491906128ad565b925050819055508773ffffffffffffffffffffffffffffffffffffffff163073ffffffffffffffffffffffffffffffffffffffff167fddf252ad1be2c89b69c2b068fc378daa952ba7f163c4a11628f55a4df523b3ef836040516109e89190612256565b60405180910390a3610be4565b8060065f60055f9054906101000a900473ffffffffffffffffffffffffffffffffffffffff1673ffffffffffffffffffffffffffffffffffffffff1673ffffffffffffffffffffffffffffffffffffffff1681526020019081526020015f20541015610a96576040517f08c379a0000000000000000000000000000000000000000000000000000000008152600401610a8d906125b0565b60405180910390fd5b8060065f60055f9054906101000a900473ffffffffffffffffffffffffffffffffffffffff1673ffffffffffffffffffffffffffffffffffffffff1673ffffffffffffffffffffffffffffffffffffffff1681526020019081526020015f205f828254610b03919061287a565b925050819055508060065f8a73ffffffffffffffffffffffffffffffffffffffff1673ffffffffffffffffffffffffffffffffffffffff1681526020019081526020015f205f828254610b5691906128ad565b925050819055508773ffffffffffffffffffffffffffffffffffffffff1660055f9054906101000a900473ffffffffffffffffffffffffffffffffffffffff1673ffffffffffffffffffffffffffffffffffffffff167fddf252ad1be2c89b69c2b068fc378daa952ba7f163c4a11628f55a4df523b3ef83604051610bdb9190612256565b60405180910390a35b505050505050505050565b5f80600a54421015610c36576040517f08c379a0000000000000000000000000000000000000000000000000000000008152600401610c2d9061292a565b60405180910390fd5b5f4290505f600a5482610c49919061287a565b90505f62f099c082610c5b919061284a565b9050600a8110610c73575f8094509450505050610cd0565b5f8262f099c0600184610c8691906128ad565b610c9091906127dc565b610c9a919061287a565b90506201518081610cab919061284a565b9550610e106201518082610cbf9190612948565b610cc9919061284a565b9450505050505b9091565b5f8054610ce0906129a5565b80601f0160208091040260200160405190810160405280929190818152602001828054610d0c906129a5565b8015610d575780601f10610d2e57610100808354040283529160200191610d57565b820191905f5260205f20905b815481529060010190602001808311610d3a57829003601f168201915b505050505081565b60035481565b5f8160065f3373ffffffffffffffffffffffffffffffffffffffff1673ffffffffffffffffffffffffffffffffffffffff1681526020019081526020015f20541015610de6576040517f08c379a0000000000000000000000000000000000000000000000000000000008152600401610ddd90612a1f565b60405180910390fd5b5f60025f9054906101000a900460ff1660ff16600a610e059190612792565b83610e1091906127dc565b90508060065f3373ffffffffffffffffffffffffffffffffffffffff1673ffffffffffffffffffffffffffffffffffffffff1681526020019081526020015f205f828254610e5e919061287a565b925050819055508060065f60055f9054906101000a900473ffffffffffffffffffffffffffffffffffffffff1673ffffffffffffffffffffffffffffffffffffffff1673ffffffffffffffffffffffffffffffffffffffff1681526020019081526020015f205f828254610ed291906128ad565b9250508190555060055f9054906101000a900473ffffffffffffffffffffffffffffffffffffffff1673ffffffffffffffffffffffffffffffffffffffff163373ffffffffffffffffffffffffffffffffffffffff167fddf252ad1be2c89b69c2b068fc378daa952ba7f163c4a11628f55a4df523b3ef83604051610f579190612256565b60405180910390a36001915050919050565b60025f9054906101000a900460ff1681565b5f30905090565b600c5f9054906101000a900473ffffffffffffffffffffffffffffffffffffffff1673ffffffffffffffffffffffffffffffffffffffff163373ffffffffffffffffffffffffffffffffffffffff1614611011576040517f08c379a000000000000000000000000000000000000000000000000000000000815260040161100890612452565b60405180910390fd5b5f73ffffffffffffffffffffffffffffffffffffffff168373ffffffffffffffffffffffffffffffffffffffff161415801561107957505f73ffffffffffffffffffffffffffffffffffffffff168273ffffffffffffffffffffffffffffffffffffffff1614155b6110b8576040517f08c379a00000000000000000000000000000000000000000000000000000000081526004016110af906124ba565b60405180910390fd5b8060065f60055f9054906101000a900473ffffffffffffffffffffffffffffffffffffffff1673ffffffffffffffffffffffffffffffffffffffff1673ffffffffffffffffffffffffffffffffffffffff1681526020019081526020015f20541015611159576040517f08c379a0000000000000000000000000000000000000000000000000000000008152600401611150906125b0565b60405180910390fd5b5f60025f9054906101000a900460ff1660ff16600a6111789190612792565b8261118391906127dc565b90505f6064601e8361119591906127dc565b61119f919061284a565b90505f81836111ae919061287a565b90508260065f60055f9054906101000a900473ffffffffffffffffffffffffffffffffffffffff1673ffffffffffffffffffffffffffffffffffffffff1673ffffffffffffffffffffffffffffffffffffffff1681526020019081526020015f205f82825461121d919061287a565b925050819055508160065f8773ffffffffffffffffffffffffffffffffffffffff1673ffffffffffffffffffffffffffffffffffffffff1681526020019081526020015f205f82825461127091906128ad565b925050819055508060065f8873ffffffffffffffffffffffffffffffffffffffff1673ffffffffffffffffffffffffffffffffffffffff1681526020019081526020015f205f8282546112c391906128ad565b925050819055508473ffffffffffffffffffffffffffffffffffffffff1660055f9054906101000a900473ffffffffffffffffffffffffffffffffffffffff1673ffffffffffffffffffffffffffffffffffffffff167fddf252ad1be2c89b69c2b068fc378daa952ba7f163c4a11628f55a4df523b3ef846040516113489190612256565b60405180910390a38573ffffffffffffffffffffffffffffffffffffffff1660055f9054906101000a900473ffffffffffffffffffffffffffffffffffffffff1673ffffffffffffffffffffffffffffffffffffffff167fddf252ad1be2c89b69c2b068fc378daa952ba7f163c4a11628f55a4df523b3ef836040516113ce9190612256565b60405180910390a3505050505050565b60075481565b6006602052805f5260405f205f915090505481565b600c5f9054906101000a900473ffffffffffffffffffffffffffffffffffffffff1681565b6001805461142b906129a5565b80601f0160208091040260200160405190810160405280929190818152602001828054611457906129a5565b80156114a25780601f10611479576101008083540402835291602001916114a2565b820191905f5260205f20905b81548152906001019060200180831161148557829003601f168201915b505050505081565b60085481565b5f8073ffffffffffffffffffffffffffffffffffffffff168373ffffffffffffffffffffffffffffffffffffffff160361151f576040517f08c379a0000000000000000000000000000000000000000000000000000000008152600401611516906124ba565b60405180910390fd5b8160065f3373ffffffffffffffffffffffffffffffffffffffff1673ffffffffffffffffffffffffffffffffffffffff1681526020019081526020015f2054101561159f576040517f08c379a000000000000000000000000000000000000000000000000000000000815260040161159690612a1f565b60405180910390fd5b8160065f3373ffffffffffffffffffffffffffffffffffffffff1673ffffffffffffffffffffffffffffffffffffffff1681526020019081526020015f205f8282546115eb919061287a565b925050819055508160065f8573ffffffffffffffffffffffffffffffffffffffff1673ffffffffffffffffffffffffffffffffffffffff1681526020019081526020015f205f82825461163e91906128ad565b925050819055508273ffffffffffffffffffffffffffffffffffffffff163373ffffffffffffffffffffffffffffffffffffffff167fddf252ad1be2c89b69c2b068fc378daa952ba7f163c4a11628f55a4df523b3ef846040516116a29190612256565b60405180910390a36001905092915050565b600b5481565b60045481565b60055f9054906101000a900473ffffffffffffffffffffffffffffffffffffffff1681565b60095481565b600c5f9054906101000a900473ffffffffffffffffffffffffffffffffffffffff1673ffffffffffffffffffffffffffffffffffffffff163373ffffffffffffffffffffffffffffffffffffffff161461177a576040517f08c379a000000000000000000000000000000000000000000000000000000000815260040161177190612452565b60405180910390fd5b5f73ffffffffffffffffffffffffffffffffffffffff168273ffffffffffffffffffffffffffffffffffffffff16036117e8576040517f08c379a00000000000000000000000000000000000000000000000000000000081526004016117df906124ba565b60405180910390fd5b8060065f60055f9054906101000a900473ffffffffffffffffffffffffffffffffffffffff1673ffffffffffffffffffffffffffffffffffffffff1673ffffffffffffffffffffffffffffffffffffffff1681526020019081526020015f20541015611889576040517f08c379a0000000000000000000000000000000000000000000000000000000008152600401611880906125b0565b60405180910390fd5b5f60025f9054906101000a900460ff1660ff16600a6118a89190612792565b826118b391906127dc565b90508060065f60055f9054906101000a900473ffffffffffffffffffffffffffffffffffffffff1673ffffffffffffffffffffffffffffffffffffffff1673ffffffffffffffffffffffffffffffffffffffff1681526020019081526020015f205f828254611922919061287a565b925050819055508060065f8573ffffffffffffffffffffffffffffffffffffffff1673ffffffffffffffffffffffffffffffffffffffff1681526020019081526020015f205f82825461197591906128ad565b925050819055508273ffffffffffffffffffffffffffffffffffffffff1660055f9054906101000a900473ffffffffffffffffffffffffffffffffffffffff1673ffffffffffffffffffffffffffffffffffffffff167fddf252ad1be2c89b69c2b068fc378daa952ba7f163c4a11628f55a4df523b3ef836040516119fa9190612256565b60405180910390a3505050565b5f60025f9054906101000a900460ff1660ff16600a611a269190612792565b60065f8473ffffffffffffffffffffffffffffffffffffffff1673ffffffffffffffffffffffffffffffffffffffff1681526020019081526020015f2054611a6e919061284a565b9050919050565b600c5f9054906101000a900473ffffffffffffffffffffffffffffffffffffffff1673ffffffffffffffffffffffffffffffffffffffff163373ffffffffffffffffffffffffffffffffffffffff1614611b04576040517f08c379a0000000000000000000000000000000000000000000000000000000008152600401611afb90612452565b60405180910390fd5b600a54421015611b49576040517f08c379a0000000000000000000000000000000000000000000000000000000008152600401611b409061292a565b60405180910390fd5b600754600b5410611b8f576040517f08c379a0000000000000000000000000000000000000000000000000000000008152600401611b8690612a87565b60405180910390fd5b5f4290505f600a5482611ba2919061287a565b90505f62f099c082611bb4919061284a565b90505f600a67ffffffffffffffff811115611bd257611bd1612aa5565b5b604051908082528060200260200182016040528015611c005781602001602082028036833780820191505090505b50905060025f9054906101000a900460ff1660ff16600a611c219190612792565b5f611c2c91906127dc565b815f81518110611c3f57611c3e612ad2565b5b60200260200101818152505060025f9054906101000a900460ff1660ff16600a611c699190612792565b62016e0a611c7791906127dc565b81600181518110611c8b57611c8a612ad2565b5b60200260200101818152505060025f9054906101000a900460ff1660ff16600a611cb59190612792565b6201dbda611cc391906127dc565b81600281518110611cd757611cd6612ad2565b5b60200260200101818152505060025f9054906101000a900460ff1660ff16600a611d019190612792565b62026a9b611d0f91906127dc565b81600381518110611d2357611d22612ad2565b5b60200260200101818152505060025f9054906101000a900460ff1660ff16600a611d4d9190612792565b62032430611d5b91906127dc565b81600481518110611d6f57611d6e612ad2565b5b60200260200101818152505060025f9054906101000a900460ff1660ff16600a611d999190612792565b62041572611da791906127dc565b81600581518110611dbb57611dba612ad2565b5b60200260200101818152505060025f9054906101000a900460ff1660ff16600a611de59190612792565b62054f14611df391906127dc565b81600681518110611e0757611e06612ad2565b5b60200260200101818152505060025f9054906101000a900460ff1660ff16600a611e319190612792565b6206e6cd611e3f91906127dc565b81600781518110611e5357611e52612ad2565b5b60200260200101818152505060025f9054906101000a900460ff1660ff16600a611e7d9190612792565b6208f8d8611e8b91906127dc565b81600881518110611e9f57611e9e612ad2565b5b60200260200101818152505060025f9054906101000a900460ff1660ff16600a611ec99190612792565b620ba9e6611ed791906127dc565b81600981518110611eeb57611eea612ad2565b5b602002602001018181525050600b54821115612062575f80600b5490505b83811015611f4657828181518110611f2457611f23612ad2565b5b602002602001015182611f3791906128ad565b91508080600101915050611f09565b5082600b819055508060065f60055f9054906101000a900473ffffffffffffffffffffffffffffffffffffffff1673ffffffffffffffffffffffffffffffffffffffff1673ffffffffffffffffffffffffffffffffffffffff1681526020019081526020015f205f828254611fbb91906128ad565b925050819055508060045f828254611fd3919061287a565b9250508190555060055f9054906101000a900473ffffffffffffffffffffffffffffffffffffffff1673ffffffffffffffffffffffffffffffffffffffff163073ffffffffffffffffffffffffffffffffffffffff167fddf252ad1be2c89b69c2b068fc378daa952ba7f163c4a11628f55a4df523b3ef836040516120589190612256565b60405180910390a3505b50505050565b600a5481565b5f80fd5b5f73ffffffffffffffffffffffffffffffffffffffff82169050919050565b5f61209b82612072565b9050919050565b6120ab81612091565b81146120b5575f80fd5b50565b5f813590506120c6816120a2565b92915050565b5f819050919050565b6120de816120cc565b81146120e8575f80fd5b50565b5f813590506120f9816120d5565b92915050565b5f805f805f60a086880312156121185761211761206e565b5b5f612125888289016120b8565b9550506020612136888289016120b8565b9450506040612147888289016120eb565b9350506060612158888289016120eb565b9250506080612169888289016120eb565b9150509295509295909350565b61217f816120cc565b82525050565b5f6040820190506121985f830185612176565b6121a56020830184612176565b9392505050565b5f81519050919050565b5f82825260208201905092915050565b5f5b838110156121e35780820151818401526020810190506121c8565b5f8484015250505050565b5f601f19601f8301169050919050565b5f612208826121ac565b61221281856121b6565b93506122228185602086016121c6565b61222b816121ee565b840191505092915050565b5f6020820190508181035f83015261224e81846121fe565b905092915050565b5f6020820190506122695f830184612176565b92915050565b5f602082840312156122845761228361206e565b5b5f612291848285016120eb565b91505092915050565b5f8115159050919050565b6122ae8161229a565b82525050565b5f6020820190506122c75f8301846122a5565b92915050565b5f60ff82169050919050565b6122e2816122cd565b82525050565b5f6020820190506122fb5f8301846122d9565b92915050565b61230a81612091565b82525050565b5f6020820190506123235f830184612301565b92915050565b5f805f606084860312156123405761233f61206e565b5b5f61234d868287016120b8565b935050602061235e868287016120b8565b925050604061236f868287016120eb565b9150509250925092565b5f6020828403121561238e5761238d61206e565b5b5f61239b848285016120b8565b91505092915050565b5f80604083850312156123ba576123b961206e565b5b5f6123c7858286016120b8565b92505060206123d8858286016120eb565b9150509250929050565b7f4f6e6c7920636f6e7472616374206f776e65722063616e2063616c6c207468695f8201527f732066756e6374696f6e00000000000000000000000000000000000000000000602082015250565b5f61243c602a836121b6565b9150612447826123e2565b604082019050919050565b5f6020820190508181035f83015261246981612430565b9050919050565b7f496e76616c6964206164647265737300000000000000000000000000000000005f82015250565b5f6124a4600f836121b6565b91506124af82612470565b602082019050919050565b5f6020820190508181035f8301526124d181612498565b9050919050565b7f496e76616c6964206672616374696f6e2070657263656e7461676500000000005f82015250565b5f61250c601b836121b6565b9150612517826124d8565b602082019050919050565b5f6020820190508181035f83015261253981612500565b9050919050565b7f496e73756666696369656e742062616c616e636520696e2070726f6a656374205f8201527f77616c6c65740000000000000000000000000000000000000000000000000000602082015250565b5f61259a6026836121b6565b91506125a582612540565b604082019050919050565b5f6020820190508181035f8301526125c78161258e565b9050919050565b7f496e76616c696420616d6f756e740000000000000000000000000000000000005f82015250565b5f612602600e836121b6565b915061260d826125ce565b602082019050919050565b5f6020820190508181035f83015261262f816125f6565b9050919050565b7f4e487b71000000000000000000000000000000000000000000000000000000005f52601160045260245ffd5b5f8160011c9050919050565b5f808291508390505b60018511156126b85780860481111561269457612693612636565b5b60018516156126a35780820291505b80810290506126b185612663565b9450612678565b94509492505050565b5f826126d0576001905061278b565b816126dd575f905061278b565b81600181146126f357600281146126fd5761272c565b600191505061278b565b60ff84111561270f5761270e612636565b5b8360020a91508482111561272657612725612636565b5b5061278b565b5060208310610133831016604e8410600b84101617156127615782820a90508381111561275c5761275b612636565b5b61278b565b61276e848484600161266f565b9250905081840481111561278557612784612636565b5b81810290505b9392505050565b5f61279c826120cc565b91506127a7836120cc565b92506127d47fffffffffffffffffffffffffffffffffffffffffffffffffffffffffffffffff84846126c1565b905092915050565b5f6127e6826120cc565b91506127f1836120cc565b92508282026127ff816120cc565b9150828204841483151761281657612815612636565b5b5092915050565b7f4e487b71000000000000000000000000000000000000000000000000000000005f52601260045260245ffd5b5f612854826120cc565b915061285f836120cc565b92508261286f5761286e61281d565b5b828204905092915050565b5f612884826120cc565b915061288f836120cc565b92508282039050818111156128a7576128a6612636565b5b92915050565b5f6128b7826120cc565b91506128c2836120cc565b92508282019050808211156128da576128d9612636565b5b92915050565b7f546f6b656e7320617265207374696c6c206c6f636b65640000000000000000005f82015250565b5f6129146017836121b6565b915061291f826128e0565b602082019050919050565b5f6020820190508181035f83015261294181612908565b9050919050565b5f612952826120cc565b915061295d836120cc565b92508261296d5761296c61281d565b5b828206905092915050565b7f4e487b71000000000000000000000000000000000000000000000000000000005f52602260045260245ffd5b5f60028204905060018216806129bc57607f821691505b6020821081036129cf576129ce612978565b5b50919050565b7f496e73756666696369656e742062616c616e63650000000000000000000000005f82015250565b5f612a096014836121b6565b9150612a14826129d5565b602082019050919050565b5f6020820190508181035f830152612a36816129fd565b9050919050565b7f416c6c20746f6b656e7320756e6c6f636b6564000000000000000000000000005f82015250565b5f612a716013836121b6565b9150612a7c82612a3d565b602082019050919050565b5f6020820190508181035f830152612a9e81612a65565b9050919050565b7f4e487b71000000000000000000000000000000000000000000000000000000005f52604160045260245ffd5b7f4e487b71000000000000000000000000000000000000000000000000000000005f52603260045260245ffdfea2646970667358221220b3df2451f98882f889d47e00fb13559baf201d45e884aac078296af761588eef64736f6c63430008180033",
					"opcodes": "PUSH1 0x80 PUSH1 0x40 MSTORE PUSH1 0x40 MLOAD DUP1 PUSH1 0x40 ADD PUSH1 0x40 MSTORE DUP1 PUSH1 0xA DUP2 MSTORE PUSH1 0x20 ADD PUSH32 0x5368617265546F6B656E00000000000000000000000000000000000000000000 DUP2 MSTORE POP PUSH0 SWAP1 DUP2 PUSH3 0x49 SWAP2 SWAP1 PUSH3 0x4F7 JUMP JUMPDEST POP PUSH1 0x40 MLOAD DUP1 PUSH1 0x40 ADD PUSH1 0x40 MSTORE DUP1 PUSH1 0x3 DUP2 MSTORE PUSH1 0x20 ADD PUSH32 0x5354450000000000000000000000000000000000000000000000000000000000 DUP2 MSTORE POP PUSH1 0x1 SWAP1 DUP2 PUSH3 0x90 SWAP2 SWAP1 PUSH3 0x4F7 JUMP JUMPDEST POP PUSH1 0x12 PUSH1 0x2 PUSH0 PUSH2 0x100 EXP DUP2 SLOAD DUP2 PUSH1 0xFF MUL NOT AND SWAP1 DUP4 PUSH1 0xFF AND MUL OR SWAP1 SSTORE POP PUSH1 0x2 PUSH0 SWAP1 SLOAD SWAP1 PUSH2 0x100 EXP SWAP1 DIV PUSH1 0xFF AND PUSH1 0xFF AND PUSH1 0xA PUSH3 0xCC SWAP2 SWAP1 PUSH3 0x758 JUMP JUMPDEST PUSH3 0x989680 PUSH3 0xDC SWAP2 SWAP1 PUSH3 0x7A8 JUMP JUMPDEST PUSH1 0x3 SSTORE CALLER PUSH1 0x5 PUSH0 PUSH2 0x100 EXP DUP2 SLOAD DUP2 PUSH20 0xFFFFFFFFFFFFFFFFFFFFFFFFFFFFFFFFFFFFFFFF MUL NOT AND SWAP1 DUP4 PUSH20 0xFFFFFFFFFFFFFFFFFFFFFFFFFFFFFFFFFFFFFFFF AND MUL OR SWAP1 SSTORE POP PUSH1 0x64 PUSH1 0x1E PUSH1 0x3 SLOAD PUSH3 0x132 SWAP2 SWAP1 PUSH3 0x7A8 JUMP JUMPDEST PUSH3 0x13E SWAP2 SWAP1 PUSH3 0x81F JUMP JUMPDEST PUSH1 0x7 SSTORE PUSH1 0x64 PUSH1 0x14 PUSH1 0x3 SLOAD PUSH3 0x154 SWAP2 SWAP1 PUSH3 0x7A8 JUMP JUMPDEST PUSH3 0x160 SWAP2 SWAP1 PUSH3 0x81F JUMP JUMPDEST PUSH1 0x8 SSTORE PUSH1 0x64 PUSH1 0x32 PUSH1 0x3 SLOAD PUSH3 0x176 SWAP2 SWAP1 PUSH3 0x7A8 JUMP JUMPDEST PUSH3 0x182 SWAP2 SWAP1 PUSH3 0x81F JUMP JUMPDEST PUSH1 0x9 SSTORE PUSH0 PUSH1 0xB SSTORE CALLVALUE DUP1 ISZERO PUSH3 0x195 JUMPI PUSH0 DUP1 REVERT JUMPDEST POP CALLER PUSH1 0xC PUSH0 PUSH2 0x100 EXP DUP2 SLOAD DUP2 PUSH20 0xFFFFFFFFFFFFFFFFFFFFFFFFFFFFFFFFFFFFFFFF MUL NOT AND SWAP1 DUP4 PUSH20 0xFFFFFFFFFFFFFFFFFFFFFFFFFFFFFFFFFFFFFFFF AND MUL OR SWAP1 SSTORE POP PUSH1 0x8 SLOAD PUSH1 0x6 PUSH0 PUSH1 0x5 PUSH0 SWAP1 SLOAD SWAP1 PUSH2 0x100 EXP SWAP1 DIV PUSH20 0xFFFFFFFFFFFFFFFFFFFFFFFFFFFFFFFFFFFFFFFF AND PUSH20 0xFFFFFFFFFFFFFFFFFFFFFFFFFFFFFFFFFFFFFFFF AND PUSH20 0xFFFFFFFFFFFFFFFFFFFFFFFFFFFFFFFFFFFFFFFF AND DUP2 MSTORE PUSH1 0x20 ADD SWAP1 DUP2 MSTORE PUSH1 0x20 ADD PUSH0 KECCAK256 DUP2 SWAP1 SSTORE POP PUSH0 PUSH1 0x6 PUSH0 ADDRESS PUSH20 0xFFFFFFFFFFFFFFFFFFFFFFFFFFFFFFFFFFFFFFFF AND PUSH20 0xFFFFFFFFFFFFFFFFFFFFFFFFFFFFFFFFFFFFFFFF AND DUP2 MSTORE PUSH1 0x20 ADD SWAP1 DUP2 MSTORE PUSH1 0x20 ADD PUSH0 KECCAK256 DUP2 SWAP1 SSTORE POP TIMESTAMP PUSH1 0xA DUP2 SWAP1 SSTORE POP PUSH1 0x7 SLOAD PUSH1 0x4 DUP2 SWAP1 SSTORE POP PUSH3 0x856 JUMP JUMPDEST PUSH0 DUP2 MLOAD SWAP1 POP SWAP2 SWAP1 POP JUMP JUMPDEST PUSH32 0x4E487B7100000000000000000000000000000000000000000000000000000000 PUSH0 MSTORE PUSH1 0x41 PUSH1 0x4 MSTORE PUSH1 0x24 PUSH0 REVERT JUMPDEST PUSH32 0x4E487B7100000000000000000000000000000000000000000000000000000000 PUSH0 MSTORE PUSH1 0x22 PUSH1 0x4 MSTORE PUSH1 0x24 PUSH0 REVERT JUMPDEST PUSH0 PUSH1 0x2 DUP3 DIV SWAP1 POP PUSH1 0x1 DUP3 AND DUP1 PUSH3 0x30F JUMPI PUSH1 0x7F DUP3 AND SWAP2 POP JUMPDEST PUSH1 0x20 DUP3 LT DUP2 SUB PUSH3 0x325 JUMPI PUSH3 0x324 PUSH3 0x2CA JUMP JUMPDEST JUMPDEST POP SWAP2 SWAP1 POP JUMP JUMPDEST PUSH0 DUP2 SWAP1 POP DUP2 PUSH0 MSTORE PUSH1 0x20 PUSH0 KECCAK256 SWAP1 POP SWAP2 SWAP1 POP JUMP JUMPDEST PUSH0 PUSH1 0x20 PUSH1 0x1F DUP4 ADD DIV SWAP1 POP SWAP2 SWAP1 POP JUMP JUMPDEST PUSH0 DUP3 DUP3 SHL SWAP1 POP SWAP3 SWAP2 POP POP JUMP JUMPDEST PUSH0 PUSH1 0x8 DUP4 MUL PUSH3 0x389 PUSH32 0xFFFFFFFFFFFFFFFFFFFFFFFFFFFFFFFFFFFFFFFFFFFFFFFFFFFFFFFFFFFFFFFF DUP3 PUSH3 0x34C JUMP JUMPDEST PUSH3 0x395 DUP7 DUP4 PUSH3 0x34C JUMP JUMPDEST SWAP6 POP DUP1 NOT DUP5 AND SWAP4 POP DUP1 DUP7 AND DUP5 OR SWAP3 POP POP POP SWAP4 SWAP3 POP POP POP JUMP JUMPDEST PUSH0 DUP2 SWAP1 POP SWAP2 SWAP1 POP JUMP JUMPDEST PUSH0 DUP2 SWAP1 POP SWAP2 SWAP1 POP JUMP JUMPDEST PUSH0 PUSH3 0x3DF PUSH3 0x3D9 PUSH3 0x3D3 DUP5 PUSH3 0x3AD JUMP JUMPDEST PUSH3 0x3B6 JUMP JUMPDEST PUSH3 0x3AD JUMP JUMPDEST SWAP1 POP SWAP2 SWAP1 POP JUMP JUMPDEST PUSH0 DUP2 SWAP1 POP SWAP2 SWAP1 POP JUMP JUMPDEST PUSH3 0x3FA DUP4 PUSH3 0x3BF JUMP JUMPDEST PUSH3 0x412 PUSH3 0x409 DUP3 PUSH3 0x3E6 JUMP JUMPDEST DUP5 DUP5 SLOAD PUSH3 0x358 JUMP JUMPDEST DUP3 SSTORE POP POP POP POP JUMP JUMPDEST PUSH0 SWAP1 JUMP JUMPDEST PUSH3 0x428 PUSH3 0x41A JUMP JUMPDEST PUSH3 0x435 DUP2 DUP5 DUP5 PUSH3 0x3EF JUMP JUMPDEST POP POP POP JUMP JUMPDEST JUMPDEST DUP2 DUP2 LT ISZERO PUSH3 0x45C JUMPI PUSH3 0x450 PUSH0 DUP3 PUSH3 0x41E JUMP JUMPDEST PUSH1 0x1 DUP2 ADD SWAP1 POP PUSH3 0x43B JUMP JUMPDEST POP POP JUMP JUMPDEST PUSH1 0x1F DUP3 GT ISZERO PUSH3 0x4AB JUMPI PUSH3 0x475 DUP2 PUSH3 0x32B JUMP JUMPDEST PUSH3 0x480 DUP5 PUSH3 0x33D JUMP JUMPDEST DUP2 ADD PUSH1 0x20 DUP6 LT ISZERO PUSH3 0x490 JUMPI DUP2 SWAP1 POP JUMPDEST PUSH3 0x4A8 PUSH3 0x49F DUP6 PUSH3 0x33D JUMP JUMPDEST DUP4 ADD DUP3 PUSH3 0x43A JUMP JUMPDEST POP POP JUMPDEST POP POP POP JUMP JUMPDEST PUSH0 DUP3 DUP3 SHR SWAP1 POP SWAP3 SWAP2 POP POP JUMP JUMPDEST PUSH0 PUSH3 0x4CD PUSH0 NOT DUP5 PUSH1 0x8 MUL PUSH3 0x4B0 JUMP JUMPDEST NOT DUP1 DUP4 AND SWAP2 POP POP SWAP3 SWAP2 POP POP JUMP JUMPDEST PUSH0 PUSH3 0x4E7 DUP4 DUP4 PUSH3 0x4BC JUMP JUMPDEST SWAP2 POP DUP3 PUSH1 0x2 MUL DUP3 OR SWAP1 POP SWAP3 SWAP2 POP POP JUMP JUMPDEST PUSH3 0x502 DUP3 PUSH3 0x293 JUMP JUMPDEST PUSH8 0xFFFFFFFFFFFFFFFF DUP2 GT ISZERO PUSH3 0x51E JUMPI PUSH3 0x51D PUSH3 0x29D JUMP JUMPDEST JUMPDEST PUSH3 0x52A DUP3 SLOAD PUSH3 0x2F7 JUMP JUMPDEST PUSH3 0x537 DUP3 DUP3 DUP6 PUSH3 0x460 JUMP JUMPDEST PUSH0 PUSH1 0x20 SWAP1 POP PUSH1 0x1F DUP4 GT PUSH1 0x1 DUP2 EQ PUSH3 0x56D JUMPI PUSH0 DUP5 ISZERO PUSH3 0x558 JUMPI DUP3 DUP8 ADD MLOAD SWAP1 POP JUMPDEST PUSH3 0x564 DUP6 DUP3 PUSH3 0x4DA JUMP JUMPDEST DUP7 SSTORE POP PUSH3 0x5D3 JUMP JUMPDEST PUSH1 0x1F NOT DUP5 AND PUSH3 0x57D DUP7 PUSH3 0x32B JUMP JUMPDEST PUSH0 JUMPDEST DUP3 DUP2 LT ISZERO PUSH3 0x5A6 JUMPI DUP5 DUP10 ADD MLOAD DUP3 SSTORE PUSH1 0x1 DUP3 ADD SWAP2 POP PUSH1 0x20 DUP6 ADD SWAP5 POP PUSH1 0x20 DUP2 ADD SWAP1 POP PUSH3 0x57F JUMP JUMPDEST DUP7 DUP4 LT ISZERO PUSH3 0x5C6 JUMPI DUP5 DUP10 ADD MLOAD PUSH3 0x5C2 PUSH1 0x1F DUP10 AND DUP3 PUSH3 0x4BC JUMP JUMPDEST DUP4 SSTORE POP JUMPDEST PUSH1 0x1 PUSH1 0x2 DUP9 MUL ADD DUP9 SSTORE POP POP POP JUMPDEST POP POP POP POP POP POP JUMP JUMPDEST PUSH32 0x4E487B7100000000000000000000000000000000000000000000000000000000 PUSH0 MSTORE PUSH1 0x11 PUSH1 0x4 MSTORE PUSH1 0x24 PUSH0 REVERT JUMPDEST PUSH0 DUP2 PUSH1 0x1 SHR SWAP1 POP SWAP2 SWAP1 POP JUMP JUMPDEST PUSH0 DUP1 DUP3 SWAP2 POP DUP4 SWAP1 POP JUMPDEST PUSH1 0x1 DUP6 GT ISZERO PUSH3 0x665 JUMPI DUP1 DUP7 DIV DUP2 GT ISZERO PUSH3 0x63D JUMPI PUSH3 0x63C PUSH3 0x5DB JUMP JUMPDEST JUMPDEST PUSH1 0x1 DUP6 AND ISZERO PUSH3 0x64D JUMPI DUP1 DUP3 MUL SWAP2 POP JUMPDEST DUP1 DUP2 MUL SWAP1 POP PUSH3 0x65D DUP6 PUSH3 0x608 JUMP JUMPDEST SWAP5 POP PUSH3 0x61D JUMP JUMPDEST SWAP5 POP SWAP5 SWAP3 POP POP POP JUMP JUMPDEST PUSH0 DUP3 PUSH3 0x67F JUMPI PUSH1 0x1 SWAP1 POP PUSH3 0x751 JUMP JUMPDEST DUP2 PUSH3 0x68E JUMPI PUSH0 SWAP1 POP PUSH3 0x751 JUMP JUMPDEST DUP2 PUSH1 0x1 DUP2 EQ PUSH3 0x6A7 JUMPI PUSH1 0x2 DUP2 EQ PUSH3 0x6B2 JUMPI PUSH3 0x6E8 JUMP JUMPDEST PUSH1 0x1 SWAP2 POP POP PUSH3 0x751 JUMP JUMPDEST PUSH1 0xFF DUP5 GT ISZERO PUSH3 0x6C7 JUMPI PUSH3 0x6C6 PUSH3 0x5DB JUMP JUMPDEST JUMPDEST DUP4 PUSH1 0x2 EXP SWAP2 POP DUP5 DUP3 GT ISZERO PUSH3 0x6E1 JUMPI PUSH3 0x6E0 PUSH3 0x5DB JUMP JUMPDEST JUMPDEST POP PUSH3 0x751 JUMP JUMPDEST POP PUSH1 0x20 DUP4 LT PUSH2 0x133 DUP4 LT AND PUSH1 0x4E DUP5 LT PUSH1 0xB DUP5 LT AND OR ISZERO PUSH3 0x722 JUMPI DUP3 DUP3 EXP SWAP1 POP DUP4 DUP2 GT ISZERO PUSH3 0x71C JUMPI PUSH3 0x71B PUSH3 0x5DB JUMP JUMPDEST JUMPDEST PUSH3 0x751 JUMP JUMPDEST PUSH3 0x731 DUP5 DUP5 DUP5 PUSH1 0x1 PUSH3 0x614 JUMP JUMPDEST SWAP3 POP SWAP1 POP DUP2 DUP5 DIV DUP2 GT ISZERO PUSH3 0x74B JUMPI PUSH3 0x74A PUSH3 0x5DB JUMP JUMPDEST JUMPDEST DUP2 DUP2 MUL SWAP1 POP JUMPDEST SWAP4 SWAP3 POP POP POP JUMP JUMPDEST PUSH0 PUSH3 0x764 DUP3 PUSH3 0x3AD JUMP JUMPDEST SWAP2 POP PUSH3 0x771 DUP4 PUSH3 0x3AD JUMP JUMPDEST SWAP3 POP PUSH3 0x7A0 PUSH32 0xFFFFFFFFFFFFFFFFFFFFFFFFFFFFFFFFFFFFFFFFFFFFFFFFFFFFFFFFFFFFFFFF DUP5 DUP5 PUSH3 0x66E JUMP JUMPDEST SWAP1 POP SWAP3 SWAP2 POP POP JUMP JUMPDEST PUSH0 PUSH3 0x7B4 DUP3 PUSH3 0x3AD JUMP JUMPDEST SWAP2 POP PUSH3 0x7C1 DUP4 PUSH3 0x3AD JUMP JUMPDEST SWAP3 POP DUP3 DUP3 MUL PUSH3 0x7D1 DUP2 PUSH3 0x3AD JUMP JUMPDEST SWAP2 POP DUP3 DUP3 DIV DUP5 EQ DUP4 ISZERO OR PUSH3 0x7EB JUMPI PUSH3 0x7EA PUSH3 0x5DB JUMP JUMPDEST JUMPDEST POP SWAP3 SWAP2 POP POP JUMP JUMPDEST PUSH32 0x4E487B7100000000000000000000000000000000000000000000000000000000 PUSH0 MSTORE PUSH1 0x12 PUSH1 0x4 MSTORE PUSH1 0x24 PUSH0 REVERT JUMPDEST PUSH0 PUSH3 0x82B DUP3 PUSH3 0x3AD JUMP JUMPDEST SWAP2 POP PUSH3 0x838 DUP4 PUSH3 0x3AD JUMP JUMPDEST SWAP3 POP DUP3 PUSH3 0x84B JUMPI PUSH3 0x84A PUSH3 0x7F2 JUMP JUMPDEST JUMPDEST DUP3 DUP3 DIV SWAP1 POP SWAP3 SWAP2 POP POP JUMP JUMPDEST PUSH2 0x2B35 DUP1 PUSH3 0x864 PUSH0 CODECOPY PUSH0 RETURN INVALID PUSH1 0x80 PUSH1 0x40 MSTORE CALLVALUE DUP1 ISZERO PUSH2 0xF JUMPI PUSH0 DUP1 REVERT JUMPDEST POP PUSH1 0x4 CALLDATASIZE LT PUSH2 0x13F JUMPI PUSH0 CALLDATALOAD PUSH1 0xE0 SHR DUP1 PUSH4 0x95D89B41 GT PUSH2 0xB6 JUMPI DUP1 PUSH4 0xBEB08AB9 GT PUSH2 0x7A JUMPI DUP1 PUSH4 0xBEB08AB9 EQ PUSH2 0x356 JUMPI DUP1 PUSH4 0xE02767E9 EQ PUSH2 0x374 JUMPI DUP1 PUSH4 0xE8187956 EQ PUSH2 0x392 JUMPI DUP1 PUSH4 0xF8B2CB4F EQ PUSH2 0x3AE JUMPI DUP1 PUSH4 0xF968F493 EQ PUSH2 0x3DE JUMPI DUP1 PUSH4 0xFE1CCE9C EQ PUSH2 0x3E8 JUMPI PUSH2 0x13F JUMP JUMPDEST DUP1 PUSH4 0x95D89B41 EQ PUSH2 0x2AE JUMPI DUP1 PUSH4 0x9FC5CE2A EQ PUSH2 0x2CC JUMPI DUP1 PUSH4 0xA9059CBB EQ PUSH2 0x2EA JUMPI DUP1 PUSH4 0xABC88BDA EQ PUSH2 0x31A JUMPI DUP1 PUSH4 0xBB0C5C47 EQ PUSH2 0x338 JUMPI PUSH2 0x13F JUMP JUMPDEST DUP1 PUSH4 0x313CE567 GT PUSH2 0x108 JUMPI DUP1 PUSH4 0x313CE567 EQ PUSH2 0x1EA JUMPI DUP1 PUSH4 0x32A2C5D0 EQ PUSH2 0x208 JUMPI DUP1 PUSH4 0x507CC0BA EQ PUSH2 0x226 JUMPI DUP1 PUSH4 0x6816521A EQ PUSH2 0x242 JUMPI DUP1 PUSH4 0x70A08231 EQ PUSH2 0x260 JUMPI DUP1 PUSH4 0x8DA5CB5B EQ PUSH2 0x290 JUMPI PUSH2 0x13F JUMP JUMPDEST DUP1 PUSH3 0xF6ACE7 EQ PUSH2 0x143 JUMPI DUP1 PUSH4 0x2CB1244 EQ PUSH2 0x15F JUMPI DUP1 PUSH4 0x6FDDE03 EQ PUSH2 0x17E JUMPI DUP1 PUSH4 0x18160DDD EQ PUSH2 0x19C JUMPI DUP1 PUSH4 0x28CD3F18 EQ PUSH2 0x1BA JUMPI JUMPDEST PUSH0 DUP1 REVERT JUMPDEST PUSH2 0x15D PUSH1 0x4 DUP1 CALLDATASIZE SUB DUP2 ADD SWAP1 PUSH2 0x158 SWAP2 SWAP1 PUSH2 0x20FF JUMP JUMPDEST PUSH2 0x406 JUMP JUMPDEST STOP JUMPDEST PUSH2 0x167 PUSH2 0xBEF JUMP JUMPDEST PUSH1 0x40 MLOAD PUSH2 0x175 SWAP3 SWAP2 SWAP1 PUSH2 0x2185 JUMP JUMPDEST PUSH1 0x40 MLOAD DUP1 SWAP2 SUB SWAP1 RETURN JUMPDEST PUSH2 0x186 PUSH2 0xCD4 JUMP JUMPDEST PUSH1 0x40 MLOAD PUSH2 0x193 SWAP2 SWAP1 PUSH2 0x2236 JUMP JUMPDEST PUSH1 0x40 MLOAD DUP1 SWAP2 SUB SWAP1 RETURN JUMPDEST PUSH2 0x1A4 PUSH2 0xD5F JUMP JUMPDEST PUSH1 0x40 MLOAD PUSH2 0x1B1 SWAP2 SWAP1 PUSH2 0x2256 JUMP JUMPDEST PUSH1 0x40 MLOAD DUP1 SWAP2 SUB SWAP1 RETURN JUMPDEST PUSH2 0x1D4 PUSH1 0x4 DUP1 CALLDATASIZE SUB DUP2 ADD SWAP1 PUSH2 0x1CF SWAP2 SWAP1 PUSH2 0x226F JUMP JUMPDEST PUSH2 0xD65 JUMP JUMPDEST PUSH1 0x40 MLOAD PUSH2 0x1E1 SWAP2 SWAP1 PUSH2 0x22B4 JUMP JUMPDEST PUSH1 0x40 MLOAD DUP1 SWAP2 SUB SWAP1 RETURN JUMPDEST PUSH2 0x1F2 PUSH2 0xF69 JUMP JUMPDEST PUSH1 0x40 MLOAD PUSH2 0x1FF SWAP2 SWAP1 PUSH2 0x22E8 JUMP JUMPDEST PUSH1 0x40 MLOAD DUP1 SWAP2 SUB SWAP1 RETURN JUMPDEST PUSH2 0x210 PUSH2 0xF7B JUMP JUMPDEST PUSH1 0x40 MLOAD PUSH2 0x21D SWAP2 SWAP1 PUSH2 0x2310 JUMP JUMPDEST PUSH1 0x40 MLOAD DUP1 SWAP2 SUB SWAP1 RETURN JUMPDEST PUSH2 0x240 PUSH1 0x4 DUP1 CALLDATASIZE SUB DUP2 ADD SWAP1 PUSH2 0x23B SWAP2 SWAP1 PUSH2 0x2329 JUMP JUMPDEST PUSH2 0xF82 JUMP JUMPDEST STOP JUMPDEST PUSH2 0x24A PUSH2 0x13DE JUMP JUMPDEST PUSH1 0x40 MLOAD PUSH2 0x257 SWAP2 SWAP1 PUSH2 0x2256 JUMP JUMPDEST PUSH1 0x40 MLOAD DUP1 SWAP2 SUB SWAP1 RETURN JUMPDEST PUSH2 0x27A PUSH1 0x4 DUP1 CALLDATASIZE SUB DUP2 ADD SWAP1 PUSH2 0x275 SWAP2 SWAP1 PUSH2 0x2379 JUMP JUMPDEST PUSH2 0x13E4 JUMP JUMPDEST PUSH1 0x40 MLOAD PUSH2 0x287 SWAP2 SWAP1 PUSH2 0x2256 JUMP JUMPDEST PUSH1 0x40 MLOAD DUP1 SWAP2 SUB SWAP1 RETURN JUMPDEST PUSH2 0x298 PUSH2 0x13F9 JUMP JUMPDEST PUSH1 0x40 MLOAD PUSH2 0x2A5 SWAP2 SWAP1 PUSH2 0x2310 JUMP JUMPDEST PUSH1 0x40 MLOAD DUP1 SWAP2 SUB SWAP1 RETURN JUMPDEST PUSH2 0x2B6 PUSH2 0x141E JUMP JUMPDEST PUSH1 0x40 MLOAD PUSH2 0x2C3 SWAP2 SWAP1 PUSH2 0x2236 JUMP JUMPDEST PUSH1 0x40 MLOAD DUP1 SWAP2 SUB SWAP1 RETURN JUMPDEST PUSH2 0x2D4 PUSH2 0x14AA JUMP JUMPDEST PUSH1 0x40 MLOAD PUSH2 0x2E1 SWAP2 SWAP1 PUSH2 0x2256 JUMP JUMPDEST PUSH1 0x40 MLOAD DUP1 SWAP2 SUB SWAP1 RETURN JUMPDEST PUSH2 0x304 PUSH1 0x4 DUP1 CALLDATASIZE SUB DUP2 ADD SWAP1 PUSH2 0x2FF SWAP2 SWAP1 PUSH2 0x23A4 JUMP JUMPDEST PUSH2 0x14B0 JUMP JUMPDEST PUSH1 0x40 MLOAD PUSH2 0x311 SWAP2 SWAP1 PUSH2 0x22B4 JUMP JUMPDEST PUSH1 0x40 MLOAD DUP1 SWAP2 SUB SWAP1 RETURN JUMPDEST PUSH2 0x322 PUSH2 0x16B4 JUMP JUMPDEST PUSH1 0x40 MLOAD PUSH2 0x32F SWAP2 SWAP1 PUSH2 0x2256 JUMP JUMPDEST PUSH1 0x40 MLOAD DUP1 SWAP2 SUB SWAP1 RETURN JUMPDEST PUSH2 0x340 PUSH2 0x16BA JUMP JUMPDEST PUSH1 0x40 MLOAD PUSH2 0x34D SWAP2 SWAP1 PUSH2 0x2256 JUMP JUMPDEST PUSH1 0x40 MLOAD DUP1 SWAP2 SUB SWAP1 RETURN JUMPDEST PUSH2 0x35E PUSH2 0x16C0 JUMP JUMPDEST PUSH1 0x40 MLOAD PUSH2 0x36B SWAP2 SWAP1 PUSH2 0x2310 JUMP JUMPDEST PUSH1 0x40 MLOAD DUP1 SWAP2 SUB SWAP1 RETURN JUMPDEST PUSH2 0x37C PUSH2 0x16E5 JUMP JUMPDEST PUSH1 0x40 MLOAD PUSH2 0x389 SWAP2 SWAP1 PUSH2 0x2256 JUMP JUMPDEST PUSH1 0x40 MLOAD DUP1 SWAP2 SUB SWAP1 RETURN JUMPDEST PUSH2 0x3AC PUSH1 0x4 DUP1 CALLDATASIZE SUB DUP2 ADD SWAP1 PUSH2 0x3A7 SWAP2 SWAP1 PUSH2 0x23A4 JUMP JUMPDEST PUSH2 0x16EB JUMP JUMPDEST STOP JUMPDEST PUSH2 0x3C8 PUSH1 0x4 DUP1 CALLDATASIZE SUB DUP2 ADD SWAP1 PUSH2 0x3C3 SWAP2 SWAP1 PUSH2 0x2379 JUMP JUMPDEST PUSH2 0x1A07 JUMP JUMPDEST PUSH1 0x40 MLOAD PUSH2 0x3D5 SWAP2 SWAP1 PUSH2 0x2256 JUMP JUMPDEST PUSH1 0x40 MLOAD DUP1 SWAP2 SUB SWAP1 RETURN JUMPDEST PUSH2 0x3E6 PUSH2 0x1A75 JUMP JUMPDEST STOP JUMPDEST PUSH2 0x3F0 PUSH2 0x2068 JUMP JUMPDEST PUSH1 0x40 MLOAD PUSH2 0x3FD SWAP2 SWAP1 PUSH2 0x2256 JUMP JUMPDEST PUSH1 0x40 MLOAD DUP1 SWAP2 SUB SWAP1 RETURN JUMPDEST PUSH1 0xC PUSH0 SWAP1 SLOAD SWAP1 PUSH2 0x100 EXP SWAP1 DIV PUSH20 0xFFFFFFFFFFFFFFFFFFFFFFFFFFFFFFFFFFFFFFFF AND PUSH20 0xFFFFFFFFFFFFFFFFFFFFFFFFFFFFFFFFFFFFFFFF AND CALLER PUSH20 0xFFFFFFFFFFFFFFFFFFFFFFFFFFFFFFFFFFFFFFFF AND EQ PUSH2 0x495 JUMPI PUSH1 0x40 MLOAD PUSH32 0x8C379A000000000000000000000000000000000000000000000000000000000 DUP2 MSTORE PUSH1 0x4 ADD PUSH2 0x48C SWAP1 PUSH2 0x2452 JUMP JUMPDEST PUSH1 0x40 MLOAD DUP1 SWAP2 SUB SWAP1 REVERT JUMPDEST PUSH0 PUSH20 0xFFFFFFFFFFFFFFFFFFFFFFFFFFFFFFFFFFFFFFFF AND DUP6 PUSH20 0xFFFFFFFFFFFFFFFFFFFFFFFFFFFFFFFFFFFFFFFF AND EQ ISZERO DUP1 ISZERO PUSH2 0x4FD JUMPI POP PUSH0 PUSH20 0xFFFFFFFFFFFFFFFFFFFFFFFFFFFFFFFFFFFFFFFF AND DUP5 PUSH20 0xFFFFFFFFFFFFFFFFFFFFFFFFFFFFFFFFFFFFFFFF AND EQ ISZERO JUMPDEST PUSH2 0x53C JUMPI PUSH1 0x40 MLOAD PUSH32 0x8C379A000000000000000000000000000000000000000000000000000000000 DUP2 MSTORE PUSH1 0x4 ADD PUSH2 0x533 SWAP1 PUSH2 0x24BA JUMP JUMPDEST PUSH1 0x40 MLOAD DUP1 SWAP2 SUB SWAP1 REVERT JUMPDEST PUSH0 DUP3 LT ISZERO DUP1 ISZERO PUSH2 0x54D JUMPI POP PUSH1 0x64 DUP3 GT ISZERO JUMPDEST PUSH2 0x58C JUMPI PUSH1 0x40 MLOAD PUSH32 0x8C379A000000000000000000000000000000000000000000000000000000000 DUP2 MSTORE PUSH1 0x4 ADD PUSH2 0x583 SWAP1 PUSH2 0x2522 JUMP JUMPDEST PUSH1 0x40 MLOAD DUP1 SWAP2 SUB SWAP1 REVERT JUMPDEST DUP3 PUSH1 0x6 PUSH0 PUSH1 0x5 PUSH0 SWAP1 SLOAD SWAP1 PUSH2 0x100 EXP SWAP1 DIV PUSH20 0xFFFFFFFFFFFFFFFFFFFFFFFFFFFFFFFFFFFFFFFF AND PUSH20 0xFFFFFFFFFFFFFFFFFFFFFFFFFFFFFFFFFFFFFFFF AND PUSH20 0xFFFFFFFFFFFFFFFFFFFFFFFFFFFFFFFFFFFFFFFF AND DUP2 MSTORE PUSH1 0x20 ADD SWAP1 DUP2 MSTORE PUSH1 0x20 ADD PUSH0 KECCAK256 SLOAD LT ISZERO PUSH2 0x62D JUMPI PUSH1 0x40 MLOAD PUSH32 0x8C379A000000000000000000000000000000000000000000000000000000000 DUP2 MSTORE PUSH1 0x4 ADD PUSH2 0x624 SWAP1 PUSH2 0x25B0 JUMP JUMPDEST PUSH1 0x40 MLOAD DUP1 SWAP2 SUB SWAP1 REVERT JUMPDEST PUSH0 DUP2 GT PUSH2 0x66F JUMPI PUSH1 0x40 MLOAD PUSH32 0x8C379A000000000000000000000000000000000000000000000000000000000 DUP2 MSTORE PUSH1 0x4 ADD PUSH2 0x666 SWAP1 PUSH2 0x2618 JUMP JUMPDEST PUSH1 0x40 MLOAD DUP1 SWAP2 SUB SWAP1 REVERT JUMPDEST PUSH0 PUSH1 0x2 PUSH0 SWAP1 SLOAD SWAP1 PUSH2 0x100 EXP SWAP1 DIV PUSH1 0xFF AND PUSH1 0xFF AND PUSH1 0xA PUSH2 0x68E SWAP2 SWAP1 PUSH2 0x2792 JUMP JUMPDEST DUP5 PUSH2 0x699 SWAP2 SWAP1 PUSH2 0x27DC JUMP JUMPDEST SWAP1 POP PUSH0 PUSH1 0x64 DUP5 DUP4 PUSH2 0x6AA SWAP2 SWAP1 PUSH2 0x27DC JUMP JUMPDEST PUSH2 0x6B4 SWAP2 SWAP1 PUSH2 0x284A JUMP JUMPDEST SWAP1 POP PUSH0 DUP2 DUP4 PUSH2 0x6C3 SWAP2 SWAP1 PUSH2 0x287A JUMP JUMPDEST SWAP1 POP PUSH0 PUSH1 0x2 PUSH0 SWAP1 SLOAD SWAP1 PUSH2 0x100 EXP SWAP1 DIV PUSH1 0xFF AND PUSH1 0xFF AND PUSH1 0xA PUSH2 0x6E4 SWAP2 SWAP1 PUSH2 0x2792 JUMP JUMPDEST DUP6 PUSH2 0x6EF SWAP2 SWAP1 PUSH2 0x27DC JUMP JUMPDEST SWAP1 POP DUP4 PUSH1 0x6 PUSH0 PUSH1 0x5 PUSH0 SWAP1 SLOAD SWAP1 PUSH2 0x100 EXP SWAP1 DIV PUSH20 0xFFFFFFFFFFFFFFFFFFFFFFFFFFFFFFFFFFFFFFFF AND PUSH20 0xFFFFFFFFFFFFFFFFFFFFFFFFFFFFFFFFFFFFFFFF AND PUSH20 0xFFFFFFFFFFFFFFFFFFFFFFFFFFFFFFFFFFFFFFFF AND DUP2 MSTORE PUSH1 0x20 ADD SWAP1 DUP2 MSTORE PUSH1 0x20 ADD PUSH0 KECCAK256 PUSH0 DUP3 DUP3 SLOAD PUSH2 0x75E SWAP2 SWAP1 PUSH2 0x287A JUMP JUMPDEST SWAP3 POP POP DUP2 SWAP1 SSTORE POP DUP3 PUSH1 0x6 PUSH0 DUP11 PUSH20 0xFFFFFFFFFFFFFFFFFFFFFFFFFFFFFFFFFFFFFFFF AND PUSH20 0xFFFFFFFFFFFFFFFFFFFFFFFFFFFFFFFFFFFFFFFF AND DUP2 MSTORE PUSH1 0x20 ADD SWAP1 DUP2 MSTORE PUSH1 0x20 ADD PUSH0 KECCAK256 PUSH0 DUP3 DUP3 SLOAD PUSH2 0x7B1 SWAP2 SWAP1 PUSH2 0x28AD JUMP JUMPDEST SWAP3 POP POP DUP2 SWAP1 SSTORE POP DUP2 PUSH1 0x6 PUSH0 DUP12 PUSH20 0xFFFFFFFFFFFFFFFFFFFFFFFFFFFFFFFFFFFFFFFF AND PUSH20 0xFFFFFFFFFFFFFFFFFFFFFFFFFFFFFFFFFFFFFFFF AND DUP2 MSTORE PUSH1 0x20 ADD SWAP1 DUP2 MSTORE PUSH1 0x20 ADD PUSH0 KECCAK256 PUSH0 DUP3 DUP3 SLOAD PUSH2 0x804 SWAP2 SWAP1 PUSH2 0x28AD JUMP JUMPDEST SWAP3 POP POP DUP2 SWAP1 SSTORE POP DUP8 PUSH20 0xFFFFFFFFFFFFFFFFFFFFFFFFFFFFFFFFFFFFFFFF AND PUSH1 0x5 PUSH0 SWAP1 SLOAD SWAP1 PUSH2 0x100 EXP SWAP1 DIV PUSH20 0xFFFFFFFFFFFFFFFFFFFFFFFFFFFFFFFFFFFFFFFF AND PUSH20 0xFFFFFFFFFFFFFFFFFFFFFFFFFFFFFFFFFFFFFFFF AND PUSH32 0xDDF252AD1BE2C89B69C2B068FC378DAA952BA7F163C4A11628F55A4DF523B3EF DUP6 PUSH1 0x40 MLOAD PUSH2 0x889 SWAP2 SWAP1 PUSH2 0x2256 JUMP JUMPDEST PUSH1 0x40 MLOAD DUP1 SWAP2 SUB SWAP1 LOG3 DUP9 PUSH20 0xFFFFFFFFFFFFFFFFFFFFFFFFFFFFFFFFFFFFFFFF AND PUSH1 0x5 PUSH0 SWAP1 SLOAD SWAP1 PUSH2 0x100 EXP SWAP1 DIV PUSH20 0xFFFFFFFFFFFFFFFFFFFFFFFFFFFFFFFFFFFFFFFF AND PUSH20 0xFFFFFFFFFFFFFFFFFFFFFFFFFFFFFFFFFFFFFFFF AND PUSH32 0xDDF252AD1BE2C89B69C2B068FC378DAA952BA7F163C4A11628F55A4DF523B3EF DUP5 PUSH1 0x40 MLOAD PUSH2 0x90F SWAP2 SWAP1 PUSH2 0x2256 JUMP JUMPDEST PUSH1 0x40 MLOAD DUP1 SWAP2 SUB SWAP1 LOG3 PUSH1 0x9 SLOAD DUP2 GT PUSH2 0x9F5 JUMPI DUP1 PUSH1 0x9 PUSH0 DUP3 DUP3 SLOAD PUSH2 0x931 SWAP2 SWAP1 PUSH2 0x287A JUMP JUMPDEST SWAP3 POP POP DUP2 SWAP1 SSTORE POP DUP1 PUSH1 0x6 PUSH0 DUP11 PUSH20 0xFFFFFFFFFFFFFFFFFFFFFFFFFFFFFFFFFFFFFFFF AND PUSH20 0xFFFFFFFFFFFFFFFFFFFFFFFFFFFFFFFFFFFFFFFF AND DUP2 MSTORE PUSH1 0x20 ADD SWAP1 DUP2 MSTORE PUSH1 0x20 ADD PUSH0 KECCAK256 PUSH0 DUP3 DUP3 SLOAD PUSH2 0x984 SWAP2 SWAP1 PUSH2 0x28AD JUMP JUMPDEST SWAP3 POP POP DUP2 SWAP1 SSTORE POP DUP8 PUSH20 0xFFFFFFFFFFFFFFFFFFFFFFFFFFFFFFFFFFFFFFFF AND ADDRESS PUSH20 0xFFFFFFFFFFFFFFFFFFFFFFFFFFFFFFFFFFFFFFFF AND PUSH32 0xDDF252AD1BE2C89B69C2B068FC378DAA952BA7F163C4A11628F55A4DF523B3EF DUP4 PUSH1 0x40 MLOAD PUSH2 0x9E8 SWAP2 SWAP1 PUSH2 0x2256 JUMP JUMPDEST PUSH1 0x40 MLOAD DUP1 SWAP2 SUB SWAP1 LOG3 PUSH2 0xBE4 JUMP JUMPDEST DUP1 PUSH1 0x6 PUSH0 PUSH1 0x5 PUSH0 SWAP1 SLOAD SWAP1 PUSH2 0x100 EXP SWAP1 DIV PUSH20 0xFFFFFFFFFFFFFFFFFFFFFFFFFFFFFFFFFFFFFFFF AND PUSH20 0xFFFFFFFFFFFFFFFFFFFFFFFFFFFFFFFFFFFFFFFF AND PUSH20 0xFFFFFFFFFFFFFFFFFFFFFFFFFFFFFFFFFFFFFFFF AND DUP2 MSTORE PUSH1 0x20 ADD SWAP1 DUP2 MSTORE PUSH1 0x20 ADD PUSH0 KECCAK256 SLOAD LT ISZERO PUSH2 0xA96 JUMPI PUSH1 0x40 MLOAD PUSH32 0x8C379A000000000000000000000000000000000000000000000000000000000 DUP2 MSTORE PUSH1 0x4 ADD PUSH2 0xA8D SWAP1 PUSH2 0x25B0 JUMP JUMPDEST PUSH1 0x40 MLOAD DUP1 SWAP2 SUB SWAP1 REVERT JUMPDEST DUP1 PUSH1 0x6 PUSH0 PUSH1 0x5 PUSH0 SWAP1 SLOAD SWAP1 PUSH2 0x100 EXP SWAP1 DIV PUSH20 0xFFFFFFFFFFFFFFFFFFFFFFFFFFFFFFFFFFFFFFFF AND PUSH20 0xFFFFFFFFFFFFFFFFFFFFFFFFFFFFFFFFFFFFFFFF AND PUSH20 0xFFFFFFFFFFFFFFFFFFFFFFFFFFFFFFFFFFFFFFFF AND DUP2 MSTORE PUSH1 0x20 ADD SWAP1 DUP2 MSTORE PUSH1 0x20 ADD PUSH0 KECCAK256 PUSH0 DUP3 DUP3 SLOAD PUSH2 0xB03 SWAP2 SWAP1 PUSH2 0x287A JUMP JUMPDEST SWAP3 POP POP DUP2 SWAP1 SSTORE POP DUP1 PUSH1 0x6 PUSH0 DUP11 PUSH20 0xFFFFFFFFFFFFFFFFFFFFFFFFFFFFFFFFFFFFFFFF AND PUSH20 0xFFFFFFFFFFFFFFFFFFFFFFFFFFFFFFFFFFFFFFFF AND DUP2 MSTORE PUSH1 0x20 ADD SWAP1 DUP2 MSTORE PUSH1 0x20 ADD PUSH0 KECCAK256 PUSH0 DUP3 DUP3 SLOAD PUSH2 0xB56 SWAP2 SWAP1 PUSH2 0x28AD JUMP JUMPDEST SWAP3 POP POP DUP2 SWAP1 SSTORE POP DUP8 PUSH20 0xFFFFFFFFFFFFFFFFFFFFFFFFFFFFFFFFFFFFFFFF AND PUSH1 0x5 PUSH0 SWAP1 SLOAD SWAP1 PUSH2 0x100 EXP SWAP1 DIV PUSH20 0xFFFFFFFFFFFFFFFFFFFFFFFFFFFFFFFFFFFFFFFF AND PUSH20 0xFFFFFFFFFFFFFFFFFFFFFFFFFFFFFFFFFFFFFFFF AND PUSH32 0xDDF252AD1BE2C89B69C2B068FC378DAA952BA7F163C4A11628F55A4DF523B3EF DUP4 PUSH1 0x40 MLOAD PUSH2 0xBDB SWAP2 SWAP1 PUSH2 0x2256 JUMP JUMPDEST PUSH1 0x40 MLOAD DUP1 SWAP2 SUB SWAP1 LOG3 JUMPDEST POP POP POP POP POP POP POP POP POP JUMP JUMPDEST PUSH0 DUP1 PUSH1 0xA SLOAD TIMESTAMP LT ISZERO PUSH2 0xC36 JUMPI PUSH1 0x40 MLOAD PUSH32 0x8C379A000000000000000000000000000000000000000000000000000000000 DUP2 MSTORE PUSH1 0x4 ADD PUSH2 0xC2D SWAP1 PUSH2 0x292A JUMP JUMPDEST PUSH1 0x40 MLOAD DUP1 SWAP2 SUB SWAP1 REVERT JUMPDEST PUSH0 TIMESTAMP SWAP1 POP PUSH0 PUSH1 0xA SLOAD DUP3 PUSH2 0xC49 SWAP2 SWAP1 PUSH2 0x287A JUMP JUMPDEST SWAP1 POP PUSH0 PUSH3 0xF099C0 DUP3 PUSH2 0xC5B SWAP2 SWAP1 PUSH2 0x284A JUMP JUMPDEST SWAP1 POP PUSH1 0xA DUP2 LT PUSH2 0xC73 JUMPI PUSH0 DUP1 SWAP5 POP SWAP5 POP POP POP POP PUSH2 0xCD0 JUMP JUMPDEST PUSH0 DUP3 PUSH3 0xF099C0 PUSH1 0x1 DUP5 PUSH2 0xC86 SWAP2 SWAP1 PUSH2 0x28AD JUMP JUMPDEST PUSH2 0xC90 SWAP2 SWAP1 PUSH2 0x27DC JUMP JUMPDEST PUSH2 0xC9A SWAP2 SWAP1 PUSH2 0x287A JUMP JUMPDEST SWAP1 POP PUSH3 0x15180 DUP2 PUSH2 0xCAB SWAP2 SWAP1 PUSH2 0x284A JUMP JUMPDEST SWAP6 POP PUSH2 0xE10 PUSH3 0x15180 DUP3 PUSH2 0xCBF SWAP2 SWAP1 PUSH2 0x2948 JUMP JUMPDEST PUSH2 0xCC9 SWAP2 SWAP1 PUSH2 0x284A JUMP JUMPDEST SWAP5 POP POP POP POP POP JUMPDEST SWAP1 SWAP2 JUMP JUMPDEST PUSH0 DUP1 SLOAD PUSH2 0xCE0 SWAP1 PUSH2 0x29A5 JUMP JUMPDEST DUP1 PUSH1 0x1F ADD PUSH1 0x20 DUP1 SWAP2 DIV MUL PUSH1 0x20 ADD PUSH1 0x40 MLOAD SWAP1 DUP2 ADD PUSH1 0x40 MSTORE DUP1 SWAP3 SWAP2 SWAP1 DUP2 DUP2 MSTORE PUSH1 0x20 ADD DUP3 DUP1 SLOAD PUSH2 0xD0C SWAP1 PUSH2 0x29A5 JUMP JUMPDEST DUP1 ISZERO PUSH2 0xD57 JUMPI DUP1 PUSH1 0x1F LT PUSH2 0xD2E JUMPI PUSH2 0x100 DUP1 DUP4 SLOAD DIV MUL DUP4 MSTORE SWAP2 PUSH1 0x20 ADD SWAP2 PUSH2 0xD57 JUMP JUMPDEST DUP3 ADD SWAP2 SWAP1 PUSH0 MSTORE PUSH1 0x20 PUSH0 KECCAK256 SWAP1 JUMPDEST DUP2 SLOAD DUP2 MSTORE SWAP1 PUSH1 0x1 ADD SWAP1 PUSH1 0x20 ADD DUP1 DUP4 GT PUSH2 0xD3A JUMPI DUP3 SWAP1 SUB PUSH1 0x1F AND DUP3 ADD SWAP2 JUMPDEST POP POP POP POP POP DUP2 JUMP JUMPDEST PUSH1 0x3 SLOAD DUP2 JUMP JUMPDEST PUSH0 DUP2 PUSH1 0x6 PUSH0 CALLER PUSH20 0xFFFFFFFFFFFFFFFFFFFFFFFFFFFFFFFFFFFFFFFF AND PUSH20 0xFFFFFFFFFFFFFFFFFFFFFFFFFFFFFFFFFFFFFFFF AND DUP2 MSTORE PUSH1 0x20 ADD SWAP1 DUP2 MSTORE PUSH1 0x20 ADD PUSH0 KECCAK256 SLOAD LT ISZERO PUSH2 0xDE6 JUMPI PUSH1 0x40 MLOAD PUSH32 0x8C379A000000000000000000000000000000000000000000000000000000000 DUP2 MSTORE PUSH1 0x4 ADD PUSH2 0xDDD SWAP1 PUSH2 0x2A1F JUMP JUMPDEST PUSH1 0x40 MLOAD DUP1 SWAP2 SUB SWAP1 REVERT JUMPDEST PUSH0 PUSH1 0x2 PUSH0 SWAP1 SLOAD SWAP1 PUSH2 0x100 EXP SWAP1 DIV PUSH1 0xFF AND PUSH1 0xFF AND PUSH1 0xA PUSH2 0xE05 SWAP2 SWAP1 PUSH2 0x2792 JUMP JUMPDEST DUP4 PUSH2 0xE10 SWAP2 SWAP1 PUSH2 0x27DC JUMP JUMPDEST SWAP1 POP DUP1 PUSH1 0x6 PUSH0 CALLER PUSH20 0xFFFFFFFFFFFFFFFFFFFFFFFFFFFFFFFFFFFFFFFF AND PUSH20 0xFFFFFFFFFFFFFFFFFFFFFFFFFFFFFFFFFFFFFFFF AND DUP2 MSTORE PUSH1 0x20 ADD SWAP1 DUP2 MSTORE PUSH1 0x20 ADD PUSH0 KECCAK256 PUSH0 DUP3 DUP3 SLOAD PUSH2 0xE5E SWAP2 SWAP1 PUSH2 0x287A JUMP JUMPDEST SWAP3 POP POP DUP2 SWAP1 SSTORE POP DUP1 PUSH1 0x6 PUSH0 PUSH1 0x5 PUSH0 SWAP1 SLOAD SWAP1 PUSH2 0x100 EXP SWAP1 DIV PUSH20 0xFFFFFFFFFFFFFFFFFFFFFFFFFFFFFFFFFFFFFFFF AND PUSH20 0xFFFFFFFFFFFFFFFFFFFFFFFFFFFFFFFFFFFFFFFF AND PUSH20 0xFFFFFFFFFFFFFFFFFFFFFFFFFFFFFFFFFFFFFFFF AND DUP2 MSTORE PUSH1 0x20 ADD SWAP1 DUP2 MSTORE PUSH1 0x20 ADD PUSH0 KECCAK256 PUSH0 DUP3 DUP3 SLOAD PUSH2 0xED2 SWAP2 SWAP1 PUSH2 0x28AD JUMP JUMPDEST SWAP3 POP POP DUP2 SWAP1 SSTORE POP PUSH1 0x5 PUSH0 SWAP1 SLOAD SWAP1 PUSH2 0x100 EXP SWAP1 DIV PUSH20 0xFFFFFFFFFFFFFFFFFFFFFFFFFFFFFFFFFFFFFFFF AND PUSH20 0xFFFFFFFFFFFFFFFFFFFFFFFFFFFFFFFFFFFFFFFF AND CALLER PUSH20 0xFFFFFFFFFFFFFFFFFFFFFFFFFFFFFFFFFFFFFFFF AND PUSH32 0xDDF252AD1BE2C89B69C2B068FC378DAA952BA7F163C4A11628F55A4DF523B3EF DUP4 PUSH1 0x40 MLOAD PUSH2 0xF57 SWAP2 SWAP1 PUSH2 0x2256 JUMP JUMPDEST PUSH1 0x40 MLOAD DUP1 SWAP2 SUB SWAP1 LOG3 PUSH1 0x1 SWAP2 POP POP SWAP2 SWAP1 POP JUMP JUMPDEST PUSH1 0x2 PUSH0 SWAP1 SLOAD SWAP1 PUSH2 0x100 EXP SWAP1 DIV PUSH1 0xFF AND DUP2 JUMP JUMPDEST PUSH0 ADDRESS SWAP1 POP SWAP1 JUMP JUMPDEST PUSH1 0xC PUSH0 SWAP1 SLOAD SWAP1 PUSH2 0x100 EXP SWAP1 DIV PUSH20 0xFFFFFFFFFFFFFFFFFFFFFFFFFFFFFFFFFFFFFFFF AND PUSH20 0xFFFFFFFFFFFFFFFFFFFFFFFFFFFFFFFFFFFFFFFF AND CALLER PUSH20 0xFFFFFFFFFFFFFFFFFFFFFFFFFFFFFFFFFFFFFFFF AND EQ PUSH2 0x1011 JUMPI PUSH1 0x40 MLOAD PUSH32 0x8C379A000000000000000000000000000000000000000000000000000000000 DUP2 MSTORE PUSH1 0x4 ADD PUSH2 0x1008 SWAP1 PUSH2 0x2452 JUMP JUMPDEST PUSH1 0x40 MLOAD DUP1 SWAP2 SUB SWAP1 REVERT JUMPDEST PUSH0 PUSH20 0xFFFFFFFFFFFFFFFFFFFFFFFFFFFFFFFFFFFFFFFF AND DUP4 PUSH20 0xFFFFFFFFFFFFFFFFFFFFFFFFFFFFFFFFFFFFFFFF AND EQ ISZERO DUP1 ISZERO PUSH2 0x1079 JUMPI POP PUSH0 PUSH20 0xFFFFFFFFFFFFFFFFFFFFFFFFFFFFFFFFFFFFFFFF AND DUP3 PUSH20 0xFFFFFFFFFFFFFFFFFFFFFFFFFFFFFFFFFFFFFFFF AND EQ ISZERO JUMPDEST PUSH2 0x10B8 JUMPI PUSH1 0x40 MLOAD PUSH32 0x8C379A000000000000000000000000000000000000000000000000000000000 DUP2 MSTORE PUSH1 0x4 ADD PUSH2 0x10AF SWAP1 PUSH2 0x24BA JUMP JUMPDEST PUSH1 0x40 MLOAD DUP1 SWAP2 SUB SWAP1 REVERT JUMPDEST DUP1 PUSH1 0x6 PUSH0 PUSH1 0x5 PUSH0 SWAP1 SLOAD SWAP1 PUSH2 0x100 EXP SWAP1 DIV PUSH20 0xFFFFFFFFFFFFFFFFFFFFFFFFFFFFFFFFFFFFFFFF AND PUSH20 0xFFFFFFFFFFFFFFFFFFFFFFFFFFFFFFFFFFFFFFFF AND PUSH20 0xFFFFFFFFFFFFFFFFFFFFFFFFFFFFFFFFFFFFFFFF AND DUP2 MSTORE PUSH1 0x20 ADD SWAP1 DUP2 MSTORE PUSH1 0x20 ADD PUSH0 KECCAK256 SLOAD LT ISZERO PUSH2 0x1159 JUMPI PUSH1 0x40 MLOAD PUSH32 0x8C379A000000000000000000000000000000000000000000000000000000000 DUP2 MSTORE PUSH1 0x4 ADD PUSH2 0x1150 SWAP1 PUSH2 0x25B0 JUMP JUMPDEST PUSH1 0x40 MLOAD DUP1 SWAP2 SUB SWAP1 REVERT JUMPDEST PUSH0 PUSH1 0x2 PUSH0 SWAP1 SLOAD SWAP1 PUSH2 0x100 EXP SWAP1 DIV PUSH1 0xFF AND PUSH1 0xFF AND PUSH1 0xA PUSH2 0x1178 SWAP2 SWAP1 PUSH2 0x2792 JUMP JUMPDEST DUP3 PUSH2 0x1183 SWAP2 SWAP1 PUSH2 0x27DC JUMP JUMPDEST SWAP1 POP PUSH0 PUSH1 0x64 PUSH1 0x1E DUP4 PUSH2 0x1195 SWAP2 SWAP1 PUSH2 0x27DC JUMP JUMPDEST PUSH2 0x119F SWAP2 SWAP1 PUSH2 0x284A JUMP JUMPDEST SWAP1 POP PUSH0 DUP2 DUP4 PUSH2 0x11AE SWAP2 SWAP1 PUSH2 0x287A JUMP JUMPDEST SWAP1 POP DUP3 PUSH1 0x6 PUSH0 PUSH1 0x5 PUSH0 SWAP1 SLOAD SWAP1 PUSH2 0x100 EXP SWAP1 DIV PUSH20 0xFFFFFFFFFFFFFFFFFFFFFFFFFFFFFFFFFFFFFFFF AND PUSH20 0xFFFFFFFFFFFFFFFFFFFFFFFFFFFFFFFFFFFFFFFF AND PUSH20 0xFFFFFFFFFFFFFFFFFFFFFFFFFFFFFFFFFFFFFFFF AND DUP2 MSTORE PUSH1 0x20 ADD SWAP1 DUP2 MSTORE PUSH1 0x20 ADD PUSH0 KECCAK256 PUSH0 DUP3 DUP3 SLOAD PUSH2 0x121D SWAP2 SWAP1 PUSH2 0x287A JUMP JUMPDEST SWAP3 POP POP DUP2 SWAP1 SSTORE POP DUP2 PUSH1 0x6 PUSH0 DUP8 PUSH20 0xFFFFFFFFFFFFFFFFFFFFFFFFFFFFFFFFFFFFFFFF AND PUSH20 0xFFFFFFFFFFFFFFFFFFFFFFFFFFFFFFFFFFFFFFFF AND DUP2 MSTORE PUSH1 0x20 ADD SWAP1 DUP2 MSTORE PUSH1 0x20 ADD PUSH0 KECCAK256 PUSH0 DUP3 DUP3 SLOAD PUSH2 0x1270 SWAP2 SWAP1 PUSH2 0x28AD JUMP JUMPDEST SWAP3 POP POP DUP2 SWAP1 SSTORE POP DUP1 PUSH1 0x6 PUSH0 DUP9 PUSH20 0xFFFFFFFFFFFFFFFFFFFFFFFFFFFFFFFFFFFFFFFF AND PUSH20 0xFFFFFFFFFFFFFFFFFFFFFFFFFFFFFFFFFFFFFFFF AND DUP2 MSTORE PUSH1 0x20 ADD SWAP1 DUP2 MSTORE PUSH1 0x20 ADD PUSH0 KECCAK256 PUSH0 DUP3 DUP3 SLOAD PUSH2 0x12C3 SWAP2 SWAP1 PUSH2 0x28AD JUMP JUMPDEST SWAP3 POP POP DUP2 SWAP1 SSTORE POP DUP5 PUSH20 0xFFFFFFFFFFFFFFFFFFFFFFFFFFFFFFFFFFFFFFFF AND PUSH1 0x5 PUSH0 SWAP1 SLOAD SWAP1 PUSH2 0x100 EXP SWAP1 DIV PUSH20 0xFFFFFFFFFFFFFFFFFFFFFFFFFFFFFFFFFFFFFFFF AND PUSH20 0xFFFFFFFFFFFFFFFFFFFFFFFFFFFFFFFFFFFFFFFF AND PUSH32 0xDDF252AD1BE2C89B69C2B068FC378DAA952BA7F163C4A11628F55A4DF523B3EF DUP5 PUSH1 0x40 MLOAD PUSH2 0x1348 SWAP2 SWAP1 PUSH2 0x2256 JUMP JUMPDEST PUSH1 0x40 MLOAD DUP1 SWAP2 SUB SWAP1 LOG3 DUP6 PUSH20 0xFFFFFFFFFFFFFFFFFFFFFFFFFFFFFFFFFFFFFFFF AND PUSH1 0x5 PUSH0 SWAP1 SLOAD SWAP1 PUSH2 0x100 EXP SWAP1 DIV PUSH20 0xFFFFFFFFFFFFFFFFFFFFFFFFFFFFFFFFFFFFFFFF AND PUSH20 0xFFFFFFFFFFFFFFFFFFFFFFFFFFFFFFFFFFFFFFFF AND PUSH32 0xDDF252AD1BE2C89B69C2B068FC378DAA952BA7F163C4A11628F55A4DF523B3EF DUP4 PUSH1 0x40 MLOAD PUSH2 0x13CE SWAP2 SWAP1 PUSH2 0x2256 JUMP JUMPDEST PUSH1 0x40 MLOAD DUP1 SWAP2 SUB SWAP1 LOG3 POP POP POP POP POP POP JUMP JUMPDEST PUSH1 0x7 SLOAD DUP2 JUMP JUMPDEST PUSH1 0x6 PUSH1 0x20 MSTORE DUP1 PUSH0 MSTORE PUSH1 0x40 PUSH0 KECCAK256 PUSH0 SWAP2 POP SWAP1 POP SLOAD DUP2 JUMP JUMPDEST PUSH1 0xC PUSH0 SWAP1 SLOAD SWAP1 PUSH2 0x100 EXP SWAP1 DIV PUSH20 0xFFFFFFFFFFFFFFFFFFFFFFFFFFFFFFFFFFFFFFFF AND DUP2 JUMP JUMPDEST PUSH1 0x1 DUP1 SLOAD PUSH2 0x142B SWAP1 PUSH2 0x29A5 JUMP JUMPDEST DUP1 PUSH1 0x1F ADD PUSH1 0x20 DUP1 SWAP2 DIV MUL PUSH1 0x20 ADD PUSH1 0x40 MLOAD SWAP1 DUP2 ADD PUSH1 0x40 MSTORE DUP1 SWAP3 SWAP2 SWAP1 DUP2 DUP2 MSTORE PUSH1 0x20 ADD DUP3 DUP1 SLOAD PUSH2 0x1457 SWAP1 PUSH2 0x29A5 JUMP JUMPDEST DUP1 ISZERO PUSH2 0x14A2 JUMPI DUP1 PUSH1 0x1F LT PUSH2 0x1479 JUMPI PUSH2 0x100 DUP1 DUP4 SLOAD DIV MUL DUP4 MSTORE SWAP2 PUSH1 0x20 ADD SWAP2 PUSH2 0x14A2 JUMP JUMPDEST DUP3 ADD SWAP2 SWAP1 PUSH0 MSTORE PUSH1 0x20 PUSH0 KECCAK256 SWAP1 JUMPDEST DUP2 SLOAD DUP2 MSTORE SWAP1 PUSH1 0x1 ADD SWAP1 PUSH1 0x20 ADD DUP1 DUP4 GT PUSH2 0x1485 JUMPI DUP3 SWAP1 SUB PUSH1 0x1F AND DUP3 ADD SWAP2 JUMPDEST POP POP POP POP POP DUP2 JUMP JUMPDEST PUSH1 0x8 SLOAD DUP2 JUMP JUMPDEST PUSH0 DUP1 PUSH20 0xFFFFFFFFFFFFFFFFFFFFFFFFFFFFFFFFFFFFFFFF AND DUP4 PUSH20 0xFFFFFFFFFFFFFFFFFFFFFFFFFFFFFFFFFFFFFFFF AND SUB PUSH2 0x151F JUMPI PUSH1 0x40 MLOAD PUSH32 0x8C379A000000000000000000000000000000000000000000000000000000000 DUP2 MSTORE PUSH1 0x4 ADD PUSH2 0x1516 SWAP1 PUSH2 0x24BA JUMP JUMPDEST PUSH1 0x40 MLOAD DUP1 SWAP2 SUB SWAP1 REVERT JUMPDEST DUP2 PUSH1 0x6 PUSH0 CALLER PUSH20 0xFFFFFFFFFFFFFFFFFFFFFFFFFFFFFFFFFFFFFFFF AND PUSH20 0xFFFFFFFFFFFFFFFFFFFFFFFFFFFFFFFFFFFFFFFF AND DUP2 MSTORE PUSH1 0x20 ADD SWAP1 DUP2 MSTORE PUSH1 0x20 ADD PUSH0 KECCAK256 SLOAD LT ISZERO PUSH2 0x159F JUMPI PUSH1 0x40 MLOAD PUSH32 0x8C379A000000000000000000000000000000000000000000000000000000000 DUP2 MSTORE PUSH1 0x4 ADD PUSH2 0x1596 SWAP1 PUSH2 0x2A1F JUMP JUMPDEST PUSH1 0x40 MLOAD DUP1 SWAP2 SUB SWAP1 REVERT JUMPDEST DUP2 PUSH1 0x6 PUSH0 CALLER PUSH20 0xFFFFFFFFFFFFFFFFFFFFFFFFFFFFFFFFFFFFFFFF AND PUSH20 0xFFFFFFFFFFFFFFFFFFFFFFFFFFFFFFFFFFFFFFFF AND DUP2 MSTORE PUSH1 0x20 ADD SWAP1 DUP2 MSTORE PUSH1 0x20 ADD PUSH0 KECCAK256 PUSH0 DUP3 DUP3 SLOAD PUSH2 0x15EB SWAP2 SWAP1 PUSH2 0x287A JUMP JUMPDEST SWAP3 POP POP DUP2 SWAP1 SSTORE POP DUP2 PUSH1 0x6 PUSH0 DUP6 PUSH20 0xFFFFFFFFFFFFFFFFFFFFFFFFFFFFFFFFFFFFFFFF AND PUSH20 0xFFFFFFFFFFFFFFFFFFFFFFFFFFFFFFFFFFFFFFFF AND DUP2 MSTORE PUSH1 0x20 ADD SWAP1 DUP2 MSTORE PUSH1 0x20 ADD PUSH0 KECCAK256 PUSH0 DUP3 DUP3 SLOAD PUSH2 0x163E SWAP2 SWAP1 PUSH2 0x28AD JUMP JUMPDEST SWAP3 POP POP DUP2 SWAP1 SSTORE POP DUP3 PUSH20 0xFFFFFFFFFFFFFFFFFFFFFFFFFFFFFFFFFFFFFFFF AND CALLER PUSH20 0xFFFFFFFFFFFFFFFFFFFFFFFFFFFFFFFFFFFFFFFF AND PUSH32 0xDDF252AD1BE2C89B69C2B068FC378DAA952BA7F163C4A11628F55A4DF523B3EF DUP5 PUSH1 0x40 MLOAD PUSH2 0x16A2 SWAP2 SWAP1 PUSH2 0x2256 JUMP JUMPDEST PUSH1 0x40 MLOAD DUP1 SWAP2 SUB SWAP1 LOG3 PUSH1 0x1 SWAP1 POP SWAP3 SWAP2 POP POP JUMP JUMPDEST PUSH1 0xB SLOAD DUP2 JUMP JUMPDEST PUSH1 0x4 SLOAD DUP2 JUMP JUMPDEST PUSH1 0x5 PUSH0 SWAP1 SLOAD SWAP1 PUSH2 0x100 EXP SWAP1 DIV PUSH20 0xFFFFFFFFFFFFFFFFFFFFFFFFFFFFFFFFFFFFFFFF AND DUP2 JUMP JUMPDEST PUSH1 0x9 SLOAD DUP2 JUMP JUMPDEST PUSH1 0xC PUSH0 SWAP1 SLOAD SWAP1 PUSH2 0x100 EXP SWAP1 DIV PUSH20 0xFFFFFFFFFFFFFFFFFFFFFFFFFFFFFFFFFFFFFFFF AND PUSH20 0xFFFFFFFFFFFFFFFFFFFFFFFFFFFFFFFFFFFFFFFF AND CALLER PUSH20 0xFFFFFFFFFFFFFFFFFFFFFFFFFFFFFFFFFFFFFFFF AND EQ PUSH2 0x177A JUMPI PUSH1 0x40 MLOAD PUSH32 0x8C379A000000000000000000000000000000000000000000000000000000000 DUP2 MSTORE PUSH1 0x4 ADD PUSH2 0x1771 SWAP1 PUSH2 0x2452 JUMP JUMPDEST PUSH1 0x40 MLOAD DUP1 SWAP2 SUB SWAP1 REVERT JUMPDEST PUSH0 PUSH20 0xFFFFFFFFFFFFFFFFFFFFFFFFFFFFFFFFFFFFFFFF AND DUP3 PUSH20 0xFFFFFFFFFFFFFFFFFFFFFFFFFFFFFFFFFFFFFFFF AND SUB PUSH2 0x17E8 JUMPI PUSH1 0x40 MLOAD PUSH32 0x8C379A000000000000000000000000000000000000000000000000000000000 DUP2 MSTORE PUSH1 0x4 ADD PUSH2 0x17DF SWAP1 PUSH2 0x24BA JUMP JUMPDEST PUSH1 0x40 MLOAD DUP1 SWAP2 SUB SWAP1 REVERT JUMPDEST DUP1 PUSH1 0x6 PUSH0 PUSH1 0x5 PUSH0 SWAP1 SLOAD SWAP1 PUSH2 0x100 EXP SWAP1 DIV PUSH20 0xFFFFFFFFFFFFFFFFFFFFFFFFFFFFFFFFFFFFFFFF AND PUSH20 0xFFFFFFFFFFFFFFFFFFFFFFFFFFFFFFFFFFFFFFFF AND PUSH20 0xFFFFFFFFFFFFFFFFFFFFFFFFFFFFFFFFFFFFFFFF AND DUP2 MSTORE PUSH1 0x20 ADD SWAP1 DUP2 MSTORE PUSH1 0x20 ADD PUSH0 KECCAK256 SLOAD LT ISZERO PUSH2 0x1889 JUMPI PUSH1 0x40 MLOAD PUSH32 0x8C379A000000000000000000000000000000000000000000000000000000000 DUP2 MSTORE PUSH1 0x4 ADD PUSH2 0x1880 SWAP1 PUSH2 0x25B0 JUMP JUMPDEST PUSH1 0x40 MLOAD DUP1 SWAP2 SUB SWAP1 REVERT JUMPDEST PUSH0 PUSH1 0x2 PUSH0 SWAP1 SLOAD SWAP1 PUSH2 0x100 EXP SWAP1 DIV PUSH1 0xFF AND PUSH1 0xFF AND PUSH1 0xA PUSH2 0x18A8 SWAP2 SWAP1 PUSH2 0x2792 JUMP JUMPDEST DUP3 PUSH2 0x18B3 SWAP2 SWAP1 PUSH2 0x27DC JUMP JUMPDEST SWAP1 POP DUP1 PUSH1 0x6 PUSH0 PUSH1 0x5 PUSH0 SWAP1 SLOAD SWAP1 PUSH2 0x100 EXP SWAP1 DIV PUSH20 0xFFFFFFFFFFFFFFFFFFFFFFFFFFFFFFFFFFFFFFFF AND PUSH20 0xFFFFFFFFFFFFFFFFFFFFFFFFFFFFFFFFFFFFFFFF AND PUSH20 0xFFFFFFFFFFFFFFFFFFFFFFFFFFFFFFFFFFFFFFFF AND DUP2 MSTORE PUSH1 0x20 ADD SWAP1 DUP2 MSTORE PUSH1 0x20 ADD PUSH0 KECCAK256 PUSH0 DUP3 DUP3 SLOAD PUSH2 0x1922 SWAP2 SWAP1 PUSH2 0x287A JUMP JUMPDEST SWAP3 POP POP DUP2 SWAP1 SSTORE POP DUP1 PUSH1 0x6 PUSH0 DUP6 PUSH20 0xFFFFFFFFFFFFFFFFFFFFFFFFFFFFFFFFFFFFFFFF AND PUSH20 0xFFFFFFFFFFFFFFFFFFFFFFFFFFFFFFFFFFFFFFFF AND DUP2 MSTORE PUSH1 0x20 ADD SWAP1 DUP2 MSTORE PUSH1 0x20 ADD PUSH0 KECCAK256 PUSH0 DUP3 DUP3 SLOAD PUSH2 0x1975 SWAP2 SWAP1 PUSH2 0x28AD JUMP JUMPDEST SWAP3 POP POP DUP2 SWAP1 SSTORE POP DUP3 PUSH20 0xFFFFFFFFFFFFFFFFFFFFFFFFFFFFFFFFFFFFFFFF AND PUSH1 0x5 PUSH0 SWAP1 SLOAD SWAP1 PUSH2 0x100 EXP SWAP1 DIV PUSH20 0xFFFFFFFFFFFFFFFFFFFFFFFFFFFFFFFFFFFFFFFF AND PUSH20 0xFFFFFFFFFFFFFFFFFFFFFFFFFFFFFFFFFFFFFFFF AND PUSH32 0xDDF252AD1BE2C89B69C2B068FC378DAA952BA7F163C4A11628F55A4DF523B3EF DUP4 PUSH1 0x40 MLOAD PUSH2 0x19FA SWAP2 SWAP1 PUSH2 0x2256 JUMP JUMPDEST PUSH1 0x40 MLOAD DUP1 SWAP2 SUB SWAP1 LOG3 POP POP POP JUMP JUMPDEST PUSH0 PUSH1 0x2 PUSH0 SWAP1 SLOAD SWAP1 PUSH2 0x100 EXP SWAP1 DIV PUSH1 0xFF AND PUSH1 0xFF AND PUSH1 0xA PUSH2 0x1A26 SWAP2 SWAP1 PUSH2 0x2792 JUMP JUMPDEST PUSH1 0x6 PUSH0 DUP5 PUSH20 0xFFFFFFFFFFFFFFFFFFFFFFFFFFFFFFFFFFFFFFFF AND PUSH20 0xFFFFFFFFFFFFFFFFFFFFFFFFFFFFFFFFFFFFFFFF AND DUP2 MSTORE PUSH1 0x20 ADD SWAP1 DUP2 MSTORE PUSH1 0x20 ADD PUSH0 KECCAK256 SLOAD PUSH2 0x1A6E SWAP2 SWAP1 PUSH2 0x284A JUMP JUMPDEST SWAP1 POP SWAP2 SWAP1 POP JUMP JUMPDEST PUSH1 0xC PUSH0 SWAP1 SLOAD SWAP1 PUSH2 0x100 EXP SWAP1 DIV PUSH20 0xFFFFFFFFFFFFFFFFFFFFFFFFFFFFFFFFFFFFFFFF AND PUSH20 0xFFFFFFFFFFFFFFFFFFFFFFFFFFFFFFFFFFFFFFFF AND CALLER PUSH20 0xFFFFFFFFFFFFFFFFFFFFFFFFFFFFFFFFFFFFFFFF AND EQ PUSH2 0x1B04 JUMPI PUSH1 0x40 MLOAD PUSH32 0x8C379A000000000000000000000000000000000000000000000000000000000 DUP2 MSTORE PUSH1 0x4 ADD PUSH2 0x1AFB SWAP1 PUSH2 0x2452 JUMP JUMPDEST PUSH1 0x40 MLOAD DUP1 SWAP2 SUB SWAP1 REVERT JUMPDEST PUSH1 0xA SLOAD TIMESTAMP LT ISZERO PUSH2 0x1B49 JUMPI PUSH1 0x40 MLOAD PUSH32 0x8C379A000000000000000000000000000000000000000000000000000000000 DUP2 MSTORE PUSH1 0x4 ADD PUSH2 0x1B40 SWAP1 PUSH2 0x292A JUMP JUMPDEST PUSH1 0x40 MLOAD DUP1 SWAP2 SUB SWAP1 REVERT JUMPDEST PUSH1 0x7 SLOAD PUSH1 0xB SLOAD LT PUSH2 0x1B8F JUMPI PUSH1 0x40 MLOAD PUSH32 0x8C379A000000000000000000000000000000000000000000000000000000000 DUP2 MSTORE PUSH1 0x4 ADD PUSH2 0x1B86 SWAP1 PUSH2 0x2A87 JUMP JUMPDEST PUSH1 0x40 MLOAD DUP1 SWAP2 SUB SWAP1 REVERT JUMPDEST PUSH0 TIMESTAMP SWAP1 POP PUSH0 PUSH1 0xA SLOAD DUP3 PUSH2 0x1BA2 SWAP2 SWAP1 PUSH2 0x287A JUMP JUMPDEST SWAP1 POP PUSH0 PUSH3 0xF099C0 DUP3 PUSH2 0x1BB4 SWAP2 SWAP1 PUSH2 0x284A JUMP JUMPDEST SWAP1 POP PUSH0 PUSH1 0xA PUSH8 0xFFFFFFFFFFFFFFFF DUP2 GT ISZERO PUSH2 0x1BD2 JUMPI PUSH2 0x1BD1 PUSH2 0x2AA5 JUMP JUMPDEST JUMPDEST PUSH1 0x40 MLOAD SWAP1 DUP1 DUP3 MSTORE DUP1 PUSH1 0x20 MUL PUSH1 0x20 ADD DUP3 ADD PUSH1 0x40 MSTORE DUP1 ISZERO PUSH2 0x1C00 JUMPI DUP2 PUSH1 0x20 ADD PUSH1 0x20 DUP3 MUL DUP1 CALLDATASIZE DUP4 CALLDATACOPY DUP1 DUP3 ADD SWAP2 POP POP SWAP1 POP JUMPDEST POP SWAP1 POP PUSH1 0x2 PUSH0 SWAP1 SLOAD SWAP1 PUSH2 0x100 EXP SWAP1 DIV PUSH1 0xFF AND PUSH1 0xFF AND PUSH1 0xA PUSH2 0x1C21 SWAP2 SWAP1 PUSH2 0x2792 JUMP JUMPDEST PUSH0 PUSH2 0x1C2C SWAP2 SWAP1 PUSH2 0x27DC JUMP JUMPDEST DUP2 PUSH0 DUP2 MLOAD DUP2 LT PUSH2 0x1C3F JUMPI PUSH2 0x1C3E PUSH2 0x2AD2 JUMP JUMPDEST JUMPDEST PUSH1 0x20 MUL PUSH1 0x20 ADD ADD DUP2 DUP2 MSTORE POP POP PUSH1 0x2 PUSH0 SWAP1 SLOAD SWAP1 PUSH2 0x100 EXP SWAP1 DIV PUSH1 0xFF AND PUSH1 0xFF AND PUSH1 0xA PUSH2 0x1C69 SWAP2 SWAP1 PUSH2 0x2792 JUMP JUMPDEST PUSH3 0x16E0A PUSH2 0x1C77 SWAP2 SWAP1 PUSH2 0x27DC JUMP JUMPDEST DUP2 PUSH1 0x1 DUP2 MLOAD DUP2 LT PUSH2 0x1C8B JUMPI PUSH2 0x1C8A PUSH2 0x2AD2 JUMP JUMPDEST JUMPDEST PUSH1 0x20 MUL PUSH1 0x20 ADD ADD DUP2 DUP2 MSTORE POP POP PUSH1 0x2 PUSH0 SWAP1 SLOAD SWAP1 PUSH2 0x100 EXP SWAP1 DIV PUSH1 0xFF AND PUSH1 0xFF AND PUSH1 0xA PUSH2 0x1CB5 SWAP2 SWAP1 PUSH2 0x2792 JUMP JUMPDEST PUSH3 0x1DBDA PUSH2 0x1CC3 SWAP2 SWAP1 PUSH2 0x27DC JUMP JUMPDEST DUP2 PUSH1 0x2 DUP2 MLOAD DUP2 LT PUSH2 0x1CD7 JUMPI PUSH2 0x1CD6 PUSH2 0x2AD2 JUMP JUMPDEST JUMPDEST PUSH1 0x20 MUL PUSH1 0x20 ADD ADD DUP2 DUP2 MSTORE POP POP PUSH1 0x2 PUSH0 SWAP1 SLOAD SWAP1 PUSH2 0x100 EXP SWAP1 DIV PUSH1 0xFF AND PUSH1 0xFF AND PUSH1 0xA PUSH2 0x1D01 SWAP2 SWAP1 PUSH2 0x2792 JUMP JUMPDEST PUSH3 0x26A9B PUSH2 0x1D0F SWAP2 SWAP1 PUSH2 0x27DC JUMP JUMPDEST DUP2 PUSH1 0x3 DUP2 MLOAD DUP2 LT PUSH2 0x1D23 JUMPI PUSH2 0x1D22 PUSH2 0x2AD2 JUMP JUMPDEST JUMPDEST PUSH1 0x20 MUL PUSH1 0x20 ADD ADD DUP2 DUP2 MSTORE POP POP PUSH1 0x2 PUSH0 SWAP1 SLOAD SWAP1 PUSH2 0x100 EXP SWAP1 DIV PUSH1 0xFF AND PUSH1 0xFF AND PUSH1 0xA PUSH2 0x1D4D SWAP2 SWAP1 PUSH2 0x2792 JUMP JUMPDEST PUSH3 0x32430 PUSH2 0x1D5B SWAP2 SWAP1 PUSH2 0x27DC JUMP JUMPDEST DUP2 PUSH1 0x4 DUP2 MLOAD DUP2 LT PUSH2 0x1D6F JUMPI PUSH2 0x1D6E PUSH2 0x2AD2 JUMP JUMPDEST JUMPDEST PUSH1 0x20 MUL PUSH1 0x20 ADD ADD DUP2 DUP2 MSTORE POP POP PUSH1 0x2 PUSH0 SWAP1 SLOAD SWAP1 PUSH2 0x100 EXP SWAP1 DIV PUSH1 0xFF AND PUSH1 0xFF AND PUSH1 0xA PUSH2 0x1D99 SWAP2 SWAP1 PUSH2 0x2792 JUMP JUMPDEST PUSH3 0x41572 PUSH2 0x1DA7 SWAP2 SWAP1 PUSH2 0x27DC JUMP JUMPDEST DUP2 PUSH1 0x5 DUP2 MLOAD DUP2 LT PUSH2 0x1DBB JUMPI PUSH2 0x1DBA PUSH2 0x2AD2 JUMP JUMPDEST JUMPDEST PUSH1 0x20 MUL PUSH1 0x20 ADD ADD DUP2 DUP2 MSTORE POP POP PUSH1 0x2 PUSH0 SWAP1 SLOAD SWAP1 PUSH2 0x100 EXP SWAP1 DIV PUSH1 0xFF AND PUSH1 0xFF AND PUSH1 0xA PUSH2 0x1DE5 SWAP2 SWAP1 PUSH2 0x2792 JUMP JUMPDEST PUSH3 0x54F14 PUSH2 0x1DF3 SWAP2 SWAP1 PUSH2 0x27DC JUMP JUMPDEST DUP2 PUSH1 0x6 DUP2 MLOAD DUP2 LT PUSH2 0x1E07 JUMPI PUSH2 0x1E06 PUSH2 0x2AD2 JUMP JUMPDEST JUMPDEST PUSH1 0x20 MUL PUSH1 0x20 ADD ADD DUP2 DUP2 MSTORE POP POP PUSH1 0x2 PUSH0 SWAP1 SLOAD SWAP1 PUSH2 0x100 EXP SWAP1 DIV PUSH1 0xFF AND PUSH1 0xFF AND PUSH1 0xA PUSH2 0x1E31 SWAP2 SWAP1 PUSH2 0x2792 JUMP JUMPDEST PUSH3 0x6E6CD PUSH2 0x1E3F SWAP2 SWAP1 PUSH2 0x27DC JUMP JUMPDEST DUP2 PUSH1 0x7 DUP2 MLOAD DUP2 LT PUSH2 0x1E53 JUMPI PUSH2 0x1E52 PUSH2 0x2AD2 JUMP JUMPDEST JUMPDEST PUSH1 0x20 MUL PUSH1 0x20 ADD ADD DUP2 DUP2 MSTORE POP POP PUSH1 0x2 PUSH0 SWAP1 SLOAD SWAP1 PUSH2 0x100 EXP SWAP1 DIV PUSH1 0xFF AND PUSH1 0xFF AND PUSH1 0xA PUSH2 0x1E7D SWAP2 SWAP1 PUSH2 0x2792 JUMP JUMPDEST PUSH3 0x8F8D8 PUSH2 0x1E8B SWAP2 SWAP1 PUSH2 0x27DC JUMP JUMPDEST DUP2 PUSH1 0x8 DUP2 MLOAD DUP2 LT PUSH2 0x1E9F JUMPI PUSH2 0x1E9E PUSH2 0x2AD2 JUMP JUMPDEST JUMPDEST PUSH1 0x20 MUL PUSH1 0x20 ADD ADD DUP2 DUP2 MSTORE POP POP PUSH1 0x2 PUSH0 SWAP1 SLOAD SWAP1 PUSH2 0x100 EXP SWAP1 DIV PUSH1 0xFF AND PUSH1 0xFF AND PUSH1 0xA PUSH2 0x1EC9 SWAP2 SWAP1 PUSH2 0x2792 JUMP JUMPDEST PUSH3 0xBA9E6 PUSH2 0x1ED7 SWAP2 SWAP1 PUSH2 0x27DC JUMP JUMPDEST DUP2 PUSH1 0x9 DUP2 MLOAD DUP2 LT PUSH2 0x1EEB JUMPI PUSH2 0x1EEA PUSH2 0x2AD2 JUMP JUMPDEST JUMPDEST PUSH1 0x20 MUL PUSH1 0x20 ADD ADD DUP2 DUP2 MSTORE POP POP PUSH1 0xB SLOAD DUP3 GT ISZERO PUSH2 0x2062 JUMPI PUSH0 DUP1 PUSH1 0xB SLOAD SWAP1 POP JUMPDEST DUP4 DUP2 LT ISZERO PUSH2 0x1F46 JUMPI DUP3 DUP2 DUP2 MLOAD DUP2 LT PUSH2 0x1F24 JUMPI PUSH2 0x1F23 PUSH2 0x2AD2 JUMP JUMPDEST JUMPDEST PUSH1 0x20 MUL PUSH1 0x20 ADD ADD MLOAD DUP3 PUSH2 0x1F37 SWAP2 SWAP1 PUSH2 0x28AD JUMP JUMPDEST SWAP2 POP DUP1 DUP1 PUSH1 0x1 ADD SWAP2 POP POP PUSH2 0x1F09 JUMP JUMPDEST POP DUP3 PUSH1 0xB DUP2 SWAP1 SSTORE POP DUP1 PUSH1 0x6 PUSH0 PUSH1 0x5 PUSH0 SWAP1 SLOAD SWAP1 PUSH2 0x100 EXP SWAP1 DIV PUSH20 0xFFFFFFFFFFFFFFFFFFFFFFFFFFFFFFFFFFFFFFFF AND PUSH20 0xFFFFFFFFFFFFFFFFFFFFFFFFFFFFFFFFFFFFFFFF AND PUSH20 0xFFFFFFFFFFFFFFFFFFFFFFFFFFFFFFFFFFFFFFFF AND DUP2 MSTORE PUSH1 0x20 ADD SWAP1 DUP2 MSTORE PUSH1 0x20 ADD PUSH0 KECCAK256 PUSH0 DUP3 DUP3 SLOAD PUSH2 0x1FBB SWAP2 SWAP1 PUSH2 0x28AD JUMP JUMPDEST SWAP3 POP POP DUP2 SWAP1 SSTORE POP DUP1 PUSH1 0x4 PUSH0 DUP3 DUP3 SLOAD PUSH2 0x1FD3 SWAP2 SWAP1 PUSH2 0x287A JUMP JUMPDEST SWAP3 POP POP DUP2 SWAP1 SSTORE POP PUSH1 0x5 PUSH0 SWAP1 SLOAD SWAP1 PUSH2 0x100 EXP SWAP1 DIV PUSH20 0xFFFFFFFFFFFFFFFFFFFFFFFFFFFFFFFFFFFFFFFF AND PUSH20 0xFFFFFFFFFFFFFFFFFFFFFFFFFFFFFFFFFFFFFFFF AND ADDRESS PUSH20 0xFFFFFFFFFFFFFFFFFFFFFFFFFFFFFFFFFFFFFFFF AND PUSH32 0xDDF252AD1BE2C89B69C2B068FC378DAA952BA7F163C4A11628F55A4DF523B3EF DUP4 PUSH1 0x40 MLOAD PUSH2 0x2058 SWAP2 SWAP1 PUSH2 0x2256 JUMP JUMPDEST PUSH1 0x40 MLOAD DUP1 SWAP2 SUB SWAP1 LOG3 POP JUMPDEST POP POP POP POP JUMP JUMPDEST PUSH1 0xA SLOAD DUP2 JUMP JUMPDEST PUSH0 DUP1 REVERT JUMPDEST PUSH0 PUSH20 0xFFFFFFFFFFFFFFFFFFFFFFFFFFFFFFFFFFFFFFFF DUP3 AND SWAP1 POP SWAP2 SWAP1 POP JUMP JUMPDEST PUSH0 PUSH2 0x209B DUP3 PUSH2 0x2072 JUMP JUMPDEST SWAP1 POP SWAP2 SWAP1 POP JUMP JUMPDEST PUSH2 0x20AB DUP2 PUSH2 0x2091 JUMP JUMPDEST DUP2 EQ PUSH2 0x20B5 JUMPI PUSH0 DUP1 REVERT JUMPDEST POP JUMP JUMPDEST PUSH0 DUP2 CALLDATALOAD SWAP1 POP PUSH2 0x20C6 DUP2 PUSH2 0x20A2 JUMP JUMPDEST SWAP3 SWAP2 POP POP JUMP JUMPDEST PUSH0 DUP2 SWAP1 POP SWAP2 SWAP1 POP JUMP JUMPDEST PUSH2 0x20DE DUP2 PUSH2 0x20CC JUMP JUMPDEST DUP2 EQ PUSH2 0x20E8 JUMPI PUSH0 DUP1 REVERT JUMPDEST POP JUMP JUMPDEST PUSH0 DUP2 CALLDATALOAD SWAP1 POP PUSH2 0x20F9 DUP2 PUSH2 0x20D5 JUMP JUMPDEST SWAP3 SWAP2 POP POP JUMP JUMPDEST PUSH0 DUP1 PUSH0 DUP1 PUSH0 PUSH1 0xA0 DUP7 DUP9 SUB SLT ISZERO PUSH2 0x2118 JUMPI PUSH2 0x2117 PUSH2 0x206E JUMP JUMPDEST JUMPDEST PUSH0 PUSH2 0x2125 DUP9 DUP3 DUP10 ADD PUSH2 0x20B8 JUMP JUMPDEST SWAP6 POP POP PUSH1 0x20 PUSH2 0x2136 DUP9 DUP3 DUP10 ADD PUSH2 0x20B8 JUMP JUMPDEST SWAP5 POP POP PUSH1 0x40 PUSH2 0x2147 DUP9 DUP3 DUP10 ADD PUSH2 0x20EB JUMP JUMPDEST SWAP4 POP POP PUSH1 0x60 PUSH2 0x2158 DUP9 DUP3 DUP10 ADD PUSH2 0x20EB JUMP JUMPDEST SWAP3 POP POP PUSH1 0x80 PUSH2 0x2169 DUP9 DUP3 DUP10 ADD PUSH2 0x20EB JUMP JUMPDEST SWAP2 POP POP SWAP3 SWAP6 POP SWAP3 SWAP6 SWAP1 SWAP4 POP JUMP JUMPDEST PUSH2 0x217F DUP2 PUSH2 0x20CC JUMP JUMPDEST DUP3 MSTORE POP POP JUMP JUMPDEST PUSH0 PUSH1 0x40 DUP3 ADD SWAP1 POP PUSH2 0x2198 PUSH0 DUP4 ADD DUP6 PUSH2 0x2176 JUMP JUMPDEST PUSH2 0x21A5 PUSH1 0x20 DUP4 ADD DUP5 PUSH2 0x2176 JUMP JUMPDEST SWAP4 SWAP3 POP POP POP JUMP JUMPDEST PUSH0 DUP2 MLOAD SWAP1 POP SWAP2 SWAP1 POP JUMP JUMPDEST PUSH0 DUP3 DUP3 MSTORE PUSH1 0x20 DUP3 ADD SWAP1 POP SWAP3 SWAP2 POP POP JUMP JUMPDEST PUSH0 JUMPDEST DUP4 DUP2 LT ISZERO PUSH2 0x21E3 JUMPI DUP1 DUP3 ADD MLOAD DUP2 DUP5 ADD MSTORE PUSH1 0x20 DUP2 ADD SWAP1 POP PUSH2 0x21C8 JUMP JUMPDEST PUSH0 DUP5 DUP5 ADD MSTORE POP POP POP POP JUMP JUMPDEST PUSH0 PUSH1 0x1F NOT PUSH1 0x1F DUP4 ADD AND SWAP1 POP SWAP2 SWAP1 POP JUMP JUMPDEST PUSH0 PUSH2 0x2208 DUP3 PUSH2 0x21AC JUMP JUMPDEST PUSH2 0x2212 DUP2 DUP6 PUSH2 0x21B6 JUMP JUMPDEST SWAP4 POP PUSH2 0x2222 DUP2 DUP6 PUSH1 0x20 DUP7 ADD PUSH2 0x21C6 JUMP JUMPDEST PUSH2 0x222B DUP2 PUSH2 0x21EE JUMP JUMPDEST DUP5 ADD SWAP2 POP POP SWAP3 SWAP2 POP POP JUMP JUMPDEST PUSH0 PUSH1 0x20 DUP3 ADD SWAP1 POP DUP2 DUP2 SUB PUSH0 DUP4 ADD MSTORE PUSH2 0x224E DUP2 DUP5 PUSH2 0x21FE JUMP JUMPDEST SWAP1 POP SWAP3 SWAP2 POP POP JUMP JUMPDEST PUSH0 PUSH1 0x20 DUP3 ADD SWAP1 POP PUSH2 0x2269 PUSH0 DUP4 ADD DUP5 PUSH2 0x2176 JUMP JUMPDEST SWAP3 SWAP2 POP POP JUMP JUMPDEST PUSH0 PUSH1 0x20 DUP3 DUP5 SUB SLT ISZERO PUSH2 0x2284 JUMPI PUSH2 0x2283 PUSH2 0x206E JUMP JUMPDEST JUMPDEST PUSH0 PUSH2 0x2291 DUP5 DUP3 DUP6 ADD PUSH2 0x20EB JUMP JUMPDEST SWAP2 POP POP SWAP3 SWAP2 POP POP JUMP JUMPDEST PUSH0 DUP2 ISZERO ISZERO SWAP1 POP SWAP2 SWAP1 POP JUMP JUMPDEST PUSH2 0x22AE DUP2 PUSH2 0x229A JUMP JUMPDEST DUP3 MSTORE POP POP JUMP JUMPDEST PUSH0 PUSH1 0x20 DUP3 ADD SWAP1 POP PUSH2 0x22C7 PUSH0 DUP4 ADD DUP5 PUSH2 0x22A5 JUMP JUMPDEST SWAP3 SWAP2 POP POP JUMP JUMPDEST PUSH0 PUSH1 0xFF DUP3 AND SWAP1 POP SWAP2 SWAP1 POP JUMP JUMPDEST PUSH2 0x22E2 DUP2 PUSH2 0x22CD JUMP JUMPDEST DUP3 MSTORE POP POP JUMP JUMPDEST PUSH0 PUSH1 0x20 DUP3 ADD SWAP1 POP PUSH2 0x22FB PUSH0 DUP4 ADD DUP5 PUSH2 0x22D9 JUMP JUMPDEST SWAP3 SWAP2 POP POP JUMP JUMPDEST PUSH2 0x230A DUP2 PUSH2 0x2091 JUMP JUMPDEST DUP3 MSTORE POP POP JUMP JUMPDEST PUSH0 PUSH1 0x20 DUP3 ADD SWAP1 POP PUSH2 0x2323 PUSH0 DUP4 ADD DUP5 PUSH2 0x2301 JUMP JUMPDEST SWAP3 SWAP2 POP POP JUMP JUMPDEST PUSH0 DUP1 PUSH0 PUSH1 0x60 DUP5 DUP7 SUB SLT ISZERO PUSH2 0x2340 JUMPI PUSH2 0x233F PUSH2 0x206E JUMP JUMPDEST JUMPDEST PUSH0 PUSH2 0x234D DUP7 DUP3 DUP8 ADD PUSH2 0x20B8 JUMP JUMPDEST SWAP4 POP POP PUSH1 0x20 PUSH2 0x235E DUP7 DUP3 DUP8 ADD PUSH2 0x20B8 JUMP JUMPDEST SWAP3 POP POP PUSH1 0x40 PUSH2 0x236F DUP7 DUP3 DUP8 ADD PUSH2 0x20EB JUMP JUMPDEST SWAP2 POP POP SWAP3 POP SWAP3 POP SWAP3 JUMP JUMPDEST PUSH0 PUSH1 0x20 DUP3 DUP5 SUB SLT ISZERO PUSH2 0x238E JUMPI PUSH2 0x238D PUSH2 0x206E JUMP JUMPDEST JUMPDEST PUSH0 PUSH2 0x239B DUP5 DUP3 DUP6 ADD PUSH2 0x20B8 JUMP JUMPDEST SWAP2 POP POP SWAP3 SWAP2 POP POP JUMP JUMPDEST PUSH0 DUP1 PUSH1 0x40 DUP4 DUP6 SUB SLT ISZERO PUSH2 0x23BA JUMPI PUSH2 0x23B9 PUSH2 0x206E JUMP JUMPDEST JUMPDEST PUSH0 PUSH2 0x23C7 DUP6 DUP3 DUP7 ADD PUSH2 0x20B8 JUMP JUMPDEST SWAP3 POP POP PUSH1 0x20 PUSH2 0x23D8 DUP6 DUP3 DUP7 ADD PUSH2 0x20EB JUMP JUMPDEST SWAP2 POP POP SWAP3 POP SWAP3 SWAP1 POP JUMP JUMPDEST PUSH32 0x4F6E6C7920636F6E7472616374206F776E65722063616E2063616C6C20746869 PUSH0 DUP3 ADD MSTORE PUSH32 0x732066756E6374696F6E00000000000000000000000000000000000000000000 PUSH1 0x20 DUP3 ADD MSTORE POP JUMP JUMPDEST PUSH0 PUSH2 0x243C PUSH1 0x2A DUP4 PUSH2 0x21B6 JUMP JUMPDEST SWAP2 POP PUSH2 0x2447 DUP3 PUSH2 0x23E2 JUMP JUMPDEST PUSH1 0x40 DUP3 ADD SWAP1 POP SWAP2 SWAP1 POP JUMP JUMPDEST PUSH0 PUSH1 0x20 DUP3 ADD SWAP1 POP DUP2 DUP2 SUB PUSH0 DUP4 ADD MSTORE PUSH2 0x2469 DUP2 PUSH2 0x2430 JUMP JUMPDEST SWAP1 POP SWAP2 SWAP1 POP JUMP JUMPDEST PUSH32 0x496E76616C696420616464726573730000000000000000000000000000000000 PUSH0 DUP3 ADD MSTORE POP JUMP JUMPDEST PUSH0 PUSH2 0x24A4 PUSH1 0xF DUP4 PUSH2 0x21B6 JUMP JUMPDEST SWAP2 POP PUSH2 0x24AF DUP3 PUSH2 0x2470 JUMP JUMPDEST PUSH1 0x20 DUP3 ADD SWAP1 POP SWAP2 SWAP1 POP JUMP JUMPDEST PUSH0 PUSH1 0x20 DUP3 ADD SWAP1 POP DUP2 DUP2 SUB PUSH0 DUP4 ADD MSTORE PUSH2 0x24D1 DUP2 PUSH2 0x2498 JUMP JUMPDEST SWAP1 POP SWAP2 SWAP1 POP JUMP JUMPDEST PUSH32 0x496E76616C6964206672616374696F6E2070657263656E746167650000000000 PUSH0 DUP3 ADD MSTORE POP JUMP JUMPDEST PUSH0 PUSH2 0x250C PUSH1 0x1B DUP4 PUSH2 0x21B6 JUMP JUMPDEST SWAP2 POP PUSH2 0x2517 DUP3 PUSH2 0x24D8 JUMP JUMPDEST PUSH1 0x20 DUP3 ADD SWAP1 POP SWAP2 SWAP1 POP JUMP JUMPDEST PUSH0 PUSH1 0x20 DUP3 ADD SWAP1 POP DUP2 DUP2 SUB PUSH0 DUP4 ADD MSTORE PUSH2 0x2539 DUP2 PUSH2 0x2500 JUMP JUMPDEST SWAP1 POP SWAP2 SWAP1 POP JUMP JUMPDEST PUSH32 0x496E73756666696369656E742062616C616E636520696E2070726F6A65637420 PUSH0 DUP3 ADD MSTORE PUSH32 0x77616C6C65740000000000000000000000000000000000000000000000000000 PUSH1 0x20 DUP3 ADD MSTORE POP JUMP JUMPDEST PUSH0 PUSH2 0x259A PUSH1 0x26 DUP4 PUSH2 0x21B6 JUMP JUMPDEST SWAP2 POP PUSH2 0x25A5 DUP3 PUSH2 0x2540 JUMP JUMPDEST PUSH1 0x40 DUP3 ADD SWAP1 POP SWAP2 SWAP1 POP JUMP JUMPDEST PUSH0 PUSH1 0x20 DUP3 ADD SWAP1 POP DUP2 DUP2 SUB PUSH0 DUP4 ADD MSTORE PUSH2 0x25C7 DUP2 PUSH2 0x258E JUMP JUMPDEST SWAP1 POP SWAP2 SWAP1 POP JUMP JUMPDEST PUSH32 0x496E76616C696420616D6F756E74000000000000000000000000000000000000 PUSH0 DUP3 ADD MSTORE POP JUMP JUMPDEST PUSH0 PUSH2 0x2602 PUSH1 0xE DUP4 PUSH2 0x21B6 JUMP JUMPDEST SWAP2 POP PUSH2 0x260D DUP3 PUSH2 0x25CE JUMP JUMPDEST PUSH1 0x20 DUP3 ADD SWAP1 POP SWAP2 SWAP1 POP JUMP JUMPDEST PUSH0 PUSH1 0x20 DUP3 ADD SWAP1 POP DUP2 DUP2 SUB PUSH0 DUP4 ADD MSTORE PUSH2 0x262F DUP2 PUSH2 0x25F6 JUMP JUMPDEST SWAP1 POP SWAP2 SWAP1 POP JUMP JUMPDEST PUSH32 0x4E487B7100000000000000000000000000000000000000000000000000000000 PUSH0 MSTORE PUSH1 0x11 PUSH1 0x4 MSTORE PUSH1 0x24 PUSH0 REVERT JUMPDEST PUSH0 DUP2 PUSH1 0x1 SHR SWAP1 POP SWAP2 SWAP1 POP JUMP JUMPDEST PUSH0 DUP1 DUP3 SWAP2 POP DUP4 SWAP1 POP JUMPDEST PUSH1 0x1 DUP6 GT ISZERO PUSH2 0x26B8 JUMPI DUP1 DUP7 DIV DUP2 GT ISZERO PUSH2 0x2694 JUMPI PUSH2 0x2693 PUSH2 0x2636 JUMP JUMPDEST JUMPDEST PUSH1 0x1 DUP6 AND ISZERO PUSH2 0x26A3 JUMPI DUP1 DUP3 MUL SWAP2 POP JUMPDEST DUP1 DUP2 MUL SWAP1 POP PUSH2 0x26B1 DUP6 PUSH2 0x2663 JUMP JUMPDEST SWAP5 POP PUSH2 0x2678 JUMP JUMPDEST SWAP5 POP SWAP5 SWAP3 POP POP POP JUMP JUMPDEST PUSH0 DUP3 PUSH2 0x26D0 JUMPI PUSH1 0x1 SWAP1 POP PUSH2 0x278B JUMP JUMPDEST DUP2 PUSH2 0x26DD JUMPI PUSH0 SWAP1 POP PUSH2 0x278B JUMP JUMPDEST DUP2 PUSH1 0x1 DUP2 EQ PUSH2 0x26F3 JUMPI PUSH1 0x2 DUP2 EQ PUSH2 0x26FD JUMPI PUSH2 0x272C JUMP JUMPDEST PUSH1 0x1 SWAP2 POP POP PUSH2 0x278B JUMP JUMPDEST PUSH1 0xFF DUP5 GT ISZERO PUSH2 0x270F JUMPI PUSH2 0x270E PUSH2 0x2636 JUMP JUMPDEST JUMPDEST DUP4 PUSH1 0x2 EXP SWAP2 POP DUP5 DUP3 GT ISZERO PUSH2 0x2726 JUMPI PUSH2 0x2725 PUSH2 0x2636 JUMP JUMPDEST JUMPDEST POP PUSH2 0x278B JUMP JUMPDEST POP PUSH1 0x20 DUP4 LT PUSH2 0x133 DUP4 LT AND PUSH1 0x4E DUP5 LT PUSH1 0xB DUP5 LT AND OR ISZERO PUSH2 0x2761 JUMPI DUP3 DUP3 EXP SWAP1 POP DUP4 DUP2 GT ISZERO PUSH2 0x275C JUMPI PUSH2 0x275B PUSH2 0x2636 JUMP JUMPDEST JUMPDEST PUSH2 0x278B JUMP JUMPDEST PUSH2 0x276E DUP5 DUP5 DUP5 PUSH1 0x1 PUSH2 0x266F JUMP JUMPDEST SWAP3 POP SWAP1 POP DUP2 DUP5 DIV DUP2 GT ISZERO PUSH2 0x2785 JUMPI PUSH2 0x2784 PUSH2 0x2636 JUMP JUMPDEST JUMPDEST DUP2 DUP2 MUL SWAP1 POP JUMPDEST SWAP4 SWAP3 POP POP POP JUMP JUMPDEST PUSH0 PUSH2 0x279C DUP3 PUSH2 0x20CC JUMP JUMPDEST SWAP2 POP PUSH2 0x27A7 DUP4 PUSH2 0x20CC JUMP JUMPDEST SWAP3 POP PUSH2 0x27D4 PUSH32 0xFFFFFFFFFFFFFFFFFFFFFFFFFFFFFFFFFFFFFFFFFFFFFFFFFFFFFFFFFFFFFFFF DUP5 DUP5 PUSH2 0x26C1 JUMP JUMPDEST SWAP1 POP SWAP3 SWAP2 POP POP JUMP JUMPDEST PUSH0 PUSH2 0x27E6 DUP3 PUSH2 0x20CC JUMP JUMPDEST SWAP2 POP PUSH2 0x27F1 DUP4 PUSH2 0x20CC JUMP JUMPDEST SWAP3 POP DUP3 DUP3 MUL PUSH2 0x27FF DUP2 PUSH2 0x20CC JUMP JUMPDEST SWAP2 POP DUP3 DUP3 DIV DUP5 EQ DUP4 ISZERO OR PUSH2 0x2816 JUMPI PUSH2 0x2815 PUSH2 0x2636 JUMP JUMPDEST JUMPDEST POP SWAP3 SWAP2 POP POP JUMP JUMPDEST PUSH32 0x4E487B7100000000000000000000000000000000000000000000000000000000 PUSH0 MSTORE PUSH1 0x12 PUSH1 0x4 MSTORE PUSH1 0x24 PUSH0 REVERT JUMPDEST PUSH0 PUSH2 0x2854 DUP3 PUSH2 0x20CC JUMP JUMPDEST SWAP2 POP PUSH2 0x285F DUP4 PUSH2 0x20CC JUMP JUMPDEST SWAP3 POP DUP3 PUSH2 0x286F JUMPI PUSH2 0x286E PUSH2 0x281D JUMP JUMPDEST JUMPDEST DUP3 DUP3 DIV SWAP1 POP SWAP3 SWAP2 POP POP JUMP JUMPDEST PUSH0 PUSH2 0x2884 DUP3 PUSH2 0x20CC JUMP JUMPDEST SWAP2 POP PUSH2 0x288F DUP4 PUSH2 0x20CC JUMP JUMPDEST SWAP3 POP DUP3 DUP3 SUB SWAP1 POP DUP2 DUP2 GT ISZERO PUSH2 0x28A7 JUMPI PUSH2 0x28A6 PUSH2 0x2636 JUMP JUMPDEST JUMPDEST SWAP3 SWAP2 POP POP JUMP JUMPDEST PUSH0 PUSH2 0x28B7 DUP3 PUSH2 0x20CC JUMP JUMPDEST SWAP2 POP PUSH2 0x28C2 DUP4 PUSH2 0x20CC JUMP JUMPDEST SWAP3 POP DUP3 DUP3 ADD SWAP1 POP DUP1 DUP3 GT ISZERO PUSH2 0x28DA JUMPI PUSH2 0x28D9 PUSH2 0x2636 JUMP JUMPDEST JUMPDEST SWAP3 SWAP2 POP POP JUMP JUMPDEST PUSH32 0x546F6B656E7320617265207374696C6C206C6F636B6564000000000000000000 PUSH0 DUP3 ADD MSTORE POP JUMP JUMPDEST PUSH0 PUSH2 0x2914 PUSH1 0x17 DUP4 PUSH2 0x21B6 JUMP JUMPDEST SWAP2 POP PUSH2 0x291F DUP3 PUSH2 0x28E0 JUMP JUMPDEST PUSH1 0x20 DUP3 ADD SWAP1 POP SWAP2 SWAP1 POP JUMP JUMPDEST PUSH0 PUSH1 0x20 DUP3 ADD SWAP1 POP DUP2 DUP2 SUB PUSH0 DUP4 ADD MSTORE PUSH2 0x2941 DUP2 PUSH2 0x2908 JUMP JUMPDEST SWAP1 POP SWAP2 SWAP1 POP JUMP JUMPDEST PUSH0 PUSH2 0x2952 DUP3 PUSH2 0x20CC JUMP JUMPDEST SWAP2 POP PUSH2 0x295D DUP4 PUSH2 0x20CC JUMP JUMPDEST SWAP3 POP DUP3 PUSH2 0x296D JUMPI PUSH2 0x296C PUSH2 0x281D JUMP JUMPDEST JUMPDEST DUP3 DUP3 MOD SWAP1 POP SWAP3 SWAP2 POP POP JUMP JUMPDEST PUSH32 0x4E487B7100000000000000000000000000000000000000000000000000000000 PUSH0 MSTORE PUSH1 0x22 PUSH1 0x4 MSTORE PUSH1 0x24 PUSH0 REVERT JUMPDEST PUSH0 PUSH1 0x2 DUP3 DIV SWAP1 POP PUSH1 0x1 DUP3 AND DUP1 PUSH2 0x29BC JUMPI PUSH1 0x7F DUP3 AND SWAP2 POP JUMPDEST PUSH1 0x20 DUP3 LT DUP2 SUB PUSH2 0x29CF JUMPI PUSH2 0x29CE PUSH2 0x2978 JUMP JUMPDEST JUMPDEST POP SWAP2 SWAP1 POP JUMP JUMPDEST PUSH32 0x496E73756666696369656E742062616C616E6365000000000000000000000000 PUSH0 DUP3 ADD MSTORE POP JUMP JUMPDEST PUSH0 PUSH2 0x2A09 PUSH1 0x14 DUP4 PUSH2 0x21B6 JUMP JUMPDEST SWAP2 POP PUSH2 0x2A14 DUP3 PUSH2 0x29D5 JUMP JUMPDEST PUSH1 0x20 DUP3 ADD SWAP1 POP SWAP2 SWAP1 POP JUMP JUMPDEST PUSH0 PUSH1 0x20 DUP3 ADD SWAP1 POP DUP2 DUP2 SUB PUSH0 DUP4 ADD MSTORE PUSH2 0x2A36 DUP2 PUSH2 0x29FD JUMP JUMPDEST SWAP1 POP SWAP2 SWAP1 POP JUMP JUMPDEST PUSH32 0x416C6C20746F6B656E7320756E6C6F636B656400000000000000000000000000 PUSH0 DUP3 ADD MSTORE POP JUMP JUMPDEST PUSH0 PUSH2 0x2A71 PUSH1 0x13 DUP4 PUSH2 0x21B6 JUMP JUMPDEST SWAP2 POP PUSH2 0x2A7C DUP3 PUSH2 0x2A3D JUMP JUMPDEST PUSH1 0x20 DUP3 ADD SWAP1 POP SWAP2 SWAP1 POP JUMP JUMPDEST PUSH0 PUSH1 0x20 DUP3 ADD SWAP1 POP DUP2 DUP2 SUB PUSH0 DUP4 ADD MSTORE PUSH2 0x2A9E DUP2 PUSH2 0x2A65 JUMP JUMPDEST SWAP1 POP SWAP2 SWAP1 POP JUMP JUMPDEST PUSH32 0x4E487B7100000000000000000000000000000000000000000000000000000000 PUSH0 MSTORE PUSH1 0x41 PUSH1 0x4 MSTORE PUSH1 0x24 PUSH0 REVERT JUMPDEST PUSH32 0x4E487B7100000000000000000000000000000000000000000000000000000000 PUSH0 MSTORE PUSH1 0x32 PUSH1 0x4 MSTORE PUSH1 0x24 PUSH0 REVERT INVALID LOG2 PUSH5 0x6970667358 0x22 SLT KECCAK256 0xB3 0xDF 0x24 MLOAD 0xF9 DUP9 DUP3 0xF8 DUP10 0xD4 PUSH31 0xFB13559BAF201D45E884AAC078296AF761588EEF64736F6C634300081800 CALLER "
				},
				"gasEstimates": {
					"creation": {
						"codeDepositCost": "2212200",
						"executionCost": "infinite",
						"totalCost": "infinite"
					},
					"external": {
						"airdropMint()": "2469",
						"balanceOf(address)": "2913",
						"borrowerNotPickedUpReturnDeposit(address,address,uint256)": "infinite",
						"cancelOrderReturnDeposit(address,uint256)": "infinite",
						"decimals()": "2489",
						"getBalance(address)": "infinite",
						"getContractAddress()": "424",
						"initialMint()": "2470",
						"name()": "infinite",
						"nextUnlock()": "infinite",
						"owner()": "2641",
						"payDeposit(uint256)": "infinite",
						"projectWallet()": "2530",
						"remainingUnlockedTokens()": "2536",
						"returnDepositAndAirdrop(address,address,uint256,uint256,uint256)": "infinite",
						"symbol()": "infinite",
						"teamAllocation()": "2514",
						"totalSupply()": "2515",
						"transfer(address,uint256)": "infinite",
						"unlockStart()": "2557",
						"unlockTokens()": "infinite",
						"unlockedTokens()": "2514"
					}
				},
				"methodIdentifiers": {
					"airdropMint()": "e02767e9",
					"balanceOf(address)": "70a08231",
					"borrowerNotPickedUpReturnDeposit(address,address,uint256)": "507cc0ba",
					"cancelOrderReturnDeposit(address,uint256)": "e8187956",
					"decimals()": "313ce567",
					"getBalance(address)": "f8b2cb4f",
					"getContractAddress()": "32a2c5d0",
					"initialMint()": "9fc5ce2a",
					"name()": "06fdde03",
					"nextUnlock()": "02cb1244",
					"owner()": "8da5cb5b",
					"payDeposit(uint256)": "28cd3f18",
					"projectWallet()": "beb08ab9",
					"remainingUnlockedTokens()": "bb0c5c47",
					"returnDepositAndAirdrop(address,address,uint256,uint256,uint256)": "00f6ace7",
					"symbol()": "95d89b41",
					"teamAllocation()": "6816521a",
					"totalSupply()": "18160ddd",
					"transfer(address,uint256)": "a9059cbb",
					"unlockStart()": "fe1cce9c",
					"unlockTokens()": "f968f493",
					"unlockedTokens()": "abc88bda"
				}
			},
			"storageLayout": {
				"storage": [
					{
						"astId": 4,
						"contract": "contracts/ShareToken.sol:ShareToken",
						"label": "name",
						"offset": 0,
						"slot": "0",
						"type": "t_string_storage"
					},
					{
						"astId": 7,
						"contract": "contracts/ShareToken.sol:ShareToken",
						"label": "symbol",
						"offset": 0,
						"slot": "1",
						"type": "t_string_storage"
					},
					{
						"astId": 10,
						"contract": "contracts/ShareToken.sol:ShareToken",
						"label": "decimals",
						"offset": 0,
						"slot": "2",
						"type": "t_uint8"
					},
					{
						"astId": 20,
						"contract": "contracts/ShareToken.sol:ShareToken",
						"label": "totalSupply",
						"offset": 0,
						"slot": "3",
						"type": "t_uint256"
					},
					{
						"astId": 22,
						"contract": "contracts/ShareToken.sol:ShareToken",
						"label": "remainingUnlockedTokens",
						"offset": 0,
						"slot": "4",
						"type": "t_uint256"
					},
					{
						"astId": 26,
						"contract": "contracts/ShareToken.sol:ShareToken",
						"label": "projectWallet",
						"offset": 0,
						"slot": "5",
						"type": "t_address"
					},
					{
						"astId": 30,
						"contract": "contracts/ShareToken.sol:ShareToken",
						"label": "balanceOf",
						"offset": 0,
						"slot": "6",
						"type": "t_mapping(t_address,t_uint256)"
					},
					{
						"astId": 38,
						"contract": "contracts/ShareToken.sol:ShareToken",
						"label": "teamAllocation",
						"offset": 0,
						"slot": "7",
						"type": "t_uint256"
					},
					{
						"astId": 46,
						"contract": "contracts/ShareToken.sol:ShareToken",
						"label": "initialMint",
						"offset": 0,
						"slot": "8",
						"type": "t_uint256"
					},
					{
						"astId": 54,
						"contract": "contracts/ShareToken.sol:ShareToken",
						"label": "airdropMint",
						"offset": 0,
						"slot": "9",
						"type": "t_uint256"
					},
					{
						"astId": 56,
						"contract": "contracts/ShareToken.sol:ShareToken",
						"label": "unlockStart",
						"offset": 0,
						"slot": "10",
						"type": "t_uint256"
					},
					{
						"astId": 59,
						"contract": "contracts/ShareToken.sol:ShareToken",
						"label": "unlockedTokens",
						"offset": 0,
						"slot": "11",
						"type": "t_uint256"
					},
					{
						"astId": 61,
						"contract": "contracts/ShareToken.sol:ShareToken",
						"label": "owner",
						"offset": 0,
						"slot": "12",
						"type": "t_address"
					}
				],
				"types": {
					"t_address": {
						"encoding": "inplace",
						"label": "address",
						"numberOfBytes": "20"
					},
					"t_mapping(t_address,t_uint256)": {
						"encoding": "mapping",
						"key": "t_address",
						"label": "mapping(address => uint256)",
						"numberOfBytes": "32",
						"value": "t_uint256"
					},
					"t_string_storage": {
						"encoding": "bytes",
						"label": "string",
						"numberOfBytes": "32"
					},
					"t_uint256": {
						"encoding": "inplace",
						"label": "uint256",
						"numberOfBytes": "32"
					},
					"t_uint8": {
						"encoding": "inplace",
						"label": "uint8",
						"numberOfBytes": "1"
					}
				}
			},
			"userdoc": {
				"kind": "user",
				"methods": {},
				"version": 1
			}
		}
	}
}